{
	"contracts/GaslessDonationTracker.sol": {
		"GaslessDonationTracker": {
			"abi": [
				{
					"inputs": [
						{
							"internalType": "address",
							"name": "_beneficiary",
							"type": "address"
						}
					],
					"stateMutability": "nonpayable",
					"type": "constructor"
				},
				{
					"inputs": [],
					"name": "BelowMinimumDonation",
					"type": "error"
				},
				{
					"inputs": [],
					"name": "InvalidAddress",
					"type": "error"
				},
				{
					"inputs": [],
					"name": "NoFundsToWithdraw",
					"type": "error"
				},
				{
					"inputs": [],
					"name": "OnlyBeneficiary",
					"type": "error"
				},
				{
					"inputs": [],
					"name": "WithdrawalFailed",
					"type": "error"
				},
				{
					"anonymous": false,
					"inputs": [
						{
							"indexed": true,
							"internalType": "address",
							"name": "oldBeneficiary",
							"type": "address"
						},
						{
							"indexed": true,
							"internalType": "address",
							"name": "newBeneficiary",
							"type": "address"
						}
					],
					"name": "BeneficiaryChanged",
					"type": "event"
				},
				{
					"anonymous": false,
					"inputs": [
						{
							"indexed": true,
							"internalType": "address",
							"name": "donor",
							"type": "address"
						},
						{
							"indexed": false,
							"internalType": "uint256",
							"name": "amount",
							"type": "uint256"
						},
						{
							"indexed": false,
							"internalType": "uint256",
							"name": "timestamp",
							"type": "uint256"
						},
						{
							"indexed": false,
							"internalType": "string",
							"name": "message",
							"type": "string"
						}
					],
					"name": "DonationReceived",
					"type": "event"
				},
				{
					"anonymous": false,
					"inputs": [
						{
							"indexed": true,
							"internalType": "address",
							"name": "beneficiary",
							"type": "address"
						},
						{
							"indexed": false,
							"internalType": "uint256",
							"name": "amount",
							"type": "uint256"
						}
					],
					"name": "FundsWithdrawn",
					"type": "event"
				},
				{
					"anonymous": false,
					"inputs": [
						{
							"indexed": true,
							"internalType": "address",
							"name": "contributor",
							"type": "address"
						},
						{
							"indexed": false,
							"internalType": "uint256",
							"name": "timestamp",
							"type": "uint256"
						},
						{
							"indexed": false,
							"internalType": "string",
							"name": "message",
							"type": "string"
						}
					],
					"name": "GaslessContribution",
					"type": "event"
				},
				{
					"anonymous": false,
					"inputs": [
						{
							"indexed": false,
							"internalType": "uint256",
							"name": "newMinimum",
							"type": "uint256"
						}
					],
					"name": "MinDonationUpdated",
					"type": "event"
				},
				{
					"inputs": [
						{
							"internalType": "string[]",
							"name": "messages",
							"type": "string[]"
						}
					],
					"name": "batchTrackContributions",
					"outputs": [],
					"stateMutability": "nonpayable",
					"type": "function"
				},
				{
					"inputs": [],
					"name": "beneficiary",
					"outputs": [
						{
							"internalType": "address",
							"name": "",
							"type": "address"
						}
					],
					"stateMutability": "view",
					"type": "function"
				},
				{
					"inputs": [
						{
							"internalType": "address",
							"name": "newBeneficiary",
							"type": "address"
						}
					],
					"name": "changeBeneficiary",
					"outputs": [],
					"stateMutability": "nonpayable",
					"type": "function"
				},
				{
					"inputs": [
						{
							"internalType": "string",
							"name": "message",
							"type": "string"
						}
					],
					"name": "donate",
					"outputs": [],
					"stateMutability": "payable",
					"type": "function"
				},
				{
					"inputs": [
						{
							"internalType": "uint256",
							"name": "",
							"type": "uint256"
						}
					],
					"name": "donations",
					"outputs": [
						{
							"internalType": "address",
							"name": "donor",
							"type": "address"
						},
						{
							"internalType": "uint256",
							"name": "amount",
							"type": "uint256"
						},
						{
							"internalType": "uint256",
							"name": "timestamp",
							"type": "uint256"
						},
						{
							"internalType": "string",
							"name": "message",
							"type": "string"
						},
						{
							"internalType": "bool",
							"name": "isPaid",
							"type": "bool"
						}
					],
					"stateMutability": "view",
					"type": "function"
				},
				{
					"inputs": [
						{
							"internalType": "address",
							"name": "",
							"type": "address"
						}
					],
					"name": "donorStats",
					"outputs": [
						{
							"internalType": "uint256",
							"name": "totalDonated",
							"type": "uint256"
						},
						{
							"internalType": "uint256",
							"name": "donationCount",
							"type": "uint256"
						},
						{
							"internalType": "uint256",
							"name": "gaslessCount",
							"type": "uint256"
						},
						{
							"internalType": "uint256",
							"name": "lastDonationTime",
							"type": "uint256"
						}
					],
					"stateMutability": "view",
					"type": "function"
				},
				{
					"inputs": [
						{
							"internalType": "uint256",
							"name": "",
							"type": "uint256"
						}
					],
					"name": "donors",
					"outputs": [
						{
							"internalType": "address",
							"name": "",
							"type": "address"
						}
					],
					"stateMutability": "view",
					"type": "function"
				},
				{
					"inputs": [],
					"name": "getBalance",
					"outputs": [
						{
							"internalType": "uint256",
							"name": "",
							"type": "uint256"
						}
					],
					"stateMutability": "view",
					"type": "function"
				},
				{
					"inputs": [
						{
							"internalType": "uint256",
							"name": "index",
							"type": "uint256"
						}
					],
					"name": "getDonation",
					"outputs": [
						{
							"internalType": "address",
							"name": "donor",
							"type": "address"
						},
						{
							"internalType": "uint256",
							"name": "amount",
							"type": "uint256"
						},
						{
							"internalType": "uint256",
							"name": "timestamp",
							"type": "uint256"
						},
						{
							"internalType": "string",
							"name": "message",
							"type": "string"
						},
						{
							"internalType": "bool",
							"name": "isPaid",
							"type": "bool"
						}
					],
					"stateMutability": "view",
					"type": "function"
				},
				{
					"inputs": [],
					"name": "getDonationCount",
					"outputs": [
						{
							"internalType": "uint256",
							"name": "",
							"type": "uint256"
						}
					],
					"stateMutability": "view",
					"type": "function"
				},
				{
					"inputs": [
						{
							"internalType": "address",
							"name": "donor",
							"type": "address"
						}
					],
					"name": "getDonationsByDonor",
					"outputs": [
						{
							"internalType": "uint256[]",
							"name": "",
							"type": "uint256[]"
						}
					],
					"stateMutability": "view",
					"type": "function"
				},
				{
					"inputs": [
						{
							"internalType": "address",
							"name": "donor",
							"type": "address"
						}
					],
					"name": "getDonorStats",
					"outputs": [
						{
							"internalType": "uint256",
							"name": "totalDonated",
							"type": "uint256"
						},
						{
							"internalType": "uint256",
							"name": "donationCount",
							"type": "uint256"
						},
						{
							"internalType": "uint256",
							"name": "gaslessCount",
							"type": "uint256"
						},
						{
							"internalType": "uint256",
							"name": "lastDonationTime",
							"type": "uint256"
						}
					],
					"stateMutability": "view",
					"type": "function"
				},
				{
					"inputs": [
						{
							"internalType": "uint256",
							"name": "count",
							"type": "uint256"
						}
					],
					"name": "getLatestDonations",
					"outputs": [
						{
							"components": [
								{
									"internalType": "address",
									"name": "donor",
									"type": "address"
								},
								{
									"internalType": "uint256",
									"name": "amount",
									"type": "uint256"
								},
								{
									"internalType": "uint256",
									"name": "timestamp",
									"type": "uint256"
								},
								{
									"internalType": "string",
									"name": "message",
									"type": "string"
								},
								{
									"internalType": "bool",
									"name": "isPaid",
									"type": "bool"
								}
							],
							"internalType": "struct GaslessDonationTracker.Donation[]",
							"name": "",
							"type": "tuple[]"
						}
					],
					"stateMutability": "view",
					"type": "function"
				},
				{
					"inputs": [],
					"name": "getStats",
					"outputs": [
						{
							"internalType": "uint256",
							"name": "totalEth",
							"type": "uint256"
						},
						{
							"internalType": "uint256",
							"name": "totalDonationCount",
							"type": "uint256"
						},
						{
							"internalType": "uint256",
							"name": "gaslessCount",
							"type": "uint256"
						},
						{
							"internalType": "uint256",
							"name": "uniqueDonors",
							"type": "uint256"
						},
						{
							"internalType": "uint256",
							"name": "averageDonation",
							"type": "uint256"
						}
					],
					"stateMutability": "view",
					"type": "function"
				},
				{
					"inputs": [
						{
							"internalType": "uint256",
							"name": "limit",
							"type": "uint256"
						}
					],
					"name": "getTopDonors",
					"outputs": [
						{
							"internalType": "address[]",
							"name": "topAddresses",
							"type": "address[]"
						},
						{
							"internalType": "uint256[]",
							"name": "amounts",
							"type": "uint256[]"
						}
					],
					"stateMutability": "view",
					"type": "function"
				},
				{
					"inputs": [
						{
							"internalType": "address",
							"name": "donor",
							"type": "address"
						}
					],
					"name": "hasDonated",
					"outputs": [
						{
							"internalType": "bool",
							"name": "",
							"type": "bool"
						}
					],
					"stateMutability": "view",
					"type": "function"
				},
				{
					"inputs": [],
					"name": "minDonation",
					"outputs": [
						{
							"internalType": "uint256",
							"name": "",
							"type": "uint256"
						}
					],
					"stateMutability": "view",
					"type": "function"
				},
				{
					"inputs": [],
					"name": "myStats",
					"outputs": [
						{
							"components": [
								{
									"internalType": "uint256",
									"name": "totalDonated",
									"type": "uint256"
								},
								{
									"internalType": "uint256",
									"name": "donationCount",
									"type": "uint256"
								},
								{
									"internalType": "uint256",
									"name": "gaslessCount",
									"type": "uint256"
								},
								{
									"internalType": "uint256",
									"name": "lastDonationTime",
									"type": "uint256"
								}
							],
							"internalType": "struct GaslessDonationTracker.DonorStats",
							"name": "",
							"type": "tuple"
						}
					],
					"stateMutability": "view",
					"type": "function"
				},
				{
					"inputs": [],
					"name": "quickDonate",
					"outputs": [],
					"stateMutability": "payable",
					"type": "function"
				},
				{
					"inputs": [
						{
							"internalType": "uint256",
							"name": "newMinimum",
							"type": "uint256"
						}
					],
					"name": "setMinDonation",
					"outputs": [],
					"stateMutability": "nonpayable",
					"type": "function"
				},
				{
					"inputs": [],
					"name": "totalDonations",
					"outputs": [
						{
							"internalType": "uint256",
							"name": "",
							"type": "uint256"
						}
					],
					"stateMutability": "view",
					"type": "function"
				},
				{
					"inputs": [],
					"name": "totalEthDonated",
					"outputs": [
						{
							"internalType": "uint256",
							"name": "",
							"type": "uint256"
						}
					],
					"stateMutability": "view",
					"type": "function"
				},
				{
					"inputs": [],
					"name": "totalGaslessContributions",
					"outputs": [
						{
							"internalType": "uint256",
							"name": "",
							"type": "uint256"
						}
					],
					"stateMutability": "view",
					"type": "function"
				},
				{
					"inputs": [
						{
							"internalType": "string",
							"name": "message",
							"type": "string"
						}
					],
					"name": "trackContribution",
					"outputs": [],
					"stateMutability": "nonpayable",
					"type": "function"
				},
				{
					"inputs": [],
					"name": "withdraw",
					"outputs": [],
					"stateMutability": "nonpayable",
					"type": "function"
				},
				{
					"inputs": [
						{
							"internalType": "uint256",
							"name": "amount",
							"type": "uint256"
						}
					],
					"name": "withdrawAmount",
					"outputs": [],
					"stateMutability": "nonpayable",
					"type": "function"
				},
				{
					"stateMutability": "payable",
					"type": "receive"
				}
			],
			"devdoc": {
				"details": "Tracks both ETH donations and gasless contribution records",
				"kind": "dev",
				"methods": {
					"batchTrackContributions(string[])": {
						"params": {
							"messages": "Array of contribution messages"
						}
					},
					"constructor": {
						"params": {
							"_beneficiary": "Address that can withdraw funds"
						}
					},
					"donate(string)": {
						"params": {
							"message": "Optional message from donor"
						}
					},
					"trackContribution(string)": {
						"details": "Used for tracking non-monetary contributions",
						"params": {
							"message": "Contribution message or commitment"
						}
					}
				},
				"title": "GaslessDonationTracker",
				"version": 1
			},
			"evm": {
				"assembly": "    /* \"contracts/GaslessDonationTracker.sol\":244:12091  contract GaslessDonationTracker {... */\n  mstore(0x40, 0x80)\n    /* \"contracts/GaslessDonationTracker.sol\":1256:1267  0.001 ether */\n  0x038d7ea4c68000\n    /* \"contracts/GaslessDonationTracker.sol\":1227:1267  uint256 public minDonation = 0.001 ether */\n  0x04\n  sstore\n    /* \"contracts/GaslessDonationTracker.sol\":3059:3201  constructor(address _beneficiary) {... */\n  callvalue\n  dup1\n  iszero\n  tag_1\n  jumpi\n  revert(0x00, 0x00)\ntag_1:\n  pop\n  mload(0x40)\n  sub(codesize, bytecodeSize)\n  dup1\n  bytecodeSize\n  dup4\n  codecopy\n  dup2\n  dup2\n  add\n  0x40\n  mstore\n  dup2\n  add\n  swap1\n  tag_2\n  swap2\n  swap1\n  tag_3\n  jump\t// in\ntag_2:\n    /* \"contracts/GaslessDonationTracker.sol\":3131:3132  0 */\n  0x00\n    /* \"contracts/GaslessDonationTracker.sol\":3107:3133  _beneficiary == address(0) */\n  0xffffffffffffffffffffffffffffffffffffffff\n  and\n    /* \"contracts/GaslessDonationTracker.sol\":3107:3119  _beneficiary */\n  dup2\n    /* \"contracts/GaslessDonationTracker.sol\":3107:3133  _beneficiary == address(0) */\n  0xffffffffffffffffffffffffffffffffffffffff\n  and\n  sub\n    /* \"contracts/GaslessDonationTracker.sol\":3103:3158  if (_beneficiary == address(0)) revert InvalidAddress() */\n  tag_6\n  jumpi\n    /* \"contracts/GaslessDonationTracker.sol\":3142:3158  InvalidAddress() */\n  mload(0x40)\n  0xe6c4247b00000000000000000000000000000000000000000000000000000000\n  dup2\n  mstore\n  0x04\n  add\n  mload(0x40)\n  dup1\n  swap2\n  sub\n  swap1\n  revert\n    /* \"contracts/GaslessDonationTracker.sol\":3103:3158  if (_beneficiary == address(0)) revert InvalidAddress() */\ntag_6:\n    /* \"contracts/GaslessDonationTracker.sol\":3182:3194  _beneficiary */\n  dup1\n    /* \"contracts/GaslessDonationTracker.sol\":3168:3179  beneficiary */\n  0x00\n  0x00\n    /* \"contracts/GaslessDonationTracker.sol\":3168:3194  beneficiary = _beneficiary */\n  0x0100\n  exp\n  dup2\n  sload\n  dup2\n  0xffffffffffffffffffffffffffffffffffffffff\n  mul\n  not\n  and\n  swap1\n  dup4\n  0xffffffffffffffffffffffffffffffffffffffff\n  and\n  mul\n  or\n  swap1\n  sstore\n  pop\n    /* \"contracts/GaslessDonationTracker.sol\":3059:3201  constructor(address _beneficiary) {... */\n  pop\n    /* \"contracts/GaslessDonationTracker.sol\":244:12091  contract GaslessDonationTracker {... */\n  jump(tag_7)\n    /* \"#utility.yul\":88:205   */\ntag_9:\n    /* \"#utility.yul\":197:198   */\n  0x00\n    /* \"#utility.yul\":194:195   */\n  0x00\n    /* \"#utility.yul\":187:199   */\n  revert\n    /* \"#utility.yul\":334:460   */\ntag_11:\n    /* \"#utility.yul\":371:378   */\n  0x00\n    /* \"#utility.yul\":411:453   */\n  0xffffffffffffffffffffffffffffffffffffffff\n    /* \"#utility.yul\":404:409   */\n  dup3\n    /* \"#utility.yul\":400:454   */\n  and\n    /* \"#utility.yul\":389:454   */\n  swap1\n  pop\n    /* \"#utility.yul\":334:460   */\n  swap2\n  swap1\n  pop\n  jump\t// out\n    /* \"#utility.yul\":466:562   */\ntag_12:\n    /* \"#utility.yul\":503:510   */\n  0x00\n    /* \"#utility.yul\":532:556   */\n  tag_21\n    /* \"#utility.yul\":550:555   */\n  dup3\n    /* \"#utility.yul\":532:556   */\n  tag_11\n  jump\t// in\ntag_21:\n    /* \"#utility.yul\":521:556   */\n  swap1\n  pop\n    /* \"#utility.yul\":466:562   */\n  swap2\n  swap1\n  pop\n  jump\t// out\n    /* \"#utility.yul\":568:690   */\ntag_13:\n    /* \"#utility.yul\":641:665   */\n  tag_23\n    /* \"#utility.yul\":659:664   */\n  dup2\n    /* \"#utility.yul\":641:665   */\n  tag_12\n  jump\t// in\ntag_23:\n    /* \"#utility.yul\":634:639   */\n  dup2\n    /* \"#utility.yul\":631:666   */\n  eq\n    /* \"#utility.yul\":621:684   */\n  tag_24\n  jumpi\n    /* \"#utility.yul\":680:681   */\n  0x00\n    /* \"#utility.yul\":677:678   */\n  0x00\n    /* \"#utility.yul\":670:682   */\n  revert\n    /* \"#utility.yul\":621:684   */\ntag_24:\n    /* \"#utility.yul\":568:690   */\n  pop\n  jump\t// out\n    /* \"#utility.yul\":696:839   */\ntag_14:\n    /* \"#utility.yul\":753:758   */\n  0x00\n    /* \"#utility.yul\":784:790   */\n  dup2\n    /* \"#utility.yul\":778:791   */\n  mload\n    /* \"#utility.yul\":769:791   */\n  swap1\n  pop\n    /* \"#utility.yul\":800:833   */\n  tag_26\n    /* \"#utility.yul\":827:832   */\n  dup2\n    /* \"#utility.yul\":800:833   */\n  tag_13\n  jump\t// in\ntag_26:\n    /* \"#utility.yul\":696:839   */\n  swap3\n  swap2\n  pop\n  pop\n  jump\t// out\n    /* \"#utility.yul\":845:1196   */\ntag_3:\n    /* \"#utility.yul\":915:921   */\n  0x00\n    /* \"#utility.yul\":964:966   */\n  0x20\n    /* \"#utility.yul\":952:961   */\n  dup3\n    /* \"#utility.yul\":943:950   */\n  dup5\n    /* \"#utility.yul\":939:962   */\n  sub\n    /* \"#utility.yul\":935:967   */\n  slt\n    /* \"#utility.yul\":932:1051   */\n  iszero\n  tag_28\n  jumpi\n    /* \"#utility.yul\":970:1049   */\n  tag_29\n  tag_9\n  jump\t// in\ntag_29:\n    /* \"#utility.yul\":932:1051   */\ntag_28:\n    /* \"#utility.yul\":1090:1091   */\n  0x00\n    /* \"#utility.yul\":1115:1179   */\n  tag_30\n    /* \"#utility.yul\":1171:1178   */\n  dup5\n    /* \"#utility.yul\":1162:1168   */\n  dup3\n    /* \"#utility.yul\":1151:1160   */\n  dup6\n    /* \"#utility.yul\":1147:1169   */\n  add\n    /* \"#utility.yul\":1115:1179   */\n  tag_14\n  jump\t// in\ntag_30:\n    /* \"#utility.yul\":1105:1179   */\n  swap2\n  pop\n    /* \"#utility.yul\":1061:1189   */\n  pop\n    /* \"#utility.yul\":845:1196   */\n  swap3\n  swap2\n  pop\n  pop\n  jump\t// out\n    /* \"contracts/GaslessDonationTracker.sol\":244:12091  contract GaslessDonationTracker {... */\ntag_7:\n  dataSize(sub_0)\n  dup1\n  dataOffset(sub_0)\n  0x00\n  codecopy\n  0x00\n  return\nstop\n\nsub_0: assembly {\n        /* \"contracts/GaslessDonationTracker.sol\":244:12091  contract GaslessDonationTracker {... */\n      mstore(0x40, 0x80)\n      jumpi(tag_1, lt(calldatasize, 0x04))\n      shr(0xe0, calldataload(0x00))\n      dup1\n      0x6cf1cd95\n      gt\n      tag_29\n      jumpi\n      dup1\n      0xdc070657\n      gt\n      tag_30\n      jumpi\n      dup1\n      0xe55a62a8\n      gt\n      tag_31\n      jumpi\n      dup1\n      0xe55a62a8\n      eq\n      tag_25\n      jumpi\n      dup1\n      0xef07a81f\n      eq\n      tag_26\n      jumpi\n      dup1\n      0xf5d1282b\n      eq\n      tag_27\n      jumpi\n      dup1\n      0xf8626af8\n      eq\n      tag_28\n      jumpi\n      jump(tag_2)\n    tag_31:\n      dup1\n      0xdc070657\n      eq\n      tag_22\n      jumpi\n      dup1\n      0xde2ed893\n      eq\n      tag_23\n      jumpi\n      dup1\n      0xdf0eb43f\n      eq\n      tag_24\n      jumpi\n      jump(tag_2)\n    tag_30:\n      dup1\n      0x6cf1cd95\n      eq\n      tag_16\n      jumpi\n      dup1\n      0x7ce56524\n      eq\n      tag_17\n      jumpi\n      dup1\n      0x83a6595f\n      eq\n      tag_18\n      jumpi\n      dup1\n      0xb5aebc80\n      eq\n      tag_19\n      jumpi\n      dup1\n      0xc59d4847\n      eq\n      tag_20\n      jumpi\n      dup1\n      0xc8eb0c88\n      eq\n      tag_21\n      jumpi\n      jump(tag_2)\n    tag_29:\n      dup1\n      0x1c0e0225\n      gt\n      tag_32\n      jumpi\n      dup1\n      0x38af3eed\n      gt\n      tag_33\n      jumpi\n      dup1\n      0x38af3eed\n      eq\n      tag_12\n      jumpi\n      dup1\n      0x3ccfd60b\n      eq\n      tag_13\n      jumpi\n      dup1\n      0x3d0d3086\n      eq\n      tag_14\n      jumpi\n      dup1\n      0x4abfa163\n      eq\n      tag_15\n      jumpi\n      jump(tag_2)\n    tag_33:\n      dup1\n      0x1c0e0225\n      eq\n      tag_9\n      jumpi\n      dup1\n      0x2c358e88\n      eq\n      tag_10\n      jumpi\n      dup1\n      0x37a5f66c\n      eq\n      tag_11\n      jumpi\n      jump(tag_2)\n    tag_32:\n      dup1\n      0x0562b9f7\n      eq\n      tag_3\n      jumpi\n      dup1\n      0x06032ead\n      eq\n      tag_4\n      jumpi\n      dup1\n      0x12065fe0\n      eq\n      tag_5\n      jumpi\n      dup1\n      0x12b91bf9\n      eq\n      tag_6\n      jumpi\n      dup1\n      0x17294a11\n      eq\n      tag_7\n      jumpi\n      dup1\n      0x18c4b991\n      eq\n      tag_8\n      jumpi\n      jump(tag_2)\n    tag_1:\n      jumpi(tag_2, calldatasize)\n        /* \"contracts/GaslessDonationTracker.sol\":4101:4112  minDonation */\n      sload(0x04)\n        /* \"contracts/GaslessDonationTracker.sol\":4089:4098  msg.value */\n      callvalue\n        /* \"contracts/GaslessDonationTracker.sol\":4089:4112  msg.value < minDonation */\n      lt\n        /* \"contracts/GaslessDonationTracker.sol\":4085:4143  if (msg.value < minDonation) revert BelowMinimumDonation() */\n      iszero\n      tag_36\n      jumpi\n        /* \"contracts/GaslessDonationTracker.sol\":4121:4143  BelowMinimumDonation() */\n      mload(0x40)\n      0x6a10ccc900000000000000000000000000000000000000000000000000000000\n      dup2\n      mstore\n      0x04\n      add\n      mload(0x40)\n      dup1\n      swap2\n      sub\n      swap1\n      revert\n        /* \"contracts/GaslessDonationTracker.sol\":4085:4143  if (msg.value < minDonation) revert BelowMinimumDonation() */\n    tag_36:\n        /* \"contracts/GaslessDonationTracker.sol\":4162:4225  _recordDonation(msg.sender, msg.value, \"Direct transfer\", true) */\n      tag_37\n        /* \"contracts/GaslessDonationTracker.sol\":4178:4188  msg.sender */\n      caller\n        /* \"contracts/GaslessDonationTracker.sol\":4190:4199  msg.value */\n      callvalue\n        /* \"contracts/GaslessDonationTracker.sol\":4162:4225  _recordDonation(msg.sender, msg.value, \"Direct transfer\", true) */\n      mload(0x40)\n      dup1\n      0x40\n      add\n      0x40\n      mstore\n      dup1\n      0x0f\n      dup2\n      mstore\n      0x20\n      add\n      0x446972656374207472616e736665720000000000000000000000000000000000\n      dup2\n      mstore\n      pop\n        /* \"contracts/GaslessDonationTracker.sol\":4220:4224  true */\n      0x01\n        /* \"contracts/GaslessDonationTracker.sol\":4162:4177  _recordDonation */\n      tag_38\n        /* \"contracts/GaslessDonationTracker.sol\":4162:4225  _recordDonation(msg.sender, msg.value, \"Direct transfer\", true) */\n      jump\t// in\n    tag_37:\n        /* \"contracts/GaslessDonationTracker.sol\":4266:4276  msg.sender */\n      caller\n        /* \"contracts/GaslessDonationTracker.sol\":4249:4324  DonationReceived(msg.sender, msg.value, block.timestamp, \"Direct transfer\") */\n      0xffffffffffffffffffffffffffffffffffffffff\n      and\n      0xf041a5bfea1be2e3f78bbadfadc66bb6f6d62860e629a44d71bec1ef49411c9e\n        /* \"contracts/GaslessDonationTracker.sol\":4278:4287  msg.value */\n      callvalue\n        /* \"contracts/GaslessDonationTracker.sol\":4289:4304  block.timestamp */\n      timestamp\n        /* \"contracts/GaslessDonationTracker.sol\":4249:4324  DonationReceived(msg.sender, msg.value, block.timestamp, \"Direct transfer\") */\n      mload(0x40)\n      tag_39\n      swap3\n      swap2\n      swap1\n      tag_40\n      jump\t// in\n    tag_39:\n      mload(0x40)\n      dup1\n      swap2\n      sub\n      swap1\n      log2\n        /* \"contracts/GaslessDonationTracker.sol\":244:12091  contract GaslessDonationTracker {... */\n      stop\n    tag_2:\n      revert(0x00, 0x00)\n        /* \"contracts/GaslessDonationTracker.sol\":10208:10535  function withdrawAmount(uint256 amount) external onlyBeneficiary {... */\n    tag_3:\n      callvalue\n      dup1\n      iszero\n      tag_41\n      jumpi\n      revert(0x00, 0x00)\n    tag_41:\n      pop\n      tag_42\n      0x04\n      dup1\n      calldatasize\n      sub\n      dup2\n      add\n      swap1\n      tag_43\n      swap2\n      swap1\n      tag_44\n      jump\t// in\n    tag_43:\n      tag_45\n      jump\t// in\n    tag_42:\n      stop\n        /* \"contracts/GaslessDonationTracker.sol\":1124:1164  uint256 public totalGaslessContributions */\n    tag_4:\n      callvalue\n      dup1\n      iszero\n      tag_46\n      jumpi\n      revert(0x00, 0x00)\n    tag_46:\n      pop\n      tag_47\n      tag_48\n      jump\t// in\n    tag_47:\n      mload(0x40)\n      tag_49\n      swap2\n      swap1\n      tag_50\n      jump\t// in\n    tag_49:\n      mload(0x40)\n      dup1\n      swap2\n      sub\n      swap1\n      return\n        /* \"contracts/GaslessDonationTracker.sol\":9000:9099  function getBalance() external view returns (uint256) {... */\n    tag_5:\n      callvalue\n      dup1\n      iszero\n      tag_51\n      jumpi\n      revert(0x00, 0x00)\n    tag_51:\n      pop\n      tag_52\n      tag_53\n      jump\t// in\n    tag_52:\n      mload(0x40)\n      tag_54\n      swap2\n      swap1\n      tag_50\n      jump\t// in\n    tag_54:\n      mload(0x40)\n      dup1\n      swap2\n      sub\n      swap1\n      return\n        /* \"contracts/GaslessDonationTracker.sol\":5015:5430  function batchTrackContributions(string[] calldata messages) external {... */\n    tag_6:\n      callvalue\n      dup1\n      iszero\n      tag_55\n      jumpi\n      revert(0x00, 0x00)\n    tag_55:\n      pop\n      tag_56\n      0x04\n      dup1\n      calldatasize\n      sub\n      dup2\n      add\n      swap1\n      tag_57\n      swap2\n      swap1\n      tag_58\n      jump\t// in\n    tag_57:\n      tag_59\n      jump\t// in\n    tag_56:\n      stop\n        /* \"contracts/GaslessDonationTracker.sol\":11227:11329  function hasDonated(address donor) external view returns (bool) {... */\n    tag_7:\n      callvalue\n      dup1\n      iszero\n      tag_60\n      jumpi\n      revert(0x00, 0x00)\n    tag_60:\n      pop\n      tag_61\n      0x04\n      dup1\n      calldatasize\n      sub\n      dup2\n      add\n      swap1\n      tag_62\n      swap2\n      swap1\n      tag_63\n      jump\t// in\n    tag_62:\n      tag_64\n      jump\t// in\n    tag_61:\n      mload(0x40)\n      tag_65\n      swap2\n      swap1\n      tag_66\n      jump\t// in\n    tag_65:\n      mload(0x40)\n      dup1\n      swap2\n      sub\n      swap1\n      return\n        /* \"contracts/GaslessDonationTracker.sol\":1413:1461  mapping(address => DonorStats) public donorStats */\n    tag_8:\n      callvalue\n      dup1\n      iszero\n      tag_67\n      jumpi\n      revert(0x00, 0x00)\n    tag_67:\n      pop\n      tag_68\n      0x04\n      dup1\n      calldatasize\n      sub\n      dup2\n      add\n      swap1\n      tag_69\n      swap2\n      swap1\n      tag_63\n      jump\t// in\n    tag_69:\n      tag_70\n      jump\t// in\n    tag_68:\n      mload(0x40)\n      tag_71\n      swap5\n      swap4\n      swap3\n      swap2\n      swap1\n      tag_72\n      jump\t// in\n    tag_71:\n      mload(0x40)\n      dup1\n      swap2\n      sub\n      swap1\n      return\n        /* \"contracts/GaslessDonationTracker.sol\":1227:1267  uint256 public minDonation = 0.001 ether */\n    tag_9:\n      callvalue\n      dup1\n      iszero\n      tag_73\n      jumpi\n      revert(0x00, 0x00)\n    tag_73:\n      pop\n      tag_74\n      tag_75\n      jump\t// in\n    tag_74:\n      mload(0x40)\n      tag_76\n      swap2\n      swap1\n      tag_50\n      jump\t// in\n    tag_76:\n      mload(0x40)\n      dup1\n      swap2\n      sub\n      swap1\n      return\n        /* \"contracts/GaslessDonationTracker.sol\":4593:4891  function trackContribution(string calldata message) external {... */\n    tag_10:\n      callvalue\n      dup1\n      iszero\n      tag_77\n      jumpi\n      revert(0x00, 0x00)\n    tag_77:\n      pop\n      tag_78\n      0x04\n      dup1\n      calldatasize\n      sub\n      dup2\n      add\n      swap1\n      tag_79\n      swap2\n      swap1\n      tag_80\n      jump\t// in\n    tag_79:\n      tag_81\n      jump\t// in\n    tag_78:\n      stop\n        /* \"contracts/GaslessDonationTracker.sol\":7997:8104  function myStats() external view returns (DonorStats memory) {... */\n    tag_11:\n      callvalue\n      dup1\n      iszero\n      tag_82\n      jumpi\n      revert(0x00, 0x00)\n    tag_82:\n      pop\n      tag_83\n      tag_84\n      jump\t// in\n    tag_83:\n      mload(0x40)\n      tag_85\n      swap2\n      swap1\n      tag_86\n      jump\t// in\n    tag_85:\n      mload(0x40)\n      dup1\n      swap2\n      sub\n      swap1\n      return\n        /* \"contracts/GaslessDonationTracker.sol\":862:888  address public beneficiary */\n    tag_12:\n      callvalue\n      dup1\n      iszero\n      tag_87\n      jumpi\n      revert(0x00, 0x00)\n    tag_87:\n      pop\n      tag_88\n      tag_89\n      jump\t// in\n    tag_88:\n      mload(0x40)\n      tag_90\n      swap2\n      swap1\n      tag_91\n      jump\t// in\n    tag_90:\n      mload(0x40)\n      dup1\n      swap2\n      sub\n      swap1\n      return\n        /* \"contracts/GaslessDonationTracker.sol\":9819:10157  function withdraw() external onlyBeneficiary {... */\n    tag_13:\n      callvalue\n      dup1\n      iszero\n      tag_92\n      jumpi\n      revert(0x00, 0x00)\n    tag_92:\n      pop\n      tag_93\n      tag_94\n      jump\t// in\n    tag_93:\n      stop\n        /* \"contracts/GaslessDonationTracker.sol\":11387:12089  function getDonationsByDonor(address donor) external view returns (uint256[] memory) {... */\n    tag_14:\n      callvalue\n      dup1\n      iszero\n      tag_95\n      jumpi\n      revert(0x00, 0x00)\n    tag_95:\n      pop\n      tag_96\n      0x04\n      dup1\n      calldatasize\n      sub\n      dup2\n      add\n      swap1\n      tag_97\n      swap2\n      swap1\n      tag_63\n      jump\t// in\n    tag_97:\n      tag_98\n      jump\t// in\n    tag_96:\n      mload(0x40)\n      tag_99\n      swap2\n      swap1\n      tag_100\n      jump\t// in\n    tag_99:\n      mload(0x40)\n      dup1\n      swap2\n      sub\n      swap1\n      return\n        /* \"contracts/GaslessDonationTracker.sol\":1516:1539  address[] public donors */\n    tag_15:\n      callvalue\n      dup1\n      iszero\n      tag_101\n      jumpi\n      revert(0x00, 0x00)\n    tag_101:\n      pop\n      tag_102\n      0x04\n      dup1\n      calldatasize\n      sub\n      dup2\n      add\n      swap1\n      tag_103\n      swap2\n      swap1\n      tag_44\n      jump\t// in\n    tag_103:\n      tag_104\n      jump\t// in\n    tag_102:\n      mload(0x40)\n      tag_105\n      swap2\n      swap1\n      tag_91\n      jump\t// in\n    tag_105:\n      mload(0x40)\n      dup1\n      swap2\n      sub\n      swap1\n      return\n        /* \"contracts/GaslessDonationTracker.sol\":933:963  uint256 public totalEthDonated */\n    tag_16:\n      callvalue\n      dup1\n      iszero\n      tag_106\n      jumpi\n      revert(0x00, 0x00)\n    tag_106:\n      pop\n      tag_107\n      tag_108\n      jump\t// in\n    tag_107:\n      mload(0x40)\n      tag_109\n      swap2\n      swap1\n      tag_50\n      jump\t// in\n    tag_109:\n      mload(0x40)\n      dup1\n      swap2\n      sub\n      swap1\n      return\n        /* \"contracts/GaslessDonationTracker.sol\":3732:3998  function quickDonate() external payable {... */\n    tag_17:\n      tag_110\n      tag_111\n      jump\t// in\n    tag_110:\n      stop\n        /* \"contracts/GaslessDonationTracker.sol\":10592:10747  function setMinDonation(uint256 newMinimum) external onlyBeneficiary {... */\n    tag_18:\n      callvalue\n      dup1\n      iszero\n      tag_112\n      jumpi\n      revert(0x00, 0x00)\n    tag_112:\n      pop\n      tag_113\n      0x04\n      dup1\n      calldatasize\n      sub\n      dup2\n      add\n      swap1\n      tag_114\n      swap2\n      swap1\n      tag_44\n      jump\t// in\n    tag_114:\n      tag_115\n      jump\t// in\n    tag_113:\n      stop\n        /* \"contracts/GaslessDonationTracker.sol\":3383:3677  function donate(string calldata message) external payable {... */\n    tag_19:\n      tag_116\n      0x04\n      dup1\n      calldatasize\n      sub\n      dup2\n      add\n      swap1\n      tag_117\n      swap2\n      swap1\n      tag_80\n      jump\t// in\n    tag_117:\n      tag_118\n      jump\t// in\n    tag_116:\n      stop\n        /* \"contracts/GaslessDonationTracker.sol\":9157:9699  function getStats() external view returns (... */\n    tag_20:\n      callvalue\n      dup1\n      iszero\n      tag_119\n      jumpi\n      revert(0x00, 0x00)\n    tag_119:\n      pop\n      tag_120\n      tag_121\n      jump\t// in\n    tag_120:\n      mload(0x40)\n      tag_122\n      swap6\n      swap5\n      swap4\n      swap3\n      swap2\n      swap1\n      tag_123\n      jump\t// in\n    tag_122:\n      mload(0x40)\n      dup1\n      swap2\n      sub\n      swap1\n      return\n        /* \"contracts/GaslessDonationTracker.sol\":7532:7944  function getDonorStats(address donor) external view returns (... */\n    tag_21:\n      callvalue\n      dup1\n      iszero\n      tag_124\n      jumpi\n      revert(0x00, 0x00)\n    tag_124:\n      pop\n      tag_125\n      0x04\n      dup1\n      calldatasize\n      sub\n      dup2\n      add\n      swap1\n      tag_126\n      swap2\n      swap1\n      tag_63\n      jump\t// in\n    tag_126:\n      tag_127\n      jump\t// in\n    tag_125:\n      mload(0x40)\n      tag_128\n      swap5\n      swap4\n      swap3\n      swap2\n      swap1\n      tag_72\n      jump\t// in\n    tag_128:\n      mload(0x40)\n      dup1\n      swap2\n      sub\n      swap1\n      return\n        /* \"contracts/GaslessDonationTracker.sol\":10800:11117  function changeBeneficiary(address newBeneficiary) external onlyBeneficiary {... */\n    tag_22:\n      callvalue\n      dup1\n      iszero\n      tag_129\n      jumpi\n      revert(0x00, 0x00)\n    tag_129:\n      pop\n      tag_130\n      0x04\n      dup1\n      calldatasize\n      sub\n      dup2\n      add\n      swap1\n      tag_131\n      swap2\n      swap1\n      tag_63\n      jump\t// in\n    tag_131:\n      tag_132\n      jump\t// in\n    tag_130:\n      stop\n        /* \"contracts/GaslessDonationTracker.sol\":1032:1061  uint256 public totalDonations */\n    tag_23:\n      callvalue\n      dup1\n      iszero\n      tag_133\n      jumpi\n      revert(0x00, 0x00)\n    tag_133:\n      pop\n      tag_134\n      tag_135\n      jump\t// in\n    tag_134:\n      mload(0x40)\n      tag_136\n      swap2\n      swap1\n      tag_50\n      jump\t// in\n    tag_136:\n      mload(0x40)\n      dup1\n      swap2\n      sub\n      swap1\n      return\n        /* \"contracts/GaslessDonationTracker.sol\":7064:7485  function getLatestDonations(uint256 count) external view returns (Donation[] memory) {... */\n    tag_24:\n      callvalue\n      dup1\n      iszero\n      tag_137\n      jumpi\n      revert(0x00, 0x00)\n    tag_137:\n      pop\n      tag_138\n      0x04\n      dup1\n      calldatasize\n      sub\n      dup2\n      add\n      swap1\n      tag_139\n      swap2\n      swap1\n      tag_44\n      jump\t// in\n    tag_139:\n      tag_140\n      jump\t// in\n    tag_138:\n      mload(0x40)\n      tag_141\n      swap2\n      swap1\n      tag_142\n      jump\t// in\n    tag_141:\n      mload(0x40)\n      dup1\n      swap2\n      sub\n      swap1\n      return\n        /* \"contracts/GaslessDonationTracker.sol\":6493:6593  function getDonationCount() external view returns (uint256) {... */\n    tag_25:\n      callvalue\n      dup1\n      iszero\n      tag_143\n      jumpi\n      revert(0x00, 0x00)\n    tag_143:\n      pop\n      tag_144\n      tag_145\n      jump\t// in\n    tag_144:\n      mload(0x40)\n      tag_146\n      swap2\n      swap1\n      tag_50\n      jump\t// in\n    tag_146:\n      mload(0x40)\n      dup1\n      swap2\n      sub\n      swap1\n      return\n        /* \"contracts/GaslessDonationTracker.sol\":6641:7015  function getDonation(uint256 index) external view returns (... */\n    tag_26:\n      callvalue\n      dup1\n      iszero\n      tag_147\n      jumpi\n      revert(0x00, 0x00)\n    tag_147:\n      pop\n      tag_148\n      0x04\n      dup1\n      calldatasize\n      sub\n      dup2\n      add\n      swap1\n      tag_149\n      swap2\n      swap1\n      tag_44\n      jump\t// in\n    tag_149:\n      tag_150\n      jump\t// in\n    tag_148:\n      mload(0x40)\n      tag_151\n      swap6\n      swap5\n      swap4\n      swap3\n      swap2\n      swap1\n      tag_152\n      jump\t// in\n    tag_151:\n      mload(0x40)\n      dup1\n      swap2\n      sub\n      swap1\n      return\n        /* \"contracts/GaslessDonationTracker.sol\":8168:8953  function getTopDonors(uint256 limit) external view returns (... */\n    tag_27:\n      callvalue\n      dup1\n      iszero\n      tag_153\n      jumpi\n      revert(0x00, 0x00)\n    tag_153:\n      pop\n      tag_154\n      0x04\n      dup1\n      calldatasize\n      sub\n      dup2\n      add\n      swap1\n      tag_155\n      swap2\n      swap1\n      tag_44\n      jump\t// in\n    tag_155:\n      tag_156\n      jump\t// in\n    tag_154:\n      mload(0x40)\n      tag_157\n      swap3\n      swap2\n      swap1\n      tag_158\n      jump\t// in\n    tag_157:\n      mload(0x40)\n      dup1\n      swap2\n      sub\n      swap1\n      return\n        /* \"contracts/GaslessDonationTracker.sol\":1317:1344  Donation[] public donations */\n    tag_28:\n      callvalue\n      dup1\n      iszero\n      tag_159\n      jumpi\n      revert(0x00, 0x00)\n    tag_159:\n      pop\n      tag_160\n      0x04\n      dup1\n      calldatasize\n      sub\n      dup2\n      add\n      swap1\n      tag_161\n      swap2\n      swap1\n      tag_44\n      jump\t// in\n    tag_161:\n      tag_162\n      jump\t// in\n    tag_160:\n      mload(0x40)\n      tag_163\n      swap6\n      swap5\n      swap4\n      swap3\n      swap2\n      swap1\n      tag_152\n      jump\t// in\n    tag_163:\n      mload(0x40)\n      dup1\n      swap2\n      sub\n      swap1\n      return\n        /* \"contracts/GaslessDonationTracker.sol\":5563:6384  function _recordDonation(... */\n    tag_38:\n        /* \"contracts/GaslessDonationTracker.sol\":5746:5755  donations */\n      0x05\n        /* \"contracts/GaslessDonationTracker.sol\":5761:5933  Donation({... */\n      mload(0x40)\n      dup1\n      0xa0\n      add\n      0x40\n      mstore\n      dup1\n        /* \"contracts/GaslessDonationTracker.sol\":5791:5796  donor */\n      dup7\n        /* \"contracts/GaslessDonationTracker.sol\":5761:5933  Donation({... */\n      0xffffffffffffffffffffffffffffffffffffffff\n      and\n      dup2\n      mstore\n      0x20\n      add\n        /* \"contracts/GaslessDonationTracker.sol\":5818:5824  amount */\n      dup6\n        /* \"contracts/GaslessDonationTracker.sol\":5761:5933  Donation({... */\n      dup2\n      mstore\n      0x20\n      add\n        /* \"contracts/GaslessDonationTracker.sol\":5849:5864  block.timestamp */\n      timestamp\n        /* \"contracts/GaslessDonationTracker.sol\":5761:5933  Donation({... */\n      dup2\n      mstore\n      0x20\n      add\n        /* \"contracts/GaslessDonationTracker.sol\":5887:5894  message */\n      dup5\n        /* \"contracts/GaslessDonationTracker.sol\":5761:5933  Donation({... */\n      dup2\n      mstore\n      0x20\n      add\n        /* \"contracts/GaslessDonationTracker.sol\":5916:5922  isPaid */\n      dup4\n        /* \"contracts/GaslessDonationTracker.sol\":5761:5933  Donation({... */\n      iszero\n      iszero\n      dup2\n      mstore\n      pop\n        /* \"contracts/GaslessDonationTracker.sol\":5746:5934  donations.push(Donation({... */\n      swap1\n      dup1\n      0x01\n      dup2\n      sload\n      add\n      dup1\n      dup3\n      sstore\n      dup1\n      swap2\n      pop\n      pop\n      0x01\n      swap1\n      sub\n      swap1\n      0x00\n      mstore\n      keccak256(0x00, 0x20)\n      swap1\n      0x05\n      mul\n      add\n      0x00\n      swap1\n      swap2\n      swap1\n      swap2\n      swap1\n      swap2\n      pop\n      0x00\n      dup3\n      add\n      mload\n      dup2\n      0x00\n      add\n      exp(0x0100, 0x00)\n      dup2\n      sload\n      dup2\n      0xffffffffffffffffffffffffffffffffffffffff\n      mul\n      not\n      and\n      swap1\n      dup4\n      0xffffffffffffffffffffffffffffffffffffffff\n      and\n      mul\n      or\n      swap1\n      sstore\n      pop\n      0x20\n      dup3\n      add\n      mload\n      dup2\n      0x01\n      add\n      sstore\n      0x40\n      dup3\n      add\n      mload\n      dup2\n      0x02\n      add\n      sstore\n      0x60\n      dup3\n      add\n      mload\n      dup2\n      0x03\n      add\n      swap1\n      dup2\n      tag_166\n      swap2\n      swap1\n      tag_167\n      jump\t// in\n    tag_166:\n      pop\n      0x80\n      dup3\n      add\n      mload\n      dup2\n      0x04\n      add\n      exp(0x0100, 0x00)\n      dup2\n      sload\n      dup2\n      0xff\n      mul\n      not\n      and\n      swap1\n      dup4\n      iszero\n      iszero\n      mul\n      or\n      swap1\n      sstore\n      pop\n      pop\n      pop\n        /* \"contracts/GaslessDonationTracker.sol\":5987:5993  isPaid */\n      dup1\n        /* \"contracts/GaslessDonationTracker.sol\":5983:6099  if (isPaid) {... */\n      iszero\n      tag_168\n      jumpi\n        /* \"contracts/GaslessDonationTracker.sol\":6043:6049  amount */\n      dup3\n        /* \"contracts/GaslessDonationTracker.sol\":6009:6019  donorStats */\n      0x06\n        /* \"contracts/GaslessDonationTracker.sol\":6009:6026  donorStats[donor] */\n      0x00\n        /* \"contracts/GaslessDonationTracker.sol\":6020:6025  donor */\n      dup7\n        /* \"contracts/GaslessDonationTracker.sol\":6009:6026  donorStats[donor] */\n      0xffffffffffffffffffffffffffffffffffffffff\n      and\n      0xffffffffffffffffffffffffffffffffffffffff\n      and\n      dup2\n      mstore\n      0x20\n      add\n      swap1\n      dup2\n      mstore\n      0x20\n      add\n      0x00\n      keccak256\n        /* \"contracts/GaslessDonationTracker.sol\":6009:6039  donorStats[donor].totalDonated */\n      0x00\n      add\n      0x00\n        /* \"contracts/GaslessDonationTracker.sol\":6009:6049  donorStats[donor].totalDonated += amount */\n      dup3\n      dup3\n      sload\n      tag_169\n      swap2\n      swap1\n      tag_170\n      jump\t// in\n    tag_169:\n      swap3\n      pop\n      pop\n      dup2\n      swap1\n      sstore\n      pop\n        /* \"contracts/GaslessDonationTracker.sol\":6082:6088  amount */\n      dup3\n        /* \"contracts/GaslessDonationTracker.sol\":6063:6078  totalEthDonated */\n      0x01\n      0x00\n        /* \"contracts/GaslessDonationTracker.sol\":6063:6088  totalEthDonated += amount */\n      dup3\n      dup3\n      sload\n      tag_171\n      swap2\n      swap1\n      tag_170\n      jump\t// in\n    tag_171:\n      swap3\n      pop\n      pop\n      dup2\n      swap1\n      sstore\n      pop\n        /* \"contracts/GaslessDonationTracker.sol\":5983:6099  if (isPaid) {... */\n    tag_168:\n        /* \"contracts/GaslessDonationTracker.sol\":6108:6118  donorStats */\n      0x06\n        /* \"contracts/GaslessDonationTracker.sol\":6108:6125  donorStats[donor] */\n      0x00\n        /* \"contracts/GaslessDonationTracker.sol\":6119:6124  donor */\n      dup6\n        /* \"contracts/GaslessDonationTracker.sol\":6108:6125  donorStats[donor] */\n      0xffffffffffffffffffffffffffffffffffffffff\n      and\n      0xffffffffffffffffffffffffffffffffffffffff\n      and\n      dup2\n      mstore\n      0x20\n      add\n      swap1\n      dup2\n      mstore\n      0x20\n      add\n      0x00\n      keccak256\n        /* \"contracts/GaslessDonationTracker.sol\":6108:6139  donorStats[donor].donationCount */\n      0x01\n      add\n      0x00\n        /* \"contracts/GaslessDonationTracker.sol\":6108:6141  donorStats[donor].donationCount++ */\n      dup2\n      sload\n      dup1\n      swap3\n      swap2\n      swap1\n      tag_172\n      swap1\n      tag_173\n      jump\t// in\n    tag_172:\n      swap2\n      swap1\n      pop\n      sstore\n      pop\n        /* \"contracts/GaslessDonationTracker.sol\":6188:6203  block.timestamp */\n      timestamp\n        /* \"contracts/GaslessDonationTracker.sol\":6151:6161  donorStats */\n      0x06\n        /* \"contracts/GaslessDonationTracker.sol\":6151:6168  donorStats[donor] */\n      0x00\n        /* \"contracts/GaslessDonationTracker.sol\":6162:6167  donor */\n      dup7\n        /* \"contracts/GaslessDonationTracker.sol\":6151:6168  donorStats[donor] */\n      0xffffffffffffffffffffffffffffffffffffffff\n      and\n      0xffffffffffffffffffffffffffffffffffffffff\n      and\n      dup2\n      mstore\n      0x20\n      add\n      swap1\n      dup2\n      mstore\n      0x20\n      add\n      0x00\n      keccak256\n        /* \"contracts/GaslessDonationTracker.sol\":6151:6185  donorStats[donor].lastDonationTime */\n      0x03\n      add\n        /* \"contracts/GaslessDonationTracker.sol\":6151:6203  donorStats[donor].lastDonationTime = block.timestamp */\n      dup2\n      swap1\n      sstore\n      pop\n        /* \"contracts/GaslessDonationTracker.sol\":6213:6227  totalDonations */\n      0x02\n      0x00\n        /* \"contracts/GaslessDonationTracker.sol\":6213:6229  totalDonations++ */\n      dup2\n      sload\n      dup1\n      swap3\n      swap2\n      swap1\n      tag_174\n      swap1\n      tag_173\n      jump\t// in\n    tag_174:\n      swap2\n      swap1\n      pop\n      sstore\n      pop\n        /* \"contracts/GaslessDonationTracker.sol\":6284:6291  isDonor */\n      0x08\n        /* \"contracts/GaslessDonationTracker.sol\":6284:6298  isDonor[donor] */\n      0x00\n        /* \"contracts/GaslessDonationTracker.sol\":6292:6297  donor */\n      dup6\n        /* \"contracts/GaslessDonationTracker.sol\":6284:6298  isDonor[donor] */\n      0xffffffffffffffffffffffffffffffffffffffff\n      and\n      0xffffffffffffffffffffffffffffffffffffffff\n      and\n      dup2\n      mstore\n      0x20\n      add\n      swap1\n      dup2\n      mstore\n      0x20\n      add\n      0x00\n      keccak256\n      0x00\n      swap1\n      sload\n      swap1\n      0x0100\n      exp\n      swap1\n      div\n      0xff\n      and\n        /* \"contracts/GaslessDonationTracker.sol\":6279:6378  if (!isDonor[donor]) {... */\n      tag_175\n      jumpi\n        /* \"contracts/GaslessDonationTracker.sol\":6314:6320  donors */\n      0x07\n        /* \"contracts/GaslessDonationTracker.sol\":6326:6331  donor */\n      dup5\n        /* \"contracts/GaslessDonationTracker.sol\":6314:6332  donors.push(donor) */\n      swap1\n      dup1\n      0x01\n      dup2\n      sload\n      add\n      dup1\n      dup3\n      sstore\n      dup1\n      swap2\n      pop\n      pop\n      0x01\n      swap1\n      sub\n      swap1\n      0x00\n      mstore\n      keccak256(0x00, 0x20)\n      add\n      0x00\n      swap1\n      swap2\n      swap1\n      swap2\n      swap1\n      swap2\n      0x0100\n      exp\n      dup2\n      sload\n      dup2\n      0xffffffffffffffffffffffffffffffffffffffff\n      mul\n      not\n      and\n      swap1\n      dup4\n      0xffffffffffffffffffffffffffffffffffffffff\n      and\n      mul\n      or\n      swap1\n      sstore\n      pop\n        /* \"contracts/GaslessDonationTracker.sol\":6363:6367  true */\n      0x01\n        /* \"contracts/GaslessDonationTracker.sol\":6346:6353  isDonor */\n      0x08\n        /* \"contracts/GaslessDonationTracker.sol\":6346:6360  isDonor[donor] */\n      0x00\n        /* \"contracts/GaslessDonationTracker.sol\":6354:6359  donor */\n      dup7\n        /* \"contracts/GaslessDonationTracker.sol\":6346:6360  isDonor[donor] */\n      0xffffffffffffffffffffffffffffffffffffffff\n      and\n      0xffffffffffffffffffffffffffffffffffffffff\n      and\n      dup2\n      mstore\n      0x20\n      add\n      swap1\n      dup2\n      mstore\n      0x20\n      add\n      0x00\n      keccak256\n      0x00\n        /* \"contracts/GaslessDonationTracker.sol\":6346:6367  isDonor[donor] = true */\n      0x0100\n      exp\n      dup2\n      sload\n      dup2\n      0xff\n      mul\n      not\n      and\n      swap1\n      dup4\n      iszero\n      iszero\n      mul\n      or\n      swap1\n      sstore\n      pop\n        /* \"contracts/GaslessDonationTracker.sol\":6279:6378  if (!isDonor[donor]) {... */\n    tag_175:\n        /* \"contracts/GaslessDonationTracker.sol\":5563:6384  function _recordDonation(... */\n      pop\n      pop\n      pop\n      pop\n      jump\t// out\n        /* \"contracts/GaslessDonationTracker.sol\":10208:10535  function withdrawAmount(uint256 amount) external onlyBeneficiary {... */\n    tag_45:\n        /* \"contracts/GaslessDonationTracker.sol\":2831:2842  beneficiary */\n      0x00\n      0x00\n      swap1\n      sload\n      swap1\n      0x0100\n      exp\n      swap1\n      div\n      0xffffffffffffffffffffffffffffffffffffffff\n      and\n        /* \"contracts/GaslessDonationTracker.sol\":2817:2842  msg.sender != beneficiary */\n      0xffffffffffffffffffffffffffffffffffffffff\n      and\n        /* \"contracts/GaslessDonationTracker.sol\":2817:2827  msg.sender */\n      caller\n        /* \"contracts/GaslessDonationTracker.sol\":2817:2842  msg.sender != beneficiary */\n      0xffffffffffffffffffffffffffffffffffffffff\n      and\n      eq\n        /* \"contracts/GaslessDonationTracker.sol\":2813:2868  if (msg.sender != beneficiary) revert OnlyBeneficiary() */\n      tag_178\n      jumpi\n        /* \"contracts/GaslessDonationTracker.sol\":2851:2868  OnlyBeneficiary() */\n      mload(0x40)\n      0x5e5a974900000000000000000000000000000000000000000000000000000000\n      dup2\n      mstore\n      0x04\n      add\n      mload(0x40)\n      dup1\n      swap2\n      sub\n      swap1\n      revert\n        /* \"contracts/GaslessDonationTracker.sol\":2813:2868  if (msg.sender != beneficiary) revert OnlyBeneficiary() */\n    tag_178:\n        /* \"contracts/GaslessDonationTracker.sol\":10301:10322  address(this).balance */\n      selfbalance\n        /* \"contracts/GaslessDonationTracker.sol\":10291:10297  amount */\n      dup2\n        /* \"contracts/GaslessDonationTracker.sol\":10291:10322  amount <= address(this).balance */\n      gt\n      iszero\n        /* \"contracts/GaslessDonationTracker.sol\":10283:10347  require(amount <= address(this).balance, \"Insufficient balance\") */\n      tag_180\n      jumpi\n      mload(0x40)\n      0x08c379a000000000000000000000000000000000000000000000000000000000\n      dup2\n      mstore\n      0x04\n      add\n      tag_181\n      swap1\n      tag_182\n      jump\t// in\n    tag_181:\n      mload(0x40)\n      dup1\n      swap2\n      sub\n      swap1\n      revert\n    tag_180:\n        /* \"contracts/GaslessDonationTracker.sol\":10367:10379  bool success */\n      0x00\n        /* \"contracts/GaslessDonationTracker.sol\":10385:10396  beneficiary */\n      0x00\n      0x00\n      swap1\n      sload\n      swap1\n      0x0100\n      exp\n      swap1\n      div\n      0xffffffffffffffffffffffffffffffffffffffff\n      and\n        /* \"contracts/GaslessDonationTracker.sol\":10385:10401  beneficiary.call */\n      0xffffffffffffffffffffffffffffffffffffffff\n      and\n        /* \"contracts/GaslessDonationTracker.sol\":10409:10415  amount */\n      dup3\n        /* \"contracts/GaslessDonationTracker.sol\":10385:10420  beneficiary.call{value: amount}(\"\") */\n      mload(0x40)\n      tag_183\n      swap1\n      tag_184\n      jump\t// in\n    tag_183:\n      0x00\n      mload(0x40)\n      dup1\n      dup4\n      sub\n      dup2\n      dup6\n      dup8\n      gas\n      call\n      swap3\n      pop\n      pop\n      pop\n      returndatasize\n      dup1\n      0x00\n      dup2\n      eq\n      tag_187\n      jumpi\n      mload(0x40)\n      swap2\n      pop\n      and(add(returndatasize, 0x3f), not(0x1f))\n      dup3\n      add\n      0x40\n      mstore\n      returndatasize\n      dup3\n      mstore\n      returndatasize\n      0x00\n      0x20\n      dup5\n      add\n      returndatacopy\n      jump(tag_186)\n    tag_187:\n      0x60\n      swap2\n      pop\n    tag_186:\n      pop\n        /* \"contracts/GaslessDonationTracker.sol\":10366:10420  (bool success, ) = beneficiary.call{value: amount}(\"\") */\n      pop\n      swap1\n      pop\n        /* \"contracts/GaslessDonationTracker.sol\":10435:10442  success */\n      dup1\n        /* \"contracts/GaslessDonationTracker.sol\":10430:10469  if (!success) revert WithdrawalFailed() */\n      tag_188\n      jumpi\n        /* \"contracts/GaslessDonationTracker.sol\":10451:10469  WithdrawalFailed() */\n      mload(0x40)\n      0x27fcd9d100000000000000000000000000000000000000000000000000000000\n      dup2\n      mstore\n      0x04\n      add\n      mload(0x40)\n      dup1\n      swap2\n      sub\n      swap1\n      revert\n        /* \"contracts/GaslessDonationTracker.sol\":10430:10469  if (!success) revert WithdrawalFailed() */\n    tag_188:\n        /* \"contracts/GaslessDonationTracker.sol\":10508:10519  beneficiary */\n      0x00\n      0x00\n      swap1\n      sload\n      swap1\n      0x0100\n      exp\n      swap1\n      div\n      0xffffffffffffffffffffffffffffffffffffffff\n      and\n        /* \"contracts/GaslessDonationTracker.sol\":10493:10528  FundsWithdrawn(beneficiary, amount) */\n      0xffffffffffffffffffffffffffffffffffffffff\n      and\n      0xeaff4b37086828766ad3268786972c0cd24259d4c87a80f9d3963a3c3d999b0d\n        /* \"contracts/GaslessDonationTracker.sol\":10521:10527  amount */\n      dup4\n        /* \"contracts/GaslessDonationTracker.sol\":10493:10528  FundsWithdrawn(beneficiary, amount) */\n      mload(0x40)\n      tag_189\n      swap2\n      swap1\n      tag_50\n      jump\t// in\n    tag_189:\n      mload(0x40)\n      dup1\n      swap2\n      sub\n      swap1\n      log2\n        /* \"contracts/GaslessDonationTracker.sol\":10273:10535  {... */\n      pop\n        /* \"contracts/GaslessDonationTracker.sol\":10208:10535  function withdrawAmount(uint256 amount) external onlyBeneficiary {... */\n      pop\n      jump\t// out\n        /* \"contracts/GaslessDonationTracker.sol\":1124:1164  uint256 public totalGaslessContributions */\n    tag_48:\n      sload(0x03)\n      dup2\n      jump\t// out\n        /* \"contracts/GaslessDonationTracker.sol\":9000:9099  function getBalance() external view returns (uint256) {... */\n    tag_53:\n        /* \"contracts/GaslessDonationTracker.sol\":9045:9052  uint256 */\n      0x00\n        /* \"contracts/GaslessDonationTracker.sol\":9071:9092  address(this).balance */\n      selfbalance\n        /* \"contracts/GaslessDonationTracker.sol\":9064:9092  return address(this).balance */\n      swap1\n      pop\n        /* \"contracts/GaslessDonationTracker.sol\":9000:9099  function getBalance() external view returns (uint256) {... */\n      swap1\n      jump\t// out\n        /* \"contracts/GaslessDonationTracker.sol\":5015:5430  function batchTrackContributions(string[] calldata messages) external {... */\n    tag_59:\n        /* \"contracts/GaslessDonationTracker.sol\":5100:5109  uint256 i */\n      0x00\n        /* \"contracts/GaslessDonationTracker.sol\":5112:5113  0 */\n      0x00\n        /* \"contracts/GaslessDonationTracker.sol\":5100:5113  uint256 i = 0 */\n      swap1\n      pop\n        /* \"contracts/GaslessDonationTracker.sol\":5095:5257  for (uint256 i = 0; i < messages.length; i++) {... */\n    tag_192:\n        /* \"contracts/GaslessDonationTracker.sol\":5119:5127  messages */\n      dup3\n      dup3\n        /* \"contracts/GaslessDonationTracker.sol\":5119:5134  messages.length */\n      swap1\n      pop\n        /* \"contracts/GaslessDonationTracker.sol\":5115:5116  i */\n      dup2\n        /* \"contracts/GaslessDonationTracker.sol\":5115:5134  i < messages.length */\n      lt\n        /* \"contracts/GaslessDonationTracker.sol\":5095:5257  for (uint256 i = 0; i < messages.length; i++) {... */\n      iszero\n      tag_193\n      jumpi\n        /* \"contracts/GaslessDonationTracker.sol\":5155:5205  _recordDonation(msg.sender, 0, messages[i], false) */\n      tag_195\n        /* \"contracts/GaslessDonationTracker.sol\":5171:5181  msg.sender */\n      caller\n        /* \"contracts/GaslessDonationTracker.sol\":5183:5184  0 */\n      0x00\n        /* \"contracts/GaslessDonationTracker.sol\":5186:5194  messages */\n      dup6\n      dup6\n        /* \"contracts/GaslessDonationTracker.sol\":5195:5196  i */\n      dup6\n        /* \"contracts/GaslessDonationTracker.sol\":5186:5197  messages[i] */\n      dup2\n      dup2\n      lt\n      tag_196\n      jumpi\n      tag_197\n      tag_198\n      jump\t// in\n    tag_197:\n    tag_196:\n      swap1\n      pop\n      0x20\n      mul\n      dup2\n      add\n      swap1\n      tag_199\n      swap2\n      swap1\n      tag_200\n      jump\t// in\n    tag_199:\n        /* \"contracts/GaslessDonationTracker.sol\":5155:5205  _recordDonation(msg.sender, 0, messages[i], false) */\n      dup1\n      dup1\n      0x1f\n      add\n      0x20\n      dup1\n      swap2\n      div\n      mul\n      0x20\n      add\n      mload(0x40)\n      swap1\n      dup2\n      add\n      0x40\n      mstore\n      dup1\n      swap4\n      swap3\n      swap2\n      swap1\n      dup2\n      dup2\n      mstore\n      0x20\n      add\n      dup4\n      dup4\n      dup1\n      dup3\n      dup5\n      calldatacopy\n      0x00\n      dup2\n      dup5\n      add\n      mstore\n      not(0x1f)\n      0x1f\n      dup3\n      add\n      and\n      swap1\n      pop\n      dup1\n      dup4\n      add\n      swap3\n      pop\n      pop\n      pop\n      pop\n      pop\n      pop\n      pop\n        /* \"contracts/GaslessDonationTracker.sol\":5199:5204  false */\n      0x00\n        /* \"contracts/GaslessDonationTracker.sol\":5155:5170  _recordDonation */\n      tag_38\n        /* \"contracts/GaslessDonationTracker.sol\":5155:5205  _recordDonation(msg.sender, 0, messages[i], false) */\n      jump\t// in\n    tag_195:\n        /* \"contracts/GaslessDonationTracker.sol\":5219:5244  totalGaslessContributions */\n      0x03\n      0x00\n        /* \"contracts/GaslessDonationTracker.sol\":5219:5246  totalGaslessContributions++ */\n      dup2\n      sload\n      dup1\n      swap3\n      swap2\n      swap1\n      tag_201\n      swap1\n      tag_173\n      jump\t// in\n    tag_201:\n      swap2\n      swap1\n      pop\n      sstore\n      pop\n        /* \"contracts/GaslessDonationTracker.sol\":5136:5139  i++ */\n      dup1\n      dup1\n      0x01\n      add\n      swap2\n      pop\n      pop\n        /* \"contracts/GaslessDonationTracker.sol\":5095:5257  for (uint256 i = 0; i < messages.length; i++) {... */\n      jump(tag_192)\n    tag_193:\n      pop\n        /* \"contracts/GaslessDonationTracker.sol\":5314:5322  messages */\n      dup2\n      dup2\n        /* \"contracts/GaslessDonationTracker.sol\":5314:5329  messages.length */\n      swap1\n      pop\n        /* \"contracts/GaslessDonationTracker.sol\":5275:5285  donorStats */\n      0x06\n        /* \"contracts/GaslessDonationTracker.sol\":5275:5297  donorStats[msg.sender] */\n      0x00\n        /* \"contracts/GaslessDonationTracker.sol\":5286:5296  msg.sender */\n      caller\n        /* \"contracts/GaslessDonationTracker.sol\":5275:5297  donorStats[msg.sender] */\n      0xffffffffffffffffffffffffffffffffffffffff\n      and\n      0xffffffffffffffffffffffffffffffffffffffff\n      and\n      dup2\n      mstore\n      0x20\n      add\n      swap1\n      dup2\n      mstore\n      0x20\n      add\n      0x00\n      keccak256\n        /* \"contracts/GaslessDonationTracker.sol\":5275:5310  donorStats[msg.sender].gaslessCount */\n      0x02\n      add\n      0x00\n        /* \"contracts/GaslessDonationTracker.sol\":5275:5329  donorStats[msg.sender].gaslessCount += messages.length */\n      dup3\n      dup3\n      sload\n      tag_202\n      swap2\n      swap1\n      tag_170\n      jump\t// in\n    tag_202:\n      swap3\n      pop\n      pop\n      dup2\n      swap1\n      sstore\n      pop\n        /* \"contracts/GaslessDonationTracker.sol\":5373:5383  msg.sender */\n      caller\n        /* \"contracts/GaslessDonationTracker.sol\":5353:5423  GaslessContribution(msg.sender, block.timestamp, \"Batch contribution\") */\n      0xffffffffffffffffffffffffffffffffffffffff\n      and\n      0xd81d215722df92bb1877ad02bf864901bce7056f3548a858ad53b68ad531848c\n        /* \"contracts/GaslessDonationTracker.sol\":5385:5400  block.timestamp */\n      timestamp\n        /* \"contracts/GaslessDonationTracker.sol\":5353:5423  GaslessContribution(msg.sender, block.timestamp, \"Batch contribution\") */\n      mload(0x40)\n      tag_203\n      swap2\n      swap1\n      tag_204\n      jump\t// in\n    tag_203:\n      mload(0x40)\n      dup1\n      swap2\n      sub\n      swap1\n      log2\n        /* \"contracts/GaslessDonationTracker.sol\":5015:5430  function batchTrackContributions(string[] calldata messages) external {... */\n      pop\n      pop\n      jump\t// out\n        /* \"contracts/GaslessDonationTracker.sol\":11227:11329  function hasDonated(address donor) external view returns (bool) {... */\n    tag_64:\n        /* \"contracts/GaslessDonationTracker.sol\":11285:11289  bool */\n      0x00\n        /* \"contracts/GaslessDonationTracker.sol\":11308:11315  isDonor */\n      0x08\n        /* \"contracts/GaslessDonationTracker.sol\":11308:11322  isDonor[donor] */\n      0x00\n        /* \"contracts/GaslessDonationTracker.sol\":11316:11321  donor */\n      dup4\n        /* \"contracts/GaslessDonationTracker.sol\":11308:11322  isDonor[donor] */\n      0xffffffffffffffffffffffffffffffffffffffff\n      and\n      0xffffffffffffffffffffffffffffffffffffffff\n      and\n      dup2\n      mstore\n      0x20\n      add\n      swap1\n      dup2\n      mstore\n      0x20\n      add\n      0x00\n      keccak256\n      0x00\n      swap1\n      sload\n      swap1\n      0x0100\n      exp\n      swap1\n      div\n      0xff\n      and\n        /* \"contracts/GaslessDonationTracker.sol\":11301:11322  return isDonor[donor] */\n      swap1\n      pop\n        /* \"contracts/GaslessDonationTracker.sol\":11227:11329  function hasDonated(address donor) external view returns (bool) {... */\n      swap2\n      swap1\n      pop\n      jump\t// out\n        /* \"contracts/GaslessDonationTracker.sol\":1413:1461  mapping(address => DonorStats) public donorStats */\n    tag_70:\n      mstore(0x20, 0x06)\n      dup1\n      0x00\n      mstore\n      keccak256(0x00, 0x40)\n      0x00\n      swap2\n      pop\n      swap1\n      pop\n      dup1\n      0x00\n      add\n      sload\n      swap1\n      dup1\n      0x01\n      add\n      sload\n      swap1\n      dup1\n      0x02\n      add\n      sload\n      swap1\n      dup1\n      0x03\n      add\n      sload\n      swap1\n      pop\n      dup5\n      jump\t// out\n        /* \"contracts/GaslessDonationTracker.sol\":1227:1267  uint256 public minDonation = 0.001 ether */\n    tag_75:\n      sload(0x04)\n      dup2\n      jump\t// out\n        /* \"contracts/GaslessDonationTracker.sol\":4593:4891  function trackContribution(string calldata message) external {... */\n    tag_81:\n        /* \"contracts/GaslessDonationTracker.sol\":4664:4710  _recordDonation(msg.sender, 0, message, false) */\n      tag_207\n        /* \"contracts/GaslessDonationTracker.sol\":4680:4690  msg.sender */\n      caller\n        /* \"contracts/GaslessDonationTracker.sol\":4692:4693  0 */\n      0x00\n        /* \"contracts/GaslessDonationTracker.sol\":4695:4702  message */\n      dup5\n      dup5\n        /* \"contracts/GaslessDonationTracker.sol\":4664:4710  _recordDonation(msg.sender, 0, message, false) */\n      dup1\n      dup1\n      0x1f\n      add\n      0x20\n      dup1\n      swap2\n      div\n      mul\n      0x20\n      add\n      mload(0x40)\n      swap1\n      dup2\n      add\n      0x40\n      mstore\n      dup1\n      swap4\n      swap3\n      swap2\n      swap1\n      dup2\n      dup2\n      mstore\n      0x20\n      add\n      dup4\n      dup4\n      dup1\n      dup3\n      dup5\n      calldatacopy\n      0x00\n      dup2\n      dup5\n      add\n      mstore\n      not(0x1f)\n      0x1f\n      dup3\n      add\n      and\n      swap1\n      pop\n      dup1\n      dup4\n      add\n      swap3\n      pop\n      pop\n      pop\n      pop\n      pop\n      pop\n      pop\n        /* \"contracts/GaslessDonationTracker.sol\":4704:4709  false */\n      0x00\n        /* \"contracts/GaslessDonationTracker.sol\":4664:4679  _recordDonation */\n      tag_38\n        /* \"contracts/GaslessDonationTracker.sol\":4664:4710  _recordDonation(msg.sender, 0, message, false) */\n      jump\t// in\n    tag_207:\n        /* \"contracts/GaslessDonationTracker.sol\":4729:4739  donorStats */\n      0x06\n        /* \"contracts/GaslessDonationTracker.sol\":4729:4751  donorStats[msg.sender] */\n      0x00\n        /* \"contracts/GaslessDonationTracker.sol\":4740:4750  msg.sender */\n      caller\n        /* \"contracts/GaslessDonationTracker.sol\":4729:4751  donorStats[msg.sender] */\n      0xffffffffffffffffffffffffffffffffffffffff\n      and\n      0xffffffffffffffffffffffffffffffffffffffff\n      and\n      dup2\n      mstore\n      0x20\n      add\n      swap1\n      dup2\n      mstore\n      0x20\n      add\n      0x00\n      keccak256\n        /* \"contracts/GaslessDonationTracker.sol\":4729:4764  donorStats[msg.sender].gaslessCount */\n      0x02\n      add\n      0x00\n        /* \"contracts/GaslessDonationTracker.sol\":4729:4766  donorStats[msg.sender].gaslessCount++ */\n      dup2\n      sload\n      dup1\n      swap3\n      swap2\n      swap1\n      tag_208\n      swap1\n      tag_173\n      jump\t// in\n    tag_208:\n      swap2\n      swap1\n      pop\n      sstore\n      pop\n        /* \"contracts/GaslessDonationTracker.sol\":4776:4801  totalGaslessContributions */\n      0x03\n      0x00\n        /* \"contracts/GaslessDonationTracker.sol\":4776:4803  totalGaslessContributions++ */\n      dup2\n      sload\n      dup1\n      swap3\n      swap2\n      swap1\n      tag_209\n      swap1\n      tag_173\n      jump\t// in\n    tag_209:\n      swap2\n      swap1\n      pop\n      sstore\n      pop\n        /* \"contracts/GaslessDonationTracker.sol\":4847:4857  msg.sender */\n      caller\n        /* \"contracts/GaslessDonationTracker.sol\":4827:4884  GaslessContribution(msg.sender, block.timestamp, message) */\n      0xffffffffffffffffffffffffffffffffffffffff\n      and\n      0xd81d215722df92bb1877ad02bf864901bce7056f3548a858ad53b68ad531848c\n        /* \"contracts/GaslessDonationTracker.sol\":4859:4874  block.timestamp */\n      timestamp\n        /* \"contracts/GaslessDonationTracker.sol\":4876:4883  message */\n      dup5\n      dup5\n        /* \"contracts/GaslessDonationTracker.sol\":4827:4884  GaslessContribution(msg.sender, block.timestamp, message) */\n      mload(0x40)\n      tag_210\n      swap4\n      swap3\n      swap2\n      swap1\n      tag_211\n      jump\t// in\n    tag_210:\n      mload(0x40)\n      dup1\n      swap2\n      sub\n      swap1\n      log2\n        /* \"contracts/GaslessDonationTracker.sol\":4593:4891  function trackContribution(string calldata message) external {... */\n      pop\n      pop\n      jump\t// out\n        /* \"contracts/GaslessDonationTracker.sol\":7997:8104  function myStats() external view returns (DonorStats memory) {... */\n    tag_84:\n        /* \"contracts/GaslessDonationTracker.sol\":8039:8056  DonorStats memory */\n      tag_212\n      tag_213\n      jump\t// in\n    tag_212:\n        /* \"contracts/GaslessDonationTracker.sol\":8075:8085  donorStats */\n      0x06\n        /* \"contracts/GaslessDonationTracker.sol\":8075:8097  donorStats[msg.sender] */\n      0x00\n        /* \"contracts/GaslessDonationTracker.sol\":8086:8096  msg.sender */\n      caller\n        /* \"contracts/GaslessDonationTracker.sol\":8075:8097  donorStats[msg.sender] */\n      0xffffffffffffffffffffffffffffffffffffffff\n      and\n      0xffffffffffffffffffffffffffffffffffffffff\n      and\n      dup2\n      mstore\n      0x20\n      add\n      swap1\n      dup2\n      mstore\n      0x20\n      add\n      0x00\n      keccak256\n        /* \"contracts/GaslessDonationTracker.sol\":8068:8097  return donorStats[msg.sender] */\n      mload(0x40)\n      dup1\n      0x80\n      add\n      0x40\n      mstore\n      swap1\n      dup2\n      0x00\n      dup3\n      add\n      sload\n      dup2\n      mstore\n      0x20\n      add\n      0x01\n      dup3\n      add\n      sload\n      dup2\n      mstore\n      0x20\n      add\n      0x02\n      dup3\n      add\n      sload\n      dup2\n      mstore\n      0x20\n      add\n      0x03\n      dup3\n      add\n      sload\n      dup2\n      mstore\n      pop\n      pop\n      swap1\n      pop\n        /* \"contracts/GaslessDonationTracker.sol\":7997:8104  function myStats() external view returns (DonorStats memory) {... */\n      swap1\n      jump\t// out\n        /* \"contracts/GaslessDonationTracker.sol\":862:888  address public beneficiary */\n    tag_89:\n      0x00\n      0x00\n      swap1\n      sload\n      swap1\n      0x0100\n      exp\n      swap1\n      div\n      0xffffffffffffffffffffffffffffffffffffffff\n      and\n      dup2\n      jump\t// out\n        /* \"contracts/GaslessDonationTracker.sol\":9819:10157  function withdraw() external onlyBeneficiary {... */\n    tag_94:\n        /* \"contracts/GaslessDonationTracker.sol\":2831:2842  beneficiary */\n      0x00\n      0x00\n      swap1\n      sload\n      swap1\n      0x0100\n      exp\n      swap1\n      div\n      0xffffffffffffffffffffffffffffffffffffffff\n      and\n        /* \"contracts/GaslessDonationTracker.sol\":2817:2842  msg.sender != beneficiary */\n      0xffffffffffffffffffffffffffffffffffffffff\n      and\n        /* \"contracts/GaslessDonationTracker.sol\":2817:2827  msg.sender */\n      caller\n        /* \"contracts/GaslessDonationTracker.sol\":2817:2842  msg.sender != beneficiary */\n      0xffffffffffffffffffffffffffffffffffffffff\n      and\n      eq\n        /* \"contracts/GaslessDonationTracker.sol\":2813:2868  if (msg.sender != beneficiary) revert OnlyBeneficiary() */\n      tag_216\n      jumpi\n        /* \"contracts/GaslessDonationTracker.sol\":2851:2868  OnlyBeneficiary() */\n      mload(0x40)\n      0x5e5a974900000000000000000000000000000000000000000000000000000000\n      dup2\n      mstore\n      0x04\n      add\n      mload(0x40)\n      dup1\n      swap2\n      sub\n      swap1\n      revert\n        /* \"contracts/GaslessDonationTracker.sol\":2813:2868  if (msg.sender != beneficiary) revert OnlyBeneficiary() */\n    tag_216:\n        /* \"contracts/GaslessDonationTracker.sol\":9874:9889  uint256 balance */\n      0x00\n        /* \"contracts/GaslessDonationTracker.sol\":9892:9913  address(this).balance */\n      selfbalance\n        /* \"contracts/GaslessDonationTracker.sol\":9874:9913  uint256 balance = address(this).balance */\n      swap1\n      pop\n        /* \"contracts/GaslessDonationTracker.sol\":9938:9939  0 */\n      0x00\n        /* \"contracts/GaslessDonationTracker.sol\":9927:9934  balance */\n      dup2\n        /* \"contracts/GaslessDonationTracker.sol\":9927:9939  balance == 0 */\n      sub\n        /* \"contracts/GaslessDonationTracker.sol\":9923:9967  if (balance == 0) revert NoFundsToWithdraw() */\n      tag_218\n      jumpi\n        /* \"contracts/GaslessDonationTracker.sol\":9948:9967  NoFundsToWithdraw() */\n      mload(0x40)\n      0x67e3990d00000000000000000000000000000000000000000000000000000000\n      dup2\n      mstore\n      0x04\n      add\n      mload(0x40)\n      dup1\n      swap2\n      sub\n      swap1\n      revert\n        /* \"contracts/GaslessDonationTracker.sol\":9923:9967  if (balance == 0) revert NoFundsToWithdraw() */\n    tag_218:\n        /* \"contracts/GaslessDonationTracker.sol\":9987:9999  bool success */\n      0x00\n        /* \"contracts/GaslessDonationTracker.sol\":10005:10016  beneficiary */\n      0x00\n      0x00\n      swap1\n      sload\n      swap1\n      0x0100\n      exp\n      swap1\n      div\n      0xffffffffffffffffffffffffffffffffffffffff\n      and\n        /* \"contracts/GaslessDonationTracker.sol\":10005:10021  beneficiary.call */\n      0xffffffffffffffffffffffffffffffffffffffff\n      and\n        /* \"contracts/GaslessDonationTracker.sol\":10029:10036  balance */\n      dup3\n        /* \"contracts/GaslessDonationTracker.sol\":10005:10041  beneficiary.call{value: balance}(\"\") */\n      mload(0x40)\n      tag_219\n      swap1\n      tag_184\n      jump\t// in\n    tag_219:\n      0x00\n      mload(0x40)\n      dup1\n      dup4\n      sub\n      dup2\n      dup6\n      dup8\n      gas\n      call\n      swap3\n      pop\n      pop\n      pop\n      returndatasize\n      dup1\n      0x00\n      dup2\n      eq\n      tag_222\n      jumpi\n      mload(0x40)\n      swap2\n      pop\n      and(add(returndatasize, 0x3f), not(0x1f))\n      dup3\n      add\n      0x40\n      mstore\n      returndatasize\n      dup3\n      mstore\n      returndatasize\n      0x00\n      0x20\n      dup5\n      add\n      returndatacopy\n      jump(tag_221)\n    tag_222:\n      0x60\n      swap2\n      pop\n    tag_221:\n      pop\n        /* \"contracts/GaslessDonationTracker.sol\":9986:10041  (bool success, ) = beneficiary.call{value: balance}(\"\") */\n      pop\n      swap1\n      pop\n        /* \"contracts/GaslessDonationTracker.sol\":10056:10063  success */\n      dup1\n        /* \"contracts/GaslessDonationTracker.sol\":10051:10090  if (!success) revert WithdrawalFailed() */\n      tag_223\n      jumpi\n        /* \"contracts/GaslessDonationTracker.sol\":10072:10090  WithdrawalFailed() */\n      mload(0x40)\n      0x27fcd9d100000000000000000000000000000000000000000000000000000000\n      dup2\n      mstore\n      0x04\n      add\n      mload(0x40)\n      dup1\n      swap2\n      sub\n      swap1\n      revert\n        /* \"contracts/GaslessDonationTracker.sol\":10051:10090  if (!success) revert WithdrawalFailed() */\n    tag_223:\n        /* \"contracts/GaslessDonationTracker.sol\":10129:10140  beneficiary */\n      0x00\n      0x00\n      swap1\n      sload\n      swap1\n      0x0100\n      exp\n      swap1\n      div\n      0xffffffffffffffffffffffffffffffffffffffff\n      and\n        /* \"contracts/GaslessDonationTracker.sol\":10114:10150  FundsWithdrawn(beneficiary, balance) */\n      0xffffffffffffffffffffffffffffffffffffffff\n      and\n      0xeaff4b37086828766ad3268786972c0cd24259d4c87a80f9d3963a3c3d999b0d\n        /* \"contracts/GaslessDonationTracker.sol\":10142:10149  balance */\n      dup4\n        /* \"contracts/GaslessDonationTracker.sol\":10114:10150  FundsWithdrawn(beneficiary, balance) */\n      mload(0x40)\n      tag_224\n      swap2\n      swap1\n      tag_50\n      jump\t// in\n    tag_224:\n      mload(0x40)\n      dup1\n      swap2\n      sub\n      swap1\n      log2\n        /* \"contracts/GaslessDonationTracker.sol\":9864:10157  {... */\n      pop\n      pop\n        /* \"contracts/GaslessDonationTracker.sol\":9819:10157  function withdraw() external onlyBeneficiary {... */\n      jump\t// out\n        /* \"contracts/GaslessDonationTracker.sol\":11387:12089  function getDonationsByDonor(address donor) external view returns (uint256[] memory) {... */\n    tag_98:\n        /* \"contracts/GaslessDonationTracker.sol\":11454:11470  uint256[] memory */\n      0x60\n        /* \"contracts/GaslessDonationTracker.sol\":11482:11495  uint256 count */\n      0x00\n        /* \"contracts/GaslessDonationTracker.sol\":11498:11499  0 */\n      0x00\n        /* \"contracts/GaslessDonationTracker.sol\":11482:11499  uint256 count = 0 */\n      swap1\n      pop\n        /* \"contracts/GaslessDonationTracker.sol\":11564:11573  uint256 i */\n      0x00\n        /* \"contracts/GaslessDonationTracker.sol\":11576:11577  0 */\n      0x00\n        /* \"contracts/GaslessDonationTracker.sol\":11564:11577  uint256 i = 0 */\n      swap1\n      pop\n        /* \"contracts/GaslessDonationTracker.sol\":11559:11703  for (uint256 i = 0; i < donations.length; i++) {... */\n    tag_226:\n        /* \"contracts/GaslessDonationTracker.sol\":11583:11592  donations */\n      0x05\n        /* \"contracts/GaslessDonationTracker.sol\":11583:11599  donations.length */\n      dup1\n      sload\n      swap1\n      pop\n        /* \"contracts/GaslessDonationTracker.sol\":11579:11580  i */\n      dup2\n        /* \"contracts/GaslessDonationTracker.sol\":11579:11599  i < donations.length */\n      lt\n        /* \"contracts/GaslessDonationTracker.sol\":11559:11703  for (uint256 i = 0; i < donations.length; i++) {... */\n      iszero\n      tag_227\n      jumpi\n        /* \"contracts/GaslessDonationTracker.sol\":11646:11651  donor */\n      dup4\n        /* \"contracts/GaslessDonationTracker.sol\":11624:11651  donations[i].donor == donor */\n      0xffffffffffffffffffffffffffffffffffffffff\n      and\n        /* \"contracts/GaslessDonationTracker.sol\":11624:11633  donations */\n      0x05\n        /* \"contracts/GaslessDonationTracker.sol\":11634:11635  i */\n      dup3\n        /* \"contracts/GaslessDonationTracker.sol\":11624:11636  donations[i] */\n      dup2\n      sload\n      dup2\n      lt\n      tag_229\n      jumpi\n      tag_230\n      tag_198\n      jump\t// in\n    tag_230:\n    tag_229:\n      swap1\n      0x00\n      mstore\n      keccak256(0x00, 0x20)\n      swap1\n      0x05\n      mul\n      add\n        /* \"contracts/GaslessDonationTracker.sol\":11624:11642  donations[i].donor */\n      0x00\n      add\n      0x00\n      swap1\n      sload\n      swap1\n      0x0100\n      exp\n      swap1\n      div\n      0xffffffffffffffffffffffffffffffffffffffff\n      and\n        /* \"contracts/GaslessDonationTracker.sol\":11624:11651  donations[i].donor == donor */\n      0xffffffffffffffffffffffffffffffffffffffff\n      and\n      sub\n        /* \"contracts/GaslessDonationTracker.sol\":11620:11693  if (donations[i].donor == donor) {... */\n      tag_232\n      jumpi\n        /* \"contracts/GaslessDonationTracker.sol\":11671:11678  count++ */\n      dup2\n      dup1\n      tag_233\n      swap1\n      tag_173\n      jump\t// in\n    tag_233:\n      swap3\n      pop\n      pop\n        /* \"contracts/GaslessDonationTracker.sol\":11620:11693  if (donations[i].donor == donor) {... */\n    tag_232:\n        /* \"contracts/GaslessDonationTracker.sol\":11601:11604  i++ */\n      dup1\n      dup1\n      0x01\n      add\n      swap2\n      pop\n      pop\n        /* \"contracts/GaslessDonationTracker.sol\":11559:11703  for (uint256 i = 0; i < donations.length; i++) {... */\n      jump(tag_226)\n    tag_227:\n      pop\n        /* \"contracts/GaslessDonationTracker.sol\":11756:11780  uint256[] memory indices */\n      0x00\n        /* \"contracts/GaslessDonationTracker.sol\":11797:11802  count */\n      dup2\n        /* \"contracts/GaslessDonationTracker.sol\":11783:11803  new uint256[](count) */\n      0xffffffffffffffff\n      dup2\n      gt\n      iszero\n      tag_234\n      jumpi\n      tag_235\n      tag_236\n      jump\t// in\n    tag_235:\n    tag_234:\n      mload(0x40)\n      swap1\n      dup1\n      dup3\n      mstore\n      dup1\n      0x20\n      mul\n      0x20\n      add\n      dup3\n      add\n      0x40\n      mstore\n      dup1\n      iszero\n      tag_237\n      jumpi\n      dup2\n      0x20\n      add\n      0x20\n      dup3\n      mul\n      dup1\n      calldatasize\n      dup4\n      calldatacopy\n      dup1\n      dup3\n      add\n      swap2\n      pop\n      pop\n      swap1\n      pop\n    tag_237:\n      pop\n        /* \"contracts/GaslessDonationTracker.sol\":11756:11803  uint256[] memory indices = new uint256[](count) */\n      swap1\n      pop\n        /* \"contracts/GaslessDonationTracker.sol\":11813:11833  uint256 currentIndex */\n      0x00\n        /* \"contracts/GaslessDonationTracker.sol\":11836:11837  0 */\n      0x00\n        /* \"contracts/GaslessDonationTracker.sol\":11813:11837  uint256 currentIndex = 0 */\n      swap1\n      pop\n        /* \"contracts/GaslessDonationTracker.sol\":11861:11870  uint256 i */\n      0x00\n        /* \"contracts/GaslessDonationTracker.sol\":11873:11874  0 */\n      0x00\n        /* \"contracts/GaslessDonationTracker.sol\":11861:11874  uint256 i = 0 */\n      swap1\n      pop\n        /* \"contracts/GaslessDonationTracker.sol\":11856:12050  for (uint256 i = 0; i < donations.length; i++) {... */\n    tag_238:\n        /* \"contracts/GaslessDonationTracker.sol\":11880:11889  donations */\n      0x05\n        /* \"contracts/GaslessDonationTracker.sol\":11880:11896  donations.length */\n      dup1\n      sload\n      swap1\n      pop\n        /* \"contracts/GaslessDonationTracker.sol\":11876:11877  i */\n      dup2\n        /* \"contracts/GaslessDonationTracker.sol\":11876:11896  i < donations.length */\n      lt\n        /* \"contracts/GaslessDonationTracker.sol\":11856:12050  for (uint256 i = 0; i < donations.length; i++) {... */\n      iszero\n      tag_239\n      jumpi\n        /* \"contracts/GaslessDonationTracker.sol\":11943:11948  donor */\n      dup6\n        /* \"contracts/GaslessDonationTracker.sol\":11921:11948  donations[i].donor == donor */\n      0xffffffffffffffffffffffffffffffffffffffff\n      and\n        /* \"contracts/GaslessDonationTracker.sol\":11921:11930  donations */\n      0x05\n        /* \"contracts/GaslessDonationTracker.sol\":11931:11932  i */\n      dup3\n        /* \"contracts/GaslessDonationTracker.sol\":11921:11933  donations[i] */\n      dup2\n      sload\n      dup2\n      lt\n      tag_241\n      jumpi\n      tag_242\n      tag_198\n      jump\t// in\n    tag_242:\n    tag_241:\n      swap1\n      0x00\n      mstore\n      keccak256(0x00, 0x20)\n      swap1\n      0x05\n      mul\n      add\n        /* \"contracts/GaslessDonationTracker.sol\":11921:11939  donations[i].donor */\n      0x00\n      add\n      0x00\n      swap1\n      sload\n      swap1\n      0x0100\n      exp\n      swap1\n      div\n      0xffffffffffffffffffffffffffffffffffffffff\n      and\n        /* \"contracts/GaslessDonationTracker.sol\":11921:11948  donations[i].donor == donor */\n      0xffffffffffffffffffffffffffffffffffffffff\n      and\n      sub\n        /* \"contracts/GaslessDonationTracker.sol\":11917:12040  if (donations[i].donor == donor) {... */\n      tag_244\n      jumpi\n        /* \"contracts/GaslessDonationTracker.sol\":11992:11993  i */\n      dup1\n        /* \"contracts/GaslessDonationTracker.sol\":11968:11975  indices */\n      dup4\n        /* \"contracts/GaslessDonationTracker.sol\":11976:11988  currentIndex */\n      dup4\n        /* \"contracts/GaslessDonationTracker.sol\":11968:11989  indices[currentIndex] */\n      dup2\n      mload\n      dup2\n      lt\n      tag_245\n      jumpi\n      tag_246\n      tag_198\n      jump\t// in\n    tag_246:\n    tag_245:\n      0x20\n      mul\n      0x20\n      add\n      add\n        /* \"contracts/GaslessDonationTracker.sol\":11968:11993  indices[currentIndex] = i */\n      dup2\n      dup2\n      mstore\n      pop\n      pop\n        /* \"contracts/GaslessDonationTracker.sol\":12011:12025  currentIndex++ */\n      dup2\n      dup1\n      tag_247\n      swap1\n      tag_173\n      jump\t// in\n    tag_247:\n      swap3\n      pop\n      pop\n        /* \"contracts/GaslessDonationTracker.sol\":11917:12040  if (donations[i].donor == donor) {... */\n    tag_244:\n        /* \"contracts/GaslessDonationTracker.sol\":11898:11901  i++ */\n      dup1\n      dup1\n      0x01\n      add\n      swap2\n      pop\n      pop\n        /* \"contracts/GaslessDonationTracker.sol\":11856:12050  for (uint256 i = 0; i < donations.length; i++) {... */\n      jump(tag_238)\n    tag_239:\n      pop\n        /* \"contracts/GaslessDonationTracker.sol\":12075:12082  indices */\n      dup2\n        /* \"contracts/GaslessDonationTracker.sol\":12068:12082  return indices */\n      swap4\n      pop\n      pop\n      pop\n      pop\n        /* \"contracts/GaslessDonationTracker.sol\":11387:12089  function getDonationsByDonor(address donor) external view returns (uint256[] memory) {... */\n      swap2\n      swap1\n      pop\n      jump\t// out\n        /* \"contracts/GaslessDonationTracker.sol\":1516:1539  address[] public donors */\n    tag_104:\n      0x07\n      dup2\n      dup2\n      sload\n      dup2\n      lt\n      tag_248\n      jumpi\n      0x00\n      dup1\n      revert\n    tag_248:\n      swap1\n      0x00\n      mstore\n      keccak256(0x00, 0x20)\n      add\n      0x00\n      swap2\n      pop\n      sload\n      swap1\n      0x0100\n      exp\n      swap1\n      div\n      0xffffffffffffffffffffffffffffffffffffffff\n      and\n      dup2\n      jump\t// out\n        /* \"contracts/GaslessDonationTracker.sol\":933:963  uint256 public totalEthDonated */\n    tag_108:\n      sload(0x01)\n      dup2\n      jump\t// out\n        /* \"contracts/GaslessDonationTracker.sol\":3732:3998  function quickDonate() external payable {... */\n    tag_111:\n        /* \"contracts/GaslessDonationTracker.sol\":3798:3809  minDonation */\n      sload(0x04)\n        /* \"contracts/GaslessDonationTracker.sol\":3786:3795  msg.value */\n      callvalue\n        /* \"contracts/GaslessDonationTracker.sol\":3786:3809  msg.value < minDonation */\n      lt\n        /* \"contracts/GaslessDonationTracker.sol\":3782:3840  if (msg.value < minDonation) revert BelowMinimumDonation() */\n      iszero\n      tag_251\n      jumpi\n        /* \"contracts/GaslessDonationTracker.sol\":3818:3840  BelowMinimumDonation() */\n      mload(0x40)\n      0x6a10ccc900000000000000000000000000000000000000000000000000000000\n      dup2\n      mstore\n      0x04\n      add\n      mload(0x40)\n      dup1\n      swap2\n      sub\n      swap1\n      revert\n        /* \"contracts/GaslessDonationTracker.sol\":3782:3840  if (msg.value < minDonation) revert BelowMinimumDonation() */\n    tag_251:\n        /* \"contracts/GaslessDonationTracker.sol\":3859:3907  _recordDonation(msg.sender, msg.value, \"\", true) */\n      tag_252\n        /* \"contracts/GaslessDonationTracker.sol\":3875:3885  msg.sender */\n      caller\n        /* \"contracts/GaslessDonationTracker.sol\":3887:3896  msg.value */\n      callvalue\n        /* \"contracts/GaslessDonationTracker.sol\":3859:3907  _recordDonation(msg.sender, msg.value, \"\", true) */\n      mload(0x40)\n      dup1\n      0x20\n      add\n      0x40\n      mstore\n      dup1\n      0x00\n      dup2\n      mstore\n      pop\n        /* \"contracts/GaslessDonationTracker.sol\":3902:3906  true */\n      0x01\n        /* \"contracts/GaslessDonationTracker.sol\":3859:3874  _recordDonation */\n      tag_38\n        /* \"contracts/GaslessDonationTracker.sol\":3859:3907  _recordDonation(msg.sender, msg.value, \"\", true) */\n      jump\t// in\n    tag_252:\n        /* \"contracts/GaslessDonationTracker.sol\":3948:3958  msg.sender */\n      caller\n        /* \"contracts/GaslessDonationTracker.sol\":3931:3991  DonationReceived(msg.sender, msg.value, block.timestamp, \"\") */\n      0xffffffffffffffffffffffffffffffffffffffff\n      and\n      0xf041a5bfea1be2e3f78bbadfadc66bb6f6d62860e629a44d71bec1ef49411c9e\n        /* \"contracts/GaslessDonationTracker.sol\":3960:3969  msg.value */\n      callvalue\n        /* \"contracts/GaslessDonationTracker.sol\":3971:3986  block.timestamp */\n      timestamp\n        /* \"contracts/GaslessDonationTracker.sol\":3931:3991  DonationReceived(msg.sender, msg.value, block.timestamp, \"\") */\n      mload(0x40)\n      tag_253\n      swap3\n      swap2\n      swap1\n      tag_254\n      jump\t// in\n    tag_253:\n      mload(0x40)\n      dup1\n      swap2\n      sub\n      swap1\n      log2\n        /* \"contracts/GaslessDonationTracker.sol\":3732:3998  function quickDonate() external payable {... */\n      jump\t// out\n        /* \"contracts/GaslessDonationTracker.sol\":10592:10747  function setMinDonation(uint256 newMinimum) external onlyBeneficiary {... */\n    tag_115:\n        /* \"contracts/GaslessDonationTracker.sol\":2831:2842  beneficiary */\n      0x00\n      0x00\n      swap1\n      sload\n      swap1\n      0x0100\n      exp\n      swap1\n      div\n      0xffffffffffffffffffffffffffffffffffffffff\n      and\n        /* \"contracts/GaslessDonationTracker.sol\":2817:2842  msg.sender != beneficiary */\n      0xffffffffffffffffffffffffffffffffffffffff\n      and\n        /* \"contracts/GaslessDonationTracker.sol\":2817:2827  msg.sender */\n      caller\n        /* \"contracts/GaslessDonationTracker.sol\":2817:2842  msg.sender != beneficiary */\n      0xffffffffffffffffffffffffffffffffffffffff\n      and\n      eq\n        /* \"contracts/GaslessDonationTracker.sol\":2813:2868  if (msg.sender != beneficiary) revert OnlyBeneficiary() */\n      tag_256\n      jumpi\n        /* \"contracts/GaslessDonationTracker.sol\":2851:2868  OnlyBeneficiary() */\n      mload(0x40)\n      0x5e5a974900000000000000000000000000000000000000000000000000000000\n      dup2\n      mstore\n      0x04\n      add\n      mload(0x40)\n      dup1\n      swap2\n      sub\n      swap1\n      revert\n        /* \"contracts/GaslessDonationTracker.sol\":2813:2868  if (msg.sender != beneficiary) revert OnlyBeneficiary() */\n    tag_256:\n        /* \"contracts/GaslessDonationTracker.sol\":10685:10695  newMinimum */\n      dup1\n        /* \"contracts/GaslessDonationTracker.sol\":10671:10682  minDonation */\n      0x04\n        /* \"contracts/GaslessDonationTracker.sol\":10671:10695  minDonation = newMinimum */\n      dup2\n      swap1\n      sstore\n      pop\n        /* \"contracts/GaslessDonationTracker.sol\":10710:10740  MinDonationUpdated(newMinimum) */\n      0xe07e4d9c719d73ec9ff422c869c07437bfbea9b818345f73eea7f983d57b6902\n        /* \"contracts/GaslessDonationTracker.sol\":10729:10739  newMinimum */\n      dup2\n        /* \"contracts/GaslessDonationTracker.sol\":10710:10740  MinDonationUpdated(newMinimum) */\n      mload(0x40)\n      tag_258\n      swap2\n      swap1\n      tag_50\n      jump\t// in\n    tag_258:\n      mload(0x40)\n      dup1\n      swap2\n      sub\n      swap1\n      log1\n        /* \"contracts/GaslessDonationTracker.sol\":10592:10747  function setMinDonation(uint256 newMinimum) external onlyBeneficiary {... */\n      pop\n      jump\t// out\n        /* \"contracts/GaslessDonationTracker.sol\":3383:3677  function donate(string calldata message) external payable {... */\n    tag_118:\n        /* \"contracts/GaslessDonationTracker.sol\":3467:3478  minDonation */\n      sload(0x04)\n        /* \"contracts/GaslessDonationTracker.sol\":3455:3464  msg.value */\n      callvalue\n        /* \"contracts/GaslessDonationTracker.sol\":3455:3478  msg.value < minDonation */\n      lt\n        /* \"contracts/GaslessDonationTracker.sol\":3451:3509  if (msg.value < minDonation) revert BelowMinimumDonation() */\n      iszero\n      tag_260\n      jumpi\n        /* \"contracts/GaslessDonationTracker.sol\":3487:3509  BelowMinimumDonation() */\n      mload(0x40)\n      0x6a10ccc900000000000000000000000000000000000000000000000000000000\n      dup2\n      mstore\n      0x04\n      add\n      mload(0x40)\n      dup1\n      swap2\n      sub\n      swap1\n      revert\n        /* \"contracts/GaslessDonationTracker.sol\":3451:3509  if (msg.value < minDonation) revert BelowMinimumDonation() */\n    tag_260:\n        /* \"contracts/GaslessDonationTracker.sol\":3528:3581  _recordDonation(msg.sender, msg.value, message, true) */\n      tag_261\n        /* \"contracts/GaslessDonationTracker.sol\":3544:3554  msg.sender */\n      caller\n        /* \"contracts/GaslessDonationTracker.sol\":3556:3565  msg.value */\n      callvalue\n        /* \"contracts/GaslessDonationTracker.sol\":3567:3574  message */\n      dup5\n      dup5\n        /* \"contracts/GaslessDonationTracker.sol\":3528:3581  _recordDonation(msg.sender, msg.value, message, true) */\n      dup1\n      dup1\n      0x1f\n      add\n      0x20\n      dup1\n      swap2\n      div\n      mul\n      0x20\n      add\n      mload(0x40)\n      swap1\n      dup2\n      add\n      0x40\n      mstore\n      dup1\n      swap4\n      swap3\n      swap2\n      swap1\n      dup2\n      dup2\n      mstore\n      0x20\n      add\n      dup4\n      dup4\n      dup1\n      dup3\n      dup5\n      calldatacopy\n      0x00\n      dup2\n      dup5\n      add\n      mstore\n      not(0x1f)\n      0x1f\n      dup3\n      add\n      and\n      swap1\n      pop\n      dup1\n      dup4\n      add\n      swap3\n      pop\n      pop\n      pop\n      pop\n      pop\n      pop\n      pop\n        /* \"contracts/GaslessDonationTracker.sol\":3576:3580  true */\n      0x01\n        /* \"contracts/GaslessDonationTracker.sol\":3528:3543  _recordDonation */\n      tag_38\n        /* \"contracts/GaslessDonationTracker.sol\":3528:3581  _recordDonation(msg.sender, msg.value, message, true) */\n      jump\t// in\n    tag_261:\n        /* \"contracts/GaslessDonationTracker.sol\":3622:3632  msg.sender */\n      caller\n        /* \"contracts/GaslessDonationTracker.sol\":3605:3670  DonationReceived(msg.sender, msg.value, block.timestamp, message) */\n      0xffffffffffffffffffffffffffffffffffffffff\n      and\n      0xf041a5bfea1be2e3f78bbadfadc66bb6f6d62860e629a44d71bec1ef49411c9e\n        /* \"contracts/GaslessDonationTracker.sol\":3634:3643  msg.value */\n      callvalue\n        /* \"contracts/GaslessDonationTracker.sol\":3645:3660  block.timestamp */\n      timestamp\n        /* \"contracts/GaslessDonationTracker.sol\":3662:3669  message */\n      dup6\n      dup6\n        /* \"contracts/GaslessDonationTracker.sol\":3605:3670  DonationReceived(msg.sender, msg.value, block.timestamp, message) */\n      mload(0x40)\n      tag_262\n      swap5\n      swap4\n      swap3\n      swap2\n      swap1\n      tag_263\n      jump\t// in\n    tag_262:\n      mload(0x40)\n      dup1\n      swap2\n      sub\n      swap1\n      log2\n        /* \"contracts/GaslessDonationTracker.sol\":3383:3677  function donate(string calldata message) external payable {... */\n      pop\n      pop\n      jump\t// out\n        /* \"contracts/GaslessDonationTracker.sol\":9157:9699  function getStats() external view returns (... */\n    tag_121:\n        /* \"contracts/GaslessDonationTracker.sol\":9209:9225  uint256 totalEth */\n      0x00\n        /* \"contracts/GaslessDonationTracker.sol\":9235:9261  uint256 totalDonationCount */\n      0x00\n        /* \"contracts/GaslessDonationTracker.sol\":9271:9291  uint256 gaslessCount */\n      0x00\n        /* \"contracts/GaslessDonationTracker.sol\":9301:9321  uint256 uniqueDonors */\n      0x00\n        /* \"contracts/GaslessDonationTracker.sol\":9331:9354  uint256 averageDonation */\n      0x00\n        /* \"contracts/GaslessDonationTracker.sol\":9371:9392  uint256 paidDonations */\n      0x00\n        /* \"contracts/GaslessDonationTracker.sol\":9412:9437  totalGaslessContributions */\n      sload(0x03)\n        /* \"contracts/GaslessDonationTracker.sol\":9395:9409  totalDonations */\n      sload(0x02)\n        /* \"contracts/GaslessDonationTracker.sol\":9395:9437  totalDonations - totalGaslessContributions */\n      tag_265\n      swap2\n      swap1\n      tag_266\n      jump\t// in\n    tag_265:\n        /* \"contracts/GaslessDonationTracker.sol\":9371:9437  uint256 paidDonations = totalDonations - totalGaslessContributions */\n      swap1\n      pop\n        /* \"contracts/GaslessDonationTracker.sol\":9447:9458  uint256 avg */\n      0x00\n        /* \"contracts/GaslessDonationTracker.sol\":9477:9478  0 */\n      0x00\n        /* \"contracts/GaslessDonationTracker.sol\":9461:9474  paidDonations */\n      dup3\n        /* \"contracts/GaslessDonationTracker.sol\":9461:9478  paidDonations > 0 */\n      gt\n        /* \"contracts/GaslessDonationTracker.sol\":9461:9516  paidDonations > 0 ? totalEthDonated / paidDonations : 0 */\n      tag_267\n      jumpi\n        /* \"contracts/GaslessDonationTracker.sol\":9515:9516  0 */\n      0x00\n        /* \"contracts/GaslessDonationTracker.sol\":9461:9516  paidDonations > 0 ? totalEthDonated / paidDonations : 0 */\n      jump(tag_268)\n    tag_267:\n        /* \"contracts/GaslessDonationTracker.sol\":9499:9512  paidDonations */\n      dup2\n        /* \"contracts/GaslessDonationTracker.sol\":9481:9496  totalEthDonated */\n      sload(0x01)\n        /* \"contracts/GaslessDonationTracker.sol\":9481:9512  totalEthDonated / paidDonations */\n      tag_269\n      swap2\n      swap1\n      tag_270\n      jump\t// in\n    tag_269:\n        /* \"contracts/GaslessDonationTracker.sol\":9461:9516  paidDonations > 0 ? totalEthDonated / paidDonations : 0 */\n    tag_268:\n        /* \"contracts/GaslessDonationTracker.sol\":9447:9516  uint256 avg = paidDonations > 0 ? totalEthDonated / paidDonations : 0 */\n      swap1\n      pop\n        /* \"contracts/GaslessDonationTracker.sol\":9556:9571  totalEthDonated */\n      sload(0x01)\n        /* \"contracts/GaslessDonationTracker.sol\":9585:9599  totalDonations */\n      sload(0x02)\n        /* \"contracts/GaslessDonationTracker.sol\":9613:9638  totalGaslessContributions */\n      sload(0x03)\n        /* \"contracts/GaslessDonationTracker.sol\":9652:9658  donors */\n      0x07\n        /* \"contracts/GaslessDonationTracker.sol\":9652:9665  donors.length */\n      dup1\n      sload\n      swap1\n      pop\n        /* \"contracts/GaslessDonationTracker.sol\":9679:9682  avg */\n      dup5\n        /* \"contracts/GaslessDonationTracker.sol\":9535:9692  return (... */\n      swap7\n      pop\n      swap7\n      pop\n      swap7\n      pop\n      swap7\n      pop\n      swap7\n      pop\n      pop\n      pop\n        /* \"contracts/GaslessDonationTracker.sol\":9157:9699  function getStats() external view returns (... */\n      swap1\n      swap2\n      swap3\n      swap4\n      swap5\n      jump\t// out\n        /* \"contracts/GaslessDonationTracker.sol\":7532:7944  function getDonorStats(address donor) external view returns (... */\n    tag_127:\n        /* \"contracts/GaslessDonationTracker.sol\":7602:7622  uint256 totalDonated */\n      0x00\n        /* \"contracts/GaslessDonationTracker.sol\":7632:7653  uint256 donationCount */\n      0x00\n        /* \"contracts/GaslessDonationTracker.sol\":7663:7683  uint256 gaslessCount */\n      0x00\n        /* \"contracts/GaslessDonationTracker.sol\":7693:7717  uint256 lastDonationTime */\n      0x00\n        /* \"contracts/GaslessDonationTracker.sol\":7734:7757  DonorStats memory stats */\n      0x00\n        /* \"contracts/GaslessDonationTracker.sol\":7760:7770  donorStats */\n      0x06\n        /* \"contracts/GaslessDonationTracker.sol\":7760:7777  donorStats[donor] */\n      0x00\n        /* \"contracts/GaslessDonationTracker.sol\":7771:7776  donor */\n      dup8\n        /* \"contracts/GaslessDonationTracker.sol\":7760:7777  donorStats[donor] */\n      0xffffffffffffffffffffffffffffffffffffffff\n      and\n      0xffffffffffffffffffffffffffffffffffffffff\n      and\n      dup2\n      mstore\n      0x20\n      add\n      swap1\n      dup2\n      mstore\n      0x20\n      add\n      0x00\n      keccak256\n        /* \"contracts/GaslessDonationTracker.sol\":7734:7777  DonorStats memory stats = donorStats[donor] */\n      mload(0x40)\n      dup1\n      0x80\n      add\n      0x40\n      mstore\n      swap1\n      dup2\n      0x00\n      dup3\n      add\n      sload\n      dup2\n      mstore\n      0x20\n      add\n      0x01\n      dup3\n      add\n      sload\n      dup2\n      mstore\n      0x20\n      add\n      0x02\n      dup3\n      add\n      sload\n      dup2\n      mstore\n      0x20\n      add\n      0x03\n      dup3\n      add\n      sload\n      dup2\n      mstore\n      pop\n      pop\n      swap1\n      pop\n        /* \"contracts/GaslessDonationTracker.sol\":7808:7813  stats */\n      dup1\n        /* \"contracts/GaslessDonationTracker.sol\":7808:7826  stats.totalDonated */\n      0x00\n      add\n      mload\n        /* \"contracts/GaslessDonationTracker.sol\":7840:7845  stats */\n      dup2\n        /* \"contracts/GaslessDonationTracker.sol\":7840:7859  stats.donationCount */\n      0x20\n      add\n      mload\n        /* \"contracts/GaslessDonationTracker.sol\":7873:7878  stats */\n      dup3\n        /* \"contracts/GaslessDonationTracker.sol\":7873:7891  stats.gaslessCount */\n      0x40\n      add\n      mload\n        /* \"contracts/GaslessDonationTracker.sol\":7905:7910  stats */\n      dup4\n        /* \"contracts/GaslessDonationTracker.sol\":7905:7927  stats.lastDonationTime */\n      0x60\n      add\n      mload\n        /* \"contracts/GaslessDonationTracker.sol\":7787:7937  return (... */\n      swap5\n      pop\n      swap5\n      pop\n      swap5\n      pop\n      swap5\n      pop\n      pop\n        /* \"contracts/GaslessDonationTracker.sol\":7532:7944  function getDonorStats(address donor) external view returns (... */\n      swap2\n      swap4\n      pop\n      swap2\n      swap4\n      jump\t// out\n        /* \"contracts/GaslessDonationTracker.sol\":10800:11117  function changeBeneficiary(address newBeneficiary) external onlyBeneficiary {... */\n    tag_132:\n        /* \"contracts/GaslessDonationTracker.sol\":2831:2842  beneficiary */\n      0x00\n      0x00\n      swap1\n      sload\n      swap1\n      0x0100\n      exp\n      swap1\n      div\n      0xffffffffffffffffffffffffffffffffffffffff\n      and\n        /* \"contracts/GaslessDonationTracker.sol\":2817:2842  msg.sender != beneficiary */\n      0xffffffffffffffffffffffffffffffffffffffff\n      and\n        /* \"contracts/GaslessDonationTracker.sol\":2817:2827  msg.sender */\n      caller\n        /* \"contracts/GaslessDonationTracker.sol\":2817:2842  msg.sender != beneficiary */\n      0xffffffffffffffffffffffffffffffffffffffff\n      and\n      eq\n        /* \"contracts/GaslessDonationTracker.sol\":2813:2868  if (msg.sender != beneficiary) revert OnlyBeneficiary() */\n      tag_273\n      jumpi\n        /* \"contracts/GaslessDonationTracker.sol\":2851:2868  OnlyBeneficiary() */\n      mload(0x40)\n      0x5e5a974900000000000000000000000000000000000000000000000000000000\n      dup2\n      mstore\n      0x04\n      add\n      mload(0x40)\n      dup1\n      swap2\n      sub\n      swap1\n      revert\n        /* \"contracts/GaslessDonationTracker.sol\":2813:2868  if (msg.sender != beneficiary) revert OnlyBeneficiary() */\n    tag_273:\n        /* \"contracts/GaslessDonationTracker.sol\":10916:10917  0 */\n      0x00\n        /* \"contracts/GaslessDonationTracker.sol\":10890:10918  newBeneficiary == address(0) */\n      0xffffffffffffffffffffffffffffffffffffffff\n      and\n        /* \"contracts/GaslessDonationTracker.sol\":10890:10904  newBeneficiary */\n      dup2\n        /* \"contracts/GaslessDonationTracker.sol\":10890:10918  newBeneficiary == address(0) */\n      0xffffffffffffffffffffffffffffffffffffffff\n      and\n      sub\n        /* \"contracts/GaslessDonationTracker.sol\":10886:10943  if (newBeneficiary == address(0)) revert InvalidAddress() */\n      tag_275\n      jumpi\n        /* \"contracts/GaslessDonationTracker.sol\":10927:10943  InvalidAddress() */\n      mload(0x40)\n      0xe6c4247b00000000000000000000000000000000000000000000000000000000\n      dup2\n      mstore\n      0x04\n      add\n      mload(0x40)\n      dup1\n      swap2\n      sub\n      swap1\n      revert\n        /* \"contracts/GaslessDonationTracker.sol\":10886:10943  if (newBeneficiary == address(0)) revert InvalidAddress() */\n    tag_275:\n        /* \"contracts/GaslessDonationTracker.sol\":10962:10984  address oldBeneficiary */\n      0x00\n        /* \"contracts/GaslessDonationTracker.sol\":10987:10998  beneficiary */\n      0x00\n      0x00\n      swap1\n      sload\n      swap1\n      0x0100\n      exp\n      swap1\n      div\n      0xffffffffffffffffffffffffffffffffffffffff\n      and\n        /* \"contracts/GaslessDonationTracker.sol\":10962:10998  address oldBeneficiary = beneficiary */\n      swap1\n      pop\n        /* \"contracts/GaslessDonationTracker.sol\":11022:11036  newBeneficiary */\n      dup2\n        /* \"contracts/GaslessDonationTracker.sol\":11008:11019  beneficiary */\n      0x00\n      0x00\n        /* \"contracts/GaslessDonationTracker.sol\":11008:11036  beneficiary = newBeneficiary */\n      0x0100\n      exp\n      dup2\n      sload\n      dup2\n      0xffffffffffffffffffffffffffffffffffffffff\n      mul\n      not\n      and\n      swap1\n      dup4\n      0xffffffffffffffffffffffffffffffffffffffff\n      and\n      mul\n      or\n      swap1\n      sstore\n      pop\n        /* \"contracts/GaslessDonationTracker.sol\":11095:11109  newBeneficiary */\n      dup2\n        /* \"contracts/GaslessDonationTracker.sol\":11060:11110  BeneficiaryChanged(oldBeneficiary, newBeneficiary) */\n      0xffffffffffffffffffffffffffffffffffffffff\n      and\n        /* \"contracts/GaslessDonationTracker.sol\":11079:11093  oldBeneficiary */\n      dup2\n        /* \"contracts/GaslessDonationTracker.sol\":11060:11110  BeneficiaryChanged(oldBeneficiary, newBeneficiary) */\n      0xffffffffffffffffffffffffffffffffffffffff\n      and\n      0x768099735d1c322a05a5b9d7b76d99682a1833d3f7055e5ede25e0f2eeaa8c6d\n      mload(0x40)\n      mload(0x40)\n      dup1\n      swap2\n      sub\n      swap1\n      log3\n        /* \"contracts/GaslessDonationTracker.sol\":10876:11117  {... */\n      pop\n        /* \"contracts/GaslessDonationTracker.sol\":10800:11117  function changeBeneficiary(address newBeneficiary) external onlyBeneficiary {... */\n      pop\n      jump\t// out\n        /* \"contracts/GaslessDonationTracker.sol\":1032:1061  uint256 public totalDonations */\n    tag_135:\n      sload(0x02)\n      dup2\n      jump\t// out\n        /* \"contracts/GaslessDonationTracker.sol\":7064:7485  function getLatestDonations(uint256 count) external view returns (Donation[] memory) {... */\n    tag_140:\n        /* \"contracts/GaslessDonationTracker.sol\":7130:7147  Donation[] memory */\n      0x60\n        /* \"contracts/GaslessDonationTracker.sol\":7159:7172  uint256 total */\n      0x00\n        /* \"contracts/GaslessDonationTracker.sol\":7175:7184  donations */\n      0x05\n        /* \"contracts/GaslessDonationTracker.sol\":7175:7191  donations.length */\n      dup1\n      sload\n      swap1\n      pop\n        /* \"contracts/GaslessDonationTracker.sol\":7159:7191  uint256 total = donations.length */\n      swap1\n      pop\n        /* \"contracts/GaslessDonationTracker.sol\":7201:7220  uint256 returnCount */\n      0x00\n        /* \"contracts/GaslessDonationTracker.sol\":7231:7236  total */\n      dup2\n        /* \"contracts/GaslessDonationTracker.sol\":7223:7228  count */\n      dup5\n        /* \"contracts/GaslessDonationTracker.sol\":7223:7236  count > total */\n      gt\n        /* \"contracts/GaslessDonationTracker.sol\":7223:7252  count > total ? total : count */\n      tag_277\n      jumpi\n        /* \"contracts/GaslessDonationTracker.sol\":7247:7252  count */\n      dup4\n        /* \"contracts/GaslessDonationTracker.sol\":7223:7252  count > total ? total : count */\n      jump(tag_278)\n    tag_277:\n        /* \"contracts/GaslessDonationTracker.sol\":7239:7244  total */\n      dup2\n        /* \"contracts/GaslessDonationTracker.sol\":7223:7252  count > total ? total : count */\n    tag_278:\n        /* \"contracts/GaslessDonationTracker.sol\":7201:7252  uint256 returnCount = count > total ? total : count */\n      swap1\n      pop\n        /* \"contracts/GaslessDonationTracker.sol\":7271:7295  Donation[] memory latest */\n      0x00\n        /* \"contracts/GaslessDonationTracker.sol\":7313:7324  returnCount */\n      dup2\n        /* \"contracts/GaslessDonationTracker.sol\":7298:7325  new Donation[](returnCount) */\n      0xffffffffffffffff\n      dup2\n      gt\n      iszero\n      tag_279\n      jumpi\n      tag_280\n      tag_236\n      jump\t// in\n    tag_280:\n    tag_279:\n      mload(0x40)\n      swap1\n      dup1\n      dup3\n      mstore\n      dup1\n      0x20\n      mul\n      0x20\n      add\n      dup3\n      add\n      0x40\n      mstore\n      dup1\n      iszero\n      tag_281\n      jumpi\n      dup2\n      0x20\n      add\n    tag_282:\n      tag_283\n      tag_284\n      jump\t// in\n    tag_283:\n      dup2\n      mstore\n      0x20\n      add\n      swap1\n      0x01\n      swap1\n      sub\n      swap1\n      dup2\n      tag_282\n      jumpi\n      swap1\n      pop\n    tag_281:\n      pop\n        /* \"contracts/GaslessDonationTracker.sol\":7271:7325  Donation[] memory latest = new Donation[](returnCount) */\n      swap1\n      pop\n        /* \"contracts/GaslessDonationTracker.sol\":7349:7358  uint256 i */\n      0x00\n        /* \"contracts/GaslessDonationTracker.sol\":7361:7362  0 */\n      0x00\n        /* \"contracts/GaslessDonationTracker.sol\":7349:7362  uint256 i = 0 */\n      swap1\n      pop\n        /* \"contracts/GaslessDonationTracker.sol\":7344:7447  for (uint256 i = 0; i < returnCount; i++) {... */\n    tag_285:\n        /* \"contracts/GaslessDonationTracker.sol\":7368:7379  returnCount */\n      dup3\n        /* \"contracts/GaslessDonationTracker.sol\":7364:7365  i */\n      dup2\n        /* \"contracts/GaslessDonationTracker.sol\":7364:7379  i < returnCount */\n      lt\n        /* \"contracts/GaslessDonationTracker.sol\":7344:7447  for (uint256 i = 0; i < returnCount; i++) {... */\n      iszero\n      tag_286\n      jumpi\n        /* \"contracts/GaslessDonationTracker.sol\":7412:7421  donations */\n      0x05\n        /* \"contracts/GaslessDonationTracker.sol\":7434:7435  i */\n      dup2\n        /* \"contracts/GaslessDonationTracker.sol\":7430:7431  1 */\n      0x01\n        /* \"contracts/GaslessDonationTracker.sol\":7422:7427  total */\n      dup7\n        /* \"contracts/GaslessDonationTracker.sol\":7422:7431  total - 1 */\n      tag_288\n      swap2\n      swap1\n      tag_266\n      jump\t// in\n    tag_288:\n        /* \"contracts/GaslessDonationTracker.sol\":7422:7435  total - 1 - i */\n      tag_289\n      swap2\n      swap1\n      tag_266\n      jump\t// in\n    tag_289:\n        /* \"contracts/GaslessDonationTracker.sol\":7412:7436  donations[total - 1 - i] */\n      dup2\n      sload\n      dup2\n      lt\n      tag_290\n      jumpi\n      tag_291\n      tag_198\n      jump\t// in\n    tag_291:\n    tag_290:\n      swap1\n      0x00\n      mstore\n      keccak256(0x00, 0x20)\n      swap1\n      0x05\n      mul\n      add\n        /* \"contracts/GaslessDonationTracker.sol\":7400:7436  latest[i] = donations[total - 1 - i] */\n      mload(0x40)\n      dup1\n      0xa0\n      add\n      0x40\n      mstore\n      swap1\n      dup2\n      0x00\n      dup3\n      add\n      0x00\n      swap1\n      sload\n      swap1\n      0x0100\n      exp\n      swap1\n      div\n      0xffffffffffffffffffffffffffffffffffffffff\n      and\n      0xffffffffffffffffffffffffffffffffffffffff\n      and\n      0xffffffffffffffffffffffffffffffffffffffff\n      and\n      dup2\n      mstore\n      0x20\n      add\n      0x01\n      dup3\n      add\n      sload\n      dup2\n      mstore\n      0x20\n      add\n      0x02\n      dup3\n      add\n      sload\n      dup2\n      mstore\n      0x20\n      add\n      0x03\n      dup3\n      add\n      dup1\n      sload\n      tag_293\n      swap1\n      tag_294\n      jump\t// in\n    tag_293:\n      dup1\n      0x1f\n      add\n      0x20\n      dup1\n      swap2\n      div\n      mul\n      0x20\n      add\n      mload(0x40)\n      swap1\n      dup2\n      add\n      0x40\n      mstore\n      dup1\n      swap3\n      swap2\n      swap1\n      dup2\n      dup2\n      mstore\n      0x20\n      add\n      dup3\n      dup1\n      sload\n      tag_295\n      swap1\n      tag_294\n      jump\t// in\n    tag_295:\n      dup1\n      iszero\n      tag_296\n      jumpi\n      dup1\n      0x1f\n      lt\n      tag_297\n      jumpi\n      0x0100\n      dup1\n      dup4\n      sload\n      div\n      mul\n      dup4\n      mstore\n      swap2\n      0x20\n      add\n      swap2\n      jump(tag_296)\n    tag_297:\n      dup3\n      add\n      swap2\n      swap1\n      0x00\n      mstore\n      keccak256(0x00, 0x20)\n      swap1\n    tag_298:\n      dup2\n      sload\n      dup2\n      mstore\n      swap1\n      0x01\n      add\n      swap1\n      0x20\n      add\n      dup1\n      dup4\n      gt\n      tag_298\n      jumpi\n      dup3\n      swap1\n      sub\n      0x1f\n      and\n      dup3\n      add\n      swap2\n    tag_296:\n      pop\n      pop\n      pop\n      pop\n      pop\n      dup2\n      mstore\n      0x20\n      add\n      0x04\n      dup3\n      add\n      0x00\n      swap1\n      sload\n      swap1\n      0x0100\n      exp\n      swap1\n      div\n      0xff\n      and\n      iszero\n      iszero\n      iszero\n      iszero\n      dup2\n      mstore\n      pop\n      pop\n        /* \"contracts/GaslessDonationTracker.sol\":7400:7406  latest */\n      dup3\n        /* \"contracts/GaslessDonationTracker.sol\":7407:7408  i */\n      dup3\n        /* \"contracts/GaslessDonationTracker.sol\":7400:7409  latest[i] */\n      dup2\n      mload\n      dup2\n      lt\n      tag_299\n      jumpi\n      tag_300\n      tag_198\n      jump\t// in\n    tag_300:\n    tag_299:\n      0x20\n      mul\n      0x20\n      add\n      add\n        /* \"contracts/GaslessDonationTracker.sol\":7400:7436  latest[i] = donations[total - 1 - i] */\n      dup2\n      swap1\n      mstore\n      pop\n        /* \"contracts/GaslessDonationTracker.sol\":7381:7384  i++ */\n      dup1\n      dup1\n      0x01\n      add\n      swap2\n      pop\n      pop\n        /* \"contracts/GaslessDonationTracker.sol\":7344:7447  for (uint256 i = 0; i < returnCount; i++) {... */\n      jump(tag_285)\n    tag_286:\n      pop\n        /* \"contracts/GaslessDonationTracker.sol\":7472:7478  latest */\n      dup1\n        /* \"contracts/GaslessDonationTracker.sol\":7465:7478  return latest */\n      swap4\n      pop\n      pop\n      pop\n      pop\n        /* \"contracts/GaslessDonationTracker.sol\":7064:7485  function getLatestDonations(uint256 count) external view returns (Donation[] memory) {... */\n      swap2\n      swap1\n      pop\n      jump\t// out\n        /* \"contracts/GaslessDonationTracker.sol\":6493:6593  function getDonationCount() external view returns (uint256) {... */\n    tag_145:\n        /* \"contracts/GaslessDonationTracker.sol\":6544:6551  uint256 */\n      0x00\n        /* \"contracts/GaslessDonationTracker.sol\":6570:6579  donations */\n      0x05\n        /* \"contracts/GaslessDonationTracker.sol\":6570:6586  donations.length */\n      dup1\n      sload\n      swap1\n      pop\n        /* \"contracts/GaslessDonationTracker.sol\":6563:6586  return donations.length */\n      swap1\n      pop\n        /* \"contracts/GaslessDonationTracker.sol\":6493:6593  function getDonationCount() external view returns (uint256) {... */\n      swap1\n      jump\t// out\n        /* \"contracts/GaslessDonationTracker.sol\":6641:7015  function getDonation(uint256 index) external view returns (... */\n    tag_150:\n        /* \"contracts/GaslessDonationTracker.sol\":6709:6722  address donor */\n      0x00\n        /* \"contracts/GaslessDonationTracker.sol\":6732:6746  uint256 amount */\n      0x00\n        /* \"contracts/GaslessDonationTracker.sol\":6756:6773  uint256 timestamp */\n      0x00\n        /* \"contracts/GaslessDonationTracker.sol\":6783:6804  string memory message */\n      0x60\n        /* \"contracts/GaslessDonationTracker.sol\":6814:6825  bool isPaid */\n      0x00\n        /* \"contracts/GaslessDonationTracker.sol\":6858:6867  donations */\n      0x05\n        /* \"contracts/GaslessDonationTracker.sol\":6858:6874  donations.length */\n      dup1\n      sload\n      swap1\n      pop\n        /* \"contracts/GaslessDonationTracker.sol\":6850:6855  index */\n      dup7\n        /* \"contracts/GaslessDonationTracker.sol\":6850:6874  index < donations.length */\n      lt\n        /* \"contracts/GaslessDonationTracker.sol\":6842:6892  require(index < donations.length, \"Invalid index\") */\n      tag_303\n      jumpi\n      mload(0x40)\n      0x08c379a000000000000000000000000000000000000000000000000000000000\n      dup2\n      mstore\n      0x04\n      add\n      tag_304\n      swap1\n      tag_305\n      jump\t// in\n    tag_304:\n      mload(0x40)\n      dup1\n      swap2\n      sub\n      swap1\n      revert\n    tag_303:\n        /* \"contracts/GaslessDonationTracker.sol\":6902:6919  Donation memory d */\n      0x00\n        /* \"contracts/GaslessDonationTracker.sol\":6922:6931  donations */\n      0x05\n        /* \"contracts/GaslessDonationTracker.sol\":6932:6937  index */\n      dup8\n        /* \"contracts/GaslessDonationTracker.sol\":6922:6938  donations[index] */\n      dup2\n      sload\n      dup2\n      lt\n      tag_306\n      jumpi\n      tag_307\n      tag_198\n      jump\t// in\n    tag_307:\n    tag_306:\n      swap1\n      0x00\n      mstore\n      keccak256(0x00, 0x20)\n      swap1\n      0x05\n      mul\n      add\n        /* \"contracts/GaslessDonationTracker.sol\":6902:6938  Donation memory d = donations[index] */\n      mload(0x40)\n      dup1\n      0xa0\n      add\n      0x40\n      mstore\n      swap1\n      dup2\n      0x00\n      dup3\n      add\n      0x00\n      swap1\n      sload\n      swap1\n      0x0100\n      exp\n      swap1\n      div\n      0xffffffffffffffffffffffffffffffffffffffff\n      and\n      0xffffffffffffffffffffffffffffffffffffffff\n      and\n      0xffffffffffffffffffffffffffffffffffffffff\n      and\n      dup2\n      mstore\n      0x20\n      add\n      0x01\n      dup3\n      add\n      sload\n      dup2\n      mstore\n      0x20\n      add\n      0x02\n      dup3\n      add\n      sload\n      dup2\n      mstore\n      0x20\n      add\n      0x03\n      dup3\n      add\n      dup1\n      sload\n      tag_309\n      swap1\n      tag_294\n      jump\t// in\n    tag_309:\n      dup1\n      0x1f\n      add\n      0x20\n      dup1\n      swap2\n      div\n      mul\n      0x20\n      add\n      mload(0x40)\n      swap1\n      dup2\n      add\n      0x40\n      mstore\n      dup1\n      swap3\n      swap2\n      swap1\n      dup2\n      dup2\n      mstore\n      0x20\n      add\n      dup3\n      dup1\n      sload\n      tag_310\n      swap1\n      tag_294\n      jump\t// in\n    tag_310:\n      dup1\n      iszero\n      tag_311\n      jumpi\n      dup1\n      0x1f\n      lt\n      tag_312\n      jumpi\n      0x0100\n      dup1\n      dup4\n      sload\n      div\n      mul\n      dup4\n      mstore\n      swap2\n      0x20\n      add\n      swap2\n      jump(tag_311)\n    tag_312:\n      dup3\n      add\n      swap2\n      swap1\n      0x00\n      mstore\n      keccak256(0x00, 0x20)\n      swap1\n    tag_313:\n      dup2\n      sload\n      dup2\n      mstore\n      swap1\n      0x01\n      add\n      swap1\n      0x20\n      add\n      dup1\n      dup4\n      gt\n      tag_313\n      jumpi\n      dup3\n      swap1\n      sub\n      0x1f\n      and\n      dup3\n      add\n      swap2\n    tag_311:\n      pop\n      pop\n      pop\n      pop\n      pop\n      dup2\n      mstore\n      0x20\n      add\n      0x04\n      dup3\n      add\n      0x00\n      swap1\n      sload\n      swap1\n      0x0100\n      exp\n      swap1\n      div\n      0xff\n      and\n      iszero\n      iszero\n      iszero\n      iszero\n      dup2\n      mstore\n      pop\n      pop\n      swap1\n      pop\n        /* \"contracts/GaslessDonationTracker.sol\":6956:6957  d */\n      dup1\n        /* \"contracts/GaslessDonationTracker.sol\":6956:6963  d.donor */\n      0x00\n      add\n      mload\n        /* \"contracts/GaslessDonationTracker.sol\":6965:6966  d */\n      dup2\n        /* \"contracts/GaslessDonationTracker.sol\":6965:6973  d.amount */\n      0x20\n      add\n      mload\n        /* \"contracts/GaslessDonationTracker.sol\":6975:6976  d */\n      dup3\n        /* \"contracts/GaslessDonationTracker.sol\":6975:6986  d.timestamp */\n      0x40\n      add\n      mload\n        /* \"contracts/GaslessDonationTracker.sol\":6988:6989  d */\n      dup4\n        /* \"contracts/GaslessDonationTracker.sol\":6988:6997  d.message */\n      0x60\n      add\n      mload\n        /* \"contracts/GaslessDonationTracker.sol\":6999:7000  d */\n      dup5\n        /* \"contracts/GaslessDonationTracker.sol\":6999:7007  d.isPaid */\n      0x80\n      add\n      mload\n        /* \"contracts/GaslessDonationTracker.sol\":6948:7008  return (d.donor, d.amount, d.timestamp, d.message, d.isPaid) */\n      swap6\n      pop\n      swap6\n      pop\n      swap6\n      pop\n      swap6\n      pop\n      swap6\n      pop\n      pop\n        /* \"contracts/GaslessDonationTracker.sol\":6641:7015  function getDonation(uint256 index) external view returns (... */\n      swap2\n      swap4\n      swap6\n      swap1\n      swap3\n      swap5\n      pop\n      jump\t// out\n        /* \"contracts/GaslessDonationTracker.sol\":8168:8953  function getTopDonors(uint256 limit) external view returns (... */\n    tag_156:\n        /* \"contracts/GaslessDonationTracker.sol\":8237:8266  address[] memory topAddresses */\n      0x60\n        /* \"contracts/GaslessDonationTracker.sol\":8276:8300  uint256[] memory amounts */\n      dup1\n        /* \"contracts/GaslessDonationTracker.sol\":8317:8335  uint256 donorCount */\n      0x00\n        /* \"contracts/GaslessDonationTracker.sol\":8338:8344  donors */\n      0x07\n        /* \"contracts/GaslessDonationTracker.sol\":8338:8351  donors.length */\n      dup1\n      sload\n      swap1\n      pop\n        /* \"contracts/GaslessDonationTracker.sol\":8317:8351  uint256 donorCount = donors.length */\n      swap1\n      pop\n        /* \"contracts/GaslessDonationTracker.sol\":8361:8380  uint256 returnCount */\n      0x00\n        /* \"contracts/GaslessDonationTracker.sol\":8391:8401  donorCount */\n      dup2\n        /* \"contracts/GaslessDonationTracker.sol\":8383:8388  limit */\n      dup6\n        /* \"contracts/GaslessDonationTracker.sol\":8383:8401  limit > donorCount */\n      gt\n        /* \"contracts/GaslessDonationTracker.sol\":8383:8422  limit > donorCount ? donorCount : limit */\n      tag_315\n      jumpi\n        /* \"contracts/GaslessDonationTracker.sol\":8417:8422  limit */\n      dup5\n        /* \"contracts/GaslessDonationTracker.sol\":8383:8422  limit > donorCount ? donorCount : limit */\n      jump(tag_316)\n    tag_315:\n        /* \"contracts/GaslessDonationTracker.sol\":8404:8414  donorCount */\n      dup2\n        /* \"contracts/GaslessDonationTracker.sol\":8383:8422  limit > donorCount ? donorCount : limit */\n    tag_316:\n        /* \"contracts/GaslessDonationTracker.sol\":8361:8422  uint256 returnCount = limit > donorCount ? donorCount : limit */\n      swap1\n      pop\n        /* \"contracts/GaslessDonationTracker.sol\":8476:8502  address[] memory addresses */\n      0x00\n        /* \"contracts/GaslessDonationTracker.sol\":8519:8530  returnCount */\n      dup2\n        /* \"contracts/GaslessDonationTracker.sol\":8505:8531  new address[](returnCount) */\n      0xffffffffffffffff\n      dup2\n      gt\n      iszero\n      tag_317\n      jumpi\n      tag_318\n      tag_236\n      jump\t// in\n    tag_318:\n    tag_317:\n      mload(0x40)\n      swap1\n      dup1\n      dup3\n      mstore\n      dup1\n      0x20\n      mul\n      0x20\n      add\n      dup3\n      add\n      0x40\n      mstore\n      dup1\n      iszero\n      tag_319\n      jumpi\n      dup2\n      0x20\n      add\n      0x20\n      dup3\n      mul\n      dup1\n      calldatasize\n      dup4\n      calldatacopy\n      dup1\n      dup3\n      add\n      swap2\n      pop\n      pop\n      swap1\n      pop\n    tag_319:\n      pop\n        /* \"contracts/GaslessDonationTracker.sol\":8476:8531  address[] memory addresses = new address[](returnCount) */\n      swap1\n      pop\n        /* \"contracts/GaslessDonationTracker.sol\":8541:8573  uint256[] memory donationAmounts */\n      0x00\n        /* \"contracts/GaslessDonationTracker.sol\":8590:8601  returnCount */\n      dup3\n        /* \"contracts/GaslessDonationTracker.sol\":8576:8602  new uint256[](returnCount) */\n      0xffffffffffffffff\n      dup2\n      gt\n      iszero\n      tag_320\n      jumpi\n      tag_321\n      tag_236\n      jump\t// in\n    tag_321:\n    tag_320:\n      mload(0x40)\n      swap1\n      dup1\n      dup3\n      mstore\n      dup1\n      0x20\n      mul\n      0x20\n      add\n      dup3\n      add\n      0x40\n      mstore\n      dup1\n      iszero\n      tag_322\n      jumpi\n      dup2\n      0x20\n      add\n      0x20\n      dup3\n      mul\n      dup1\n      calldatasize\n      dup4\n      calldatacopy\n      dup1\n      dup3\n      add\n      swap2\n      pop\n      pop\n      swap1\n      pop\n    tag_322:\n      pop\n        /* \"contracts/GaslessDonationTracker.sol\":8541:8602  uint256[] memory donationAmounts = new uint256[](returnCount) */\n      swap1\n      pop\n        /* \"contracts/GaslessDonationTracker.sol\":8738:8747  uint256 i */\n      0x00\n        /* \"contracts/GaslessDonationTracker.sol\":8750:8751  0 */\n      0x00\n        /* \"contracts/GaslessDonationTracker.sol\":8738:8751  uint256 i = 0 */\n      swap1\n      pop\n        /* \"contracts/GaslessDonationTracker.sol\":8733:8893  for (uint256 i = 0; i < returnCount; i++) {... */\n    tag_323:\n        /* \"contracts/GaslessDonationTracker.sol\":8757:8768  returnCount */\n      dup4\n        /* \"contracts/GaslessDonationTracker.sol\":8753:8754  i */\n      dup2\n        /* \"contracts/GaslessDonationTracker.sol\":8753:8768  i < returnCount */\n      lt\n        /* \"contracts/GaslessDonationTracker.sol\":8733:8893  for (uint256 i = 0; i < returnCount; i++) {... */\n      iszero\n      tag_324\n      jumpi\n        /* \"contracts/GaslessDonationTracker.sol\":8804:8810  donors */\n      0x07\n        /* \"contracts/GaslessDonationTracker.sol\":8811:8812  i */\n      dup2\n        /* \"contracts/GaslessDonationTracker.sol\":8804:8813  donors[i] */\n      dup2\n      sload\n      dup2\n      lt\n      tag_326\n      jumpi\n      tag_327\n      tag_198\n      jump\t// in\n    tag_327:\n    tag_326:\n      swap1\n      0x00\n      mstore\n      keccak256(0x00, 0x20)\n      add\n      0x00\n      swap1\n      sload\n      swap1\n      0x0100\n      exp\n      swap1\n      div\n      0xffffffffffffffffffffffffffffffffffffffff\n      and\n        /* \"contracts/GaslessDonationTracker.sol\":8789:8798  addresses */\n      dup4\n        /* \"contracts/GaslessDonationTracker.sol\":8799:8800  i */\n      dup3\n        /* \"contracts/GaslessDonationTracker.sol\":8789:8801  addresses[i] */\n      dup2\n      mload\n      dup2\n      lt\n      tag_329\n      jumpi\n      tag_330\n      tag_198\n      jump\t// in\n    tag_330:\n    tag_329:\n      0x20\n      mul\n      0x20\n      add\n      add\n        /* \"contracts/GaslessDonationTracker.sol\":8789:8813  addresses[i] = donors[i] */\n      swap1\n      0xffffffffffffffffffffffffffffffffffffffff\n      and\n      swap1\n      dup2\n      0xffffffffffffffffffffffffffffffffffffffff\n      and\n      dup2\n      mstore\n      pop\n      pop\n        /* \"contracts/GaslessDonationTracker.sol\":8848:8858  donorStats */\n      0x06\n        /* \"contracts/GaslessDonationTracker.sol\":8848:8869  donorStats[donors[i]] */\n      0x00\n        /* \"contracts/GaslessDonationTracker.sol\":8859:8865  donors */\n      0x07\n        /* \"contracts/GaslessDonationTracker.sol\":8866:8867  i */\n      dup4\n        /* \"contracts/GaslessDonationTracker.sol\":8859:8868  donors[i] */\n      dup2\n      sload\n      dup2\n      lt\n      tag_331\n      jumpi\n      tag_332\n      tag_198\n      jump\t// in\n    tag_332:\n    tag_331:\n      swap1\n      0x00\n      mstore\n      keccak256(0x00, 0x20)\n      add\n      0x00\n      swap1\n      sload\n      swap1\n      0x0100\n      exp\n      swap1\n      div\n      0xffffffffffffffffffffffffffffffffffffffff\n      and\n        /* \"contracts/GaslessDonationTracker.sol\":8848:8869  donorStats[donors[i]] */\n      0xffffffffffffffffffffffffffffffffffffffff\n      and\n      0xffffffffffffffffffffffffffffffffffffffff\n      and\n      dup2\n      mstore\n      0x20\n      add\n      swap1\n      dup2\n      mstore\n      0x20\n      add\n      0x00\n      keccak256\n        /* \"contracts/GaslessDonationTracker.sol\":8848:8882  donorStats[donors[i]].totalDonated */\n      0x00\n      add\n      sload\n        /* \"contracts/GaslessDonationTracker.sol\":8827:8842  donationAmounts */\n      dup3\n        /* \"contracts/GaslessDonationTracker.sol\":8843:8844  i */\n      dup3\n        /* \"contracts/GaslessDonationTracker.sol\":8827:8845  donationAmounts[i] */\n      dup2\n      mload\n      dup2\n      lt\n      tag_334\n      jumpi\n      tag_335\n      tag_198\n      jump\t// in\n    tag_335:\n    tag_334:\n      0x20\n      mul\n      0x20\n      add\n      add\n        /* \"contracts/GaslessDonationTracker.sol\":8827:8882  donationAmounts[i] = donorStats[donors[i]].totalDonated */\n      dup2\n      dup2\n      mstore\n      pop\n      pop\n        /* \"contracts/GaslessDonationTracker.sol\":8770:8773  i++ */\n      dup1\n      dup1\n      0x01\n      add\n      swap2\n      pop\n      pop\n        /* \"contracts/GaslessDonationTracker.sol\":8733:8893  for (uint256 i = 0; i < returnCount; i++) {... */\n      jump(tag_323)\n    tag_324:\n      pop\n        /* \"contracts/GaslessDonationTracker.sol\":8919:8928  addresses */\n      dup2\n        /* \"contracts/GaslessDonationTracker.sol\":8930:8945  donationAmounts */\n      dup2\n        /* \"contracts/GaslessDonationTracker.sol\":8911:8946  return (addresses, donationAmounts) */\n      swap6\n      pop\n      swap6\n      pop\n      pop\n      pop\n      pop\n      pop\n        /* \"contracts/GaslessDonationTracker.sol\":8168:8953  function getTopDonors(uint256 limit) external view returns (... */\n      swap2\n      pop\n      swap2\n      jump\t// out\n        /* \"contracts/GaslessDonationTracker.sol\":1317:1344  Donation[] public donations */\n    tag_162:\n      0x05\n      dup2\n      dup2\n      sload\n      dup2\n      lt\n      tag_336\n      jumpi\n      0x00\n      dup1\n      revert\n    tag_336:\n      swap1\n      0x00\n      mstore\n      keccak256(0x00, 0x20)\n      swap1\n      0x05\n      mul\n      add\n      0x00\n      swap2\n      pop\n      swap1\n      pop\n      dup1\n      0x00\n      add\n      0x00\n      swap1\n      sload\n      swap1\n      0x0100\n      exp\n      swap1\n      div\n      0xffffffffffffffffffffffffffffffffffffffff\n      and\n      swap1\n      dup1\n      0x01\n      add\n      sload\n      swap1\n      dup1\n      0x02\n      add\n      sload\n      swap1\n      dup1\n      0x03\n      add\n      dup1\n      sload\n      tag_338\n      swap1\n      tag_294\n      jump\t// in\n    tag_338:\n      dup1\n      0x1f\n      add\n      0x20\n      dup1\n      swap2\n      div\n      mul\n      0x20\n      add\n      mload(0x40)\n      swap1\n      dup2\n      add\n      0x40\n      mstore\n      dup1\n      swap3\n      swap2\n      swap1\n      dup2\n      dup2\n      mstore\n      0x20\n      add\n      dup3\n      dup1\n      sload\n      tag_339\n      swap1\n      tag_294\n      jump\t// in\n    tag_339:\n      dup1\n      iszero\n      tag_340\n      jumpi\n      dup1\n      0x1f\n      lt\n      tag_341\n      jumpi\n      0x0100\n      dup1\n      dup4\n      sload\n      div\n      mul\n      dup4\n      mstore\n      swap2\n      0x20\n      add\n      swap2\n      jump(tag_340)\n    tag_341:\n      dup3\n      add\n      swap2\n      swap1\n      0x00\n      mstore\n      keccak256(0x00, 0x20)\n      swap1\n    tag_342:\n      dup2\n      sload\n      dup2\n      mstore\n      swap1\n      0x01\n      add\n      swap1\n      0x20\n      add\n      dup1\n      dup4\n      gt\n      tag_342\n      jumpi\n      dup3\n      swap1\n      sub\n      0x1f\n      and\n      dup3\n      add\n      swap2\n    tag_340:\n      pop\n      pop\n      pop\n      pop\n      pop\n      swap1\n      dup1\n      0x04\n      add\n      0x00\n      swap1\n      sload\n      swap1\n      0x0100\n      exp\n      swap1\n      div\n      0xff\n      and\n      swap1\n      pop\n      dup6\n      jump\t// out\n    tag_213:\n      mload(0x40)\n      dup1\n      0x80\n      add\n      0x40\n      mstore\n      dup1\n      0x00\n      dup2\n      mstore\n      0x20\n      add\n      0x00\n      dup2\n      mstore\n      0x20\n      add\n      0x00\n      dup2\n      mstore\n      0x20\n      add\n      0x00\n      dup2\n      mstore\n      pop\n      swap1\n      jump\t// out\n    tag_284:\n      mload(0x40)\n      dup1\n      0xa0\n      add\n      0x40\n      mstore\n      dup1\n      and(0xffffffffffffffffffffffffffffffffffffffff, 0x00)\n      dup2\n      mstore\n      0x20\n      add\n      0x00\n      dup2\n      mstore\n      0x20\n      add\n      0x00\n      dup2\n      mstore\n      0x20\n      add\n      0x60\n      dup2\n      mstore\n      0x20\n      add\n      iszero(iszero(0x00))\n      dup2\n      mstore\n      pop\n      swap1\n      jump\t// out\n        /* \"#utility.yul\":7:84   */\n    tag_343:\n        /* \"#utility.yul\":44:51   */\n      0x00\n        /* \"#utility.yul\":73:78   */\n      dup2\n        /* \"#utility.yul\":62:78   */\n      swap1\n      pop\n        /* \"#utility.yul\":7:84   */\n      swap2\n      swap1\n      pop\n      jump\t// out\n        /* \"#utility.yul\":90:208   */\n    tag_344:\n        /* \"#utility.yul\":177:201   */\n      tag_430\n        /* \"#utility.yul\":195:200   */\n      dup2\n        /* \"#utility.yul\":177:201   */\n      tag_343\n      jump\t// in\n    tag_430:\n        /* \"#utility.yul\":172:175   */\n      dup3\n        /* \"#utility.yul\":165:202   */\n      mstore\n        /* \"#utility.yul\":90:208   */\n      pop\n      pop\n      jump\t// out\n        /* \"#utility.yul\":214:383   */\n    tag_345:\n        /* \"#utility.yul\":298:309   */\n      0x00\n        /* \"#utility.yul\":332:338   */\n      dup3\n        /* \"#utility.yul\":327:330   */\n      dup3\n        /* \"#utility.yul\":320:339   */\n      mstore\n        /* \"#utility.yul\":372:376   */\n      0x20\n        /* \"#utility.yul\":367:370   */\n      dup3\n        /* \"#utility.yul\":363:377   */\n      add\n        /* \"#utility.yul\":348:377   */\n      swap1\n      pop\n        /* \"#utility.yul\":214:383   */\n      swap3\n      swap2\n      pop\n      pop\n      jump\t// out\n        /* \"#utility.yul\":389:554   */\n    tag_346:\n        /* \"#utility.yul\":529:546   */\n      0x446972656374207472616e736665720000000000000000000000000000000000\n        /* \"#utility.yul\":525:526   */\n      0x00\n        /* \"#utility.yul\":517:523   */\n      dup3\n        /* \"#utility.yul\":513:527   */\n      add\n        /* \"#utility.yul\":506:547   */\n      mstore\n        /* \"#utility.yul\":389:554   */\n      pop\n      jump\t// out\n        /* \"#utility.yul\":560:926   */\n    tag_347:\n        /* \"#utility.yul\":702:705   */\n      0x00\n        /* \"#utility.yul\":723:790   */\n      tag_434\n        /* \"#utility.yul\":787:789   */\n      0x0f\n        /* \"#utility.yul\":782:785   */\n      dup4\n        /* \"#utility.yul\":723:790   */\n      tag_345\n      jump\t// in\n    tag_434:\n        /* \"#utility.yul\":716:790   */\n      swap2\n      pop\n        /* \"#utility.yul\":799:892   */\n      tag_435\n        /* \"#utility.yul\":888:891   */\n      dup3\n        /* \"#utility.yul\":799:892   */\n      tag_346\n      jump\t// in\n    tag_435:\n        /* \"#utility.yul\":917:919   */\n      0x20\n        /* \"#utility.yul\":912:915   */\n      dup3\n        /* \"#utility.yul\":908:920   */\n      add\n        /* \"#utility.yul\":901:920   */\n      swap1\n      pop\n        /* \"#utility.yul\":560:926   */\n      swap2\n      swap1\n      pop\n      jump\t// out\n        /* \"#utility.yul\":932:1571   */\n    tag_40:\n        /* \"#utility.yul\":1154:1158   */\n      0x00\n        /* \"#utility.yul\":1192:1194   */\n      0x60\n        /* \"#utility.yul\":1181:1190   */\n      dup3\n        /* \"#utility.yul\":1177:1195   */\n      add\n        /* \"#utility.yul\":1169:1195   */\n      swap1\n      pop\n        /* \"#utility.yul\":1205:1276   */\n      tag_437\n        /* \"#utility.yul\":1273:1274   */\n      0x00\n        /* \"#utility.yul\":1262:1271   */\n      dup4\n        /* \"#utility.yul\":1258:1275   */\n      add\n        /* \"#utility.yul\":1249:1255   */\n      dup6\n        /* \"#utility.yul\":1205:1276   */\n      tag_344\n      jump\t// in\n    tag_437:\n        /* \"#utility.yul\":1286:1358   */\n      tag_438\n        /* \"#utility.yul\":1354:1356   */\n      0x20\n        /* \"#utility.yul\":1343:1352   */\n      dup4\n        /* \"#utility.yul\":1339:1357   */\n      add\n        /* \"#utility.yul\":1330:1336   */\n      dup5\n        /* \"#utility.yul\":1286:1358   */\n      tag_344\n      jump\t// in\n    tag_438:\n        /* \"#utility.yul\":1405:1414   */\n      dup2\n        /* \"#utility.yul\":1399:1403   */\n      dup2\n        /* \"#utility.yul\":1395:1415   */\n      sub\n        /* \"#utility.yul\":1390:1392   */\n      0x40\n        /* \"#utility.yul\":1379:1388   */\n      dup4\n        /* \"#utility.yul\":1375:1393   */\n      add\n        /* \"#utility.yul\":1368:1416   */\n      mstore\n        /* \"#utility.yul\":1433:1564   */\n      tag_439\n        /* \"#utility.yul\":1559:1563   */\n      dup2\n        /* \"#utility.yul\":1433:1564   */\n      tag_347\n      jump\t// in\n    tag_439:\n        /* \"#utility.yul\":1425:1564   */\n      swap1\n      pop\n        /* \"#utility.yul\":932:1571   */\n      swap4\n      swap3\n      pop\n      pop\n      pop\n      jump\t// out\n        /* \"#utility.yul\":1658:1775   */\n    tag_349:\n        /* \"#utility.yul\":1767:1768   */\n      0x00\n        /* \"#utility.yul\":1764:1765   */\n      0x00\n        /* \"#utility.yul\":1757:1769   */\n      revert\n        /* \"#utility.yul\":1781:1898   */\n    tag_350:\n        /* \"#utility.yul\":1890:1891   */\n      0x00\n        /* \"#utility.yul\":1887:1888   */\n      0x00\n        /* \"#utility.yul\":1880:1892   */\n      revert\n        /* \"#utility.yul\":1904:2026   */\n    tag_351:\n        /* \"#utility.yul\":1977:2001   */\n      tag_444\n        /* \"#utility.yul\":1995:2000   */\n      dup2\n        /* \"#utility.yul\":1977:2001   */\n      tag_343\n      jump\t// in\n    tag_444:\n        /* \"#utility.yul\":1970:1975   */\n      dup2\n        /* \"#utility.yul\":1967:2002   */\n      eq\n        /* \"#utility.yul\":1957:2020   */\n      tag_445\n      jumpi\n        /* \"#utility.yul\":2016:2017   */\n      0x00\n        /* \"#utility.yul\":2013:2014   */\n      0x00\n        /* \"#utility.yul\":2006:2018   */\n      revert\n        /* \"#utility.yul\":1957:2020   */\n    tag_445:\n        /* \"#utility.yul\":1904:2026   */\n      pop\n      jump\t// out\n        /* \"#utility.yul\":2032:2171   */\n    tag_352:\n        /* \"#utility.yul\":2078:2083   */\n      0x00\n        /* \"#utility.yul\":2116:2122   */\n      dup2\n        /* \"#utility.yul\":2103:2123   */\n      calldataload\n        /* \"#utility.yul\":2094:2123   */\n      swap1\n      pop\n        /* \"#utility.yul\":2132:2165   */\n      tag_447\n        /* \"#utility.yul\":2159:2164   */\n      dup2\n        /* \"#utility.yul\":2132:2165   */\n      tag_351\n      jump\t// in\n    tag_447:\n        /* \"#utility.yul\":2032:2171   */\n      swap3\n      swap2\n      pop\n      pop\n      jump\t// out\n        /* \"#utility.yul\":2177:2506   */\n    tag_44:\n        /* \"#utility.yul\":2236:2242   */\n      0x00\n        /* \"#utility.yul\":2285:2287   */\n      0x20\n        /* \"#utility.yul\":2273:2282   */\n      dup3\n        /* \"#utility.yul\":2264:2271   */\n      dup5\n        /* \"#utility.yul\":2260:2283   */\n      sub\n        /* \"#utility.yul\":2256:2288   */\n      slt\n        /* \"#utility.yul\":2253:2372   */\n      iszero\n      tag_449\n      jumpi\n        /* \"#utility.yul\":2291:2370   */\n      tag_450\n      tag_349\n      jump\t// in\n    tag_450:\n        /* \"#utility.yul\":2253:2372   */\n    tag_449:\n        /* \"#utility.yul\":2411:2412   */\n      0x00\n        /* \"#utility.yul\":2436:2489   */\n      tag_451\n        /* \"#utility.yul\":2481:2488   */\n      dup5\n        /* \"#utility.yul\":2472:2478   */\n      dup3\n        /* \"#utility.yul\":2461:2470   */\n      dup6\n        /* \"#utility.yul\":2457:2479   */\n      add\n        /* \"#utility.yul\":2436:2489   */\n      tag_352\n      jump\t// in\n    tag_451:\n        /* \"#utility.yul\":2426:2489   */\n      swap2\n      pop\n        /* \"#utility.yul\":2382:2499   */\n      pop\n        /* \"#utility.yul\":2177:2506   */\n      swap3\n      swap2\n      pop\n      pop\n      jump\t// out\n        /* \"#utility.yul\":2512:2734   */\n    tag_50:\n        /* \"#utility.yul\":2605:2609   */\n      0x00\n        /* \"#utility.yul\":2643:2645   */\n      0x20\n        /* \"#utility.yul\":2632:2641   */\n      dup3\n        /* \"#utility.yul\":2628:2646   */\n      add\n        /* \"#utility.yul\":2620:2646   */\n      swap1\n      pop\n        /* \"#utility.yul\":2656:2727   */\n      tag_453\n        /* \"#utility.yul\":2724:2725   */\n      0x00\n        /* \"#utility.yul\":2713:2722   */\n      dup4\n        /* \"#utility.yul\":2709:2726   */\n      add\n        /* \"#utility.yul\":2700:2706   */\n      dup5\n        /* \"#utility.yul\":2656:2727   */\n      tag_344\n      jump\t// in\n    tag_453:\n        /* \"#utility.yul\":2512:2734   */\n      swap3\n      swap2\n      pop\n      pop\n      jump\t// out\n        /* \"#utility.yul\":2740:2857   */\n    tag_353:\n        /* \"#utility.yul\":2849:2850   */\n      0x00\n        /* \"#utility.yul\":2846:2847   */\n      0x00\n        /* \"#utility.yul\":2839:2851   */\n      revert\n        /* \"#utility.yul\":2863:2980   */\n    tag_354:\n        /* \"#utility.yul\":2972:2973   */\n      0x00\n        /* \"#utility.yul\":2969:2970   */\n      0x00\n        /* \"#utility.yul\":2962:2974   */\n      revert\n        /* \"#utility.yul\":2986:3103   */\n    tag_355:\n        /* \"#utility.yul\":3095:3096   */\n      0x00\n        /* \"#utility.yul\":3092:3093   */\n      0x00\n        /* \"#utility.yul\":3085:3097   */\n      revert\n        /* \"#utility.yul\":3125:3705   */\n    tag_356:\n        /* \"#utility.yul\":3210:3218   */\n      0x00\n        /* \"#utility.yul\":3220:3226   */\n      0x00\n        /* \"#utility.yul\":3270:3273   */\n      dup4\n        /* \"#utility.yul\":3263:3267   */\n      0x1f\n        /* \"#utility.yul\":3255:3261   */\n      dup5\n        /* \"#utility.yul\":3251:3268   */\n      add\n        /* \"#utility.yul\":3247:3274   */\n      slt\n        /* \"#utility.yul\":3237:3359   */\n      tag_458\n      jumpi\n        /* \"#utility.yul\":3278:3357   */\n      tag_459\n      tag_353\n      jump\t// in\n    tag_459:\n        /* \"#utility.yul\":3237:3359   */\n    tag_458:\n        /* \"#utility.yul\":3391:3397   */\n      dup3\n        /* \"#utility.yul\":3378:3398   */\n      calldataload\n        /* \"#utility.yul\":3368:3398   */\n      swap1\n      pop\n        /* \"#utility.yul\":3421:3439   */\n      0xffffffffffffffff\n        /* \"#utility.yul\":3413:3419   */\n      dup2\n        /* \"#utility.yul\":3410:3440   */\n      gt\n        /* \"#utility.yul\":3407:3524   */\n      iszero\n      tag_460\n      jumpi\n        /* \"#utility.yul\":3443:3522   */\n      tag_461\n      tag_354\n      jump\t// in\n    tag_461:\n        /* \"#utility.yul\":3407:3524   */\n    tag_460:\n        /* \"#utility.yul\":3557:3561   */\n      0x20\n        /* \"#utility.yul\":3549:3555   */\n      dup4\n        /* \"#utility.yul\":3545:3562   */\n      add\n        /* \"#utility.yul\":3533:3562   */\n      swap2\n      pop\n        /* \"#utility.yul\":3611:3614   */\n      dup4\n        /* \"#utility.yul\":3603:3607   */\n      0x20\n        /* \"#utility.yul\":3595:3601   */\n      dup3\n        /* \"#utility.yul\":3591:3608   */\n      mul\n        /* \"#utility.yul\":3581:3589   */\n      dup4\n        /* \"#utility.yul\":3577:3609   */\n      add\n        /* \"#utility.yul\":3574:3615   */\n      gt\n        /* \"#utility.yul\":3571:3699   */\n      iszero\n      tag_462\n      jumpi\n        /* \"#utility.yul\":3618:3697   */\n      tag_463\n      tag_355\n      jump\t// in\n    tag_463:\n        /* \"#utility.yul\":3571:3699   */\n    tag_462:\n        /* \"#utility.yul\":3125:3705   */\n      swap3\n      pop\n      swap3\n      swap1\n      pop\n      jump\t// out\n        /* \"#utility.yul\":3711:4294   */\n    tag_58:\n        /* \"#utility.yul\":3809:3815   */\n      0x00\n        /* \"#utility.yul\":3817:3823   */\n      0x00\n        /* \"#utility.yul\":3866:3868   */\n      0x20\n        /* \"#utility.yul\":3854:3863   */\n      dup4\n        /* \"#utility.yul\":3845:3852   */\n      dup6\n        /* \"#utility.yul\":3841:3864   */\n      sub\n        /* \"#utility.yul\":3837:3869   */\n      slt\n        /* \"#utility.yul\":3834:3953   */\n      iszero\n      tag_465\n      jumpi\n        /* \"#utility.yul\":3872:3951   */\n      tag_466\n      tag_349\n      jump\t// in\n    tag_466:\n        /* \"#utility.yul\":3834:3953   */\n    tag_465:\n        /* \"#utility.yul\":4020:4021   */\n      0x00\n        /* \"#utility.yul\":4009:4018   */\n      dup4\n        /* \"#utility.yul\":4005:4022   */\n      add\n        /* \"#utility.yul\":3992:4023   */\n      calldataload\n        /* \"#utility.yul\":4050:4068   */\n      0xffffffffffffffff\n        /* \"#utility.yul\":4042:4048   */\n      dup2\n        /* \"#utility.yul\":4039:4069   */\n      gt\n        /* \"#utility.yul\":4036:4153   */\n      iszero\n      tag_467\n      jumpi\n        /* \"#utility.yul\":4072:4151   */\n      tag_468\n      tag_350\n      jump\t// in\n    tag_468:\n        /* \"#utility.yul\":4036:4153   */\n    tag_467:\n        /* \"#utility.yul\":4185:4277   */\n      tag_469\n        /* \"#utility.yul\":4269:4276   */\n      dup6\n        /* \"#utility.yul\":4260:4266   */\n      dup3\n        /* \"#utility.yul\":4249:4258   */\n      dup7\n        /* \"#utility.yul\":4245:4267   */\n      add\n        /* \"#utility.yul\":4185:4277   */\n      tag_356\n      jump\t// in\n    tag_469:\n        /* \"#utility.yul\":4167:4277   */\n      swap3\n      pop\n      swap3\n      pop\n        /* \"#utility.yul\":3963:4287   */\n      pop\n        /* \"#utility.yul\":3711:4294   */\n      swap3\n      pop\n      swap3\n      swap1\n      pop\n      jump\t// out\n        /* \"#utility.yul\":4300:4426   */\n    tag_357:\n        /* \"#utility.yul\":4337:4344   */\n      0x00\n        /* \"#utility.yul\":4377:4419   */\n      0xffffffffffffffffffffffffffffffffffffffff\n        /* \"#utility.yul\":4370:4375   */\n      dup3\n        /* \"#utility.yul\":4366:4420   */\n      and\n        /* \"#utility.yul\":4355:4420   */\n      swap1\n      pop\n        /* \"#utility.yul\":4300:4426   */\n      swap2\n      swap1\n      pop\n      jump\t// out\n        /* \"#utility.yul\":4432:4528   */\n    tag_358:\n        /* \"#utility.yul\":4469:4476   */\n      0x00\n        /* \"#utility.yul\":4498:4522   */\n      tag_472\n        /* \"#utility.yul\":4516:4521   */\n      dup3\n        /* \"#utility.yul\":4498:4522   */\n      tag_357\n      jump\t// in\n    tag_472:\n        /* \"#utility.yul\":4487:4522   */\n      swap1\n      pop\n        /* \"#utility.yul\":4432:4528   */\n      swap2\n      swap1\n      pop\n      jump\t// out\n        /* \"#utility.yul\":4534:4656   */\n    tag_359:\n        /* \"#utility.yul\":4607:4631   */\n      tag_474\n        /* \"#utility.yul\":4625:4630   */\n      dup2\n        /* \"#utility.yul\":4607:4631   */\n      tag_358\n      jump\t// in\n    tag_474:\n        /* \"#utility.yul\":4600:4605   */\n      dup2\n        /* \"#utility.yul\":4597:4632   */\n      eq\n        /* \"#utility.yul\":4587:4650   */\n      tag_475\n      jumpi\n        /* \"#utility.yul\":4646:4647   */\n      0x00\n        /* \"#utility.yul\":4643:4644   */\n      0x00\n        /* \"#utility.yul\":4636:4648   */\n      revert\n        /* \"#utility.yul\":4587:4650   */\n    tag_475:\n        /* \"#utility.yul\":4534:4656   */\n      pop\n      jump\t// out\n        /* \"#utility.yul\":4662:4801   */\n    tag_360:\n        /* \"#utility.yul\":4708:4713   */\n      0x00\n        /* \"#utility.yul\":4746:4752   */\n      dup2\n        /* \"#utility.yul\":4733:4753   */\n      calldataload\n        /* \"#utility.yul\":4724:4753   */\n      swap1\n      pop\n        /* \"#utility.yul\":4762:4795   */\n      tag_477\n        /* \"#utility.yul\":4789:4794   */\n      dup2\n        /* \"#utility.yul\":4762:4795   */\n      tag_359\n      jump\t// in\n    tag_477:\n        /* \"#utility.yul\":4662:4801   */\n      swap3\n      swap2\n      pop\n      pop\n      jump\t// out\n        /* \"#utility.yul\":4807:5136   */\n    tag_63:\n        /* \"#utility.yul\":4866:4872   */\n      0x00\n        /* \"#utility.yul\":4915:4917   */\n      0x20\n        /* \"#utility.yul\":4903:4912   */\n      dup3\n        /* \"#utility.yul\":4894:4901   */\n      dup5\n        /* \"#utility.yul\":4890:4913   */\n      sub\n        /* \"#utility.yul\":4886:4918   */\n      slt\n        /* \"#utility.yul\":4883:5002   */\n      iszero\n      tag_479\n      jumpi\n        /* \"#utility.yul\":4921:5000   */\n      tag_480\n      tag_349\n      jump\t// in\n    tag_480:\n        /* \"#utility.yul\":4883:5002   */\n    tag_479:\n        /* \"#utility.yul\":5041:5042   */\n      0x00\n        /* \"#utility.yul\":5066:5119   */\n      tag_481\n        /* \"#utility.yul\":5111:5118   */\n      dup5\n        /* \"#utility.yul\":5102:5108   */\n      dup3\n        /* \"#utility.yul\":5091:5100   */\n      dup6\n        /* \"#utility.yul\":5087:5109   */\n      add\n        /* \"#utility.yul\":5066:5119   */\n      tag_360\n      jump\t// in\n    tag_481:\n        /* \"#utility.yul\":5056:5119   */\n      swap2\n      pop\n        /* \"#utility.yul\":5012:5129   */\n      pop\n        /* \"#utility.yul\":4807:5136   */\n      swap3\n      swap2\n      pop\n      pop\n      jump\t// out\n        /* \"#utility.yul\":5142:5232   */\n    tag_361:\n        /* \"#utility.yul\":5176:5183   */\n      0x00\n        /* \"#utility.yul\":5219:5224   */\n      dup2\n        /* \"#utility.yul\":5212:5225   */\n      iszero\n        /* \"#utility.yul\":5205:5226   */\n      iszero\n        /* \"#utility.yul\":5194:5226   */\n      swap1\n      pop\n        /* \"#utility.yul\":5142:5232   */\n      swap2\n      swap1\n      pop\n      jump\t// out\n        /* \"#utility.yul\":5238:5347   */\n    tag_362:\n        /* \"#utility.yul\":5319:5340   */\n      tag_484\n        /* \"#utility.yul\":5334:5339   */\n      dup2\n        /* \"#utility.yul\":5319:5340   */\n      tag_361\n      jump\t// in\n    tag_484:\n        /* \"#utility.yul\":5314:5317   */\n      dup3\n        /* \"#utility.yul\":5307:5341   */\n      mstore\n        /* \"#utility.yul\":5238:5347   */\n      pop\n      pop\n      jump\t// out\n        /* \"#utility.yul\":5353:5563   */\n    tag_66:\n        /* \"#utility.yul\":5440:5444   */\n      0x00\n        /* \"#utility.yul\":5478:5480   */\n      0x20\n        /* \"#utility.yul\":5467:5476   */\n      dup3\n        /* \"#utility.yul\":5463:5481   */\n      add\n        /* \"#utility.yul\":5455:5481   */\n      swap1\n      pop\n        /* \"#utility.yul\":5491:5556   */\n      tag_486\n        /* \"#utility.yul\":5553:5554   */\n      0x00\n        /* \"#utility.yul\":5542:5551   */\n      dup4\n        /* \"#utility.yul\":5538:5555   */\n      add\n        /* \"#utility.yul\":5529:5535   */\n      dup5\n        /* \"#utility.yul\":5491:5556   */\n      tag_362\n      jump\t// in\n    tag_486:\n        /* \"#utility.yul\":5353:5563   */\n      swap3\n      swap2\n      pop\n      pop\n      jump\t// out\n        /* \"#utility.yul\":5569:6122   */\n    tag_72:\n        /* \"#utility.yul\":5746:5750   */\n      0x00\n        /* \"#utility.yul\":5784:5787   */\n      0x80\n        /* \"#utility.yul\":5773:5782   */\n      dup3\n        /* \"#utility.yul\":5769:5788   */\n      add\n        /* \"#utility.yul\":5761:5788   */\n      swap1\n      pop\n        /* \"#utility.yul\":5798:5869   */\n      tag_488\n        /* \"#utility.yul\":5866:5867   */\n      0x00\n        /* \"#utility.yul\":5855:5864   */\n      dup4\n        /* \"#utility.yul\":5851:5868   */\n      add\n        /* \"#utility.yul\":5842:5848   */\n      dup8\n        /* \"#utility.yul\":5798:5869   */\n      tag_344\n      jump\t// in\n    tag_488:\n        /* \"#utility.yul\":5879:5951   */\n      tag_489\n        /* \"#utility.yul\":5947:5949   */\n      0x20\n        /* \"#utility.yul\":5936:5945   */\n      dup4\n        /* \"#utility.yul\":5932:5950   */\n      add\n        /* \"#utility.yul\":5923:5929   */\n      dup7\n        /* \"#utility.yul\":5879:5951   */\n      tag_344\n      jump\t// in\n    tag_489:\n        /* \"#utility.yul\":5961:6033   */\n      tag_490\n        /* \"#utility.yul\":6029:6031   */\n      0x40\n        /* \"#utility.yul\":6018:6027   */\n      dup4\n        /* \"#utility.yul\":6014:6032   */\n      add\n        /* \"#utility.yul\":6005:6011   */\n      dup6\n        /* \"#utility.yul\":5961:6033   */\n      tag_344\n      jump\t// in\n    tag_490:\n        /* \"#utility.yul\":6043:6115   */\n      tag_491\n        /* \"#utility.yul\":6111:6113   */\n      0x60\n        /* \"#utility.yul\":6100:6109   */\n      dup4\n        /* \"#utility.yul\":6096:6114   */\n      add\n        /* \"#utility.yul\":6087:6093   */\n      dup5\n        /* \"#utility.yul\":6043:6115   */\n      tag_344\n      jump\t// in\n    tag_491:\n        /* \"#utility.yul\":5569:6122   */\n      swap6\n      swap5\n      pop\n      pop\n      pop\n      pop\n      pop\n      jump\t// out\n        /* \"#utility.yul\":6142:6695   */\n    tag_363:\n        /* \"#utility.yul\":6200:6208   */\n      0x00\n        /* \"#utility.yul\":6210:6216   */\n      0x00\n        /* \"#utility.yul\":6260:6263   */\n      dup4\n        /* \"#utility.yul\":6253:6257   */\n      0x1f\n        /* \"#utility.yul\":6245:6251   */\n      dup5\n        /* \"#utility.yul\":6241:6258   */\n      add\n        /* \"#utility.yul\":6237:6264   */\n      slt\n        /* \"#utility.yul\":6227:6349   */\n      tag_493\n      jumpi\n        /* \"#utility.yul\":6268:6347   */\n      tag_494\n      tag_353\n      jump\t// in\n    tag_494:\n        /* \"#utility.yul\":6227:6349   */\n    tag_493:\n        /* \"#utility.yul\":6381:6387   */\n      dup3\n        /* \"#utility.yul\":6368:6388   */\n      calldataload\n        /* \"#utility.yul\":6358:6388   */\n      swap1\n      pop\n        /* \"#utility.yul\":6411:6429   */\n      0xffffffffffffffff\n        /* \"#utility.yul\":6403:6409   */\n      dup2\n        /* \"#utility.yul\":6400:6430   */\n      gt\n        /* \"#utility.yul\":6397:6514   */\n      iszero\n      tag_495\n      jumpi\n        /* \"#utility.yul\":6433:6512   */\n      tag_496\n      tag_354\n      jump\t// in\n    tag_496:\n        /* \"#utility.yul\":6397:6514   */\n    tag_495:\n        /* \"#utility.yul\":6547:6551   */\n      0x20\n        /* \"#utility.yul\":6539:6545   */\n      dup4\n        /* \"#utility.yul\":6535:6552   */\n      add\n        /* \"#utility.yul\":6523:6552   */\n      swap2\n      pop\n        /* \"#utility.yul\":6601:6604   */\n      dup4\n        /* \"#utility.yul\":6593:6597   */\n      0x01\n        /* \"#utility.yul\":6585:6591   */\n      dup3\n        /* \"#utility.yul\":6581:6598   */\n      mul\n        /* \"#utility.yul\":6571:6579   */\n      dup4\n        /* \"#utility.yul\":6567:6599   */\n      add\n        /* \"#utility.yul\":6564:6605   */\n      gt\n        /* \"#utility.yul\":6561:6689   */\n      iszero\n      tag_497\n      jumpi\n        /* \"#utility.yul\":6608:6687   */\n      tag_498\n      tag_355\n      jump\t// in\n    tag_498:\n        /* \"#utility.yul\":6561:6689   */\n    tag_497:\n        /* \"#utility.yul\":6142:6695   */\n      swap3\n      pop\n      swap3\n      swap1\n      pop\n      jump\t// out\n        /* \"#utility.yul\":6701:7230   */\n    tag_80:\n        /* \"#utility.yul\":6772:6778   */\n      0x00\n        /* \"#utility.yul\":6780:6786   */\n      0x00\n        /* \"#utility.yul\":6829:6831   */\n      0x20\n        /* \"#utility.yul\":6817:6826   */\n      dup4\n        /* \"#utility.yul\":6808:6815   */\n      dup6\n        /* \"#utility.yul\":6804:6827   */\n      sub\n        /* \"#utility.yul\":6800:6832   */\n      slt\n        /* \"#utility.yul\":6797:6916   */\n      iszero\n      tag_500\n      jumpi\n        /* \"#utility.yul\":6835:6914   */\n      tag_501\n      tag_349\n      jump\t// in\n    tag_501:\n        /* \"#utility.yul\":6797:6916   */\n    tag_500:\n        /* \"#utility.yul\":6983:6984   */\n      0x00\n        /* \"#utility.yul\":6972:6981   */\n      dup4\n        /* \"#utility.yul\":6968:6985   */\n      add\n        /* \"#utility.yul\":6955:6986   */\n      calldataload\n        /* \"#utility.yul\":7013:7031   */\n      0xffffffffffffffff\n        /* \"#utility.yul\":7005:7011   */\n      dup2\n        /* \"#utility.yul\":7002:7032   */\n      gt\n        /* \"#utility.yul\":6999:7116   */\n      iszero\n      tag_502\n      jumpi\n        /* \"#utility.yul\":7035:7114   */\n      tag_503\n      tag_350\n      jump\t// in\n    tag_503:\n        /* \"#utility.yul\":6999:7116   */\n    tag_502:\n        /* \"#utility.yul\":7148:7213   */\n      tag_504\n        /* \"#utility.yul\":7205:7212   */\n      dup6\n        /* \"#utility.yul\":7196:7202   */\n      dup3\n        /* \"#utility.yul\":7185:7194   */\n      dup7\n        /* \"#utility.yul\":7181:7203   */\n      add\n        /* \"#utility.yul\":7148:7213   */\n      tag_363\n      jump\t// in\n    tag_504:\n        /* \"#utility.yul\":7130:7213   */\n      swap3\n      pop\n      swap3\n      pop\n        /* \"#utility.yul\":6926:7223   */\n      pop\n        /* \"#utility.yul\":6701:7230   */\n      swap3\n      pop\n      swap3\n      swap1\n      pop\n      jump\t// out\n        /* \"#utility.yul\":7236:7344   */\n    tag_364:\n        /* \"#utility.yul\":7313:7337   */\n      tag_506\n        /* \"#utility.yul\":7331:7336   */\n      dup2\n        /* \"#utility.yul\":7313:7337   */\n      tag_343\n      jump\t// in\n    tag_506:\n        /* \"#utility.yul\":7308:7311   */\n      dup3\n        /* \"#utility.yul\":7301:7338   */\n      mstore\n        /* \"#utility.yul\":7236:7344   */\n      pop\n      pop\n      jump\t// out\n        /* \"#utility.yul\":7442:8336   */\n    tag_365:\n        /* \"#utility.yul\":7591:7595   */\n      0x80\n        /* \"#utility.yul\":7586:7589   */\n      dup3\n        /* \"#utility.yul\":7582:7596   */\n      add\n        /* \"#utility.yul\":7686:7690   */\n      0x00\n        /* \"#utility.yul\":7679:7684   */\n      dup3\n        /* \"#utility.yul\":7675:7691   */\n      add\n        /* \"#utility.yul\":7669:7692   */\n      mload\n        /* \"#utility.yul\":7705:7768   */\n      tag_508\n        /* \"#utility.yul\":7762:7766   */\n      0x00\n        /* \"#utility.yul\":7757:7760   */\n      dup6\n        /* \"#utility.yul\":7753:7767   */\n      add\n        /* \"#utility.yul\":7739:7751   */\n      dup3\n        /* \"#utility.yul\":7705:7768   */\n      tag_364\n      jump\t// in\n    tag_508:\n        /* \"#utility.yul\":7606:7778   */\n      pop\n        /* \"#utility.yul\":7869:7873   */\n      0x20\n        /* \"#utility.yul\":7862:7867   */\n      dup3\n        /* \"#utility.yul\":7858:7874   */\n      add\n        /* \"#utility.yul\":7852:7875   */\n      mload\n        /* \"#utility.yul\":7888:7951   */\n      tag_509\n        /* \"#utility.yul\":7945:7949   */\n      0x20\n        /* \"#utility.yul\":7940:7943   */\n      dup6\n        /* \"#utility.yul\":7936:7950   */\n      add\n        /* \"#utility.yul\":7922:7934   */\n      dup3\n        /* \"#utility.yul\":7888:7951   */\n      tag_364\n      jump\t// in\n    tag_509:\n        /* \"#utility.yul\":7788:7961   */\n      pop\n        /* \"#utility.yul\":8051:8055   */\n      0x40\n        /* \"#utility.yul\":8044:8049   */\n      dup3\n        /* \"#utility.yul\":8040:8056   */\n      add\n        /* \"#utility.yul\":8034:8057   */\n      mload\n        /* \"#utility.yul\":8070:8133   */\n      tag_510\n        /* \"#utility.yul\":8127:8131   */\n      0x40\n        /* \"#utility.yul\":8122:8125   */\n      dup6\n        /* \"#utility.yul\":8118:8132   */\n      add\n        /* \"#utility.yul\":8104:8116   */\n      dup3\n        /* \"#utility.yul\":8070:8133   */\n      tag_364\n      jump\t// in\n    tag_510:\n        /* \"#utility.yul\":7971:8143   */\n      pop\n        /* \"#utility.yul\":8237:8241   */\n      0x60\n        /* \"#utility.yul\":8230:8235   */\n      dup3\n        /* \"#utility.yul\":8226:8242   */\n      add\n        /* \"#utility.yul\":8220:8243   */\n      mload\n        /* \"#utility.yul\":8256:8319   */\n      tag_511\n        /* \"#utility.yul\":8313:8317   */\n      0x60\n        /* \"#utility.yul\":8308:8311   */\n      dup6\n        /* \"#utility.yul\":8304:8318   */\n      add\n        /* \"#utility.yul\":8290:8302   */\n      dup3\n        /* \"#utility.yul\":8256:8319   */\n      tag_364\n      jump\t// in\n    tag_511:\n        /* \"#utility.yul\":8153:8329   */\n      pop\n        /* \"#utility.yul\":7560:8336   */\n      pop\n        /* \"#utility.yul\":7442:8336   */\n      pop\n      pop\n      jump\t// out\n        /* \"#utility.yul\":8342:8669   */\n    tag_86:\n        /* \"#utility.yul\":8487:8491   */\n      0x00\n        /* \"#utility.yul\":8525:8528   */\n      0x80\n        /* \"#utility.yul\":8514:8523   */\n      dup3\n        /* \"#utility.yul\":8510:8529   */\n      add\n        /* \"#utility.yul\":8502:8529   */\n      swap1\n      pop\n        /* \"#utility.yul\":8539:8662   */\n      tag_513\n        /* \"#utility.yul\":8659:8660   */\n      0x00\n        /* \"#utility.yul\":8648:8657   */\n      dup4\n        /* \"#utility.yul\":8644:8661   */\n      add\n        /* \"#utility.yul\":8635:8641   */\n      dup5\n        /* \"#utility.yul\":8539:8662   */\n      tag_365\n      jump\t// in\n    tag_513:\n        /* \"#utility.yul\":8342:8669   */\n      swap3\n      swap2\n      pop\n      pop\n      jump\t// out\n        /* \"#utility.yul\":8675:8793   */\n    tag_366:\n        /* \"#utility.yul\":8762:8786   */\n      tag_515\n        /* \"#utility.yul\":8780:8785   */\n      dup2\n        /* \"#utility.yul\":8762:8786   */\n      tag_358\n      jump\t// in\n    tag_515:\n        /* \"#utility.yul\":8757:8760   */\n      dup3\n        /* \"#utility.yul\":8750:8787   */\n      mstore\n        /* \"#utility.yul\":8675:8793   */\n      pop\n      pop\n      jump\t// out\n        /* \"#utility.yul\":8799:9021   */\n    tag_91:\n        /* \"#utility.yul\":8892:8896   */\n      0x00\n        /* \"#utility.yul\":8930:8932   */\n      0x20\n        /* \"#utility.yul\":8919:8928   */\n      dup3\n        /* \"#utility.yul\":8915:8933   */\n      add\n        /* \"#utility.yul\":8907:8933   */\n      swap1\n      pop\n        /* \"#utility.yul\":8943:9014   */\n      tag_517\n        /* \"#utility.yul\":9011:9012   */\n      0x00\n        /* \"#utility.yul\":9000:9009   */\n      dup4\n        /* \"#utility.yul\":8996:9013   */\n      add\n        /* \"#utility.yul\":8987:8993   */\n      dup5\n        /* \"#utility.yul\":8943:9014   */\n      tag_366\n      jump\t// in\n    tag_517:\n        /* \"#utility.yul\":8799:9021   */\n      swap3\n      swap2\n      pop\n      pop\n      jump\t// out\n        /* \"#utility.yul\":9027:9141   */\n    tag_367:\n        /* \"#utility.yul\":9094:9100   */\n      0x00\n        /* \"#utility.yul\":9128:9133   */\n      dup2\n        /* \"#utility.yul\":9122:9134   */\n      mload\n        /* \"#utility.yul\":9112:9134   */\n      swap1\n      pop\n        /* \"#utility.yul\":9027:9141   */\n      swap2\n      swap1\n      pop\n      jump\t// out\n        /* \"#utility.yul\":9147:9331   */\n    tag_368:\n        /* \"#utility.yul\":9246:9257   */\n      0x00\n        /* \"#utility.yul\":9280:9286   */\n      dup3\n        /* \"#utility.yul\":9275:9278   */\n      dup3\n        /* \"#utility.yul\":9268:9287   */\n      mstore\n        /* \"#utility.yul\":9320:9324   */\n      0x20\n        /* \"#utility.yul\":9315:9318   */\n      dup3\n        /* \"#utility.yul\":9311:9325   */\n      add\n        /* \"#utility.yul\":9296:9325   */\n      swap1\n      pop\n        /* \"#utility.yul\":9147:9331   */\n      swap3\n      swap2\n      pop\n      pop\n      jump\t// out\n        /* \"#utility.yul\":9337:9469   */\n    tag_369:\n        /* \"#utility.yul\":9404:9408   */\n      0x00\n        /* \"#utility.yul\":9427:9430   */\n      dup2\n        /* \"#utility.yul\":9419:9430   */\n      swap1\n      pop\n        /* \"#utility.yul\":9457:9461   */\n      0x20\n        /* \"#utility.yul\":9452:9455   */\n      dup3\n        /* \"#utility.yul\":9448:9462   */\n      add\n        /* \"#utility.yul\":9440:9462   */\n      swap1\n      pop\n        /* \"#utility.yul\":9337:9469   */\n      swap2\n      swap1\n      pop\n      jump\t// out\n        /* \"#utility.yul\":9475:9654   */\n    tag_370:\n        /* \"#utility.yul\":9544:9554   */\n      0x00\n        /* \"#utility.yul\":9565:9611   */\n      tag_522\n        /* \"#utility.yul\":9607:9610   */\n      dup4\n        /* \"#utility.yul\":9599:9605   */\n      dup4\n        /* \"#utility.yul\":9565:9611   */\n      tag_364\n      jump\t// in\n    tag_522:\n        /* \"#utility.yul\":9643:9647   */\n      0x20\n        /* \"#utility.yul\":9638:9641   */\n      dup4\n        /* \"#utility.yul\":9634:9648   */\n      add\n        /* \"#utility.yul\":9620:9648   */\n      swap1\n      pop\n        /* \"#utility.yul\":9475:9654   */\n      swap3\n      swap2\n      pop\n      pop\n      jump\t// out\n        /* \"#utility.yul\":9660:9773   */\n    tag_371:\n        /* \"#utility.yul\":9730:9734   */\n      0x00\n        /* \"#utility.yul\":9762:9766   */\n      0x20\n        /* \"#utility.yul\":9757:9760   */\n      dup3\n        /* \"#utility.yul\":9753:9767   */\n      add\n        /* \"#utility.yul\":9745:9767   */\n      swap1\n      pop\n        /* \"#utility.yul\":9660:9773   */\n      swap2\n      swap1\n      pop\n      jump\t// out\n        /* \"#utility.yul\":9809:10541   */\n    tag_372:\n        /* \"#utility.yul\":9928:9931   */\n      0x00\n        /* \"#utility.yul\":9957:10011   */\n      tag_525\n        /* \"#utility.yul\":10005:10010   */\n      dup3\n        /* \"#utility.yul\":9957:10011   */\n      tag_367\n      jump\t// in\n    tag_525:\n        /* \"#utility.yul\":10027:10113   */\n      tag_526\n        /* \"#utility.yul\":10106:10112   */\n      dup2\n        /* \"#utility.yul\":10101:10104   */\n      dup6\n        /* \"#utility.yul\":10027:10113   */\n      tag_368\n      jump\t// in\n    tag_526:\n        /* \"#utility.yul\":10020:10113   */\n      swap4\n      pop\n        /* \"#utility.yul\":10137:10193   */\n      tag_527\n        /* \"#utility.yul\":10187:10192   */\n      dup4\n        /* \"#utility.yul\":10137:10193   */\n      tag_369\n      jump\t// in\n    tag_527:\n        /* \"#utility.yul\":10216:10223   */\n      dup1\n        /* \"#utility.yul\":10247:10248   */\n      0x00\n        /* \"#utility.yul\":10232:10516   */\n    tag_528:\n        /* \"#utility.yul\":10257:10263   */\n      dup4\n        /* \"#utility.yul\":10254:10255   */\n      dup2\n        /* \"#utility.yul\":10251:10264   */\n      lt\n        /* \"#utility.yul\":10232:10516   */\n      iszero\n      tag_530\n      jumpi\n        /* \"#utility.yul\":10333:10339   */\n      dup2\n        /* \"#utility.yul\":10327:10340   */\n      mload\n        /* \"#utility.yul\":10360:10423   */\n      tag_531\n        /* \"#utility.yul\":10419:10422   */\n      dup9\n        /* \"#utility.yul\":10404:10417   */\n      dup3\n        /* \"#utility.yul\":10360:10423   */\n      tag_370\n      jump\t// in\n    tag_531:\n        /* \"#utility.yul\":10353:10423   */\n      swap8\n      pop\n        /* \"#utility.yul\":10446:10506   */\n      tag_532\n        /* \"#utility.yul\":10499:10505   */\n      dup4\n        /* \"#utility.yul\":10446:10506   */\n      tag_371\n      jump\t// in\n    tag_532:\n        /* \"#utility.yul\":10436:10506   */\n      swap3\n      pop\n        /* \"#utility.yul\":10292:10516   */\n      pop\n        /* \"#utility.yul\":10279:10280   */\n      0x01\n        /* \"#utility.yul\":10276:10277   */\n      dup2\n        /* \"#utility.yul\":10272:10281   */\n      add\n        /* \"#utility.yul\":10267:10281   */\n      swap1\n      pop\n        /* \"#utility.yul\":10232:10516   */\n      jump(tag_528)\n    tag_530:\n        /* \"#utility.yul\":10236:10250   */\n      pop\n        /* \"#utility.yul\":10532:10535   */\n      dup6\n        /* \"#utility.yul\":10525:10535   */\n      swap4\n      pop\n        /* \"#utility.yul\":9933:10541   */\n      pop\n      pop\n      pop\n        /* \"#utility.yul\":9809:10541   */\n      swap3\n      swap2\n      pop\n      pop\n      jump\t// out\n        /* \"#utility.yul\":10547:10920   */\n    tag_100:\n        /* \"#utility.yul\":10690:10694   */\n      0x00\n        /* \"#utility.yul\":10728:10730   */\n      0x20\n        /* \"#utility.yul\":10717:10726   */\n      dup3\n        /* \"#utility.yul\":10713:10731   */\n      add\n        /* \"#utility.yul\":10705:10731   */\n      swap1\n      pop\n        /* \"#utility.yul\":10777:10786   */\n      dup2\n        /* \"#utility.yul\":10771:10775   */\n      dup2\n        /* \"#utility.yul\":10767:10787   */\n      sub\n        /* \"#utility.yul\":10763:10764   */\n      0x00\n        /* \"#utility.yul\":10752:10761   */\n      dup4\n        /* \"#utility.yul\":10748:10765   */\n      add\n        /* \"#utility.yul\":10741:10788   */\n      mstore\n        /* \"#utility.yul\":10805:10913   */\n      tag_534\n        /* \"#utility.yul\":10908:10912   */\n      dup2\n        /* \"#utility.yul\":10899:10905   */\n      dup5\n        /* \"#utility.yul\":10805:10913   */\n      tag_372\n      jump\t// in\n    tag_534:\n        /* \"#utility.yul\":10797:10913   */\n      swap1\n      pop\n        /* \"#utility.yul\":10547:10920   */\n      swap3\n      swap2\n      pop\n      pop\n      jump\t// out\n        /* \"#utility.yul\":10926:11590   */\n    tag_123:\n        /* \"#utility.yul\":11131:11135   */\n      0x00\n        /* \"#utility.yul\":11169:11172   */\n      0xa0\n        /* \"#utility.yul\":11158:11167   */\n      dup3\n        /* \"#utility.yul\":11154:11173   */\n      add\n        /* \"#utility.yul\":11146:11173   */\n      swap1\n      pop\n        /* \"#utility.yul\":11183:11254   */\n      tag_536\n        /* \"#utility.yul\":11251:11252   */\n      0x00\n        /* \"#utility.yul\":11240:11249   */\n      dup4\n        /* \"#utility.yul\":11236:11253   */\n      add\n        /* \"#utility.yul\":11227:11233   */\n      dup9\n        /* \"#utility.yul\":11183:11254   */\n      tag_344\n      jump\t// in\n    tag_536:\n        /* \"#utility.yul\":11264:11336   */\n      tag_537\n        /* \"#utility.yul\":11332:11334   */\n      0x20\n        /* \"#utility.yul\":11321:11330   */\n      dup4\n        /* \"#utility.yul\":11317:11335   */\n      add\n        /* \"#utility.yul\":11308:11314   */\n      dup8\n        /* \"#utility.yul\":11264:11336   */\n      tag_344\n      jump\t// in\n    tag_537:\n        /* \"#utility.yul\":11346:11418   */\n      tag_538\n        /* \"#utility.yul\":11414:11416   */\n      0x40\n        /* \"#utility.yul\":11403:11412   */\n      dup4\n        /* \"#utility.yul\":11399:11417   */\n      add\n        /* \"#utility.yul\":11390:11396   */\n      dup7\n        /* \"#utility.yul\":11346:11418   */\n      tag_344\n      jump\t// in\n    tag_538:\n        /* \"#utility.yul\":11428:11500   */\n      tag_539\n        /* \"#utility.yul\":11496:11498   */\n      0x60\n        /* \"#utility.yul\":11485:11494   */\n      dup4\n        /* \"#utility.yul\":11481:11499   */\n      add\n        /* \"#utility.yul\":11472:11478   */\n      dup6\n        /* \"#utility.yul\":11428:11500   */\n      tag_344\n      jump\t// in\n    tag_539:\n        /* \"#utility.yul\":11510:11583   */\n      tag_540\n        /* \"#utility.yul\":11578:11581   */\n      0x80\n        /* \"#utility.yul\":11567:11576   */\n      dup4\n        /* \"#utility.yul\":11563:11582   */\n      add\n        /* \"#utility.yul\":11554:11560   */\n      dup5\n        /* \"#utility.yul\":11510:11583   */\n      tag_344\n      jump\t// in\n    tag_540:\n        /* \"#utility.yul\":10926:11590   */\n      swap7\n      swap6\n      pop\n      pop\n      pop\n      pop\n      pop\n      pop\n      jump\t// out\n        /* \"#utility.yul\":11596:11734   */\n    tag_373:\n        /* \"#utility.yul\":11687:11693   */\n      0x00\n        /* \"#utility.yul\":11721:11726   */\n      dup2\n        /* \"#utility.yul\":11715:11727   */\n      mload\n        /* \"#utility.yul\":11705:11727   */\n      swap1\n      pop\n        /* \"#utility.yul\":11596:11734   */\n      swap2\n      swap1\n      pop\n      jump\t// out\n        /* \"#utility.yul\":11740:11948   */\n    tag_374:\n        /* \"#utility.yul\":11863:11874   */\n      0x00\n        /* \"#utility.yul\":11897:11903   */\n      dup3\n        /* \"#utility.yul\":11892:11895   */\n      dup3\n        /* \"#utility.yul\":11885:11904   */\n      mstore\n        /* \"#utility.yul\":11937:11941   */\n      0x20\n        /* \"#utility.yul\":11932:11935   */\n      dup3\n        /* \"#utility.yul\":11928:11942   */\n      add\n        /* \"#utility.yul\":11913:11942   */\n      swap1\n      pop\n        /* \"#utility.yul\":11740:11948   */\n      swap3\n      swap2\n      pop\n      pop\n      jump\t// out\n        /* \"#utility.yul\":11954:12110   */\n    tag_375:\n        /* \"#utility.yul\":12045:12049   */\n      0x00\n        /* \"#utility.yul\":12068:12071   */\n      dup2\n        /* \"#utility.yul\":12060:12071   */\n      swap1\n      pop\n        /* \"#utility.yul\":12098:12102   */\n      0x20\n        /* \"#utility.yul\":12093:12096   */\n      dup3\n        /* \"#utility.yul\":12089:12103   */\n      add\n        /* \"#utility.yul\":12081:12103   */\n      swap1\n      pop\n        /* \"#utility.yul\":11954:12110   */\n      swap2\n      swap1\n      pop\n      jump\t// out\n        /* \"#utility.yul\":12116:12224   */\n    tag_376:\n        /* \"#utility.yul\":12193:12217   */\n      tag_545\n        /* \"#utility.yul\":12211:12216   */\n      dup2\n        /* \"#utility.yul\":12193:12217   */\n      tag_358\n      jump\t// in\n    tag_545:\n        /* \"#utility.yul\":12188:12191   */\n      dup3\n        /* \"#utility.yul\":12181:12218   */\n      mstore\n        /* \"#utility.yul\":12116:12224   */\n      pop\n      pop\n      jump\t// out\n        /* \"#utility.yul\":12230:12329   */\n    tag_377:\n        /* \"#utility.yul\":12282:12288   */\n      0x00\n        /* \"#utility.yul\":12316:12321   */\n      dup2\n        /* \"#utility.yul\":12310:12322   */\n      mload\n        /* \"#utility.yul\":12300:12322   */\n      swap1\n      pop\n        /* \"#utility.yul\":12230:12329   */\n      swap2\n      swap1\n      pop\n      jump\t// out\n        /* \"#utility.yul\":12335:12494   */\n    tag_378:\n        /* \"#utility.yul\":12409:12420   */\n      0x00\n        /* \"#utility.yul\":12443:12449   */\n      dup3\n        /* \"#utility.yul\":12438:12441   */\n      dup3\n        /* \"#utility.yul\":12431:12450   */\n      mstore\n        /* \"#utility.yul\":12483:12487   */\n      0x20\n        /* \"#utility.yul\":12478:12481   */\n      dup3\n        /* \"#utility.yul\":12474:12488   */\n      add\n        /* \"#utility.yul\":12459:12488   */\n      swap1\n      pop\n        /* \"#utility.yul\":12335:12494   */\n      swap3\n      swap2\n      pop\n      pop\n      jump\t// out\n        /* \"#utility.yul\":12500:12639   */\n    tag_379:\n        /* \"#utility.yul\":12589:12595   */\n      dup3\n        /* \"#utility.yul\":12584:12587   */\n      dup2\n        /* \"#utility.yul\":12579:12582   */\n      dup4\n        /* \"#utility.yul\":12573:12596   */\n      mcopy\n        /* \"#utility.yul\":12630:12631   */\n      0x00\n        /* \"#utility.yul\":12621:12627   */\n      dup4\n        /* \"#utility.yul\":12616:12619   */\n      dup4\n        /* \"#utility.yul\":12612:12628   */\n      add\n        /* \"#utility.yul\":12605:12632   */\n      mstore\n        /* \"#utility.yul\":12500:12639   */\n      pop\n      pop\n      pop\n      jump\t// out\n        /* \"#utility.yul\":12645:12747   */\n    tag_380:\n        /* \"#utility.yul\":12686:12692   */\n      0x00\n        /* \"#utility.yul\":12737:12739   */\n      0x1f\n        /* \"#utility.yul\":12733:12740   */\n      not\n        /* \"#utility.yul\":12728:12730   */\n      0x1f\n        /* \"#utility.yul\":12721:12726   */\n      dup4\n        /* \"#utility.yul\":12717:12731   */\n      add\n        /* \"#utility.yul\":12713:12741   */\n      and\n        /* \"#utility.yul\":12703:12741   */\n      swap1\n      pop\n        /* \"#utility.yul\":12645:12747   */\n      swap2\n      swap1\n      pop\n      jump\t// out\n        /* \"#utility.yul\":12753:13110   */\n    tag_381:\n        /* \"#utility.yul\":12831:12834   */\n      0x00\n        /* \"#utility.yul\":12859:12898   */\n      tag_551\n        /* \"#utility.yul\":12892:12897   */\n      dup3\n        /* \"#utility.yul\":12859:12898   */\n      tag_377\n      jump\t// in\n    tag_551:\n        /* \"#utility.yul\":12914:12975   */\n      tag_552\n        /* \"#utility.yul\":12968:12974   */\n      dup2\n        /* \"#utility.yul\":12963:12966   */\n      dup6\n        /* \"#utility.yul\":12914:12975   */\n      tag_378\n      jump\t// in\n    tag_552:\n        /* \"#utility.yul\":12907:12975   */\n      swap4\n      pop\n        /* \"#utility.yul\":12984:13049   */\n      tag_553\n        /* \"#utility.yul\":13042:13048   */\n      dup2\n        /* \"#utility.yul\":13037:13040   */\n      dup6\n        /* \"#utility.yul\":13030:13034   */\n      0x20\n        /* \"#utility.yul\":13023:13028   */\n      dup7\n        /* \"#utility.yul\":13019:13035   */\n      add\n        /* \"#utility.yul\":12984:13049   */\n      tag_379\n      jump\t// in\n    tag_553:\n        /* \"#utility.yul\":13074:13103   */\n      tag_554\n        /* \"#utility.yul\":13096:13102   */\n      dup2\n        /* \"#utility.yul\":13074:13103   */\n      tag_380\n      jump\t// in\n    tag_554:\n        /* \"#utility.yul\":13069:13072   */\n      dup5\n        /* \"#utility.yul\":13065:13104   */\n      add\n        /* \"#utility.yul\":13058:13104   */\n      swap2\n      pop\n        /* \"#utility.yul\":12835:13110   */\n      pop\n        /* \"#utility.yul\":12753:13110   */\n      swap3\n      swap2\n      pop\n      pop\n      jump\t// out\n        /* \"#utility.yul\":13116:13215   */\n    tag_382:\n        /* \"#utility.yul\":13187:13208   */\n      tag_556\n        /* \"#utility.yul\":13202:13207   */\n      dup2\n        /* \"#utility.yul\":13187:13208   */\n      tag_361\n      jump\t// in\n    tag_556:\n        /* \"#utility.yul\":13182:13185   */\n      dup3\n        /* \"#utility.yul\":13175:13209   */\n      mstore\n        /* \"#utility.yul\":13116:13215   */\n      pop\n      pop\n      jump\t// out\n        /* \"#utility.yul\":13309:14432   */\n    tag_383:\n        /* \"#utility.yul\":13416:13419   */\n      0x00\n        /* \"#utility.yul\":13452:13456   */\n      0xa0\n        /* \"#utility.yul\":13447:13450   */\n      dup4\n        /* \"#utility.yul\":13443:13457   */\n      add\n        /* \"#utility.yul\":13540:13544   */\n      0x00\n        /* \"#utility.yul\":13533:13538   */\n      dup4\n        /* \"#utility.yul\":13529:13545   */\n      add\n        /* \"#utility.yul\":13523:13546   */\n      mload\n        /* \"#utility.yul\":13559:13622   */\n      tag_558\n        /* \"#utility.yul\":13616:13620   */\n      0x00\n        /* \"#utility.yul\":13611:13614   */\n      dup7\n        /* \"#utility.yul\":13607:13621   */\n      add\n        /* \"#utility.yul\":13593:13605   */\n      dup3\n        /* \"#utility.yul\":13559:13622   */\n      tag_376\n      jump\t// in\n    tag_558:\n        /* \"#utility.yul\":13467:13632   */\n      pop\n        /* \"#utility.yul\":13716:13720   */\n      0x20\n        /* \"#utility.yul\":13709:13714   */\n      dup4\n        /* \"#utility.yul\":13705:13721   */\n      add\n        /* \"#utility.yul\":13699:13722   */\n      mload\n        /* \"#utility.yul\":13735:13798   */\n      tag_559\n        /* \"#utility.yul\":13792:13796   */\n      0x20\n        /* \"#utility.yul\":13787:13790   */\n      dup7\n        /* \"#utility.yul\":13783:13797   */\n      add\n        /* \"#utility.yul\":13769:13781   */\n      dup3\n        /* \"#utility.yul\":13735:13798   */\n      tag_364\n      jump\t// in\n    tag_559:\n        /* \"#utility.yul\":13642:13808   */\n      pop\n        /* \"#utility.yul\":13895:13899   */\n      0x40\n        /* \"#utility.yul\":13888:13893   */\n      dup4\n        /* \"#utility.yul\":13884:13900   */\n      add\n        /* \"#utility.yul\":13878:13901   */\n      mload\n        /* \"#utility.yul\":13914:13977   */\n      tag_560\n        /* \"#utility.yul\":13971:13975   */\n      0x40\n        /* \"#utility.yul\":13966:13969   */\n      dup7\n        /* \"#utility.yul\":13962:13976   */\n      add\n        /* \"#utility.yul\":13948:13960   */\n      dup3\n        /* \"#utility.yul\":13914:13977   */\n      tag_364\n      jump\t// in\n    tag_560:\n        /* \"#utility.yul\":13818:13987   */\n      pop\n        /* \"#utility.yul\":14072:14076   */\n      0x60\n        /* \"#utility.yul\":14065:14070   */\n      dup4\n        /* \"#utility.yul\":14061:14077   */\n      add\n        /* \"#utility.yul\":14055:14078   */\n      mload\n        /* \"#utility.yul\":14125:14128   */\n      dup5\n        /* \"#utility.yul\":14119:14123   */\n      dup3\n        /* \"#utility.yul\":14115:14129   */\n      sub\n        /* \"#utility.yul\":14108:14112   */\n      0x60\n        /* \"#utility.yul\":14103:14106   */\n      dup7\n        /* \"#utility.yul\":14099:14113   */\n      add\n        /* \"#utility.yul\":14092:14130   */\n      mstore\n        /* \"#utility.yul\":14151:14224   */\n      tag_561\n        /* \"#utility.yul\":14219:14223   */\n      dup3\n        /* \"#utility.yul\":14205:14217   */\n      dup3\n        /* \"#utility.yul\":14151:14224   */\n      tag_381\n      jump\t// in\n    tag_561:\n        /* \"#utility.yul\":14143:14224   */\n      swap2\n      pop\n        /* \"#utility.yul\":13997:14235   */\n      pop\n        /* \"#utility.yul\":14319:14323   */\n      0x80\n        /* \"#utility.yul\":14312:14317   */\n      dup4\n        /* \"#utility.yul\":14308:14324   */\n      add\n        /* \"#utility.yul\":14302:14325   */\n      mload\n        /* \"#utility.yul\":14338:14395   */\n      tag_562\n        /* \"#utility.yul\":14389:14393   */\n      0x80\n        /* \"#utility.yul\":14384:14387   */\n      dup7\n        /* \"#utility.yul\":14380:14394   */\n      add\n        /* \"#utility.yul\":14366:14378   */\n      dup3\n        /* \"#utility.yul\":14338:14395   */\n      tag_382\n      jump\t// in\n    tag_562:\n        /* \"#utility.yul\":14245:14405   */\n      pop\n        /* \"#utility.yul\":14422:14426   */\n      dup1\n        /* \"#utility.yul\":14415:14426   */\n      swap2\n      pop\n        /* \"#utility.yul\":13421:14432   */\n      pop\n        /* \"#utility.yul\":13309:14432   */\n      swap3\n      swap2\n      pop\n      pop\n      jump\t// out\n        /* \"#utility.yul\":14438:14690   */\n    tag_384:\n        /* \"#utility.yul\":14555:14565   */\n      0x00\n        /* \"#utility.yul\":14590:14684   */\n      tag_564\n        /* \"#utility.yul\":14680:14683   */\n      dup4\n        /* \"#utility.yul\":14672:14678   */\n      dup4\n        /* \"#utility.yul\":14590:14684   */\n      tag_383\n      jump\t// in\n    tag_564:\n        /* \"#utility.yul\":14576:14684   */\n      swap1\n      pop\n        /* \"#utility.yul\":14438:14690   */\n      swap3\n      swap2\n      pop\n      pop\n      jump\t// out\n        /* \"#utility.yul\":14696:14833   */\n    tag_385:\n        /* \"#utility.yul\":14790:14794   */\n      0x00\n        /* \"#utility.yul\":14822:14826   */\n      0x20\n        /* \"#utility.yul\":14817:14820   */\n      dup3\n        /* \"#utility.yul\":14813:14827   */\n      add\n        /* \"#utility.yul\":14805:14827   */\n      swap1\n      pop\n        /* \"#utility.yul\":14696:14833   */\n      swap2\n      swap1\n      pop\n      jump\t// out\n        /* \"#utility.yul\":14931:16034   */\n    tag_386:\n        /* \"#utility.yul\":15098:15101   */\n      0x00\n        /* \"#utility.yul\":15127:15205   */\n      tag_567\n        /* \"#utility.yul\":15199:15204   */\n      dup3\n        /* \"#utility.yul\":15127:15205   */\n      tag_373\n      jump\t// in\n    tag_567:\n        /* \"#utility.yul\":15221:15331   */\n      tag_568\n        /* \"#utility.yul\":15324:15330   */\n      dup2\n        /* \"#utility.yul\":15319:15322   */\n      dup6\n        /* \"#utility.yul\":15221:15331   */\n      tag_374\n      jump\t// in\n    tag_568:\n        /* \"#utility.yul\":15214:15331   */\n      swap4\n      pop\n        /* \"#utility.yul\":15357:15360   */\n      dup4\n        /* \"#utility.yul\":15402:15406   */\n      0x20\n        /* \"#utility.yul\":15394:15400   */\n      dup3\n        /* \"#utility.yul\":15390:15407   */\n      mul\n        /* \"#utility.yul\":15385:15388   */\n      dup6\n        /* \"#utility.yul\":15381:15408   */\n      add\n        /* \"#utility.yul\":15432:15512   */\n      tag_569\n        /* \"#utility.yul\":15506:15511   */\n      dup6\n        /* \"#utility.yul\":15432:15512   */\n      tag_375\n      jump\t// in\n    tag_569:\n        /* \"#utility.yul\":15535:15542   */\n      dup1\n        /* \"#utility.yul\":15566:15567   */\n      0x00\n        /* \"#utility.yul\":15551:15989   */\n    tag_570:\n        /* \"#utility.yul\":15576:15582   */\n      dup6\n        /* \"#utility.yul\":15573:15574   */\n      dup2\n        /* \"#utility.yul\":15570:15583   */\n      lt\n        /* \"#utility.yul\":15551:15989   */\n      iszero\n      tag_572\n      jumpi\n        /* \"#utility.yul\":15647:15656   */\n      dup5\n        /* \"#utility.yul\":15641:15645   */\n      dup5\n        /* \"#utility.yul\":15637:15657   */\n      sub\n        /* \"#utility.yul\":15632:15635   */\n      dup10\n        /* \"#utility.yul\":15625:15658   */\n      mstore\n        /* \"#utility.yul\":15698:15704   */\n      dup2\n        /* \"#utility.yul\":15692:15705   */\n      mload\n        /* \"#utility.yul\":15726:15838   */\n      tag_573\n        /* \"#utility.yul\":15833:15837   */\n      dup6\n        /* \"#utility.yul\":15818:15831   */\n      dup3\n        /* \"#utility.yul\":15726:15838   */\n      tag_384\n      jump\t// in\n    tag_573:\n        /* \"#utility.yul\":15718:15838   */\n      swap5\n      pop\n        /* \"#utility.yul\":15861:15945   */\n      tag_574\n        /* \"#utility.yul\":15938:15944   */\n      dup4\n        /* \"#utility.yul\":15861:15945   */\n      tag_385\n      jump\t// in\n    tag_574:\n        /* \"#utility.yul\":15851:15945   */\n      swap3\n      pop\n        /* \"#utility.yul\":15974:15978   */\n      0x20\n        /* \"#utility.yul\":15969:15972   */\n      dup11\n        /* \"#utility.yul\":15965:15979   */\n      add\n        /* \"#utility.yul\":15958:15979   */\n      swap10\n      pop\n        /* \"#utility.yul\":15611:15989   */\n      pop\n        /* \"#utility.yul\":15598:15599   */\n      0x01\n        /* \"#utility.yul\":15595:15596   */\n      dup2\n        /* \"#utility.yul\":15591:15600   */\n      add\n        /* \"#utility.yul\":15586:15600   */\n      swap1\n      pop\n        /* \"#utility.yul\":15551:15989   */\n      jump(tag_570)\n    tag_572:\n        /* \"#utility.yul\":15555:15569   */\n      pop\n        /* \"#utility.yul\":16005:16009   */\n      dup3\n        /* \"#utility.yul\":15998:16009   */\n      swap8\n      pop\n        /* \"#utility.yul\":16025:16028   */\n      dup8\n        /* \"#utility.yul\":16018:16028   */\n      swap6\n      pop\n        /* \"#utility.yul\":15103:16034   */\n      pop\n      pop\n      pop\n      pop\n      pop\n        /* \"#utility.yul\":14931:16034   */\n      swap3\n      swap2\n      pop\n      pop\n      jump\t// out\n        /* \"#utility.yul\":16040:16509   */\n    tag_142:\n        /* \"#utility.yul\":16231:16235   */\n      0x00\n        /* \"#utility.yul\":16269:16271   */\n      0x20\n        /* \"#utility.yul\":16258:16267   */\n      dup3\n        /* \"#utility.yul\":16254:16272   */\n      add\n        /* \"#utility.yul\":16246:16272   */\n      swap1\n      pop\n        /* \"#utility.yul\":16318:16327   */\n      dup2\n        /* \"#utility.yul\":16312:16316   */\n      dup2\n        /* \"#utility.yul\":16308:16328   */\n      sub\n        /* \"#utility.yul\":16304:16305   */\n      0x00\n        /* \"#utility.yul\":16293:16302   */\n      dup4\n        /* \"#utility.yul\":16289:16306   */\n      add\n        /* \"#utility.yul\":16282:16329   */\n      mstore\n        /* \"#utility.yul\":16346:16502   */\n      tag_576\n        /* \"#utility.yul\":16497:16501   */\n      dup2\n        /* \"#utility.yul\":16488:16494   */\n      dup5\n        /* \"#utility.yul\":16346:16502   */\n      tag_386\n      jump\t// in\n    tag_576:\n        /* \"#utility.yul\":16338:16502   */\n      swap1\n      pop\n        /* \"#utility.yul\":16040:16509   */\n      swap3\n      swap2\n      pop\n      pop\n      jump\t// out\n        /* \"#utility.yul\":16515:16892   */\n    tag_387:\n        /* \"#utility.yul\":16603:16606   */\n      0x00\n        /* \"#utility.yul\":16631:16670   */\n      tag_578\n        /* \"#utility.yul\":16664:16669   */\n      dup3\n        /* \"#utility.yul\":16631:16670   */\n      tag_377\n      jump\t// in\n    tag_578:\n        /* \"#utility.yul\":16686:16757   */\n      tag_579\n        /* \"#utility.yul\":16750:16756   */\n      dup2\n        /* \"#utility.yul\":16745:16748   */\n      dup6\n        /* \"#utility.yul\":16686:16757   */\n      tag_345\n      jump\t// in\n    tag_579:\n        /* \"#utility.yul\":16679:16757   */\n      swap4\n      pop\n        /* \"#utility.yul\":16766:16831   */\n      tag_580\n        /* \"#utility.yul\":16824:16830   */\n      dup2\n        /* \"#utility.yul\":16819:16822   */\n      dup6\n        /* \"#utility.yul\":16812:16816   */\n      0x20\n        /* \"#utility.yul\":16805:16810   */\n      dup7\n        /* \"#utility.yul\":16801:16817   */\n      add\n        /* \"#utility.yul\":16766:16831   */\n      tag_379\n      jump\t// in\n    tag_580:\n        /* \"#utility.yul\":16856:16885   */\n      tag_581\n        /* \"#utility.yul\":16878:16884   */\n      dup2\n        /* \"#utility.yul\":16856:16885   */\n      tag_380\n      jump\t// in\n    tag_581:\n        /* \"#utility.yul\":16851:16854   */\n      dup5\n        /* \"#utility.yul\":16847:16886   */\n      add\n        /* \"#utility.yul\":16840:16886   */\n      swap2\n      pop\n        /* \"#utility.yul\":16607:16892   */\n      pop\n        /* \"#utility.yul\":16515:16892   */\n      swap3\n      swap2\n      pop\n      pop\n      jump\t// out\n        /* \"#utility.yul\":16898:17641   */\n    tag_152:\n        /* \"#utility.yul\":17117:17121   */\n      0x00\n        /* \"#utility.yul\":17155:17158   */\n      0xa0\n        /* \"#utility.yul\":17144:17153   */\n      dup3\n        /* \"#utility.yul\":17140:17159   */\n      add\n        /* \"#utility.yul\":17132:17159   */\n      swap1\n      pop\n        /* \"#utility.yul\":17169:17240   */\n      tag_583\n        /* \"#utility.yul\":17237:17238   */\n      0x00\n        /* \"#utility.yul\":17226:17235   */\n      dup4\n        /* \"#utility.yul\":17222:17239   */\n      add\n        /* \"#utility.yul\":17213:17219   */\n      dup9\n        /* \"#utility.yul\":17169:17240   */\n      tag_366\n      jump\t// in\n    tag_583:\n        /* \"#utility.yul\":17250:17322   */\n      tag_584\n        /* \"#utility.yul\":17318:17320   */\n      0x20\n        /* \"#utility.yul\":17307:17316   */\n      dup4\n        /* \"#utility.yul\":17303:17321   */\n      add\n        /* \"#utility.yul\":17294:17300   */\n      dup8\n        /* \"#utility.yul\":17250:17322   */\n      tag_344\n      jump\t// in\n    tag_584:\n        /* \"#utility.yul\":17332:17404   */\n      tag_585\n        /* \"#utility.yul\":17400:17402   */\n      0x40\n        /* \"#utility.yul\":17389:17398   */\n      dup4\n        /* \"#utility.yul\":17385:17403   */\n      add\n        /* \"#utility.yul\":17376:17382   */\n      dup7\n        /* \"#utility.yul\":17332:17404   */\n      tag_344\n      jump\t// in\n    tag_585:\n        /* \"#utility.yul\":17451:17460   */\n      dup2\n        /* \"#utility.yul\":17445:17449   */\n      dup2\n        /* \"#utility.yul\":17441:17461   */\n      sub\n        /* \"#utility.yul\":17436:17438   */\n      0x60\n        /* \"#utility.yul\":17425:17434   */\n      dup4\n        /* \"#utility.yul\":17421:17439   */\n      add\n        /* \"#utility.yul\":17414:17462   */\n      mstore\n        /* \"#utility.yul\":17479:17557   */\n      tag_586\n        /* \"#utility.yul\":17552:17556   */\n      dup2\n        /* \"#utility.yul\":17543:17549   */\n      dup6\n        /* \"#utility.yul\":17479:17557   */\n      tag_387\n      jump\t// in\n    tag_586:\n        /* \"#utility.yul\":17471:17557   */\n      swap1\n      pop\n        /* \"#utility.yul\":17567:17634   */\n      tag_587\n        /* \"#utility.yul\":17629:17632   */\n      0x80\n        /* \"#utility.yul\":17618:17627   */\n      dup4\n        /* \"#utility.yul\":17614:17633   */\n      add\n        /* \"#utility.yul\":17605:17611   */\n      dup5\n        /* \"#utility.yul\":17567:17634   */\n      tag_362\n      jump\t// in\n    tag_587:\n        /* \"#utility.yul\":16898:17641   */\n      swap7\n      swap6\n      pop\n      pop\n      pop\n      pop\n      pop\n      pop\n      jump\t// out\n        /* \"#utility.yul\":17647:17761   */\n    tag_388:\n        /* \"#utility.yul\":17714:17720   */\n      0x00\n        /* \"#utility.yul\":17748:17753   */\n      dup2\n        /* \"#utility.yul\":17742:17754   */\n      mload\n        /* \"#utility.yul\":17732:17754   */\n      swap1\n      pop\n        /* \"#utility.yul\":17647:17761   */\n      swap2\n      swap1\n      pop\n      jump\t// out\n        /* \"#utility.yul\":17767:17951   */\n    tag_389:\n        /* \"#utility.yul\":17866:17877   */\n      0x00\n        /* \"#utility.yul\":17900:17906   */\n      dup3\n        /* \"#utility.yul\":17895:17898   */\n      dup3\n        /* \"#utility.yul\":17888:17907   */\n      mstore\n        /* \"#utility.yul\":17940:17944   */\n      0x20\n        /* \"#utility.yul\":17935:17938   */\n      dup3\n        /* \"#utility.yul\":17931:17945   */\n      add\n        /* \"#utility.yul\":17916:17945   */\n      swap1\n      pop\n        /* \"#utility.yul\":17767:17951   */\n      swap3\n      swap2\n      pop\n      pop\n      jump\t// out\n        /* \"#utility.yul\":17957:18089   */\n    tag_390:\n        /* \"#utility.yul\":18024:18028   */\n      0x00\n        /* \"#utility.yul\":18047:18050   */\n      dup2\n        /* \"#utility.yul\":18039:18050   */\n      swap1\n      pop\n        /* \"#utility.yul\":18077:18081   */\n      0x20\n        /* \"#utility.yul\":18072:18075   */\n      dup3\n        /* \"#utility.yul\":18068:18082   */\n      add\n        /* \"#utility.yul\":18060:18082   */\n      swap1\n      pop\n        /* \"#utility.yul\":17957:18089   */\n      swap2\n      swap1\n      pop\n      jump\t// out\n        /* \"#utility.yul\":18095:18274   */\n    tag_391:\n        /* \"#utility.yul\":18164:18174   */\n      0x00\n        /* \"#utility.yul\":18185:18231   */\n      tag_592\n        /* \"#utility.yul\":18227:18230   */\n      dup4\n        /* \"#utility.yul\":18219:18225   */\n      dup4\n        /* \"#utility.yul\":18185:18231   */\n      tag_376\n      jump\t// in\n    tag_592:\n        /* \"#utility.yul\":18263:18267   */\n      0x20\n        /* \"#utility.yul\":18258:18261   */\n      dup4\n        /* \"#utility.yul\":18254:18268   */\n      add\n        /* \"#utility.yul\":18240:18268   */\n      swap1\n      pop\n        /* \"#utility.yul\":18095:18274   */\n      swap3\n      swap2\n      pop\n      pop\n      jump\t// out\n        /* \"#utility.yul\":18280:18393   */\n    tag_392:\n        /* \"#utility.yul\":18350:18354   */\n      0x00\n        /* \"#utility.yul\":18382:18386   */\n      0x20\n        /* \"#utility.yul\":18377:18380   */\n      dup3\n        /* \"#utility.yul\":18373:18387   */\n      add\n        /* \"#utility.yul\":18365:18387   */\n      swap1\n      pop\n        /* \"#utility.yul\":18280:18393   */\n      swap2\n      swap1\n      pop\n      jump\t// out\n        /* \"#utility.yul\":18429:19161   */\n    tag_393:\n        /* \"#utility.yul\":18548:18551   */\n      0x00\n        /* \"#utility.yul\":18577:18631   */\n      tag_595\n        /* \"#utility.yul\":18625:18630   */\n      dup3\n        /* \"#utility.yul\":18577:18631   */\n      tag_388\n      jump\t// in\n    tag_595:\n        /* \"#utility.yul\":18647:18733   */\n      tag_596\n        /* \"#utility.yul\":18726:18732   */\n      dup2\n        /* \"#utility.yul\":18721:18724   */\n      dup6\n        /* \"#utility.yul\":18647:18733   */\n      tag_389\n      jump\t// in\n    tag_596:\n        /* \"#utility.yul\":18640:18733   */\n      swap4\n      pop\n        /* \"#utility.yul\":18757:18813   */\n      tag_597\n        /* \"#utility.yul\":18807:18812   */\n      dup4\n        /* \"#utility.yul\":18757:18813   */\n      tag_390\n      jump\t// in\n    tag_597:\n        /* \"#utility.yul\":18836:18843   */\n      dup1\n        /* \"#utility.yul\":18867:18868   */\n      0x00\n        /* \"#utility.yul\":18852:19136   */\n    tag_598:\n        /* \"#utility.yul\":18877:18883   */\n      dup4\n        /* \"#utility.yul\":18874:18875   */\n      dup2\n        /* \"#utility.yul\":18871:18884   */\n      lt\n        /* \"#utility.yul\":18852:19136   */\n      iszero\n      tag_600\n      jumpi\n        /* \"#utility.yul\":18953:18959   */\n      dup2\n        /* \"#utility.yul\":18947:18960   */\n      mload\n        /* \"#utility.yul\":18980:19043   */\n      tag_601\n        /* \"#utility.yul\":19039:19042   */\n      dup9\n        /* \"#utility.yul\":19024:19037   */\n      dup3\n        /* \"#utility.yul\":18980:19043   */\n      tag_391\n      jump\t// in\n    tag_601:\n        /* \"#utility.yul\":18973:19043   */\n      swap8\n      pop\n        /* \"#utility.yul\":19066:19126   */\n      tag_602\n        /* \"#utility.yul\":19119:19125   */\n      dup4\n        /* \"#utility.yul\":19066:19126   */\n      tag_392\n      jump\t// in\n    tag_602:\n        /* \"#utility.yul\":19056:19126   */\n      swap3\n      pop\n        /* \"#utility.yul\":18912:19136   */\n      pop\n        /* \"#utility.yul\":18899:18900   */\n      0x01\n        /* \"#utility.yul\":18896:18897   */\n      dup2\n        /* \"#utility.yul\":18892:18901   */\n      add\n        /* \"#utility.yul\":18887:18901   */\n      swap1\n      pop\n        /* \"#utility.yul\":18852:19136   */\n      jump(tag_598)\n    tag_600:\n        /* \"#utility.yul\":18856:18870   */\n      pop\n        /* \"#utility.yul\":19152:19155   */\n      dup6\n        /* \"#utility.yul\":19145:19155   */\n      swap4\n      pop\n        /* \"#utility.yul\":18553:19161   */\n      pop\n      pop\n      pop\n        /* \"#utility.yul\":18429:19161   */\n      swap3\n      swap2\n      pop\n      pop\n      jump\t// out\n        /* \"#utility.yul\":19167:19801   */\n    tag_158:\n        /* \"#utility.yul\":19388:19392   */\n      0x00\n        /* \"#utility.yul\":19426:19428   */\n      0x40\n        /* \"#utility.yul\":19415:19424   */\n      dup3\n        /* \"#utility.yul\":19411:19429   */\n      add\n        /* \"#utility.yul\":19403:19429   */\n      swap1\n      pop\n        /* \"#utility.yul\":19475:19484   */\n      dup2\n        /* \"#utility.yul\":19469:19473   */\n      dup2\n        /* \"#utility.yul\":19465:19485   */\n      sub\n        /* \"#utility.yul\":19461:19462   */\n      0x00\n        /* \"#utility.yul\":19450:19459   */\n      dup4\n        /* \"#utility.yul\":19446:19463   */\n      add\n        /* \"#utility.yul\":19439:19486   */\n      mstore\n        /* \"#utility.yul\":19503:19611   */\n      tag_604\n        /* \"#utility.yul\":19606:19610   */\n      dup2\n        /* \"#utility.yul\":19597:19603   */\n      dup6\n        /* \"#utility.yul\":19503:19611   */\n      tag_393\n      jump\t// in\n    tag_604:\n        /* \"#utility.yul\":19495:19611   */\n      swap1\n      pop\n        /* \"#utility.yul\":19658:19667   */\n      dup2\n        /* \"#utility.yul\":19652:19656   */\n      dup2\n        /* \"#utility.yul\":19648:19668   */\n      sub\n        /* \"#utility.yul\":19643:19645   */\n      0x20\n        /* \"#utility.yul\":19632:19641   */\n      dup4\n        /* \"#utility.yul\":19628:19646   */\n      add\n        /* \"#utility.yul\":19621:19669   */\n      mstore\n        /* \"#utility.yul\":19686:19794   */\n      tag_605\n        /* \"#utility.yul\":19789:19793   */\n      dup2\n        /* \"#utility.yul\":19780:19786   */\n      dup5\n        /* \"#utility.yul\":19686:19794   */\n      tag_372\n      jump\t// in\n    tag_605:\n        /* \"#utility.yul\":19678:19794   */\n      swap1\n      pop\n        /* \"#utility.yul\":19167:19801   */\n      swap4\n      swap3\n      pop\n      pop\n      pop\n      jump\t// out\n        /* \"#utility.yul\":19807:19987   */\n    tag_236:\n        /* \"#utility.yul\":19855:19932   */\n      0x4e487b7100000000000000000000000000000000000000000000000000000000\n        /* \"#utility.yul\":19852:19853   */\n      0x00\n        /* \"#utility.yul\":19845:19933   */\n      mstore\n        /* \"#utility.yul\":19952:19956   */\n      0x41\n        /* \"#utility.yul\":19949:19950   */\n      0x04\n        /* \"#utility.yul\":19942:19957   */\n      mstore\n        /* \"#utility.yul\":19976:19980   */\n      0x24\n        /* \"#utility.yul\":19973:19974   */\n      0x00\n        /* \"#utility.yul\":19966:19981   */\n      revert\n        /* \"#utility.yul\":19993:20173   */\n    tag_394:\n        /* \"#utility.yul\":20041:20118   */\n      0x4e487b7100000000000000000000000000000000000000000000000000000000\n        /* \"#utility.yul\":20038:20039   */\n      0x00\n        /* \"#utility.yul\":20031:20119   */\n      mstore\n        /* \"#utility.yul\":20138:20142   */\n      0x22\n        /* \"#utility.yul\":20135:20136   */\n      0x04\n        /* \"#utility.yul\":20128:20143   */\n      mstore\n        /* \"#utility.yul\":20162:20166   */\n      0x24\n        /* \"#utility.yul\":20159:20160   */\n      0x00\n        /* \"#utility.yul\":20152:20167   */\n      revert\n        /* \"#utility.yul\":20179:20499   */\n    tag_294:\n        /* \"#utility.yul\":20223:20229   */\n      0x00\n        /* \"#utility.yul\":20260:20261   */\n      0x02\n        /* \"#utility.yul\":20254:20258   */\n      dup3\n        /* \"#utility.yul\":20250:20262   */\n      div\n        /* \"#utility.yul\":20240:20262   */\n      swap1\n      pop\n        /* \"#utility.yul\":20307:20308   */\n      0x01\n        /* \"#utility.yul\":20301:20305   */\n      dup3\n        /* \"#utility.yul\":20297:20309   */\n      and\n        /* \"#utility.yul\":20328:20346   */\n      dup1\n        /* \"#utility.yul\":20318:20399   */\n      tag_609\n      jumpi\n        /* \"#utility.yul\":20384:20388   */\n      0x7f\n        /* \"#utility.yul\":20376:20382   */\n      dup3\n        /* \"#utility.yul\":20372:20389   */\n      and\n        /* \"#utility.yul\":20362:20389   */\n      swap2\n      pop\n        /* \"#utility.yul\":20318:20399   */\n    tag_609:\n        /* \"#utility.yul\":20446:20448   */\n      0x20\n        /* \"#utility.yul\":20438:20444   */\n      dup3\n        /* \"#utility.yul\":20435:20449   */\n      lt\n        /* \"#utility.yul\":20415:20433   */\n      dup2\n        /* \"#utility.yul\":20412:20450   */\n      sub\n        /* \"#utility.yul\":20409:20493   */\n      tag_610\n      jumpi\n        /* \"#utility.yul\":20465:20483   */\n      tag_611\n      tag_394\n      jump\t// in\n    tag_611:\n        /* \"#utility.yul\":20409:20493   */\n    tag_610:\n        /* \"#utility.yul\":20230:20499   */\n      pop\n        /* \"#utility.yul\":20179:20499   */\n      swap2\n      swap1\n      pop\n      jump\t// out\n        /* \"#utility.yul\":20505:20646   */\n    tag_395:\n        /* \"#utility.yul\":20554:20558   */\n      0x00\n        /* \"#utility.yul\":20577:20580   */\n      dup2\n        /* \"#utility.yul\":20569:20580   */\n      swap1\n      pop\n        /* \"#utility.yul\":20600:20603   */\n      dup2\n        /* \"#utility.yul\":20597:20598   */\n      0x00\n        /* \"#utility.yul\":20590:20604   */\n      mstore\n        /* \"#utility.yul\":20634:20638   */\n      0x20\n        /* \"#utility.yul\":20631:20632   */\n      0x00\n        /* \"#utility.yul\":20621:20639   */\n      keccak256\n        /* \"#utility.yul\":20613:20639   */\n      swap1\n      pop\n        /* \"#utility.yul\":20505:20646   */\n      swap2\n      swap1\n      pop\n      jump\t// out\n        /* \"#utility.yul\":20652:20745   */\n    tag_396:\n        /* \"#utility.yul\":20689:20695   */\n      0x00\n        /* \"#utility.yul\":20736:20738   */\n      0x20\n        /* \"#utility.yul\":20731:20733   */\n      0x1f\n        /* \"#utility.yul\":20724:20729   */\n      dup4\n        /* \"#utility.yul\":20720:20734   */\n      add\n        /* \"#utility.yul\":20716:20739   */\n      div\n        /* \"#utility.yul\":20706:20739   */\n      swap1\n      pop\n        /* \"#utility.yul\":20652:20745   */\n      swap2\n      swap1\n      pop\n      jump\t// out\n        /* \"#utility.yul\":20751:20858   */\n    tag_397:\n        /* \"#utility.yul\":20795:20803   */\n      0x00\n        /* \"#utility.yul\":20845:20850   */\n      dup3\n        /* \"#utility.yul\":20839:20843   */\n      dup3\n        /* \"#utility.yul\":20835:20851   */\n      shl\n        /* \"#utility.yul\":20814:20851   */\n      swap1\n      pop\n        /* \"#utility.yul\":20751:20858   */\n      swap3\n      swap2\n      pop\n      pop\n      jump\t// out\n        /* \"#utility.yul\":20864:21257   */\n    tag_398:\n        /* \"#utility.yul\":20933:20939   */\n      0x00\n        /* \"#utility.yul\":20983:20984   */\n      0x08\n        /* \"#utility.yul\":20971:20981   */\n      dup4\n        /* \"#utility.yul\":20967:20985   */\n      mul\n        /* \"#utility.yul\":21006:21103   */\n      tag_616\n        /* \"#utility.yul\":21036:21102   */\n      0xffffffffffffffffffffffffffffffffffffffffffffffffffffffffffffffff\n        /* \"#utility.yul\":21025:21034   */\n      dup3\n        /* \"#utility.yul\":21006:21103   */\n      tag_397\n      jump\t// in\n    tag_616:\n        /* \"#utility.yul\":21124:21163   */\n      tag_617\n        /* \"#utility.yul\":21154:21162   */\n      dup7\n        /* \"#utility.yul\":21143:21152   */\n      dup4\n        /* \"#utility.yul\":21124:21163   */\n      tag_397\n      jump\t// in\n    tag_617:\n        /* \"#utility.yul\":21112:21163   */\n      swap6\n      pop\n        /* \"#utility.yul\":21196:21200   */\n      dup1\n        /* \"#utility.yul\":21192:21201   */\n      not\n        /* \"#utility.yul\":21185:21190   */\n      dup5\n        /* \"#utility.yul\":21181:21202   */\n      and\n        /* \"#utility.yul\":21172:21202   */\n      swap4\n      pop\n        /* \"#utility.yul\":21245:21249   */\n      dup1\n        /* \"#utility.yul\":21235:21243   */\n      dup7\n        /* \"#utility.yul\":21231:21250   */\n      and\n        /* \"#utility.yul\":21224:21229   */\n      dup5\n        /* \"#utility.yul\":21221:21251   */\n      or\n        /* \"#utility.yul\":21211:21251   */\n      swap3\n      pop\n        /* \"#utility.yul\":20940:21257   */\n      pop\n      pop\n        /* \"#utility.yul\":20864:21257   */\n      swap4\n      swap3\n      pop\n      pop\n      pop\n      jump\t// out\n        /* \"#utility.yul\":21263:21323   */\n    tag_399:\n        /* \"#utility.yul\":21291:21294   */\n      0x00\n        /* \"#utility.yul\":21312:21317   */\n      dup2\n        /* \"#utility.yul\":21305:21317   */\n      swap1\n      pop\n        /* \"#utility.yul\":21263:21323   */\n      swap2\n      swap1\n      pop\n      jump\t// out\n        /* \"#utility.yul\":21329:21471   */\n    tag_400:\n        /* \"#utility.yul\":21379:21388   */\n      0x00\n        /* \"#utility.yul\":21412:21465   */\n      tag_620\n        /* \"#utility.yul\":21430:21464   */\n      tag_621\n        /* \"#utility.yul\":21439:21463   */\n      tag_622\n        /* \"#utility.yul\":21457:21462   */\n      dup5\n        /* \"#utility.yul\":21439:21463   */\n      tag_343\n      jump\t// in\n    tag_622:\n        /* \"#utility.yul\":21430:21464   */\n      tag_399\n      jump\t// in\n    tag_621:\n        /* \"#utility.yul\":21412:21465   */\n      tag_343\n      jump\t// in\n    tag_620:\n        /* \"#utility.yul\":21399:21465   */\n      swap1\n      pop\n        /* \"#utility.yul\":21329:21471   */\n      swap2\n      swap1\n      pop\n      jump\t// out\n        /* \"#utility.yul\":21477:21552   */\n    tag_401:\n        /* \"#utility.yul\":21520:21523   */\n      0x00\n        /* \"#utility.yul\":21541:21546   */\n      dup2\n        /* \"#utility.yul\":21534:21546   */\n      swap1\n      pop\n        /* \"#utility.yul\":21477:21552   */\n      swap2\n      swap1\n      pop\n      jump\t// out\n        /* \"#utility.yul\":21558:21827   */\n    tag_402:\n        /* \"#utility.yul\":21668:21707   */\n      tag_625\n        /* \"#utility.yul\":21699:21706   */\n      dup4\n        /* \"#utility.yul\":21668:21707   */\n      tag_400\n      jump\t// in\n    tag_625:\n        /* \"#utility.yul\":21729:21820   */\n      tag_626\n        /* \"#utility.yul\":21778:21819   */\n      tag_627\n        /* \"#utility.yul\":21802:21818   */\n      dup3\n        /* \"#utility.yul\":21778:21819   */\n      tag_401\n      jump\t// in\n    tag_627:\n        /* \"#utility.yul\":21770:21776   */\n      dup5\n        /* \"#utility.yul\":21763:21767   */\n      dup5\n        /* \"#utility.yul\":21757:21768   */\n      sload\n        /* \"#utility.yul\":21729:21820   */\n      tag_398\n      jump\t// in\n    tag_626:\n        /* \"#utility.yul\":21723:21727   */\n      dup3\n        /* \"#utility.yul\":21716:21821   */\n      sstore\n        /* \"#utility.yul\":21634:21827   */\n      pop\n        /* \"#utility.yul\":21558:21827   */\n      pop\n      pop\n      pop\n      jump\t// out\n        /* \"#utility.yul\":21833:21906   */\n    tag_403:\n        /* \"#utility.yul\":21878:21881   */\n      0x00\n        /* \"#utility.yul\":21899:21900   */\n      0x00\n        /* \"#utility.yul\":21892:21900   */\n      swap1\n      pop\n        /* \"#utility.yul\":21833:21906   */\n      swap1\n      jump\t// out\n        /* \"#utility.yul\":21912:22101   */\n    tag_404:\n        /* \"#utility.yul\":21989:22021   */\n      tag_630\n      tag_403\n      jump\t// in\n    tag_630:\n        /* \"#utility.yul\":22030:22095   */\n      tag_631\n        /* \"#utility.yul\":22088:22094   */\n      dup2\n        /* \"#utility.yul\":22080:22086   */\n      dup5\n        /* \"#utility.yul\":22074:22078   */\n      dup5\n        /* \"#utility.yul\":22030:22095   */\n      tag_402\n      jump\t// in\n    tag_631:\n        /* \"#utility.yul\":21965:22101   */\n      pop\n        /* \"#utility.yul\":21912:22101   */\n      pop\n      pop\n      jump\t// out\n        /* \"#utility.yul\":22107:22293   */\n    tag_405:\n        /* \"#utility.yul\":22167:22287   */\n    tag_633:\n        /* \"#utility.yul\":22184:22187   */\n      dup2\n        /* \"#utility.yul\":22177:22182   */\n      dup2\n        /* \"#utility.yul\":22174:22188   */\n      lt\n        /* \"#utility.yul\":22167:22287   */\n      iszero\n      tag_635\n      jumpi\n        /* \"#utility.yul\":22238:22277   */\n      tag_636\n        /* \"#utility.yul\":22275:22276   */\n      0x00\n        /* \"#utility.yul\":22268:22273   */\n      dup3\n        /* \"#utility.yul\":22238:22277   */\n      tag_404\n      jump\t// in\n    tag_636:\n        /* \"#utility.yul\":22211:22212   */\n      0x01\n        /* \"#utility.yul\":22204:22209   */\n      dup2\n        /* \"#utility.yul\":22200:22213   */\n      add\n        /* \"#utility.yul\":22191:22213   */\n      swap1\n      pop\n        /* \"#utility.yul\":22167:22287   */\n      jump(tag_633)\n    tag_635:\n        /* \"#utility.yul\":22107:22293   */\n      pop\n      pop\n      jump\t// out\n        /* \"#utility.yul\":22299:22842   */\n    tag_406:\n        /* \"#utility.yul\":22400:22402   */\n      0x1f\n        /* \"#utility.yul\":22395:22398   */\n      dup3\n        /* \"#utility.yul\":22392:22403   */\n      gt\n        /* \"#utility.yul\":22389:22835   */\n      iszero\n      tag_638\n      jumpi\n        /* \"#utility.yul\":22434:22472   */\n      tag_639\n        /* \"#utility.yul\":22466:22471   */\n      dup2\n        /* \"#utility.yul\":22434:22472   */\n      tag_395\n      jump\t// in\n    tag_639:\n        /* \"#utility.yul\":22518:22547   */\n      tag_640\n        /* \"#utility.yul\":22536:22546   */\n      dup5\n        /* \"#utility.yul\":22518:22547   */\n      tag_396\n      jump\t// in\n    tag_640:\n        /* \"#utility.yul\":22508:22516   */\n      dup2\n        /* \"#utility.yul\":22504:22548   */\n      add\n        /* \"#utility.yul\":22701:22703   */\n      0x20\n        /* \"#utility.yul\":22689:22699   */\n      dup6\n        /* \"#utility.yul\":22686:22704   */\n      lt\n        /* \"#utility.yul\":22683:22732   */\n      iszero\n      tag_641\n      jumpi\n        /* \"#utility.yul\":22722:22730   */\n      dup2\n        /* \"#utility.yul\":22707:22730   */\n      swap1\n      pop\n        /* \"#utility.yul\":22683:22732   */\n    tag_641:\n        /* \"#utility.yul\":22745:22825   */\n      tag_642\n        /* \"#utility.yul\":22801:22823   */\n      tag_643\n        /* \"#utility.yul\":22819:22822   */\n      dup6\n        /* \"#utility.yul\":22801:22823   */\n      tag_396\n      jump\t// in\n    tag_643:\n        /* \"#utility.yul\":22791:22799   */\n      dup4\n        /* \"#utility.yul\":22787:22824   */\n      add\n        /* \"#utility.yul\":22774:22785   */\n      dup3\n        /* \"#utility.yul\":22745:22825   */\n      tag_405\n      jump\t// in\n    tag_642:\n        /* \"#utility.yul\":22404:22835   */\n      pop\n      pop\n        /* \"#utility.yul\":22389:22835   */\n    tag_638:\n        /* \"#utility.yul\":22299:22842   */\n      pop\n      pop\n      pop\n      jump\t// out\n        /* \"#utility.yul\":22848:22965   */\n    tag_407:\n        /* \"#utility.yul\":22902:22910   */\n      0x00\n        /* \"#utility.yul\":22952:22957   */\n      dup3\n        /* \"#utility.yul\":22946:22950   */\n      dup3\n        /* \"#utility.yul\":22942:22958   */\n      shr\n        /* \"#utility.yul\":22921:22958   */\n      swap1\n      pop\n        /* \"#utility.yul\":22848:22965   */\n      swap3\n      swap2\n      pop\n      pop\n      jump\t// out\n        /* \"#utility.yul\":22971:23140   */\n    tag_408:\n        /* \"#utility.yul\":23015:23021   */\n      0x00\n        /* \"#utility.yul\":23048:23099   */\n      tag_646\n        /* \"#utility.yul\":23096:23097   */\n      0x00\n        /* \"#utility.yul\":23092:23098   */\n      not\n        /* \"#utility.yul\":23084:23089   */\n      dup5\n        /* \"#utility.yul\":23081:23082   */\n      0x08\n        /* \"#utility.yul\":23077:23090   */\n      mul\n        /* \"#utility.yul\":23048:23099   */\n      tag_407\n      jump\t// in\n    tag_646:\n        /* \"#utility.yul\":23044:23100   */\n      not\n        /* \"#utility.yul\":23129:23133   */\n      dup1\n        /* \"#utility.yul\":23123:23127   */\n      dup4\n        /* \"#utility.yul\":23119:23134   */\n      and\n        /* \"#utility.yul\":23109:23134   */\n      swap2\n      pop\n        /* \"#utility.yul\":23022:23140   */\n      pop\n        /* \"#utility.yul\":22971:23140   */\n      swap3\n      swap2\n      pop\n      pop\n      jump\t// out\n        /* \"#utility.yul\":23145:23440   */\n    tag_409:\n        /* \"#utility.yul\":23221:23225   */\n      0x00\n        /* \"#utility.yul\":23367:23396   */\n      tag_648\n        /* \"#utility.yul\":23392:23395   */\n      dup4\n        /* \"#utility.yul\":23386:23390   */\n      dup4\n        /* \"#utility.yul\":23367:23396   */\n      tag_408\n      jump\t// in\n    tag_648:\n        /* \"#utility.yul\":23359:23396   */\n      swap2\n      pop\n        /* \"#utility.yul\":23429:23432   */\n      dup3\n        /* \"#utility.yul\":23426:23427   */\n      0x02\n        /* \"#utility.yul\":23422:23433   */\n      mul\n        /* \"#utility.yul\":23416:23420   */\n      dup3\n        /* \"#utility.yul\":23413:23434   */\n      or\n        /* \"#utility.yul\":23405:23434   */\n      swap1\n      pop\n        /* \"#utility.yul\":23145:23440   */\n      swap3\n      swap2\n      pop\n      pop\n      jump\t// out\n        /* \"#utility.yul\":23445:24840   */\n    tag_167:\n        /* \"#utility.yul\":23562:23599   */\n      tag_650\n        /* \"#utility.yul\":23595:23598   */\n      dup3\n        /* \"#utility.yul\":23562:23599   */\n      tag_377\n      jump\t// in\n    tag_650:\n        /* \"#utility.yul\":23664:23682   */\n      0xffffffffffffffff\n        /* \"#utility.yul\":23656:23662   */\n      dup2\n        /* \"#utility.yul\":23653:23683   */\n      gt\n        /* \"#utility.yul\":23650:23706   */\n      iszero\n      tag_651\n      jumpi\n        /* \"#utility.yul\":23686:23704   */\n      tag_652\n      tag_236\n      jump\t// in\n    tag_652:\n        /* \"#utility.yul\":23650:23706   */\n    tag_651:\n        /* \"#utility.yul\":23730:23768   */\n      tag_653\n        /* \"#utility.yul\":23762:23766   */\n      dup3\n        /* \"#utility.yul\":23756:23767   */\n      sload\n        /* \"#utility.yul\":23730:23768   */\n      tag_294\n      jump\t// in\n    tag_653:\n        /* \"#utility.yul\":23815:23882   */\n      tag_654\n        /* \"#utility.yul\":23875:23881   */\n      dup3\n        /* \"#utility.yul\":23867:23873   */\n      dup3\n        /* \"#utility.yul\":23861:23865   */\n      dup6\n        /* \"#utility.yul\":23815:23882   */\n      tag_406\n      jump\t// in\n    tag_654:\n        /* \"#utility.yul\":23909:23910   */\n      0x00\n        /* \"#utility.yul\":23933:23937   */\n      0x20\n        /* \"#utility.yul\":23920:23937   */\n      swap1\n      pop\n        /* \"#utility.yul\":23965:23967   */\n      0x1f\n        /* \"#utility.yul\":23957:23963   */\n      dup4\n        /* \"#utility.yul\":23954:23968   */\n      gt\n        /* \"#utility.yul\":23982:23983   */\n      0x01\n        /* \"#utility.yul\":23977:24595   */\n      dup2\n      eq\n      tag_656\n      jumpi\n        /* \"#utility.yul\":24639:24640   */\n      0x00\n        /* \"#utility.yul\":24656:24662   */\n      dup5\n        /* \"#utility.yul\":24653:24730   */\n      iszero\n      tag_657\n      jumpi\n        /* \"#utility.yul\":24705:24714   */\n      dup3\n        /* \"#utility.yul\":24700:24703   */\n      dup8\n        /* \"#utility.yul\":24696:24715   */\n      add\n        /* \"#utility.yul\":24690:24716   */\n      mload\n        /* \"#utility.yul\":24681:24716   */\n      swap1\n      pop\n        /* \"#utility.yul\":24653:24730   */\n    tag_657:\n        /* \"#utility.yul\":24756:24823   */\n      tag_658\n        /* \"#utility.yul\":24816:24822   */\n      dup6\n        /* \"#utility.yul\":24809:24814   */\n      dup3\n        /* \"#utility.yul\":24756:24823   */\n      tag_409\n      jump\t// in\n    tag_658:\n        /* \"#utility.yul\":24750:24754   */\n      dup7\n        /* \"#utility.yul\":24743:24824   */\n      sstore\n        /* \"#utility.yul\":24612:24834   */\n      pop\n        /* \"#utility.yul\":23947:24834   */\n      jump(tag_655)\n        /* \"#utility.yul\":23977:24595   */\n    tag_656:\n        /* \"#utility.yul\":24029:24033   */\n      0x1f\n        /* \"#utility.yul\":24025:24034   */\n      not\n        /* \"#utility.yul\":24017:24023   */\n      dup5\n        /* \"#utility.yul\":24013:24035   */\n      and\n        /* \"#utility.yul\":24063:24100   */\n      tag_659\n        /* \"#utility.yul\":24095:24099   */\n      dup7\n        /* \"#utility.yul\":24063:24100   */\n      tag_395\n      jump\t// in\n    tag_659:\n        /* \"#utility.yul\":24122:24123   */\n      0x00\n        /* \"#utility.yul\":24136:24344   */\n    tag_660:\n        /* \"#utility.yul\":24150:24157   */\n      dup3\n        /* \"#utility.yul\":24147:24148   */\n      dup2\n        /* \"#utility.yul\":24144:24158   */\n      lt\n        /* \"#utility.yul\":24136:24344   */\n      iszero\n      tag_662\n      jumpi\n        /* \"#utility.yul\":24229:24238   */\n      dup5\n        /* \"#utility.yul\":24224:24227   */\n      dup10\n        /* \"#utility.yul\":24220:24239   */\n      add\n        /* \"#utility.yul\":24214:24240   */\n      mload\n        /* \"#utility.yul\":24206:24212   */\n      dup3\n        /* \"#utility.yul\":24199:24241   */\n      sstore\n        /* \"#utility.yul\":24280:24281   */\n      0x01\n        /* \"#utility.yul\":24272:24278   */\n      dup3\n        /* \"#utility.yul\":24268:24282   */\n      add\n        /* \"#utility.yul\":24258:24282   */\n      swap2\n      pop\n        /* \"#utility.yul\":24327:24329   */\n      0x20\n        /* \"#utility.yul\":24316:24325   */\n      dup6\n        /* \"#utility.yul\":24312:24330   */\n      add\n        /* \"#utility.yul\":24299:24330   */\n      swap5\n      pop\n        /* \"#utility.yul\":24173:24177   */\n      0x20\n        /* \"#utility.yul\":24170:24171   */\n      dup2\n        /* \"#utility.yul\":24166:24178   */\n      add\n        /* \"#utility.yul\":24161:24178   */\n      swap1\n      pop\n        /* \"#utility.yul\":24136:24344   */\n      jump(tag_660)\n    tag_662:\n        /* \"#utility.yul\":24372:24378   */\n      dup7\n        /* \"#utility.yul\":24363:24370   */\n      dup4\n        /* \"#utility.yul\":24360:24379   */\n      lt\n        /* \"#utility.yul\":24357:24536   */\n      iszero\n      tag_663\n      jumpi\n        /* \"#utility.yul\":24430:24439   */\n      dup5\n        /* \"#utility.yul\":24425:24428   */\n      dup10\n        /* \"#utility.yul\":24421:24440   */\n      add\n        /* \"#utility.yul\":24415:24441   */\n      mload\n        /* \"#utility.yul\":24473:24521   */\n      tag_664\n        /* \"#utility.yul\":24515:24519   */\n      0x1f\n        /* \"#utility.yul\":24507:24513   */\n      dup10\n        /* \"#utility.yul\":24503:24520   */\n      and\n        /* \"#utility.yul\":24492:24501   */\n      dup3\n        /* \"#utility.yul\":24473:24521   */\n      tag_408\n      jump\t// in\n    tag_664:\n        /* \"#utility.yul\":24465:24471   */\n      dup4\n        /* \"#utility.yul\":24458:24522   */\n      sstore\n        /* \"#utility.yul\":24380:24536   */\n      pop\n        /* \"#utility.yul\":24357:24536   */\n    tag_663:\n        /* \"#utility.yul\":24582:24583   */\n      0x01\n        /* \"#utility.yul\":24578:24579   */\n      0x02\n        /* \"#utility.yul\":24570:24576   */\n      dup9\n        /* \"#utility.yul\":24566:24580   */\n      mul\n        /* \"#utility.yul\":24562:24584   */\n      add\n        /* \"#utility.yul\":24556:24560   */\n      dup9\n        /* \"#utility.yul\":24549:24585   */\n      sstore\n        /* \"#utility.yul\":23984:24595   */\n      pop\n      pop\n      pop\n        /* \"#utility.yul\":23947:24834   */\n    tag_655:\n      pop\n        /* \"#utility.yul\":23537:24840   */\n      pop\n      pop\n      pop\n        /* \"#utility.yul\":23445:24840   */\n      pop\n      pop\n      jump\t// out\n        /* \"#utility.yul\":24846:25026   */\n    tag_410:\n        /* \"#utility.yul\":24894:24971   */\n      0x4e487b7100000000000000000000000000000000000000000000000000000000\n        /* \"#utility.yul\":24891:24892   */\n      0x00\n        /* \"#utility.yul\":24884:24972   */\n      mstore\n        /* \"#utility.yul\":24991:24995   */\n      0x11\n        /* \"#utility.yul\":24988:24989   */\n      0x04\n        /* \"#utility.yul\":24981:24996   */\n      mstore\n        /* \"#utility.yul\":25015:25019   */\n      0x24\n        /* \"#utility.yul\":25012:25013   */\n      0x00\n        /* \"#utility.yul\":25005:25020   */\n      revert\n        /* \"#utility.yul\":25032:25223   */\n    tag_170:\n        /* \"#utility.yul\":25072:25075   */\n      0x00\n        /* \"#utility.yul\":25091:25111   */\n      tag_667\n        /* \"#utility.yul\":25109:25110   */\n      dup3\n        /* \"#utility.yul\":25091:25111   */\n      tag_343\n      jump\t// in\n    tag_667:\n        /* \"#utility.yul\":25086:25111   */\n      swap2\n      pop\n        /* \"#utility.yul\":25125:25145   */\n      tag_668\n        /* \"#utility.yul\":25143:25144   */\n      dup4\n        /* \"#utility.yul\":25125:25145   */\n      tag_343\n      jump\t// in\n    tag_668:\n        /* \"#utility.yul\":25120:25145   */\n      swap3\n      pop\n        /* \"#utility.yul\":25168:25169   */\n      dup3\n        /* \"#utility.yul\":25165:25166   */\n      dup3\n        /* \"#utility.yul\":25161:25170   */\n      add\n        /* \"#utility.yul\":25154:25170   */\n      swap1\n      pop\n        /* \"#utility.yul\":25189:25192   */\n      dup1\n        /* \"#utility.yul\":25186:25187   */\n      dup3\n        /* \"#utility.yul\":25183:25193   */\n      gt\n        /* \"#utility.yul\":25180:25216   */\n      iszero\n      tag_669\n      jumpi\n        /* \"#utility.yul\":25196:25214   */\n      tag_670\n      tag_410\n      jump\t// in\n    tag_670:\n        /* \"#utility.yul\":25180:25216   */\n    tag_669:\n        /* \"#utility.yul\":25032:25223   */\n      swap3\n      swap2\n      pop\n      pop\n      jump\t// out\n        /* \"#utility.yul\":25229:25462   */\n    tag_173:\n        /* \"#utility.yul\":25268:25271   */\n      0x00\n        /* \"#utility.yul\":25291:25315   */\n      tag_672\n        /* \"#utility.yul\":25309:25314   */\n      dup3\n        /* \"#utility.yul\":25291:25315   */\n      tag_343\n      jump\t// in\n    tag_672:\n        /* \"#utility.yul\":25282:25315   */\n      swap2\n      pop\n        /* \"#utility.yul\":25337:25403   */\n      0xffffffffffffffffffffffffffffffffffffffffffffffffffffffffffffffff\n        /* \"#utility.yul\":25330:25335   */\n      dup3\n        /* \"#utility.yul\":25327:25404   */\n      sub\n        /* \"#utility.yul\":25324:25427   */\n      tag_673\n      jumpi\n        /* \"#utility.yul\":25407:25425   */\n      tag_674\n      tag_410\n      jump\t// in\n    tag_674:\n        /* \"#utility.yul\":25324:25427   */\n    tag_673:\n        /* \"#utility.yul\":25454:25455   */\n      0x01\n        /* \"#utility.yul\":25447:25452   */\n      dup3\n        /* \"#utility.yul\":25443:25456   */\n      add\n        /* \"#utility.yul\":25436:25456   */\n      swap1\n      pop\n        /* \"#utility.yul\":25229:25462   */\n      swap2\n      swap1\n      pop\n      jump\t// out\n        /* \"#utility.yul\":25468:25638   */\n    tag_411:\n        /* \"#utility.yul\":25608:25630   */\n      0x496e73756666696369656e742062616c616e6365000000000000000000000000\n        /* \"#utility.yul\":25604:25605   */\n      0x00\n        /* \"#utility.yul\":25596:25602   */\n      dup3\n        /* \"#utility.yul\":25592:25606   */\n      add\n        /* \"#utility.yul\":25585:25631   */\n      mstore\n        /* \"#utility.yul\":25468:25638   */\n      pop\n      jump\t// out\n        /* \"#utility.yul\":25644:26010   */\n    tag_412:\n        /* \"#utility.yul\":25786:25789   */\n      0x00\n        /* \"#utility.yul\":25807:25874   */\n      tag_677\n        /* \"#utility.yul\":25871:25873   */\n      0x14\n        /* \"#utility.yul\":25866:25869   */\n      dup4\n        /* \"#utility.yul\":25807:25874   */\n      tag_345\n      jump\t// in\n    tag_677:\n        /* \"#utility.yul\":25800:25874   */\n      swap2\n      pop\n        /* \"#utility.yul\":25883:25976   */\n      tag_678\n        /* \"#utility.yul\":25972:25975   */\n      dup3\n        /* \"#utility.yul\":25883:25976   */\n      tag_411\n      jump\t// in\n    tag_678:\n        /* \"#utility.yul\":26001:26003   */\n      0x20\n        /* \"#utility.yul\":25996:25999   */\n      dup3\n        /* \"#utility.yul\":25992:26004   */\n      add\n        /* \"#utility.yul\":25985:26004   */\n      swap1\n      pop\n        /* \"#utility.yul\":25644:26010   */\n      swap2\n      swap1\n      pop\n      jump\t// out\n        /* \"#utility.yul\":26016:26435   */\n    tag_182:\n        /* \"#utility.yul\":26182:26186   */\n      0x00\n        /* \"#utility.yul\":26220:26222   */\n      0x20\n        /* \"#utility.yul\":26209:26218   */\n      dup3\n        /* \"#utility.yul\":26205:26223   */\n      add\n        /* \"#utility.yul\":26197:26223   */\n      swap1\n      pop\n        /* \"#utility.yul\":26269:26278   */\n      dup2\n        /* \"#utility.yul\":26263:26267   */\n      dup2\n        /* \"#utility.yul\":26259:26279   */\n      sub\n        /* \"#utility.yul\":26255:26256   */\n      0x00\n        /* \"#utility.yul\":26244:26253   */\n      dup4\n        /* \"#utility.yul\":26240:26257   */\n      add\n        /* \"#utility.yul\":26233:26280   */\n      mstore\n        /* \"#utility.yul\":26297:26428   */\n      tag_680\n        /* \"#utility.yul\":26423:26427   */\n      dup2\n        /* \"#utility.yul\":26297:26428   */\n      tag_412\n      jump\t// in\n    tag_680:\n        /* \"#utility.yul\":26289:26428   */\n      swap1\n      pop\n        /* \"#utility.yul\":26016:26435   */\n      swap2\n      swap1\n      pop\n      jump\t// out\n        /* \"#utility.yul\":26441:26588   */\n    tag_413:\n        /* \"#utility.yul\":26542:26553   */\n      0x00\n        /* \"#utility.yul\":26579:26582   */\n      dup2\n        /* \"#utility.yul\":26564:26582   */\n      swap1\n      pop\n        /* \"#utility.yul\":26441:26588   */\n      swap3\n      swap2\n      pop\n      pop\n      jump\t// out\n        /* \"#utility.yul\":26594:26708   */\n    tag_414:\n      pop\n      jump\t// out\n        /* \"#utility.yul\":26714:27112   */\n    tag_415:\n        /* \"#utility.yul\":26873:26876   */\n      0x00\n        /* \"#utility.yul\":26894:26977   */\n      tag_684\n        /* \"#utility.yul\":26975:26976   */\n      0x00\n        /* \"#utility.yul\":26970:26973   */\n      dup4\n        /* \"#utility.yul\":26894:26977   */\n      tag_413\n      jump\t// in\n    tag_684:\n        /* \"#utility.yul\":26887:26977   */\n      swap2\n      pop\n        /* \"#utility.yul\":26986:27079   */\n      tag_685\n        /* \"#utility.yul\":27075:27078   */\n      dup3\n        /* \"#utility.yul\":26986:27079   */\n      tag_414\n      jump\t// in\n    tag_685:\n        /* \"#utility.yul\":27104:27105   */\n      0x00\n        /* \"#utility.yul\":27099:27102   */\n      dup3\n        /* \"#utility.yul\":27095:27106   */\n      add\n        /* \"#utility.yul\":27088:27106   */\n      swap1\n      pop\n        /* \"#utility.yul\":26714:27112   */\n      swap2\n      swap1\n      pop\n      jump\t// out\n        /* \"#utility.yul\":27118:27497   */\n    tag_184:\n        /* \"#utility.yul\":27302:27305   */\n      0x00\n        /* \"#utility.yul\":27324:27471   */\n      tag_687\n        /* \"#utility.yul\":27467:27470   */\n      dup3\n        /* \"#utility.yul\":27324:27471   */\n      tag_415\n      jump\t// in\n    tag_687:\n        /* \"#utility.yul\":27317:27471   */\n      swap2\n      pop\n        /* \"#utility.yul\":27488:27491   */\n      dup2\n        /* \"#utility.yul\":27481:27491   */\n      swap1\n      pop\n        /* \"#utility.yul\":27118:27497   */\n      swap2\n      swap1\n      pop\n      jump\t// out\n        /* \"#utility.yul\":27503:27683   */\n    tag_198:\n        /* \"#utility.yul\":27551:27628   */\n      0x4e487b7100000000000000000000000000000000000000000000000000000000\n        /* \"#utility.yul\":27548:27549   */\n      0x00\n        /* \"#utility.yul\":27541:27629   */\n      mstore\n        /* \"#utility.yul\":27648:27652   */\n      0x32\n        /* \"#utility.yul\":27645:27646   */\n      0x04\n        /* \"#utility.yul\":27638:27653   */\n      mstore\n        /* \"#utility.yul\":27672:27676   */\n      0x24\n        /* \"#utility.yul\":27669:27670   */\n      0x00\n        /* \"#utility.yul\":27662:27677   */\n      revert\n        /* \"#utility.yul\":27689:27806   */\n    tag_416:\n        /* \"#utility.yul\":27798:27799   */\n      0x00\n        /* \"#utility.yul\":27795:27796   */\n      0x00\n        /* \"#utility.yul\":27788:27800   */\n      revert\n        /* \"#utility.yul\":27812:27929   */\n    tag_417:\n        /* \"#utility.yul\":27921:27922   */\n      0x00\n        /* \"#utility.yul\":27918:27919   */\n      0x00\n        /* \"#utility.yul\":27911:27923   */\n      revert\n        /* \"#utility.yul\":27935:28052   */\n    tag_418:\n        /* \"#utility.yul\":28044:28045   */\n      0x00\n        /* \"#utility.yul\":28041:28042   */\n      0x00\n        /* \"#utility.yul\":28034:28046   */\n      revert\n        /* \"#utility.yul\":28058:28783   */\n    tag_200:\n        /* \"#utility.yul\":28136:28140   */\n      0x00\n        /* \"#utility.yul\":28142:28148   */\n      0x00\n        /* \"#utility.yul\":28198:28209   */\n      dup4\n        /* \"#utility.yul\":28185:28210   */\n      calldataload\n        /* \"#utility.yul\":28298:28299   */\n      0x01\n        /* \"#utility.yul\":28292:28296   */\n      0x20\n        /* \"#utility.yul\":28288:28300   */\n      sub\n        /* \"#utility.yul\":28277:28285   */\n      dup5\n        /* \"#utility.yul\":28261:28275   */\n      calldatasize\n        /* \"#utility.yul\":28257:28286   */\n      sub\n        /* \"#utility.yul\":28253:28301   */\n      sub\n        /* \"#utility.yul\":28233:28251   */\n      dup2\n        /* \"#utility.yul\":28229:28302   */\n      slt\n        /* \"#utility.yul\":28219:28387   */\n      tag_693\n      jumpi\n        /* \"#utility.yul\":28306:28385   */\n      tag_694\n      tag_416\n      jump\t// in\n    tag_694:\n        /* \"#utility.yul\":28219:28387   */\n    tag_693:\n        /* \"#utility.yul\":28418:28436   */\n      dup1\n        /* \"#utility.yul\":28408:28416   */\n      dup5\n        /* \"#utility.yul\":28404:28437   */\n      add\n        /* \"#utility.yul\":28396:28437   */\n      swap3\n      pop\n        /* \"#utility.yul\":28470:28474   */\n      dup3\n        /* \"#utility.yul\":28457:28475   */\n      calldataload\n        /* \"#utility.yul\":28447:28475   */\n      swap2\n      pop\n        /* \"#utility.yul\":28498:28516   */\n      0xffffffffffffffff\n        /* \"#utility.yul\":28490:28496   */\n      dup3\n        /* \"#utility.yul\":28487:28517   */\n      gt\n        /* \"#utility.yul\":28484:28601   */\n      iszero\n      tag_695\n      jumpi\n        /* \"#utility.yul\":28520:28599   */\n      tag_696\n      tag_417\n      jump\t// in\n    tag_696:\n        /* \"#utility.yul\":28484:28601   */\n    tag_695:\n        /* \"#utility.yul\":28628:28630   */\n      0x20\n        /* \"#utility.yul\":28622:28626   */\n      dup4\n        /* \"#utility.yul\":28618:28631   */\n      add\n        /* \"#utility.yul\":28610:28631   */\n      swap3\n      pop\n        /* \"#utility.yul\":28685:28689   */\n      0x01\n        /* \"#utility.yul\":28677:28683   */\n      dup3\n        /* \"#utility.yul\":28673:28690   */\n      mul\n        /* \"#utility.yul\":28657:28671   */\n      calldatasize\n        /* \"#utility.yul\":28653:28691   */\n      sub\n        /* \"#utility.yul\":28647:28651   */\n      dup4\n        /* \"#utility.yul\":28643:28692   */\n      sgt\n        /* \"#utility.yul\":28640:28776   */\n      iszero\n      tag_697\n      jumpi\n        /* \"#utility.yul\":28695:28774   */\n      tag_698\n      tag_418\n      jump\t// in\n    tag_698:\n        /* \"#utility.yul\":28640:28776   */\n    tag_697:\n        /* \"#utility.yul\":28149:28783   */\n      pop\n        /* \"#utility.yul\":28058:28783   */\n      swap3\n      pop\n      swap3\n      swap1\n      pop\n      jump\t// out\n        /* \"#utility.yul\":28789:28957   */\n    tag_419:\n        /* \"#utility.yul\":28929:28949   */\n      0x426174636820636f6e747269627574696f6e0000000000000000000000000000\n        /* \"#utility.yul\":28925:28926   */\n      0x00\n        /* \"#utility.yul\":28917:28923   */\n      dup3\n        /* \"#utility.yul\":28913:28927   */\n      add\n        /* \"#utility.yul\":28906:28950   */\n      mstore\n        /* \"#utility.yul\":28789:28957   */\n      pop\n      jump\t// out\n        /* \"#utility.yul\":28963:29329   */\n    tag_420:\n        /* \"#utility.yul\":29105:29108   */\n      0x00\n        /* \"#utility.yul\":29126:29193   */\n      tag_701\n        /* \"#utility.yul\":29190:29192   */\n      0x12\n        /* \"#utility.yul\":29185:29188   */\n      dup4\n        /* \"#utility.yul\":29126:29193   */\n      tag_345\n      jump\t// in\n    tag_701:\n        /* \"#utility.yul\":29119:29193   */\n      swap2\n      pop\n        /* \"#utility.yul\":29202:29295   */\n      tag_702\n        /* \"#utility.yul\":29291:29294   */\n      dup3\n        /* \"#utility.yul\":29202:29295   */\n      tag_419\n      jump\t// in\n    tag_702:\n        /* \"#utility.yul\":29320:29322   */\n      0x20\n        /* \"#utility.yul\":29315:29318   */\n      dup3\n        /* \"#utility.yul\":29311:29323   */\n      add\n        /* \"#utility.yul\":29304:29323   */\n      swap1\n      pop\n        /* \"#utility.yul\":28963:29329   */\n      swap2\n      swap1\n      pop\n      jump\t// out\n        /* \"#utility.yul\":29335:29864   */\n    tag_204:\n        /* \"#utility.yul\":29529:29533   */\n      0x00\n        /* \"#utility.yul\":29567:29569   */\n      0x40\n        /* \"#utility.yul\":29556:29565   */\n      dup3\n        /* \"#utility.yul\":29552:29570   */\n      add\n        /* \"#utility.yul\":29544:29570   */\n      swap1\n      pop\n        /* \"#utility.yul\":29580:29651   */\n      tag_704\n        /* \"#utility.yul\":29648:29649   */\n      0x00\n        /* \"#utility.yul\":29637:29646   */\n      dup4\n        /* \"#utility.yul\":29633:29650   */\n      add\n        /* \"#utility.yul\":29624:29630   */\n      dup5\n        /* \"#utility.yul\":29580:29651   */\n      tag_344\n      jump\t// in\n    tag_704:\n        /* \"#utility.yul\":29698:29707   */\n      dup2\n        /* \"#utility.yul\":29692:29696   */\n      dup2\n        /* \"#utility.yul\":29688:29708   */\n      sub\n        /* \"#utility.yul\":29683:29685   */\n      0x20\n        /* \"#utility.yul\":29672:29681   */\n      dup4\n        /* \"#utility.yul\":29668:29686   */\n      add\n        /* \"#utility.yul\":29661:29709   */\n      mstore\n        /* \"#utility.yul\":29726:29857   */\n      tag_705\n        /* \"#utility.yul\":29852:29856   */\n      dup2\n        /* \"#utility.yul\":29726:29857   */\n      tag_420\n      jump\t// in\n    tag_705:\n        /* \"#utility.yul\":29718:29857   */\n      swap1\n      pop\n        /* \"#utility.yul\":29335:29864   */\n      swap3\n      swap2\n      pop\n      pop\n      jump\t// out\n        /* \"#utility.yul\":29870:30018   */\n    tag_421:\n        /* \"#utility.yul\":29968:29974   */\n      dup3\n        /* \"#utility.yul\":29963:29966   */\n      dup2\n        /* \"#utility.yul\":29958:29961   */\n      dup4\n        /* \"#utility.yul\":29945:29975   */\n      calldatacopy\n        /* \"#utility.yul\":30009:30010   */\n      0x00\n        /* \"#utility.yul\":30000:30006   */\n      dup4\n        /* \"#utility.yul\":29995:29998   */\n      dup4\n        /* \"#utility.yul\":29991:30007   */\n      add\n        /* \"#utility.yul\":29984:30011   */\n      mstore\n        /* \"#utility.yul\":29870:30018   */\n      pop\n      pop\n      pop\n      jump\t// out\n        /* \"#utility.yul\":30048:30365   */\n    tag_422:\n        /* \"#utility.yul\":30146:30149   */\n      0x00\n        /* \"#utility.yul\":30167:30238   */\n      tag_708\n        /* \"#utility.yul\":30231:30237   */\n      dup4\n        /* \"#utility.yul\":30226:30229   */\n      dup6\n        /* \"#utility.yul\":30167:30238   */\n      tag_345\n      jump\t// in\n    tag_708:\n        /* \"#utility.yul\":30160:30238   */\n      swap4\n      pop\n        /* \"#utility.yul\":30248:30304   */\n      tag_709\n        /* \"#utility.yul\":30297:30303   */\n      dup4\n        /* \"#utility.yul\":30292:30295   */\n      dup6\n        /* \"#utility.yul\":30285:30290   */\n      dup5\n        /* \"#utility.yul\":30248:30304   */\n      tag_421\n      jump\t// in\n    tag_709:\n        /* \"#utility.yul\":30329:30358   */\n      tag_710\n        /* \"#utility.yul\":30351:30357   */\n      dup4\n        /* \"#utility.yul\":30329:30358   */\n      tag_380\n      jump\t// in\n    tag_710:\n        /* \"#utility.yul\":30324:30327   */\n      dup5\n        /* \"#utility.yul\":30320:30359   */\n      add\n        /* \"#utility.yul\":30313:30359   */\n      swap1\n      pop\n        /* \"#utility.yul\":30048:30365   */\n      swap4\n      swap3\n      pop\n      pop\n      pop\n      jump\t// out\n        /* \"#utility.yul\":30371:30814   */\n    tag_211:\n        /* \"#utility.yul\":30522:30526   */\n      0x00\n        /* \"#utility.yul\":30560:30562   */\n      0x40\n        /* \"#utility.yul\":30549:30558   */\n      dup3\n        /* \"#utility.yul\":30545:30563   */\n      add\n        /* \"#utility.yul\":30537:30563   */\n      swap1\n      pop\n        /* \"#utility.yul\":30573:30644   */\n      tag_712\n        /* \"#utility.yul\":30641:30642   */\n      0x00\n        /* \"#utility.yul\":30630:30639   */\n      dup4\n        /* \"#utility.yul\":30626:30643   */\n      add\n        /* \"#utility.yul\":30617:30623   */\n      dup7\n        /* \"#utility.yul\":30573:30644   */\n      tag_344\n      jump\t// in\n    tag_712:\n        /* \"#utility.yul\":30691:30700   */\n      dup2\n        /* \"#utility.yul\":30685:30689   */\n      dup2\n        /* \"#utility.yul\":30681:30701   */\n      sub\n        /* \"#utility.yul\":30676:30678   */\n      0x20\n        /* \"#utility.yul\":30665:30674   */\n      dup4\n        /* \"#utility.yul\":30661:30679   */\n      add\n        /* \"#utility.yul\":30654:30702   */\n      mstore\n        /* \"#utility.yul\":30719:30807   */\n      tag_713\n        /* \"#utility.yul\":30802:30806   */\n      dup2\n        /* \"#utility.yul\":30793:30799   */\n      dup5\n        /* \"#utility.yul\":30785:30791   */\n      dup7\n        /* \"#utility.yul\":30719:30807   */\n      tag_422\n      jump\t// in\n    tag_713:\n        /* \"#utility.yul\":30711:30807   */\n      swap1\n      pop\n        /* \"#utility.yul\":30371:30814   */\n      swap5\n      swap4\n      pop\n      pop\n      pop\n      pop\n      jump\t// out\n        /* \"#utility.yul\":30820:31184   */\n    tag_423:\n        /* \"#utility.yul\":30962:30965   */\n      0x00\n        /* \"#utility.yul\":30983:31049   */\n      tag_715\n        /* \"#utility.yul\":31047:31048   */\n      0x00\n        /* \"#utility.yul\":31042:31045   */\n      dup4\n        /* \"#utility.yul\":30983:31049   */\n      tag_345\n      jump\t// in\n    tag_715:\n        /* \"#utility.yul\":30976:31049   */\n      swap2\n      pop\n        /* \"#utility.yul\":31058:31151   */\n      tag_716\n        /* \"#utility.yul\":31147:31150   */\n      dup3\n        /* \"#utility.yul\":31058:31151   */\n      tag_414\n      jump\t// in\n    tag_716:\n        /* \"#utility.yul\":31176:31177   */\n      0x00\n        /* \"#utility.yul\":31171:31174   */\n      dup3\n        /* \"#utility.yul\":31167:31178   */\n      add\n        /* \"#utility.yul\":31160:31178   */\n      swap1\n      pop\n        /* \"#utility.yul\":30820:31184   */\n      swap2\n      swap1\n      pop\n      jump\t// out\n        /* \"#utility.yul\":31190:31829   */\n    tag_254:\n        /* \"#utility.yul\":31412:31416   */\n      0x00\n        /* \"#utility.yul\":31450:31452   */\n      0x60\n        /* \"#utility.yul\":31439:31448   */\n      dup3\n        /* \"#utility.yul\":31435:31453   */\n      add\n        /* \"#utility.yul\":31427:31453   */\n      swap1\n      pop\n        /* \"#utility.yul\":31463:31534   */\n      tag_718\n        /* \"#utility.yul\":31531:31532   */\n      0x00\n        /* \"#utility.yul\":31520:31529   */\n      dup4\n        /* \"#utility.yul\":31516:31533   */\n      add\n        /* \"#utility.yul\":31507:31513   */\n      dup6\n        /* \"#utility.yul\":31463:31534   */\n      tag_344\n      jump\t// in\n    tag_718:\n        /* \"#utility.yul\":31544:31616   */\n      tag_719\n        /* \"#utility.yul\":31612:31614   */\n      0x20\n        /* \"#utility.yul\":31601:31610   */\n      dup4\n        /* \"#utility.yul\":31597:31615   */\n      add\n        /* \"#utility.yul\":31588:31594   */\n      dup5\n        /* \"#utility.yul\":31544:31616   */\n      tag_344\n      jump\t// in\n    tag_719:\n        /* \"#utility.yul\":31663:31672   */\n      dup2\n        /* \"#utility.yul\":31657:31661   */\n      dup2\n        /* \"#utility.yul\":31653:31673   */\n      sub\n        /* \"#utility.yul\":31648:31650   */\n      0x40\n        /* \"#utility.yul\":31637:31646   */\n      dup4\n        /* \"#utility.yul\":31633:31651   */\n      add\n        /* \"#utility.yul\":31626:31674   */\n      mstore\n        /* \"#utility.yul\":31691:31822   */\n      tag_720\n        /* \"#utility.yul\":31817:31821   */\n      dup2\n        /* \"#utility.yul\":31691:31822   */\n      tag_423\n      jump\t// in\n    tag_720:\n        /* \"#utility.yul\":31683:31822   */\n      swap1\n      pop\n        /* \"#utility.yul\":31190:31829   */\n      swap4\n      swap3\n      pop\n      pop\n      pop\n      jump\t// out\n        /* \"#utility.yul\":31835:32388   */\n    tag_263:\n        /* \"#utility.yul\":32014:32018   */\n      0x00\n        /* \"#utility.yul\":32052:32054   */\n      0x60\n        /* \"#utility.yul\":32041:32050   */\n      dup3\n        /* \"#utility.yul\":32037:32055   */\n      add\n        /* \"#utility.yul\":32029:32055   */\n      swap1\n      pop\n        /* \"#utility.yul\":32065:32136   */\n      tag_722\n        /* \"#utility.yul\":32133:32134   */\n      0x00\n        /* \"#utility.yul\":32122:32131   */\n      dup4\n        /* \"#utility.yul\":32118:32135   */\n      add\n        /* \"#utility.yul\":32109:32115   */\n      dup8\n        /* \"#utility.yul\":32065:32136   */\n      tag_344\n      jump\t// in\n    tag_722:\n        /* \"#utility.yul\":32146:32218   */\n      tag_723\n        /* \"#utility.yul\":32214:32216   */\n      0x20\n        /* \"#utility.yul\":32203:32212   */\n      dup4\n        /* \"#utility.yul\":32199:32217   */\n      add\n        /* \"#utility.yul\":32190:32196   */\n      dup7\n        /* \"#utility.yul\":32146:32218   */\n      tag_344\n      jump\t// in\n    tag_723:\n        /* \"#utility.yul\":32265:32274   */\n      dup2\n        /* \"#utility.yul\":32259:32263   */\n      dup2\n        /* \"#utility.yul\":32255:32275   */\n      sub\n        /* \"#utility.yul\":32250:32252   */\n      0x40\n        /* \"#utility.yul\":32239:32248   */\n      dup4\n        /* \"#utility.yul\":32235:32253   */\n      add\n        /* \"#utility.yul\":32228:32276   */\n      mstore\n        /* \"#utility.yul\":32293:32381   */\n      tag_724\n        /* \"#utility.yul\":32376:32380   */\n      dup2\n        /* \"#utility.yul\":32367:32373   */\n      dup5\n        /* \"#utility.yul\":32359:32365   */\n      dup7\n        /* \"#utility.yul\":32293:32381   */\n      tag_422\n      jump\t// in\n    tag_724:\n        /* \"#utility.yul\":32285:32381   */\n      swap1\n      pop\n        /* \"#utility.yul\":31835:32388   */\n      swap6\n      swap5\n      pop\n      pop\n      pop\n      pop\n      pop\n      jump\t// out\n        /* \"#utility.yul\":32394:32588   */\n    tag_266:\n        /* \"#utility.yul\":32434:32438   */\n      0x00\n        /* \"#utility.yul\":32454:32474   */\n      tag_726\n        /* \"#utility.yul\":32472:32473   */\n      dup3\n        /* \"#utility.yul\":32454:32474   */\n      tag_343\n      jump\t// in\n    tag_726:\n        /* \"#utility.yul\":32449:32474   */\n      swap2\n      pop\n        /* \"#utility.yul\":32488:32508   */\n      tag_727\n        /* \"#utility.yul\":32506:32507   */\n      dup4\n        /* \"#utility.yul\":32488:32508   */\n      tag_343\n      jump\t// in\n    tag_727:\n        /* \"#utility.yul\":32483:32508   */\n      swap3\n      pop\n        /* \"#utility.yul\":32532:32533   */\n      dup3\n        /* \"#utility.yul\":32529:32530   */\n      dup3\n        /* \"#utility.yul\":32525:32534   */\n      sub\n        /* \"#utility.yul\":32517:32534   */\n      swap1\n      pop\n        /* \"#utility.yul\":32556:32557   */\n      dup2\n        /* \"#utility.yul\":32550:32554   */\n      dup2\n        /* \"#utility.yul\":32547:32558   */\n      gt\n        /* \"#utility.yul\":32544:32581   */\n      iszero\n      tag_728\n      jumpi\n        /* \"#utility.yul\":32561:32579   */\n      tag_729\n      tag_410\n      jump\t// in\n    tag_729:\n        /* \"#utility.yul\":32544:32581   */\n    tag_728:\n        /* \"#utility.yul\":32394:32588   */\n      swap3\n      swap2\n      pop\n      pop\n      jump\t// out\n        /* \"#utility.yul\":32594:32774   */\n    tag_424:\n        /* \"#utility.yul\":32642:32719   */\n      0x4e487b7100000000000000000000000000000000000000000000000000000000\n        /* \"#utility.yul\":32639:32640   */\n      0x00\n        /* \"#utility.yul\":32632:32720   */\n      mstore\n        /* \"#utility.yul\":32739:32743   */\n      0x12\n        /* \"#utility.yul\":32736:32737   */\n      0x04\n        /* \"#utility.yul\":32729:32744   */\n      mstore\n        /* \"#utility.yul\":32763:32767   */\n      0x24\n        /* \"#utility.yul\":32760:32761   */\n      0x00\n        /* \"#utility.yul\":32753:32768   */\n      revert\n        /* \"#utility.yul\":32780:32965   */\n    tag_270:\n        /* \"#utility.yul\":32820:32821   */\n      0x00\n        /* \"#utility.yul\":32837:32857   */\n      tag_732\n        /* \"#utility.yul\":32855:32856   */\n      dup3\n        /* \"#utility.yul\":32837:32857   */\n      tag_343\n      jump\t// in\n    tag_732:\n        /* \"#utility.yul\":32832:32857   */\n      swap2\n      pop\n        /* \"#utility.yul\":32871:32891   */\n      tag_733\n        /* \"#utility.yul\":32889:32890   */\n      dup4\n        /* \"#utility.yul\":32871:32891   */\n      tag_343\n      jump\t// in\n    tag_733:\n        /* \"#utility.yul\":32866:32891   */\n      swap3\n      pop\n        /* \"#utility.yul\":32910:32911   */\n      dup3\n        /* \"#utility.yul\":32900:32935   */\n      tag_734\n      jumpi\n        /* \"#utility.yul\":32915:32933   */\n      tag_735\n      tag_424\n      jump\t// in\n    tag_735:\n        /* \"#utility.yul\":32900:32935   */\n    tag_734:\n        /* \"#utility.yul\":32957:32958   */\n      dup3\n        /* \"#utility.yul\":32954:32955   */\n      dup3\n        /* \"#utility.yul\":32950:32959   */\n      div\n        /* \"#utility.yul\":32945:32959   */\n      swap1\n      pop\n        /* \"#utility.yul\":32780:32965   */\n      swap3\n      swap2\n      pop\n      pop\n      jump\t// out\n        /* \"#utility.yul\":32971:33134   */\n    tag_425:\n        /* \"#utility.yul\":33111:33126   */\n      0x496e76616c696420696e64657800000000000000000000000000000000000000\n        /* \"#utility.yul\":33107:33108   */\n      0x00\n        /* \"#utility.yul\":33099:33105   */\n      dup3\n        /* \"#utility.yul\":33095:33109   */\n      add\n        /* \"#utility.yul\":33088:33127   */\n      mstore\n        /* \"#utility.yul\":32971:33134   */\n      pop\n      jump\t// out\n        /* \"#utility.yul\":33140:33506   */\n    tag_426:\n        /* \"#utility.yul\":33282:33285   */\n      0x00\n        /* \"#utility.yul\":33303:33370   */\n      tag_738\n        /* \"#utility.yul\":33367:33369   */\n      0x0d\n        /* \"#utility.yul\":33362:33365   */\n      dup4\n        /* \"#utility.yul\":33303:33370   */\n      tag_345\n      jump\t// in\n    tag_738:\n        /* \"#utility.yul\":33296:33370   */\n      swap2\n      pop\n        /* \"#utility.yul\":33379:33472   */\n      tag_739\n        /* \"#utility.yul\":33468:33471   */\n      dup3\n        /* \"#utility.yul\":33379:33472   */\n      tag_425\n      jump\t// in\n    tag_739:\n        /* \"#utility.yul\":33497:33499   */\n      0x20\n        /* \"#utility.yul\":33492:33495   */\n      dup3\n        /* \"#utility.yul\":33488:33500   */\n      add\n        /* \"#utility.yul\":33481:33500   */\n      swap1\n      pop\n        /* \"#utility.yul\":33140:33506   */\n      swap2\n      swap1\n      pop\n      jump\t// out\n        /* \"#utility.yul\":33512:33931   */\n    tag_305:\n        /* \"#utility.yul\":33678:33682   */\n      0x00\n        /* \"#utility.yul\":33716:33718   */\n      0x20\n        /* \"#utility.yul\":33705:33714   */\n      dup3\n        /* \"#utility.yul\":33701:33719   */\n      add\n        /* \"#utility.yul\":33693:33719   */\n      swap1\n      pop\n        /* \"#utility.yul\":33765:33774   */\n      dup2\n        /* \"#utility.yul\":33759:33763   */\n      dup2\n        /* \"#utility.yul\":33755:33775   */\n      sub\n        /* \"#utility.yul\":33751:33752   */\n      0x00\n        /* \"#utility.yul\":33740:33749   */\n      dup4\n        /* \"#utility.yul\":33736:33753   */\n      add\n        /* \"#utility.yul\":33729:33776   */\n      mstore\n        /* \"#utility.yul\":33793:33924   */\n      tag_741\n        /* \"#utility.yul\":33919:33923   */\n      dup2\n        /* \"#utility.yul\":33793:33924   */\n      tag_426\n      jump\t// in\n    tag_741:\n        /* \"#utility.yul\":33785:33924   */\n      swap1\n      pop\n        /* \"#utility.yul\":33512:33931   */\n      swap2\n      swap1\n      pop\n      jump\t// out\n\n    auxdata: 0xa26469706673582212202a597c3cbe945f079a55ec8cce4836a6c95a9a3016387524941418f90089658264736f6c634300081e0033\n}\n",
				"bytecode": {
					"linkReferences": {},
					"object": "608060405266038d7ea4c6800060045534801561001a575f5ffd5b5060405161314f38038061314f833981810160405281019061003c9190610144565b5f73ffffffffffffffffffffffffffffffffffffffff168173ffffffffffffffffffffffffffffffffffffffff16036100a1576040517fe6c4247b00000000000000000000000000000000000000000000000000000000815260040160405180910390fd5b805f5f6101000a81548173ffffffffffffffffffffffffffffffffffffffff021916908373ffffffffffffffffffffffffffffffffffffffff1602179055505061016f565b5f5ffd5b5f73ffffffffffffffffffffffffffffffffffffffff82169050919050565b5f610113826100ea565b9050919050565b61012381610109565b811461012d575f5ffd5b50565b5f8151905061013e8161011a565b92915050565b5f60208284031215610159576101586100e6565b5b5f61016684828501610130565b91505092915050565b612fd38061017c5f395ff3fe608060405260043610610184575f3560e01c80636cf1cd95116100d0578063dc07065711610089578063e55a62a811610063578063e55a62a814610623578063ef07a81f1461064d578063f5d1282b1461068d578063f8626af8146106ca57610259565b8063dc07065714610595578063de2ed893146105bd578063df0eb43f146105e757610259565b80636cf1cd95146104b05780637ce56524146104da57806383a6595f146104e4578063b5aebc801461050c578063c59d484714610528578063c8eb0c881461055657610259565b80631c0e02251161013d57806338af3eed1161011757806338af3eed146103f85780633ccfd60b146104225780633d0d3086146104385780634abfa1631461047457610259565b80631c0e02251461037c5780632c358e88146103a657806337a5f66c146103ce57610259565b80630562b9f71461025d57806306032ead1461028557806312065fe0146102af57806312b91bf9146102d957806317294a111461030157806318c4b9911461033d57610259565b36610259576004543410156101c5576040517f6a10ccc900000000000000000000000000000000000000000000000000000000815260040160405180910390fd5b61020733346040518060400160405280600f81526020017f446972656374207472616e736665720000000000000000000000000000000000815250600161070a565b3373ffffffffffffffffffffffffffffffffffffffff167ff041a5bfea1be2e3f78bbadfadc66bb6f6d62860e629a44d71bec1ef49411c9e344260405161024f92919061204d565b60405180910390a2005b5f5ffd5b348015610268575f5ffd5b50610283600480360381019061027e91906120b9565b610a2f565b005b348015610290575f5ffd5b50610299610c28565b6040516102a691906120e4565b60405180910390f35b3480156102ba575f5ffd5b506102c3610c2e565b6040516102d091906120e4565b60405180910390f35b3480156102e4575f5ffd5b506102ff60048036038101906102fa919061215e565b610c35565b005b34801561030c575f5ffd5b5061032760048036038101906103229190612203565b610d87565b6040516103349190612248565b60405180910390f35b348015610348575f5ffd5b50610363600480360381019061035e9190612203565b610dd9565b6040516103739493929190612261565b60405180910390f35b348015610387575f5ffd5b50610390610e05565b60405161039d91906120e4565b60405180910390f35b3480156103b1575f5ffd5b506103cc60048036038101906103c791906122f9565b610e0b565b005b3480156103d9575f5ffd5b506103e2610f1c565b6040516103ef91906123a6565b60405180910390f35b348015610403575f5ffd5b5061040c610f98565b60405161041991906123ce565b60405180910390f35b34801561042d575f5ffd5b50610436610fbc565b005b348015610443575f5ffd5b5061045e60048036038101906104599190612203565b6111af565b60405161046b919061248f565b60405180910390f35b34801561047f575f5ffd5b5061049a600480360381019061049591906120b9565b611376565b6040516104a791906123ce565b60405180910390f35b3480156104bb575f5ffd5b506104c46113b1565b6040516104d191906120e4565b60405180910390f35b6104e26113b7565b005b3480156104ef575f5ffd5b5061050a600480360381019061050591906120b9565b611460565b005b610526600480360381019061052191906122f9565b611526565b005b348015610533575f5ffd5b5061053c61160a565b60405161054d9594939291906124af565b60405180910390f35b348015610561575f5ffd5b5061057c60048036038101906105779190612203565b611664565b60405161058c9493929190612261565b60405180910390f35b3480156105a0575f5ffd5b506105bb60048036038101906105b69190612203565b6116fd565b005b3480156105c8575f5ffd5b506105d16118a8565b6040516105de91906120e4565b60405180910390f35b3480156105f2575f5ffd5b5061060d600480360381019061060891906120b9565b6118ae565b60405161061a91906126bc565b60405180910390f35b34801561062e575f5ffd5b50610637611aba565b60405161064491906120e4565b60405180910390f35b348015610658575f5ffd5b50610673600480360381019061066e91906120b9565b611ac6565b604051610684959493929190612714565b60405180910390f35b348015610698575f5ffd5b506106b360048036038101906106ae91906120b9565b611c7f565b6040516106c1929190612814565b60405180910390f35b3480156106d5575f5ffd5b506106f060048036038101906106eb91906120b9565b611e82565b604051610701959493929190612714565b60405180910390f35b60056040518060a001604052808673ffffffffffffffffffffffffffffffffffffffff168152602001858152602001428152602001848152602001831515815250908060018154018082558091505060019003905f5260205f2090600502015f909190919091505f820151815f015f6101000a81548173ffffffffffffffffffffffffffffffffffffffff021916908373ffffffffffffffffffffffffffffffffffffffff160217905550602082015181600101556040820151816002015560608201518160030190816107de9190612a73565b506080820151816004015f6101000a81548160ff02191690831515021790555050508015610874578260065f8673ffffffffffffffffffffffffffffffffffffffff1673ffffffffffffffffffffffffffffffffffffffff1681526020019081526020015f205f015f8282546108549190612b6f565b925050819055508260015f82825461086c9190612b6f565b925050819055505b60065f8573ffffffffffffffffffffffffffffffffffffffff1673ffffffffffffffffffffffffffffffffffffffff1681526020019081526020015f206001015f8154809291906108c490612ba2565b91905055504260065f8673ffffffffffffffffffffffffffffffffffffffff1673ffffffffffffffffffffffffffffffffffffffff1681526020019081526020015f206003018190555060025f81548092919061092090612ba2565b919050555060085f8573ffffffffffffffffffffffffffffffffffffffff1673ffffffffffffffffffffffffffffffffffffffff1681526020019081526020015f205f9054906101000a900460ff16610a2957600784908060018154018082558091505060019003905f5260205f20015f9091909190916101000a81548173ffffffffffffffffffffffffffffffffffffffff021916908373ffffffffffffffffffffffffffffffffffffffff160217905550600160085f8673ffffffffffffffffffffffffffffffffffffffff1673ffffffffffffffffffffffffffffffffffffffff1681526020019081526020015f205f6101000a81548160ff0219169083151502179055505b50505050565b5f5f9054906101000a900473ffffffffffffffffffffffffffffffffffffffff1673ffffffffffffffffffffffffffffffffffffffff163373ffffffffffffffffffffffffffffffffffffffff1614610ab4576040517f5e5a974900000000000000000000000000000000000000000000000000000000815260040160405180910390fd5b47811115610af7576040517f08c379a0000000000000000000000000000000000000000000000000000000008152600401610aee90612c33565b60405180910390fd5b5f5f5f9054906101000a900473ffffffffffffffffffffffffffffffffffffffff1673ffffffffffffffffffffffffffffffffffffffff1682604051610b3c90612c7e565b5f6040518083038185875af1925050503d805f8114610b76576040519150601f19603f3d011682016040523d82523d5f602084013e610b7b565b606091505b5050905080610bb6576040517f27fcd9d100000000000000000000000000000000000000000000000000000000815260040160405180910390fd5b5f5f9054906101000a900473ffffffffffffffffffffffffffffffffffffffff1673ffffffffffffffffffffffffffffffffffffffff167feaff4b37086828766ad3268786972c0cd24259d4c87a80f9d3963a3c3d999b0d83604051610c1c91906120e4565b60405180910390a25050565b60035481565b5f47905090565b5f5f90505b82829050811015610cdb57610cb7335f858585818110610c5d57610c5c612c92565b5b9050602002810190610c6f9190612ccb565b8080601f0160208091040260200160405190810160405280939291908181526020018383808284375f81840152601f19601f820116905080830192505050505050505f61070a565b60035f815480929190610cc990612ba2565b91905055508080600101915050610c3a565b508181905060065f3373ffffffffffffffffffffffffffffffffffffffff1673ffffffffffffffffffffffffffffffffffffffff1681526020019081526020015f206002015f828254610d2e9190612b6f565b925050819055503373ffffffffffffffffffffffffffffffffffffffff167fd81d215722df92bb1877ad02bf864901bce7056f3548a858ad53b68ad531848c42604051610d7b9190612d77565b60405180910390a25050565b5f60085f8373ffffffffffffffffffffffffffffffffffffffff1673ffffffffffffffffffffffffffffffffffffffff1681526020019081526020015f205f9054906101000a900460ff169050919050565b6006602052805f5260405f205f91509050805f0154908060010154908060020154908060030154905084565b60045481565b610e5a335f84848080601f0160208091040260200160405190810160405280939291908181526020018383808284375f81840152601f19601f820116905080830192505050505050505f61070a565b60065f3373ffffffffffffffffffffffffffffffffffffffff1673ffffffffffffffffffffffffffffffffffffffff1681526020019081526020015f206002015f815480929190610eaa90612ba2565b919050555060035f815480929190610ec190612ba2565b91905055503373ffffffffffffffffffffffffffffffffffffffff167fd81d215722df92bb1877ad02bf864901bce7056f3548a858ad53b68ad531848c428484604051610f1093929190612ddd565b60405180910390a25050565b610f24611f74565b60065f3373ffffffffffffffffffffffffffffffffffffffff1673ffffffffffffffffffffffffffffffffffffffff1681526020019081526020015f206040518060800160405290815f82015481526020016001820154815260200160028201548152602001600382015481525050905090565b5f5f9054906101000a900473ffffffffffffffffffffffffffffffffffffffff1681565b5f5f9054906101000a900473ffffffffffffffffffffffffffffffffffffffff1673ffffffffffffffffffffffffffffffffffffffff163373ffffffffffffffffffffffffffffffffffffffff1614611041576040517f5e5a974900000000000000000000000000000000000000000000000000000000815260040160405180910390fd5b5f4790505f810361107e576040517f67e3990d00000000000000000000000000000000000000000000000000000000815260040160405180910390fd5b5f5f5f9054906101000a900473ffffffffffffffffffffffffffffffffffffffff1673ffffffffffffffffffffffffffffffffffffffff16826040516110c390612c7e565b5f6040518083038185875af1925050503d805f81146110fd576040519150601f19603f3d011682016040523d82523d5f602084013e611102565b606091505b505090508061113d576040517f27fcd9d100000000000000000000000000000000000000000000000000000000815260040160405180910390fd5b5f5f9054906101000a900473ffffffffffffffffffffffffffffffffffffffff1673ffffffffffffffffffffffffffffffffffffffff167feaff4b37086828766ad3268786972c0cd24259d4c87a80f9d3963a3c3d999b0d836040516111a391906120e4565b60405180910390a25050565b60605f5f90505f5f90505b600580549050811015611257578373ffffffffffffffffffffffffffffffffffffffff16600582815481106111f2576111f1612c92565b5b905f5260205f2090600502015f015f9054906101000a900473ffffffffffffffffffffffffffffffffffffffff1673ffffffffffffffffffffffffffffffffffffffff160361124a57818061124690612ba2565b9250505b80806001019150506111ba565b505f8167ffffffffffffffff81111561127357611272612849565b5b6040519080825280602002602001820160405280156112a15781602001602082028036833780820191505090505b5090505f5f90505f5f90505b60058054905081101561136a578573ffffffffffffffffffffffffffffffffffffffff16600582815481106112e5576112e4612c92565b5b905f5260205f2090600502015f015f9054906101000a900473ffffffffffffffffffffffffffffffffffffffff1673ffffffffffffffffffffffffffffffffffffffff160361135d578083838151811061134257611341612c92565b5b602002602001018181525050818061135990612ba2565b9250505b80806001019150506112ad565b50819350505050919050565b60078181548110611385575f80fd5b905f5260205f20015f915054906101000a900473ffffffffffffffffffffffffffffffffffffffff1681565b60015481565b6004543410156113f3576040517f6a10ccc900000000000000000000000000000000000000000000000000000000815260040160405180910390fd5b61140e333460405180602001604052805f815250600161070a565b3373ffffffffffffffffffffffffffffffffffffffff167ff041a5bfea1be2e3f78bbadfadc66bb6f6d62860e629a44d71bec1ef49411c9e3442604051611456929190612e2d565b60405180910390a2565b5f5f9054906101000a900473ffffffffffffffffffffffffffffffffffffffff1673ffffffffffffffffffffffffffffffffffffffff163373ffffffffffffffffffffffffffffffffffffffff16146114e5576040517f5e5a974900000000000000000000000000000000000000000000000000000000815260040160405180910390fd5b806004819055507fe07e4d9c719d73ec9ff422c869c07437bfbea9b818345f73eea7f983d57b69028160405161151b91906120e4565b60405180910390a150565b600454341015611562576040517f6a10ccc900000000000000000000000000000000000000000000000000000000815260040160405180910390fd5b6115b2333484848080601f0160208091040260200160405190810160405280939291908181526020018383808284375f81840152601f19601f82011690508083019250505050505050600161070a565b3373ffffffffffffffffffffffffffffffffffffffff167ff041a5bfea1be2e3f78bbadfadc66bb6f6d62860e629a44d71bec1ef49411c9e344285856040516115fe9493929190612e67565b60405180910390a25050565b5f5f5f5f5f5f6003546002546116209190612ea5565b90505f5f8211611630575f61163f565b8160015461163e9190612f05565b5b9050600154600254600354600780549050849650965096509650965050509091929394565b5f5f5f5f5f60065f8773ffffffffffffffffffffffffffffffffffffffff1673ffffffffffffffffffffffffffffffffffffffff1681526020019081526020015f206040518060800160405290815f820154815260200160018201548152602001600282015481526020016003820154815250509050805f01518160200151826040015183606001519450945094509450509193509193565b5f5f9054906101000a900473ffffffffffffffffffffffffffffffffffffffff1673ffffffffffffffffffffffffffffffffffffffff163373ffffffffffffffffffffffffffffffffffffffff1614611782576040517f5e5a974900000000000000000000000000000000000000000000000000000000815260040160405180910390fd5b5f73ffffffffffffffffffffffffffffffffffffffff168173ffffffffffffffffffffffffffffffffffffffff16036117e7576040517fe6c4247b00000000000000000000000000000000000000000000000000000000815260040160405180910390fd5b5f5f5f9054906101000a900473ffffffffffffffffffffffffffffffffffffffff169050815f5f6101000a81548173ffffffffffffffffffffffffffffffffffffffff021916908373ffffffffffffffffffffffffffffffffffffffff1602179055508173ffffffffffffffffffffffffffffffffffffffff168173ffffffffffffffffffffffffffffffffffffffff167f768099735d1c322a05a5b9d7b76d99682a1833d3f7055e5ede25e0f2eeaa8c6d60405160405180910390a35050565b60025481565b60605f60058054905090505f8184116118c757836118c9565b815b90505f8167ffffffffffffffff8111156118e6576118e5612849565b5b60405190808252806020026020018201604052801561191f57816020015b61190c611f98565b8152602001906001900390816119045790505b5090505f5f90505b82811015611aae5760058160018661193f9190612ea5565b6119499190612ea5565b8154811061195a57611959612c92565b5b905f5260205f2090600502016040518060a00160405290815f82015f9054906101000a900473ffffffffffffffffffffffffffffffffffffffff1673ffffffffffffffffffffffffffffffffffffffff1673ffffffffffffffffffffffffffffffffffffffff16815260200160018201548152602001600282015481526020016003820180546119e9906128a3565b80601f0160208091040260200160405190810160405280929190818152602001828054611a15906128a3565b8015611a605780601f10611a3757610100808354040283529160200191611a60565b820191905f5260205f20905b815481529060010190602001808311611a4357829003601f168201915b50505050508152602001600482015f9054906101000a900460ff161515151581525050828281518110611a9657611a95612c92565b5b60200260200101819052508080600101915050611927565b50809350505050919050565b5f600580549050905090565b5f5f5f60605f6005805490508610611b13576040517f08c379a0000000000000000000000000000000000000000000000000000000008152600401611b0a90612f7f565b60405180910390fd5b5f60058781548110611b2857611b27612c92565b5b905f5260205f2090600502016040518060a00160405290815f82015f9054906101000a900473ffffffffffffffffffffffffffffffffffffffff1673ffffffffffffffffffffffffffffffffffffffff1673ffffffffffffffffffffffffffffffffffffffff1681526020016001820154815260200160028201548152602001600382018054611bb7906128a3565b80601f0160208091040260200160405190810160405280929190818152602001828054611be3906128a3565b8015611c2e5780601f10611c0557610100808354040283529160200191611c2e565b820191905f5260205f20905b815481529060010190602001808311611c1157829003601f168201915b50505050508152602001600482015f9054906101000a900460ff1615151515815250509050805f01518160200151826040015183606001518460800151955095509550955095505091939590929450565b6060805f60078054905090505f818511611c995784611c9b565b815b90505f8167ffffffffffffffff811115611cb857611cb7612849565b5b604051908082528060200260200182016040528015611ce65781602001602082028036833780820191505090505b5090505f8267ffffffffffffffff811115611d0457611d03612849565b5b604051908082528060200260200182016040528015611d325781602001602082028036833780820191505090505b5090505f5f90505b83811015611e725760078181548110611d5657611d55612c92565b5b905f5260205f20015f9054906101000a900473ffffffffffffffffffffffffffffffffffffffff16838281518110611d9157611d90612c92565b5b602002602001019073ffffffffffffffffffffffffffffffffffffffff16908173ffffffffffffffffffffffffffffffffffffffff168152505060065f60078381548110611de257611de1612c92565b5b905f5260205f20015f9054906101000a900473ffffffffffffffffffffffffffffffffffffffff1673ffffffffffffffffffffffffffffffffffffffff1673ffffffffffffffffffffffffffffffffffffffff1681526020019081526020015f205f0154828281518110611e5957611e58612c92565b5b6020026020010181815250508080600101915050611d3a565b5081819550955050505050915091565b60058181548110611e91575f80fd5b905f5260205f2090600502015f91509050805f015f9054906101000a900473ffffffffffffffffffffffffffffffffffffffff1690806001015490806002015490806003018054611ee1906128a3565b80601f0160208091040260200160405190810160405280929190818152602001828054611f0d906128a3565b8015611f585780601f10611f2f57610100808354040283529160200191611f58565b820191905f5260205f20905b815481529060010190602001808311611f3b57829003601f168201915b505050505090806004015f9054906101000a900460ff16905085565b60405180608001604052805f81526020015f81526020015f81526020015f81525090565b6040518060a001604052805f73ffffffffffffffffffffffffffffffffffffffff1681526020015f81526020015f8152602001606081526020015f151581525090565b5f819050919050565b611fed81611fdb565b82525050565b5f82825260208201905092915050565b7f446972656374207472616e7366657200000000000000000000000000000000005f82015250565b5f612037600f83611ff3565b915061204282612003565b602082019050919050565b5f6060820190506120605f830185611fe4565b61206d6020830184611fe4565b818103604083015261207e8161202b565b90509392505050565b5f5ffd5b5f5ffd5b61209881611fdb565b81146120a2575f5ffd5b50565b5f813590506120b38161208f565b92915050565b5f602082840312156120ce576120cd612087565b5b5f6120db848285016120a5565b91505092915050565b5f6020820190506120f75f830184611fe4565b92915050565b5f5ffd5b5f5ffd5b5f5ffd5b5f5f83601f84011261211e5761211d6120fd565b5b8235905067ffffffffffffffff81111561213b5761213a612101565b5b60208301915083602082028301111561215757612156612105565b5b9250929050565b5f5f6020838503121561217457612173612087565b5b5f83013567ffffffffffffffff8111156121915761219061208b565b5b61219d85828601612109565b92509250509250929050565b5f73ffffffffffffffffffffffffffffffffffffffff82169050919050565b5f6121d2826121a9565b9050919050565b6121e2816121c8565b81146121ec575f5ffd5b50565b5f813590506121fd816121d9565b92915050565b5f6020828403121561221857612217612087565b5b5f612225848285016121ef565b91505092915050565b5f8115159050919050565b6122428161222e565b82525050565b5f60208201905061225b5f830184612239565b92915050565b5f6080820190506122745f830187611fe4565b6122816020830186611fe4565b61228e6040830185611fe4565b61229b6060830184611fe4565b95945050505050565b5f5f83601f8401126122b9576122b86120fd565b5b8235905067ffffffffffffffff8111156122d6576122d5612101565b5b6020830191508360018202830111156122f2576122f1612105565b5b9250929050565b5f5f6020838503121561230f5761230e612087565b5b5f83013567ffffffffffffffff81111561232c5761232b61208b565b5b612338858286016122a4565b92509250509250929050565b61234d81611fdb565b82525050565b608082015f8201516123675f850182612344565b50602082015161237a6020850182612344565b50604082015161238d6040850182612344565b5060608201516123a06060850182612344565b50505050565b5f6080820190506123b95f830184612353565b92915050565b6123c8816121c8565b82525050565b5f6020820190506123e15f8301846123bf565b92915050565b5f81519050919050565b5f82825260208201905092915050565b5f819050602082019050919050565b5f61241b8383612344565b60208301905092915050565b5f602082019050919050565b5f61243d826123e7565b61244781856123f1565b935061245283612401565b805f5b838110156124825781516124698882612410565b975061247483612427565b925050600181019050612455565b5085935050505092915050565b5f6020820190508181035f8301526124a78184612433565b905092915050565b5f60a0820190506124c25f830188611fe4565b6124cf6020830187611fe4565b6124dc6040830186611fe4565b6124e96060830185611fe4565b6124f66080830184611fe4565b9695505050505050565b5f81519050919050565b5f82825260208201905092915050565b5f819050602082019050919050565b612532816121c8565b82525050565b5f81519050919050565b5f82825260208201905092915050565b8281835e5f83830152505050565b5f601f19601f8301169050919050565b5f61257a82612538565b6125848185612542565b9350612594818560208601612552565b61259d81612560565b840191505092915050565b6125b18161222e565b82525050565b5f60a083015f8301516125cc5f860182612529565b5060208301516125df6020860182612344565b5060408301516125f26040860182612344565b506060830151848203606086015261260a8282612570565b915050608083015161261f60808601826125a8565b508091505092915050565b5f61263583836125b7565b905092915050565b5f602082019050919050565b5f61265382612500565b61265d818561250a565b93508360208202850161266f8561251a565b805f5b858110156126aa578484038952815161268b858261262a565b94506126968361263d565b925060208a01995050600181019050612672565b50829750879550505050505092915050565b5f6020820190508181035f8301526126d48184612649565b905092915050565b5f6126e682612538565b6126f08185611ff3565b9350612700818560208601612552565b61270981612560565b840191505092915050565b5f60a0820190506127275f8301886123bf565b6127346020830187611fe4565b6127416040830186611fe4565b818103606083015261275381856126dc565b90506127626080830184612239565b9695505050505050565b5f81519050919050565b5f82825260208201905092915050565b5f819050602082019050919050565b5f6127a08383612529565b60208301905092915050565b5f602082019050919050565b5f6127c28261276c565b6127cc8185612776565b93506127d783612786565b805f5b838110156128075781516127ee8882612795565b97506127f9836127ac565b9250506001810190506127da565b5085935050505092915050565b5f6040820190508181035f83015261282c81856127b8565b905081810360208301526128408184612433565b90509392505050565b7f4e487b71000000000000000000000000000000000000000000000000000000005f52604160045260245ffd5b7f4e487b71000000000000000000000000000000000000000000000000000000005f52602260045260245ffd5b5f60028204905060018216806128ba57607f821691505b6020821081036128cd576128cc612876565b5b50919050565b5f819050815f5260205f209050919050565b5f6020601f8301049050919050565b5f82821b905092915050565b5f6008830261292f7fffffffffffffffffffffffffffffffffffffffffffffffffffffffffffffffff826128f4565b61293986836128f4565b95508019841693508086168417925050509392505050565b5f819050919050565b5f61297461296f61296a84611fdb565b612951565b611fdb565b9050919050565b5f819050919050565b61298d8361295a565b6129a16129998261297b565b848454612900565b825550505050565b5f5f905090565b6129b86129a9565b6129c3818484612984565b505050565b5b818110156129e6576129db5f826129b0565b6001810190506129c9565b5050565b601f821115612a2b576129fc816128d3565b612a05846128e5565b81016020851015612a14578190505b612a28612a20856128e5565b8301826129c8565b50505b505050565b5f82821c905092915050565b5f612a4b5f1984600802612a30565b1980831691505092915050565b5f612a638383612a3c565b9150826002028217905092915050565b612a7c82612538565b67ffffffffffffffff811115612a9557612a94612849565b5b612a9f82546128a3565b612aaa8282856129ea565b5f60209050601f831160018114612adb575f8415612ac9578287015190505b612ad38582612a58565b865550612b3a565b601f198416612ae9866128d3565b5f5b82811015612b1057848901518255600182019150602085019450602081019050612aeb565b86831015612b2d5784890151612b29601f891682612a3c565b8355505b6001600288020188555050505b505050505050565b7f4e487b71000000000000000000000000000000000000000000000000000000005f52601160045260245ffd5b5f612b7982611fdb565b9150612b8483611fdb565b9250828201905080821115612b9c57612b9b612b42565b5b92915050565b5f612bac82611fdb565b91507fffffffffffffffffffffffffffffffffffffffffffffffffffffffffffffffff8203612bde57612bdd612b42565b5b600182019050919050565b7f496e73756666696369656e742062616c616e63650000000000000000000000005f82015250565b5f612c1d601483611ff3565b9150612c2882612be9565b602082019050919050565b5f6020820190508181035f830152612c4a81612c11565b9050919050565b5f81905092915050565b50565b5f612c695f83612c51565b9150612c7482612c5b565b5f82019050919050565b5f612c8882612c5e565b9150819050919050565b7f4e487b71000000000000000000000000000000000000000000000000000000005f52603260045260245ffd5b5f5ffd5b5f5ffd5b5f5ffd5b5f5f83356001602003843603038112612ce757612ce6612cbf565b5b80840192508235915067ffffffffffffffff821115612d0957612d08612cc3565b5b602083019250600182023603831315612d2557612d24612cc7565b5b509250929050565b7f426174636820636f6e747269627574696f6e00000000000000000000000000005f82015250565b5f612d61601283611ff3565b9150612d6c82612d2d565b602082019050919050565b5f604082019050612d8a5f830184611fe4565b8181036020830152612d9b81612d55565b905092915050565b828183375f83830152505050565b5f612dbc8385611ff3565b9350612dc9838584612da3565b612dd283612560565b840190509392505050565b5f604082019050612df05f830186611fe4565b8181036020830152612e03818486612db1565b9050949350505050565b5f612e185f83611ff3565b9150612e2382612c5b565b5f82019050919050565b5f606082019050612e405f830185611fe4565b612e4d6020830184611fe4565b8181036040830152612e5e81612e0d565b90509392505050565b5f606082019050612e7a5f830187611fe4565b612e876020830186611fe4565b8181036040830152612e9a818486612db1565b905095945050505050565b5f612eaf82611fdb565b9150612eba83611fdb565b9250828203905081811115612ed257612ed1612b42565b5b92915050565b7f4e487b71000000000000000000000000000000000000000000000000000000005f52601260045260245ffd5b5f612f0f82611fdb565b9150612f1a83611fdb565b925082612f2a57612f29612ed8565b5b828204905092915050565b7f496e76616c696420696e646578000000000000000000000000000000000000005f82015250565b5f612f69600d83611ff3565b9150612f7482612f35565b602082019050919050565b5f6020820190508181035f830152612f9681612f5d565b905091905056fea26469706673582212202a597c3cbe945f079a55ec8cce4836a6c95a9a3016387524941418f90089658264736f6c634300081e0033",
					"opcodes": "PUSH1 0x80 PUSH1 0x40 MSTORE PUSH7 0x38D7EA4C68000 PUSH1 0x4 SSTORE CALLVALUE DUP1 ISZERO PUSH2 0x1A JUMPI PUSH0 PUSH0 REVERT JUMPDEST POP PUSH1 0x40 MLOAD PUSH2 0x314F CODESIZE SUB DUP1 PUSH2 0x314F DUP4 CODECOPY DUP2 DUP2 ADD PUSH1 0x40 MSTORE DUP2 ADD SWAP1 PUSH2 0x3C SWAP2 SWAP1 PUSH2 0x144 JUMP JUMPDEST PUSH0 PUSH20 0xFFFFFFFFFFFFFFFFFFFFFFFFFFFFFFFFFFFFFFFF AND DUP2 PUSH20 0xFFFFFFFFFFFFFFFFFFFFFFFFFFFFFFFFFFFFFFFF AND SUB PUSH2 0xA1 JUMPI PUSH1 0x40 MLOAD PUSH32 0xE6C4247B00000000000000000000000000000000000000000000000000000000 DUP2 MSTORE PUSH1 0x4 ADD PUSH1 0x40 MLOAD DUP1 SWAP2 SUB SWAP1 REVERT JUMPDEST DUP1 PUSH0 PUSH0 PUSH2 0x100 EXP DUP2 SLOAD DUP2 PUSH20 0xFFFFFFFFFFFFFFFFFFFFFFFFFFFFFFFFFFFFFFFF MUL NOT AND SWAP1 DUP4 PUSH20 0xFFFFFFFFFFFFFFFFFFFFFFFFFFFFFFFFFFFFFFFF AND MUL OR SWAP1 SSTORE POP POP PUSH2 0x16F JUMP JUMPDEST PUSH0 PUSH0 REVERT JUMPDEST PUSH0 PUSH20 0xFFFFFFFFFFFFFFFFFFFFFFFFFFFFFFFFFFFFFFFF DUP3 AND SWAP1 POP SWAP2 SWAP1 POP JUMP JUMPDEST PUSH0 PUSH2 0x113 DUP3 PUSH2 0xEA JUMP JUMPDEST SWAP1 POP SWAP2 SWAP1 POP JUMP JUMPDEST PUSH2 0x123 DUP2 PUSH2 0x109 JUMP JUMPDEST DUP2 EQ PUSH2 0x12D JUMPI PUSH0 PUSH0 REVERT JUMPDEST POP JUMP JUMPDEST PUSH0 DUP2 MLOAD SWAP1 POP PUSH2 0x13E DUP2 PUSH2 0x11A JUMP JUMPDEST SWAP3 SWAP2 POP POP JUMP JUMPDEST PUSH0 PUSH1 0x20 DUP3 DUP5 SUB SLT ISZERO PUSH2 0x159 JUMPI PUSH2 0x158 PUSH2 0xE6 JUMP JUMPDEST JUMPDEST PUSH0 PUSH2 0x166 DUP5 DUP3 DUP6 ADD PUSH2 0x130 JUMP JUMPDEST SWAP2 POP POP SWAP3 SWAP2 POP POP JUMP JUMPDEST PUSH2 0x2FD3 DUP1 PUSH2 0x17C PUSH0 CODECOPY PUSH0 RETURN INVALID PUSH1 0x80 PUSH1 0x40 MSTORE PUSH1 0x4 CALLDATASIZE LT PUSH2 0x184 JUMPI PUSH0 CALLDATALOAD PUSH1 0xE0 SHR DUP1 PUSH4 0x6CF1CD95 GT PUSH2 0xD0 JUMPI DUP1 PUSH4 0xDC070657 GT PUSH2 0x89 JUMPI DUP1 PUSH4 0xE55A62A8 GT PUSH2 0x63 JUMPI DUP1 PUSH4 0xE55A62A8 EQ PUSH2 0x623 JUMPI DUP1 PUSH4 0xEF07A81F EQ PUSH2 0x64D JUMPI DUP1 PUSH4 0xF5D1282B EQ PUSH2 0x68D JUMPI DUP1 PUSH4 0xF8626AF8 EQ PUSH2 0x6CA JUMPI PUSH2 0x259 JUMP JUMPDEST DUP1 PUSH4 0xDC070657 EQ PUSH2 0x595 JUMPI DUP1 PUSH4 0xDE2ED893 EQ PUSH2 0x5BD JUMPI DUP1 PUSH4 0xDF0EB43F EQ PUSH2 0x5E7 JUMPI PUSH2 0x259 JUMP JUMPDEST DUP1 PUSH4 0x6CF1CD95 EQ PUSH2 0x4B0 JUMPI DUP1 PUSH4 0x7CE56524 EQ PUSH2 0x4DA JUMPI DUP1 PUSH4 0x83A6595F EQ PUSH2 0x4E4 JUMPI DUP1 PUSH4 0xB5AEBC80 EQ PUSH2 0x50C JUMPI DUP1 PUSH4 0xC59D4847 EQ PUSH2 0x528 JUMPI DUP1 PUSH4 0xC8EB0C88 EQ PUSH2 0x556 JUMPI PUSH2 0x259 JUMP JUMPDEST DUP1 PUSH4 0x1C0E0225 GT PUSH2 0x13D JUMPI DUP1 PUSH4 0x38AF3EED GT PUSH2 0x117 JUMPI DUP1 PUSH4 0x38AF3EED EQ PUSH2 0x3F8 JUMPI DUP1 PUSH4 0x3CCFD60B EQ PUSH2 0x422 JUMPI DUP1 PUSH4 0x3D0D3086 EQ PUSH2 0x438 JUMPI DUP1 PUSH4 0x4ABFA163 EQ PUSH2 0x474 JUMPI PUSH2 0x259 JUMP JUMPDEST DUP1 PUSH4 0x1C0E0225 EQ PUSH2 0x37C JUMPI DUP1 PUSH4 0x2C358E88 EQ PUSH2 0x3A6 JUMPI DUP1 PUSH4 0x37A5F66C EQ PUSH2 0x3CE JUMPI PUSH2 0x259 JUMP JUMPDEST DUP1 PUSH4 0x562B9F7 EQ PUSH2 0x25D JUMPI DUP1 PUSH4 0x6032EAD EQ PUSH2 0x285 JUMPI DUP1 PUSH4 0x12065FE0 EQ PUSH2 0x2AF JUMPI DUP1 PUSH4 0x12B91BF9 EQ PUSH2 0x2D9 JUMPI DUP1 PUSH4 0x17294A11 EQ PUSH2 0x301 JUMPI DUP1 PUSH4 0x18C4B991 EQ PUSH2 0x33D JUMPI PUSH2 0x259 JUMP JUMPDEST CALLDATASIZE PUSH2 0x259 JUMPI PUSH1 0x4 SLOAD CALLVALUE LT ISZERO PUSH2 0x1C5 JUMPI PUSH1 0x40 MLOAD PUSH32 0x6A10CCC900000000000000000000000000000000000000000000000000000000 DUP2 MSTORE PUSH1 0x4 ADD PUSH1 0x40 MLOAD DUP1 SWAP2 SUB SWAP1 REVERT JUMPDEST PUSH2 0x207 CALLER CALLVALUE PUSH1 0x40 MLOAD DUP1 PUSH1 0x40 ADD PUSH1 0x40 MSTORE DUP1 PUSH1 0xF DUP2 MSTORE PUSH1 0x20 ADD PUSH32 0x446972656374207472616E736665720000000000000000000000000000000000 DUP2 MSTORE POP PUSH1 0x1 PUSH2 0x70A JUMP JUMPDEST CALLER PUSH20 0xFFFFFFFFFFFFFFFFFFFFFFFFFFFFFFFFFFFFFFFF AND PUSH32 0xF041A5BFEA1BE2E3F78BBADFADC66BB6F6D62860E629A44D71BEC1EF49411C9E CALLVALUE TIMESTAMP PUSH1 0x40 MLOAD PUSH2 0x24F SWAP3 SWAP2 SWAP1 PUSH2 0x204D JUMP JUMPDEST PUSH1 0x40 MLOAD DUP1 SWAP2 SUB SWAP1 LOG2 STOP JUMPDEST PUSH0 PUSH0 REVERT JUMPDEST CALLVALUE DUP1 ISZERO PUSH2 0x268 JUMPI PUSH0 PUSH0 REVERT JUMPDEST POP PUSH2 0x283 PUSH1 0x4 DUP1 CALLDATASIZE SUB DUP2 ADD SWAP1 PUSH2 0x27E SWAP2 SWAP1 PUSH2 0x20B9 JUMP JUMPDEST PUSH2 0xA2F JUMP JUMPDEST STOP JUMPDEST CALLVALUE DUP1 ISZERO PUSH2 0x290 JUMPI PUSH0 PUSH0 REVERT JUMPDEST POP PUSH2 0x299 PUSH2 0xC28 JUMP JUMPDEST PUSH1 0x40 MLOAD PUSH2 0x2A6 SWAP2 SWAP1 PUSH2 0x20E4 JUMP JUMPDEST PUSH1 0x40 MLOAD DUP1 SWAP2 SUB SWAP1 RETURN JUMPDEST CALLVALUE DUP1 ISZERO PUSH2 0x2BA JUMPI PUSH0 PUSH0 REVERT JUMPDEST POP PUSH2 0x2C3 PUSH2 0xC2E JUMP JUMPDEST PUSH1 0x40 MLOAD PUSH2 0x2D0 SWAP2 SWAP1 PUSH2 0x20E4 JUMP JUMPDEST PUSH1 0x40 MLOAD DUP1 SWAP2 SUB SWAP1 RETURN JUMPDEST CALLVALUE DUP1 ISZERO PUSH2 0x2E4 JUMPI PUSH0 PUSH0 REVERT JUMPDEST POP PUSH2 0x2FF PUSH1 0x4 DUP1 CALLDATASIZE SUB DUP2 ADD SWAP1 PUSH2 0x2FA SWAP2 SWAP1 PUSH2 0x215E JUMP JUMPDEST PUSH2 0xC35 JUMP JUMPDEST STOP JUMPDEST CALLVALUE DUP1 ISZERO PUSH2 0x30C JUMPI PUSH0 PUSH0 REVERT JUMPDEST POP PUSH2 0x327 PUSH1 0x4 DUP1 CALLDATASIZE SUB DUP2 ADD SWAP1 PUSH2 0x322 SWAP2 SWAP1 PUSH2 0x2203 JUMP JUMPDEST PUSH2 0xD87 JUMP JUMPDEST PUSH1 0x40 MLOAD PUSH2 0x334 SWAP2 SWAP1 PUSH2 0x2248 JUMP JUMPDEST PUSH1 0x40 MLOAD DUP1 SWAP2 SUB SWAP1 RETURN JUMPDEST CALLVALUE DUP1 ISZERO PUSH2 0x348 JUMPI PUSH0 PUSH0 REVERT JUMPDEST POP PUSH2 0x363 PUSH1 0x4 DUP1 CALLDATASIZE SUB DUP2 ADD SWAP1 PUSH2 0x35E SWAP2 SWAP1 PUSH2 0x2203 JUMP JUMPDEST PUSH2 0xDD9 JUMP JUMPDEST PUSH1 0x40 MLOAD PUSH2 0x373 SWAP5 SWAP4 SWAP3 SWAP2 SWAP1 PUSH2 0x2261 JUMP JUMPDEST PUSH1 0x40 MLOAD DUP1 SWAP2 SUB SWAP1 RETURN JUMPDEST CALLVALUE DUP1 ISZERO PUSH2 0x387 JUMPI PUSH0 PUSH0 REVERT JUMPDEST POP PUSH2 0x390 PUSH2 0xE05 JUMP JUMPDEST PUSH1 0x40 MLOAD PUSH2 0x39D SWAP2 SWAP1 PUSH2 0x20E4 JUMP JUMPDEST PUSH1 0x40 MLOAD DUP1 SWAP2 SUB SWAP1 RETURN JUMPDEST CALLVALUE DUP1 ISZERO PUSH2 0x3B1 JUMPI PUSH0 PUSH0 REVERT JUMPDEST POP PUSH2 0x3CC PUSH1 0x4 DUP1 CALLDATASIZE SUB DUP2 ADD SWAP1 PUSH2 0x3C7 SWAP2 SWAP1 PUSH2 0x22F9 JUMP JUMPDEST PUSH2 0xE0B JUMP JUMPDEST STOP JUMPDEST CALLVALUE DUP1 ISZERO PUSH2 0x3D9 JUMPI PUSH0 PUSH0 REVERT JUMPDEST POP PUSH2 0x3E2 PUSH2 0xF1C JUMP JUMPDEST PUSH1 0x40 MLOAD PUSH2 0x3EF SWAP2 SWAP1 PUSH2 0x23A6 JUMP JUMPDEST PUSH1 0x40 MLOAD DUP1 SWAP2 SUB SWAP1 RETURN JUMPDEST CALLVALUE DUP1 ISZERO PUSH2 0x403 JUMPI PUSH0 PUSH0 REVERT JUMPDEST POP PUSH2 0x40C PUSH2 0xF98 JUMP JUMPDEST PUSH1 0x40 MLOAD PUSH2 0x419 SWAP2 SWAP1 PUSH2 0x23CE JUMP JUMPDEST PUSH1 0x40 MLOAD DUP1 SWAP2 SUB SWAP1 RETURN JUMPDEST CALLVALUE DUP1 ISZERO PUSH2 0x42D JUMPI PUSH0 PUSH0 REVERT JUMPDEST POP PUSH2 0x436 PUSH2 0xFBC JUMP JUMPDEST STOP JUMPDEST CALLVALUE DUP1 ISZERO PUSH2 0x443 JUMPI PUSH0 PUSH0 REVERT JUMPDEST POP PUSH2 0x45E PUSH1 0x4 DUP1 CALLDATASIZE SUB DUP2 ADD SWAP1 PUSH2 0x459 SWAP2 SWAP1 PUSH2 0x2203 JUMP JUMPDEST PUSH2 0x11AF JUMP JUMPDEST PUSH1 0x40 MLOAD PUSH2 0x46B SWAP2 SWAP1 PUSH2 0x248F JUMP JUMPDEST PUSH1 0x40 MLOAD DUP1 SWAP2 SUB SWAP1 RETURN JUMPDEST CALLVALUE DUP1 ISZERO PUSH2 0x47F JUMPI PUSH0 PUSH0 REVERT JUMPDEST POP PUSH2 0x49A PUSH1 0x4 DUP1 CALLDATASIZE SUB DUP2 ADD SWAP1 PUSH2 0x495 SWAP2 SWAP1 PUSH2 0x20B9 JUMP JUMPDEST PUSH2 0x1376 JUMP JUMPDEST PUSH1 0x40 MLOAD PUSH2 0x4A7 SWAP2 SWAP1 PUSH2 0x23CE JUMP JUMPDEST PUSH1 0x40 MLOAD DUP1 SWAP2 SUB SWAP1 RETURN JUMPDEST CALLVALUE DUP1 ISZERO PUSH2 0x4BB JUMPI PUSH0 PUSH0 REVERT JUMPDEST POP PUSH2 0x4C4 PUSH2 0x13B1 JUMP JUMPDEST PUSH1 0x40 MLOAD PUSH2 0x4D1 SWAP2 SWAP1 PUSH2 0x20E4 JUMP JUMPDEST PUSH1 0x40 MLOAD DUP1 SWAP2 SUB SWAP1 RETURN JUMPDEST PUSH2 0x4E2 PUSH2 0x13B7 JUMP JUMPDEST STOP JUMPDEST CALLVALUE DUP1 ISZERO PUSH2 0x4EF JUMPI PUSH0 PUSH0 REVERT JUMPDEST POP PUSH2 0x50A PUSH1 0x4 DUP1 CALLDATASIZE SUB DUP2 ADD SWAP1 PUSH2 0x505 SWAP2 SWAP1 PUSH2 0x20B9 JUMP JUMPDEST PUSH2 0x1460 JUMP JUMPDEST STOP JUMPDEST PUSH2 0x526 PUSH1 0x4 DUP1 CALLDATASIZE SUB DUP2 ADD SWAP1 PUSH2 0x521 SWAP2 SWAP1 PUSH2 0x22F9 JUMP JUMPDEST PUSH2 0x1526 JUMP JUMPDEST STOP JUMPDEST CALLVALUE DUP1 ISZERO PUSH2 0x533 JUMPI PUSH0 PUSH0 REVERT JUMPDEST POP PUSH2 0x53C PUSH2 0x160A JUMP JUMPDEST PUSH1 0x40 MLOAD PUSH2 0x54D SWAP6 SWAP5 SWAP4 SWAP3 SWAP2 SWAP1 PUSH2 0x24AF JUMP JUMPDEST PUSH1 0x40 MLOAD DUP1 SWAP2 SUB SWAP1 RETURN JUMPDEST CALLVALUE DUP1 ISZERO PUSH2 0x561 JUMPI PUSH0 PUSH0 REVERT JUMPDEST POP PUSH2 0x57C PUSH1 0x4 DUP1 CALLDATASIZE SUB DUP2 ADD SWAP1 PUSH2 0x577 SWAP2 SWAP1 PUSH2 0x2203 JUMP JUMPDEST PUSH2 0x1664 JUMP JUMPDEST PUSH1 0x40 MLOAD PUSH2 0x58C SWAP5 SWAP4 SWAP3 SWAP2 SWAP1 PUSH2 0x2261 JUMP JUMPDEST PUSH1 0x40 MLOAD DUP1 SWAP2 SUB SWAP1 RETURN JUMPDEST CALLVALUE DUP1 ISZERO PUSH2 0x5A0 JUMPI PUSH0 PUSH0 REVERT JUMPDEST POP PUSH2 0x5BB PUSH1 0x4 DUP1 CALLDATASIZE SUB DUP2 ADD SWAP1 PUSH2 0x5B6 SWAP2 SWAP1 PUSH2 0x2203 JUMP JUMPDEST PUSH2 0x16FD JUMP JUMPDEST STOP JUMPDEST CALLVALUE DUP1 ISZERO PUSH2 0x5C8 JUMPI PUSH0 PUSH0 REVERT JUMPDEST POP PUSH2 0x5D1 PUSH2 0x18A8 JUMP JUMPDEST PUSH1 0x40 MLOAD PUSH2 0x5DE SWAP2 SWAP1 PUSH2 0x20E4 JUMP JUMPDEST PUSH1 0x40 MLOAD DUP1 SWAP2 SUB SWAP1 RETURN JUMPDEST CALLVALUE DUP1 ISZERO PUSH2 0x5F2 JUMPI PUSH0 PUSH0 REVERT JUMPDEST POP PUSH2 0x60D PUSH1 0x4 DUP1 CALLDATASIZE SUB DUP2 ADD SWAP1 PUSH2 0x608 SWAP2 SWAP1 PUSH2 0x20B9 JUMP JUMPDEST PUSH2 0x18AE JUMP JUMPDEST PUSH1 0x40 MLOAD PUSH2 0x61A SWAP2 SWAP1 PUSH2 0x26BC JUMP JUMPDEST PUSH1 0x40 MLOAD DUP1 SWAP2 SUB SWAP1 RETURN JUMPDEST CALLVALUE DUP1 ISZERO PUSH2 0x62E JUMPI PUSH0 PUSH0 REVERT JUMPDEST POP PUSH2 0x637 PUSH2 0x1ABA JUMP JUMPDEST PUSH1 0x40 MLOAD PUSH2 0x644 SWAP2 SWAP1 PUSH2 0x20E4 JUMP JUMPDEST PUSH1 0x40 MLOAD DUP1 SWAP2 SUB SWAP1 RETURN JUMPDEST CALLVALUE DUP1 ISZERO PUSH2 0x658 JUMPI PUSH0 PUSH0 REVERT JUMPDEST POP PUSH2 0x673 PUSH1 0x4 DUP1 CALLDATASIZE SUB DUP2 ADD SWAP1 PUSH2 0x66E SWAP2 SWAP1 PUSH2 0x20B9 JUMP JUMPDEST PUSH2 0x1AC6 JUMP JUMPDEST PUSH1 0x40 MLOAD PUSH2 0x684 SWAP6 SWAP5 SWAP4 SWAP3 SWAP2 SWAP1 PUSH2 0x2714 JUMP JUMPDEST PUSH1 0x40 MLOAD DUP1 SWAP2 SUB SWAP1 RETURN JUMPDEST CALLVALUE DUP1 ISZERO PUSH2 0x698 JUMPI PUSH0 PUSH0 REVERT JUMPDEST POP PUSH2 0x6B3 PUSH1 0x4 DUP1 CALLDATASIZE SUB DUP2 ADD SWAP1 PUSH2 0x6AE SWAP2 SWAP1 PUSH2 0x20B9 JUMP JUMPDEST PUSH2 0x1C7F JUMP JUMPDEST PUSH1 0x40 MLOAD PUSH2 0x6C1 SWAP3 SWAP2 SWAP1 PUSH2 0x2814 JUMP JUMPDEST PUSH1 0x40 MLOAD DUP1 SWAP2 SUB SWAP1 RETURN JUMPDEST CALLVALUE DUP1 ISZERO PUSH2 0x6D5 JUMPI PUSH0 PUSH0 REVERT JUMPDEST POP PUSH2 0x6F0 PUSH1 0x4 DUP1 CALLDATASIZE SUB DUP2 ADD SWAP1 PUSH2 0x6EB SWAP2 SWAP1 PUSH2 0x20B9 JUMP JUMPDEST PUSH2 0x1E82 JUMP JUMPDEST PUSH1 0x40 MLOAD PUSH2 0x701 SWAP6 SWAP5 SWAP4 SWAP3 SWAP2 SWAP1 PUSH2 0x2714 JUMP JUMPDEST PUSH1 0x40 MLOAD DUP1 SWAP2 SUB SWAP1 RETURN JUMPDEST PUSH1 0x5 PUSH1 0x40 MLOAD DUP1 PUSH1 0xA0 ADD PUSH1 0x40 MSTORE DUP1 DUP7 PUSH20 0xFFFFFFFFFFFFFFFFFFFFFFFFFFFFFFFFFFFFFFFF AND DUP2 MSTORE PUSH1 0x20 ADD DUP6 DUP2 MSTORE PUSH1 0x20 ADD TIMESTAMP DUP2 MSTORE PUSH1 0x20 ADD DUP5 DUP2 MSTORE PUSH1 0x20 ADD DUP4 ISZERO ISZERO DUP2 MSTORE POP SWAP1 DUP1 PUSH1 0x1 DUP2 SLOAD ADD DUP1 DUP3 SSTORE DUP1 SWAP2 POP POP PUSH1 0x1 SWAP1 SUB SWAP1 PUSH0 MSTORE PUSH1 0x20 PUSH0 KECCAK256 SWAP1 PUSH1 0x5 MUL ADD PUSH0 SWAP1 SWAP2 SWAP1 SWAP2 SWAP1 SWAP2 POP PUSH0 DUP3 ADD MLOAD DUP2 PUSH0 ADD PUSH0 PUSH2 0x100 EXP DUP2 SLOAD DUP2 PUSH20 0xFFFFFFFFFFFFFFFFFFFFFFFFFFFFFFFFFFFFFFFF MUL NOT AND SWAP1 DUP4 PUSH20 0xFFFFFFFFFFFFFFFFFFFFFFFFFFFFFFFFFFFFFFFF AND MUL OR SWAP1 SSTORE POP PUSH1 0x20 DUP3 ADD MLOAD DUP2 PUSH1 0x1 ADD SSTORE PUSH1 0x40 DUP3 ADD MLOAD DUP2 PUSH1 0x2 ADD SSTORE PUSH1 0x60 DUP3 ADD MLOAD DUP2 PUSH1 0x3 ADD SWAP1 DUP2 PUSH2 0x7DE SWAP2 SWAP1 PUSH2 0x2A73 JUMP JUMPDEST POP PUSH1 0x80 DUP3 ADD MLOAD DUP2 PUSH1 0x4 ADD PUSH0 PUSH2 0x100 EXP DUP2 SLOAD DUP2 PUSH1 0xFF MUL NOT AND SWAP1 DUP4 ISZERO ISZERO MUL OR SWAP1 SSTORE POP POP POP DUP1 ISZERO PUSH2 0x874 JUMPI DUP3 PUSH1 0x6 PUSH0 DUP7 PUSH20 0xFFFFFFFFFFFFFFFFFFFFFFFFFFFFFFFFFFFFFFFF AND PUSH20 0xFFFFFFFFFFFFFFFFFFFFFFFFFFFFFFFFFFFFFFFF AND DUP2 MSTORE PUSH1 0x20 ADD SWAP1 DUP2 MSTORE PUSH1 0x20 ADD PUSH0 KECCAK256 PUSH0 ADD PUSH0 DUP3 DUP3 SLOAD PUSH2 0x854 SWAP2 SWAP1 PUSH2 0x2B6F JUMP JUMPDEST SWAP3 POP POP DUP2 SWAP1 SSTORE POP DUP3 PUSH1 0x1 PUSH0 DUP3 DUP3 SLOAD PUSH2 0x86C SWAP2 SWAP1 PUSH2 0x2B6F JUMP JUMPDEST SWAP3 POP POP DUP2 SWAP1 SSTORE POP JUMPDEST PUSH1 0x6 PUSH0 DUP6 PUSH20 0xFFFFFFFFFFFFFFFFFFFFFFFFFFFFFFFFFFFFFFFF AND PUSH20 0xFFFFFFFFFFFFFFFFFFFFFFFFFFFFFFFFFFFFFFFF AND DUP2 MSTORE PUSH1 0x20 ADD SWAP1 DUP2 MSTORE PUSH1 0x20 ADD PUSH0 KECCAK256 PUSH1 0x1 ADD PUSH0 DUP2 SLOAD DUP1 SWAP3 SWAP2 SWAP1 PUSH2 0x8C4 SWAP1 PUSH2 0x2BA2 JUMP JUMPDEST SWAP2 SWAP1 POP SSTORE POP TIMESTAMP PUSH1 0x6 PUSH0 DUP7 PUSH20 0xFFFFFFFFFFFFFFFFFFFFFFFFFFFFFFFFFFFFFFFF AND PUSH20 0xFFFFFFFFFFFFFFFFFFFFFFFFFFFFFFFFFFFFFFFF AND DUP2 MSTORE PUSH1 0x20 ADD SWAP1 DUP2 MSTORE PUSH1 0x20 ADD PUSH0 KECCAK256 PUSH1 0x3 ADD DUP2 SWAP1 SSTORE POP PUSH1 0x2 PUSH0 DUP2 SLOAD DUP1 SWAP3 SWAP2 SWAP1 PUSH2 0x920 SWAP1 PUSH2 0x2BA2 JUMP JUMPDEST SWAP2 SWAP1 POP SSTORE POP PUSH1 0x8 PUSH0 DUP6 PUSH20 0xFFFFFFFFFFFFFFFFFFFFFFFFFFFFFFFFFFFFFFFF AND PUSH20 0xFFFFFFFFFFFFFFFFFFFFFFFFFFFFFFFFFFFFFFFF AND DUP2 MSTORE PUSH1 0x20 ADD SWAP1 DUP2 MSTORE PUSH1 0x20 ADD PUSH0 KECCAK256 PUSH0 SWAP1 SLOAD SWAP1 PUSH2 0x100 EXP SWAP1 DIV PUSH1 0xFF AND PUSH2 0xA29 JUMPI PUSH1 0x7 DUP5 SWAP1 DUP1 PUSH1 0x1 DUP2 SLOAD ADD DUP1 DUP3 SSTORE DUP1 SWAP2 POP POP PUSH1 0x1 SWAP1 SUB SWAP1 PUSH0 MSTORE PUSH1 0x20 PUSH0 KECCAK256 ADD PUSH0 SWAP1 SWAP2 SWAP1 SWAP2 SWAP1 SWAP2 PUSH2 0x100 EXP DUP2 SLOAD DUP2 PUSH20 0xFFFFFFFFFFFFFFFFFFFFFFFFFFFFFFFFFFFFFFFF MUL NOT AND SWAP1 DUP4 PUSH20 0xFFFFFFFFFFFFFFFFFFFFFFFFFFFFFFFFFFFFFFFF AND MUL OR SWAP1 SSTORE POP PUSH1 0x1 PUSH1 0x8 PUSH0 DUP7 PUSH20 0xFFFFFFFFFFFFFFFFFFFFFFFFFFFFFFFFFFFFFFFF AND PUSH20 0xFFFFFFFFFFFFFFFFFFFFFFFFFFFFFFFFFFFFFFFF AND DUP2 MSTORE PUSH1 0x20 ADD SWAP1 DUP2 MSTORE PUSH1 0x20 ADD PUSH0 KECCAK256 PUSH0 PUSH2 0x100 EXP DUP2 SLOAD DUP2 PUSH1 0xFF MUL NOT AND SWAP1 DUP4 ISZERO ISZERO MUL OR SWAP1 SSTORE POP JUMPDEST POP POP POP POP JUMP JUMPDEST PUSH0 PUSH0 SWAP1 SLOAD SWAP1 PUSH2 0x100 EXP SWAP1 DIV PUSH20 0xFFFFFFFFFFFFFFFFFFFFFFFFFFFFFFFFFFFFFFFF AND PUSH20 0xFFFFFFFFFFFFFFFFFFFFFFFFFFFFFFFFFFFFFFFF AND CALLER PUSH20 0xFFFFFFFFFFFFFFFFFFFFFFFFFFFFFFFFFFFFFFFF AND EQ PUSH2 0xAB4 JUMPI PUSH1 0x40 MLOAD PUSH32 0x5E5A974900000000000000000000000000000000000000000000000000000000 DUP2 MSTORE PUSH1 0x4 ADD PUSH1 0x40 MLOAD DUP1 SWAP2 SUB SWAP1 REVERT JUMPDEST SELFBALANCE DUP2 GT ISZERO PUSH2 0xAF7 JUMPI PUSH1 0x40 MLOAD PUSH32 0x8C379A000000000000000000000000000000000000000000000000000000000 DUP2 MSTORE PUSH1 0x4 ADD PUSH2 0xAEE SWAP1 PUSH2 0x2C33 JUMP JUMPDEST PUSH1 0x40 MLOAD DUP1 SWAP2 SUB SWAP1 REVERT JUMPDEST PUSH0 PUSH0 PUSH0 SWAP1 SLOAD SWAP1 PUSH2 0x100 EXP SWAP1 DIV PUSH20 0xFFFFFFFFFFFFFFFFFFFFFFFFFFFFFFFFFFFFFFFF AND PUSH20 0xFFFFFFFFFFFFFFFFFFFFFFFFFFFFFFFFFFFFFFFF AND DUP3 PUSH1 0x40 MLOAD PUSH2 0xB3C SWAP1 PUSH2 0x2C7E JUMP JUMPDEST PUSH0 PUSH1 0x40 MLOAD DUP1 DUP4 SUB DUP2 DUP6 DUP8 GAS CALL SWAP3 POP POP POP RETURNDATASIZE DUP1 PUSH0 DUP2 EQ PUSH2 0xB76 JUMPI PUSH1 0x40 MLOAD SWAP2 POP PUSH1 0x1F NOT PUSH1 0x3F RETURNDATASIZE ADD AND DUP3 ADD PUSH1 0x40 MSTORE RETURNDATASIZE DUP3 MSTORE RETURNDATASIZE PUSH0 PUSH1 0x20 DUP5 ADD RETURNDATACOPY PUSH2 0xB7B JUMP JUMPDEST PUSH1 0x60 SWAP2 POP JUMPDEST POP POP SWAP1 POP DUP1 PUSH2 0xBB6 JUMPI PUSH1 0x40 MLOAD PUSH32 0x27FCD9D100000000000000000000000000000000000000000000000000000000 DUP2 MSTORE PUSH1 0x4 ADD PUSH1 0x40 MLOAD DUP1 SWAP2 SUB SWAP1 REVERT JUMPDEST PUSH0 PUSH0 SWAP1 SLOAD SWAP1 PUSH2 0x100 EXP SWAP1 DIV PUSH20 0xFFFFFFFFFFFFFFFFFFFFFFFFFFFFFFFFFFFFFFFF AND PUSH20 0xFFFFFFFFFFFFFFFFFFFFFFFFFFFFFFFFFFFFFFFF AND PUSH32 0xEAFF4B37086828766AD3268786972C0CD24259D4C87A80F9D3963A3C3D999B0D DUP4 PUSH1 0x40 MLOAD PUSH2 0xC1C SWAP2 SWAP1 PUSH2 0x20E4 JUMP JUMPDEST PUSH1 0x40 MLOAD DUP1 SWAP2 SUB SWAP1 LOG2 POP POP JUMP JUMPDEST PUSH1 0x3 SLOAD DUP2 JUMP JUMPDEST PUSH0 SELFBALANCE SWAP1 POP SWAP1 JUMP JUMPDEST PUSH0 PUSH0 SWAP1 POP JUMPDEST DUP3 DUP3 SWAP1 POP DUP2 LT ISZERO PUSH2 0xCDB JUMPI PUSH2 0xCB7 CALLER PUSH0 DUP6 DUP6 DUP6 DUP2 DUP2 LT PUSH2 0xC5D JUMPI PUSH2 0xC5C PUSH2 0x2C92 JUMP JUMPDEST JUMPDEST SWAP1 POP PUSH1 0x20 MUL DUP2 ADD SWAP1 PUSH2 0xC6F SWAP2 SWAP1 PUSH2 0x2CCB JUMP JUMPDEST DUP1 DUP1 PUSH1 0x1F ADD PUSH1 0x20 DUP1 SWAP2 DIV MUL PUSH1 0x20 ADD PUSH1 0x40 MLOAD SWAP1 DUP2 ADD PUSH1 0x40 MSTORE DUP1 SWAP4 SWAP3 SWAP2 SWAP1 DUP2 DUP2 MSTORE PUSH1 0x20 ADD DUP4 DUP4 DUP1 DUP3 DUP5 CALLDATACOPY PUSH0 DUP2 DUP5 ADD MSTORE PUSH1 0x1F NOT PUSH1 0x1F DUP3 ADD AND SWAP1 POP DUP1 DUP4 ADD SWAP3 POP POP POP POP POP POP POP PUSH0 PUSH2 0x70A JUMP JUMPDEST PUSH1 0x3 PUSH0 DUP2 SLOAD DUP1 SWAP3 SWAP2 SWAP1 PUSH2 0xCC9 SWAP1 PUSH2 0x2BA2 JUMP JUMPDEST SWAP2 SWAP1 POP SSTORE POP DUP1 DUP1 PUSH1 0x1 ADD SWAP2 POP POP PUSH2 0xC3A JUMP JUMPDEST POP DUP2 DUP2 SWAP1 POP PUSH1 0x6 PUSH0 CALLER PUSH20 0xFFFFFFFFFFFFFFFFFFFFFFFFFFFFFFFFFFFFFFFF AND PUSH20 0xFFFFFFFFFFFFFFFFFFFFFFFFFFFFFFFFFFFFFFFF AND DUP2 MSTORE PUSH1 0x20 ADD SWAP1 DUP2 MSTORE PUSH1 0x20 ADD PUSH0 KECCAK256 PUSH1 0x2 ADD PUSH0 DUP3 DUP3 SLOAD PUSH2 0xD2E SWAP2 SWAP1 PUSH2 0x2B6F JUMP JUMPDEST SWAP3 POP POP DUP2 SWAP1 SSTORE POP CALLER PUSH20 0xFFFFFFFFFFFFFFFFFFFFFFFFFFFFFFFFFFFFFFFF AND PUSH32 0xD81D215722DF92BB1877AD02BF864901BCE7056F3548A858AD53B68AD531848C TIMESTAMP PUSH1 0x40 MLOAD PUSH2 0xD7B SWAP2 SWAP1 PUSH2 0x2D77 JUMP JUMPDEST PUSH1 0x40 MLOAD DUP1 SWAP2 SUB SWAP1 LOG2 POP POP JUMP JUMPDEST PUSH0 PUSH1 0x8 PUSH0 DUP4 PUSH20 0xFFFFFFFFFFFFFFFFFFFFFFFFFFFFFFFFFFFFFFFF AND PUSH20 0xFFFFFFFFFFFFFFFFFFFFFFFFFFFFFFFFFFFFFFFF AND DUP2 MSTORE PUSH1 0x20 ADD SWAP1 DUP2 MSTORE PUSH1 0x20 ADD PUSH0 KECCAK256 PUSH0 SWAP1 SLOAD SWAP1 PUSH2 0x100 EXP SWAP1 DIV PUSH1 0xFF AND SWAP1 POP SWAP2 SWAP1 POP JUMP JUMPDEST PUSH1 0x6 PUSH1 0x20 MSTORE DUP1 PUSH0 MSTORE PUSH1 0x40 PUSH0 KECCAK256 PUSH0 SWAP2 POP SWAP1 POP DUP1 PUSH0 ADD SLOAD SWAP1 DUP1 PUSH1 0x1 ADD SLOAD SWAP1 DUP1 PUSH1 0x2 ADD SLOAD SWAP1 DUP1 PUSH1 0x3 ADD SLOAD SWAP1 POP DUP5 JUMP JUMPDEST PUSH1 0x4 SLOAD DUP2 JUMP JUMPDEST PUSH2 0xE5A CALLER PUSH0 DUP5 DUP5 DUP1 DUP1 PUSH1 0x1F ADD PUSH1 0x20 DUP1 SWAP2 DIV MUL PUSH1 0x20 ADD PUSH1 0x40 MLOAD SWAP1 DUP2 ADD PUSH1 0x40 MSTORE DUP1 SWAP4 SWAP3 SWAP2 SWAP1 DUP2 DUP2 MSTORE PUSH1 0x20 ADD DUP4 DUP4 DUP1 DUP3 DUP5 CALLDATACOPY PUSH0 DUP2 DUP5 ADD MSTORE PUSH1 0x1F NOT PUSH1 0x1F DUP3 ADD AND SWAP1 POP DUP1 DUP4 ADD SWAP3 POP POP POP POP POP POP POP PUSH0 PUSH2 0x70A JUMP JUMPDEST PUSH1 0x6 PUSH0 CALLER PUSH20 0xFFFFFFFFFFFFFFFFFFFFFFFFFFFFFFFFFFFFFFFF AND PUSH20 0xFFFFFFFFFFFFFFFFFFFFFFFFFFFFFFFFFFFFFFFF AND DUP2 MSTORE PUSH1 0x20 ADD SWAP1 DUP2 MSTORE PUSH1 0x20 ADD PUSH0 KECCAK256 PUSH1 0x2 ADD PUSH0 DUP2 SLOAD DUP1 SWAP3 SWAP2 SWAP1 PUSH2 0xEAA SWAP1 PUSH2 0x2BA2 JUMP JUMPDEST SWAP2 SWAP1 POP SSTORE POP PUSH1 0x3 PUSH0 DUP2 SLOAD DUP1 SWAP3 SWAP2 SWAP1 PUSH2 0xEC1 SWAP1 PUSH2 0x2BA2 JUMP JUMPDEST SWAP2 SWAP1 POP SSTORE POP CALLER PUSH20 0xFFFFFFFFFFFFFFFFFFFFFFFFFFFFFFFFFFFFFFFF AND PUSH32 0xD81D215722DF92BB1877AD02BF864901BCE7056F3548A858AD53B68AD531848C TIMESTAMP DUP5 DUP5 PUSH1 0x40 MLOAD PUSH2 0xF10 SWAP4 SWAP3 SWAP2 SWAP1 PUSH2 0x2DDD JUMP JUMPDEST PUSH1 0x40 MLOAD DUP1 SWAP2 SUB SWAP1 LOG2 POP POP JUMP JUMPDEST PUSH2 0xF24 PUSH2 0x1F74 JUMP JUMPDEST PUSH1 0x6 PUSH0 CALLER PUSH20 0xFFFFFFFFFFFFFFFFFFFFFFFFFFFFFFFFFFFFFFFF AND PUSH20 0xFFFFFFFFFFFFFFFFFFFFFFFFFFFFFFFFFFFFFFFF AND DUP2 MSTORE PUSH1 0x20 ADD SWAP1 DUP2 MSTORE PUSH1 0x20 ADD PUSH0 KECCAK256 PUSH1 0x40 MLOAD DUP1 PUSH1 0x80 ADD PUSH1 0x40 MSTORE SWAP1 DUP2 PUSH0 DUP3 ADD SLOAD DUP2 MSTORE PUSH1 0x20 ADD PUSH1 0x1 DUP3 ADD SLOAD DUP2 MSTORE PUSH1 0x20 ADD PUSH1 0x2 DUP3 ADD SLOAD DUP2 MSTORE PUSH1 0x20 ADD PUSH1 0x3 DUP3 ADD SLOAD DUP2 MSTORE POP POP SWAP1 POP SWAP1 JUMP JUMPDEST PUSH0 PUSH0 SWAP1 SLOAD SWAP1 PUSH2 0x100 EXP SWAP1 DIV PUSH20 0xFFFFFFFFFFFFFFFFFFFFFFFFFFFFFFFFFFFFFFFF AND DUP2 JUMP JUMPDEST PUSH0 PUSH0 SWAP1 SLOAD SWAP1 PUSH2 0x100 EXP SWAP1 DIV PUSH20 0xFFFFFFFFFFFFFFFFFFFFFFFFFFFFFFFFFFFFFFFF AND PUSH20 0xFFFFFFFFFFFFFFFFFFFFFFFFFFFFFFFFFFFFFFFF AND CALLER PUSH20 0xFFFFFFFFFFFFFFFFFFFFFFFFFFFFFFFFFFFFFFFF AND EQ PUSH2 0x1041 JUMPI PUSH1 0x40 MLOAD PUSH32 0x5E5A974900000000000000000000000000000000000000000000000000000000 DUP2 MSTORE PUSH1 0x4 ADD PUSH1 0x40 MLOAD DUP1 SWAP2 SUB SWAP1 REVERT JUMPDEST PUSH0 SELFBALANCE SWAP1 POP PUSH0 DUP2 SUB PUSH2 0x107E JUMPI PUSH1 0x40 MLOAD PUSH32 0x67E3990D00000000000000000000000000000000000000000000000000000000 DUP2 MSTORE PUSH1 0x4 ADD PUSH1 0x40 MLOAD DUP1 SWAP2 SUB SWAP1 REVERT JUMPDEST PUSH0 PUSH0 PUSH0 SWAP1 SLOAD SWAP1 PUSH2 0x100 EXP SWAP1 DIV PUSH20 0xFFFFFFFFFFFFFFFFFFFFFFFFFFFFFFFFFFFFFFFF AND PUSH20 0xFFFFFFFFFFFFFFFFFFFFFFFFFFFFFFFFFFFFFFFF AND DUP3 PUSH1 0x40 MLOAD PUSH2 0x10C3 SWAP1 PUSH2 0x2C7E JUMP JUMPDEST PUSH0 PUSH1 0x40 MLOAD DUP1 DUP4 SUB DUP2 DUP6 DUP8 GAS CALL SWAP3 POP POP POP RETURNDATASIZE DUP1 PUSH0 DUP2 EQ PUSH2 0x10FD JUMPI PUSH1 0x40 MLOAD SWAP2 POP PUSH1 0x1F NOT PUSH1 0x3F RETURNDATASIZE ADD AND DUP3 ADD PUSH1 0x40 MSTORE RETURNDATASIZE DUP3 MSTORE RETURNDATASIZE PUSH0 PUSH1 0x20 DUP5 ADD RETURNDATACOPY PUSH2 0x1102 JUMP JUMPDEST PUSH1 0x60 SWAP2 POP JUMPDEST POP POP SWAP1 POP DUP1 PUSH2 0x113D JUMPI PUSH1 0x40 MLOAD PUSH32 0x27FCD9D100000000000000000000000000000000000000000000000000000000 DUP2 MSTORE PUSH1 0x4 ADD PUSH1 0x40 MLOAD DUP1 SWAP2 SUB SWAP1 REVERT JUMPDEST PUSH0 PUSH0 SWAP1 SLOAD SWAP1 PUSH2 0x100 EXP SWAP1 DIV PUSH20 0xFFFFFFFFFFFFFFFFFFFFFFFFFFFFFFFFFFFFFFFF AND PUSH20 0xFFFFFFFFFFFFFFFFFFFFFFFFFFFFFFFFFFFFFFFF AND PUSH32 0xEAFF4B37086828766AD3268786972C0CD24259D4C87A80F9D3963A3C3D999B0D DUP4 PUSH1 0x40 MLOAD PUSH2 0x11A3 SWAP2 SWAP1 PUSH2 0x20E4 JUMP JUMPDEST PUSH1 0x40 MLOAD DUP1 SWAP2 SUB SWAP1 LOG2 POP POP JUMP JUMPDEST PUSH1 0x60 PUSH0 PUSH0 SWAP1 POP PUSH0 PUSH0 SWAP1 POP JUMPDEST PUSH1 0x5 DUP1 SLOAD SWAP1 POP DUP2 LT ISZERO PUSH2 0x1257 JUMPI DUP4 PUSH20 0xFFFFFFFFFFFFFFFFFFFFFFFFFFFFFFFFFFFFFFFF AND PUSH1 0x5 DUP3 DUP2 SLOAD DUP2 LT PUSH2 0x11F2 JUMPI PUSH2 0x11F1 PUSH2 0x2C92 JUMP JUMPDEST JUMPDEST SWAP1 PUSH0 MSTORE PUSH1 0x20 PUSH0 KECCAK256 SWAP1 PUSH1 0x5 MUL ADD PUSH0 ADD PUSH0 SWAP1 SLOAD SWAP1 PUSH2 0x100 EXP SWAP1 DIV PUSH20 0xFFFFFFFFFFFFFFFFFFFFFFFFFFFFFFFFFFFFFFFF AND PUSH20 0xFFFFFFFFFFFFFFFFFFFFFFFFFFFFFFFFFFFFFFFF AND SUB PUSH2 0x124A JUMPI DUP2 DUP1 PUSH2 0x1246 SWAP1 PUSH2 0x2BA2 JUMP JUMPDEST SWAP3 POP POP JUMPDEST DUP1 DUP1 PUSH1 0x1 ADD SWAP2 POP POP PUSH2 0x11BA JUMP JUMPDEST POP PUSH0 DUP2 PUSH8 0xFFFFFFFFFFFFFFFF DUP2 GT ISZERO PUSH2 0x1273 JUMPI PUSH2 0x1272 PUSH2 0x2849 JUMP JUMPDEST JUMPDEST PUSH1 0x40 MLOAD SWAP1 DUP1 DUP3 MSTORE DUP1 PUSH1 0x20 MUL PUSH1 0x20 ADD DUP3 ADD PUSH1 0x40 MSTORE DUP1 ISZERO PUSH2 0x12A1 JUMPI DUP2 PUSH1 0x20 ADD PUSH1 0x20 DUP3 MUL DUP1 CALLDATASIZE DUP4 CALLDATACOPY DUP1 DUP3 ADD SWAP2 POP POP SWAP1 POP JUMPDEST POP SWAP1 POP PUSH0 PUSH0 SWAP1 POP PUSH0 PUSH0 SWAP1 POP JUMPDEST PUSH1 0x5 DUP1 SLOAD SWAP1 POP DUP2 LT ISZERO PUSH2 0x136A JUMPI DUP6 PUSH20 0xFFFFFFFFFFFFFFFFFFFFFFFFFFFFFFFFFFFFFFFF AND PUSH1 0x5 DUP3 DUP2 SLOAD DUP2 LT PUSH2 0x12E5 JUMPI PUSH2 0x12E4 PUSH2 0x2C92 JUMP JUMPDEST JUMPDEST SWAP1 PUSH0 MSTORE PUSH1 0x20 PUSH0 KECCAK256 SWAP1 PUSH1 0x5 MUL ADD PUSH0 ADD PUSH0 SWAP1 SLOAD SWAP1 PUSH2 0x100 EXP SWAP1 DIV PUSH20 0xFFFFFFFFFFFFFFFFFFFFFFFFFFFFFFFFFFFFFFFF AND PUSH20 0xFFFFFFFFFFFFFFFFFFFFFFFFFFFFFFFFFFFFFFFF AND SUB PUSH2 0x135D JUMPI DUP1 DUP4 DUP4 DUP2 MLOAD DUP2 LT PUSH2 0x1342 JUMPI PUSH2 0x1341 PUSH2 0x2C92 JUMP JUMPDEST JUMPDEST PUSH1 0x20 MUL PUSH1 0x20 ADD ADD DUP2 DUP2 MSTORE POP POP DUP2 DUP1 PUSH2 0x1359 SWAP1 PUSH2 0x2BA2 JUMP JUMPDEST SWAP3 POP POP JUMPDEST DUP1 DUP1 PUSH1 0x1 ADD SWAP2 POP POP PUSH2 0x12AD JUMP JUMPDEST POP DUP2 SWAP4 POP POP POP POP SWAP2 SWAP1 POP JUMP JUMPDEST PUSH1 0x7 DUP2 DUP2 SLOAD DUP2 LT PUSH2 0x1385 JUMPI PUSH0 DUP1 REVERT JUMPDEST SWAP1 PUSH0 MSTORE PUSH1 0x20 PUSH0 KECCAK256 ADD PUSH0 SWAP2 POP SLOAD SWAP1 PUSH2 0x100 EXP SWAP1 DIV PUSH20 0xFFFFFFFFFFFFFFFFFFFFFFFFFFFFFFFFFFFFFFFF AND DUP2 JUMP JUMPDEST PUSH1 0x1 SLOAD DUP2 JUMP JUMPDEST PUSH1 0x4 SLOAD CALLVALUE LT ISZERO PUSH2 0x13F3 JUMPI PUSH1 0x40 MLOAD PUSH32 0x6A10CCC900000000000000000000000000000000000000000000000000000000 DUP2 MSTORE PUSH1 0x4 ADD PUSH1 0x40 MLOAD DUP1 SWAP2 SUB SWAP1 REVERT JUMPDEST PUSH2 0x140E CALLER CALLVALUE PUSH1 0x40 MLOAD DUP1 PUSH1 0x20 ADD PUSH1 0x40 MSTORE DUP1 PUSH0 DUP2 MSTORE POP PUSH1 0x1 PUSH2 0x70A JUMP JUMPDEST CALLER PUSH20 0xFFFFFFFFFFFFFFFFFFFFFFFFFFFFFFFFFFFFFFFF AND PUSH32 0xF041A5BFEA1BE2E3F78BBADFADC66BB6F6D62860E629A44D71BEC1EF49411C9E CALLVALUE TIMESTAMP PUSH1 0x40 MLOAD PUSH2 0x1456 SWAP3 SWAP2 SWAP1 PUSH2 0x2E2D JUMP JUMPDEST PUSH1 0x40 MLOAD DUP1 SWAP2 SUB SWAP1 LOG2 JUMP JUMPDEST PUSH0 PUSH0 SWAP1 SLOAD SWAP1 PUSH2 0x100 EXP SWAP1 DIV PUSH20 0xFFFFFFFFFFFFFFFFFFFFFFFFFFFFFFFFFFFFFFFF AND PUSH20 0xFFFFFFFFFFFFFFFFFFFFFFFFFFFFFFFFFFFFFFFF AND CALLER PUSH20 0xFFFFFFFFFFFFFFFFFFFFFFFFFFFFFFFFFFFFFFFF AND EQ PUSH2 0x14E5 JUMPI PUSH1 0x40 MLOAD PUSH32 0x5E5A974900000000000000000000000000000000000000000000000000000000 DUP2 MSTORE PUSH1 0x4 ADD PUSH1 0x40 MLOAD DUP1 SWAP2 SUB SWAP1 REVERT JUMPDEST DUP1 PUSH1 0x4 DUP2 SWAP1 SSTORE POP PUSH32 0xE07E4D9C719D73EC9FF422C869C07437BFBEA9B818345F73EEA7F983D57B6902 DUP2 PUSH1 0x40 MLOAD PUSH2 0x151B SWAP2 SWAP1 PUSH2 0x20E4 JUMP JUMPDEST PUSH1 0x40 MLOAD DUP1 SWAP2 SUB SWAP1 LOG1 POP JUMP JUMPDEST PUSH1 0x4 SLOAD CALLVALUE LT ISZERO PUSH2 0x1562 JUMPI PUSH1 0x40 MLOAD PUSH32 0x6A10CCC900000000000000000000000000000000000000000000000000000000 DUP2 MSTORE PUSH1 0x4 ADD PUSH1 0x40 MLOAD DUP1 SWAP2 SUB SWAP1 REVERT JUMPDEST PUSH2 0x15B2 CALLER CALLVALUE DUP5 DUP5 DUP1 DUP1 PUSH1 0x1F ADD PUSH1 0x20 DUP1 SWAP2 DIV MUL PUSH1 0x20 ADD PUSH1 0x40 MLOAD SWAP1 DUP2 ADD PUSH1 0x40 MSTORE DUP1 SWAP4 SWAP3 SWAP2 SWAP1 DUP2 DUP2 MSTORE PUSH1 0x20 ADD DUP4 DUP4 DUP1 DUP3 DUP5 CALLDATACOPY PUSH0 DUP2 DUP5 ADD MSTORE PUSH1 0x1F NOT PUSH1 0x1F DUP3 ADD AND SWAP1 POP DUP1 DUP4 ADD SWAP3 POP POP POP POP POP POP POP PUSH1 0x1 PUSH2 0x70A JUMP JUMPDEST CALLER PUSH20 0xFFFFFFFFFFFFFFFFFFFFFFFFFFFFFFFFFFFFFFFF AND PUSH32 0xF041A5BFEA1BE2E3F78BBADFADC66BB6F6D62860E629A44D71BEC1EF49411C9E CALLVALUE TIMESTAMP DUP6 DUP6 PUSH1 0x40 MLOAD PUSH2 0x15FE SWAP5 SWAP4 SWAP3 SWAP2 SWAP1 PUSH2 0x2E67 JUMP JUMPDEST PUSH1 0x40 MLOAD DUP1 SWAP2 SUB SWAP1 LOG2 POP POP JUMP JUMPDEST PUSH0 PUSH0 PUSH0 PUSH0 PUSH0 PUSH0 PUSH1 0x3 SLOAD PUSH1 0x2 SLOAD PUSH2 0x1620 SWAP2 SWAP1 PUSH2 0x2EA5 JUMP JUMPDEST SWAP1 POP PUSH0 PUSH0 DUP3 GT PUSH2 0x1630 JUMPI PUSH0 PUSH2 0x163F JUMP JUMPDEST DUP2 PUSH1 0x1 SLOAD PUSH2 0x163E SWAP2 SWAP1 PUSH2 0x2F05 JUMP JUMPDEST JUMPDEST SWAP1 POP PUSH1 0x1 SLOAD PUSH1 0x2 SLOAD PUSH1 0x3 SLOAD PUSH1 0x7 DUP1 SLOAD SWAP1 POP DUP5 SWAP7 POP SWAP7 POP SWAP7 POP SWAP7 POP SWAP7 POP POP POP SWAP1 SWAP2 SWAP3 SWAP4 SWAP5 JUMP JUMPDEST PUSH0 PUSH0 PUSH0 PUSH0 PUSH0 PUSH1 0x6 PUSH0 DUP8 PUSH20 0xFFFFFFFFFFFFFFFFFFFFFFFFFFFFFFFFFFFFFFFF AND PUSH20 0xFFFFFFFFFFFFFFFFFFFFFFFFFFFFFFFFFFFFFFFF AND DUP2 MSTORE PUSH1 0x20 ADD SWAP1 DUP2 MSTORE PUSH1 0x20 ADD PUSH0 KECCAK256 PUSH1 0x40 MLOAD DUP1 PUSH1 0x80 ADD PUSH1 0x40 MSTORE SWAP1 DUP2 PUSH0 DUP3 ADD SLOAD DUP2 MSTORE PUSH1 0x20 ADD PUSH1 0x1 DUP3 ADD SLOAD DUP2 MSTORE PUSH1 0x20 ADD PUSH1 0x2 DUP3 ADD SLOAD DUP2 MSTORE PUSH1 0x20 ADD PUSH1 0x3 DUP3 ADD SLOAD DUP2 MSTORE POP POP SWAP1 POP DUP1 PUSH0 ADD MLOAD DUP2 PUSH1 0x20 ADD MLOAD DUP3 PUSH1 0x40 ADD MLOAD DUP4 PUSH1 0x60 ADD MLOAD SWAP5 POP SWAP5 POP SWAP5 POP SWAP5 POP POP SWAP2 SWAP4 POP SWAP2 SWAP4 JUMP JUMPDEST PUSH0 PUSH0 SWAP1 SLOAD SWAP1 PUSH2 0x100 EXP SWAP1 DIV PUSH20 0xFFFFFFFFFFFFFFFFFFFFFFFFFFFFFFFFFFFFFFFF AND PUSH20 0xFFFFFFFFFFFFFFFFFFFFFFFFFFFFFFFFFFFFFFFF AND CALLER PUSH20 0xFFFFFFFFFFFFFFFFFFFFFFFFFFFFFFFFFFFFFFFF AND EQ PUSH2 0x1782 JUMPI PUSH1 0x40 MLOAD PUSH32 0x5E5A974900000000000000000000000000000000000000000000000000000000 DUP2 MSTORE PUSH1 0x4 ADD PUSH1 0x40 MLOAD DUP1 SWAP2 SUB SWAP1 REVERT JUMPDEST PUSH0 PUSH20 0xFFFFFFFFFFFFFFFFFFFFFFFFFFFFFFFFFFFFFFFF AND DUP2 PUSH20 0xFFFFFFFFFFFFFFFFFFFFFFFFFFFFFFFFFFFFFFFF AND SUB PUSH2 0x17E7 JUMPI PUSH1 0x40 MLOAD PUSH32 0xE6C4247B00000000000000000000000000000000000000000000000000000000 DUP2 MSTORE PUSH1 0x4 ADD PUSH1 0x40 MLOAD DUP1 SWAP2 SUB SWAP1 REVERT JUMPDEST PUSH0 PUSH0 PUSH0 SWAP1 SLOAD SWAP1 PUSH2 0x100 EXP SWAP1 DIV PUSH20 0xFFFFFFFFFFFFFFFFFFFFFFFFFFFFFFFFFFFFFFFF AND SWAP1 POP DUP2 PUSH0 PUSH0 PUSH2 0x100 EXP DUP2 SLOAD DUP2 PUSH20 0xFFFFFFFFFFFFFFFFFFFFFFFFFFFFFFFFFFFFFFFF MUL NOT AND SWAP1 DUP4 PUSH20 0xFFFFFFFFFFFFFFFFFFFFFFFFFFFFFFFFFFFFFFFF AND MUL OR SWAP1 SSTORE POP DUP2 PUSH20 0xFFFFFFFFFFFFFFFFFFFFFFFFFFFFFFFFFFFFFFFF AND DUP2 PUSH20 0xFFFFFFFFFFFFFFFFFFFFFFFFFFFFFFFFFFFFFFFF AND PUSH32 0x768099735D1C322A05A5B9D7B76D99682A1833D3F7055E5EDE25E0F2EEAA8C6D PUSH1 0x40 MLOAD PUSH1 0x40 MLOAD DUP1 SWAP2 SUB SWAP1 LOG3 POP POP JUMP JUMPDEST PUSH1 0x2 SLOAD DUP2 JUMP JUMPDEST PUSH1 0x60 PUSH0 PUSH1 0x5 DUP1 SLOAD SWAP1 POP SWAP1 POP PUSH0 DUP2 DUP5 GT PUSH2 0x18C7 JUMPI DUP4 PUSH2 0x18C9 JUMP JUMPDEST DUP2 JUMPDEST SWAP1 POP PUSH0 DUP2 PUSH8 0xFFFFFFFFFFFFFFFF DUP2 GT ISZERO PUSH2 0x18E6 JUMPI PUSH2 0x18E5 PUSH2 0x2849 JUMP JUMPDEST JUMPDEST PUSH1 0x40 MLOAD SWAP1 DUP1 DUP3 MSTORE DUP1 PUSH1 0x20 MUL PUSH1 0x20 ADD DUP3 ADD PUSH1 0x40 MSTORE DUP1 ISZERO PUSH2 0x191F JUMPI DUP2 PUSH1 0x20 ADD JUMPDEST PUSH2 0x190C PUSH2 0x1F98 JUMP JUMPDEST DUP2 MSTORE PUSH1 0x20 ADD SWAP1 PUSH1 0x1 SWAP1 SUB SWAP1 DUP2 PUSH2 0x1904 JUMPI SWAP1 POP JUMPDEST POP SWAP1 POP PUSH0 PUSH0 SWAP1 POP JUMPDEST DUP3 DUP2 LT ISZERO PUSH2 0x1AAE JUMPI PUSH1 0x5 DUP2 PUSH1 0x1 DUP7 PUSH2 0x193F SWAP2 SWAP1 PUSH2 0x2EA5 JUMP JUMPDEST PUSH2 0x1949 SWAP2 SWAP1 PUSH2 0x2EA5 JUMP JUMPDEST DUP2 SLOAD DUP2 LT PUSH2 0x195A JUMPI PUSH2 0x1959 PUSH2 0x2C92 JUMP JUMPDEST JUMPDEST SWAP1 PUSH0 MSTORE PUSH1 0x20 PUSH0 KECCAK256 SWAP1 PUSH1 0x5 MUL ADD PUSH1 0x40 MLOAD DUP1 PUSH1 0xA0 ADD PUSH1 0x40 MSTORE SWAP1 DUP2 PUSH0 DUP3 ADD PUSH0 SWAP1 SLOAD SWAP1 PUSH2 0x100 EXP SWAP1 DIV PUSH20 0xFFFFFFFFFFFFFFFFFFFFFFFFFFFFFFFFFFFFFFFF AND PUSH20 0xFFFFFFFFFFFFFFFFFFFFFFFFFFFFFFFFFFFFFFFF AND PUSH20 0xFFFFFFFFFFFFFFFFFFFFFFFFFFFFFFFFFFFFFFFF AND DUP2 MSTORE PUSH1 0x20 ADD PUSH1 0x1 DUP3 ADD SLOAD DUP2 MSTORE PUSH1 0x20 ADD PUSH1 0x2 DUP3 ADD SLOAD DUP2 MSTORE PUSH1 0x20 ADD PUSH1 0x3 DUP3 ADD DUP1 SLOAD PUSH2 0x19E9 SWAP1 PUSH2 0x28A3 JUMP JUMPDEST DUP1 PUSH1 0x1F ADD PUSH1 0x20 DUP1 SWAP2 DIV MUL PUSH1 0x20 ADD PUSH1 0x40 MLOAD SWAP1 DUP2 ADD PUSH1 0x40 MSTORE DUP1 SWAP3 SWAP2 SWAP1 DUP2 DUP2 MSTORE PUSH1 0x20 ADD DUP3 DUP1 SLOAD PUSH2 0x1A15 SWAP1 PUSH2 0x28A3 JUMP JUMPDEST DUP1 ISZERO PUSH2 0x1A60 JUMPI DUP1 PUSH1 0x1F LT PUSH2 0x1A37 JUMPI PUSH2 0x100 DUP1 DUP4 SLOAD DIV MUL DUP4 MSTORE SWAP2 PUSH1 0x20 ADD SWAP2 PUSH2 0x1A60 JUMP JUMPDEST DUP3 ADD SWAP2 SWAP1 PUSH0 MSTORE PUSH1 0x20 PUSH0 KECCAK256 SWAP1 JUMPDEST DUP2 SLOAD DUP2 MSTORE SWAP1 PUSH1 0x1 ADD SWAP1 PUSH1 0x20 ADD DUP1 DUP4 GT PUSH2 0x1A43 JUMPI DUP3 SWAP1 SUB PUSH1 0x1F AND DUP3 ADD SWAP2 JUMPDEST POP POP POP POP POP DUP2 MSTORE PUSH1 0x20 ADD PUSH1 0x4 DUP3 ADD PUSH0 SWAP1 SLOAD SWAP1 PUSH2 0x100 EXP SWAP1 DIV PUSH1 0xFF AND ISZERO ISZERO ISZERO ISZERO DUP2 MSTORE POP POP DUP3 DUP3 DUP2 MLOAD DUP2 LT PUSH2 0x1A96 JUMPI PUSH2 0x1A95 PUSH2 0x2C92 JUMP JUMPDEST JUMPDEST PUSH1 0x20 MUL PUSH1 0x20 ADD ADD DUP2 SWAP1 MSTORE POP DUP1 DUP1 PUSH1 0x1 ADD SWAP2 POP POP PUSH2 0x1927 JUMP JUMPDEST POP DUP1 SWAP4 POP POP POP POP SWAP2 SWAP1 POP JUMP JUMPDEST PUSH0 PUSH1 0x5 DUP1 SLOAD SWAP1 POP SWAP1 POP SWAP1 JUMP JUMPDEST PUSH0 PUSH0 PUSH0 PUSH1 0x60 PUSH0 PUSH1 0x5 DUP1 SLOAD SWAP1 POP DUP7 LT PUSH2 0x1B13 JUMPI PUSH1 0x40 MLOAD PUSH32 0x8C379A000000000000000000000000000000000000000000000000000000000 DUP2 MSTORE PUSH1 0x4 ADD PUSH2 0x1B0A SWAP1 PUSH2 0x2F7F JUMP JUMPDEST PUSH1 0x40 MLOAD DUP1 SWAP2 SUB SWAP1 REVERT JUMPDEST PUSH0 PUSH1 0x5 DUP8 DUP2 SLOAD DUP2 LT PUSH2 0x1B28 JUMPI PUSH2 0x1B27 PUSH2 0x2C92 JUMP JUMPDEST JUMPDEST SWAP1 PUSH0 MSTORE PUSH1 0x20 PUSH0 KECCAK256 SWAP1 PUSH1 0x5 MUL ADD PUSH1 0x40 MLOAD DUP1 PUSH1 0xA0 ADD PUSH1 0x40 MSTORE SWAP1 DUP2 PUSH0 DUP3 ADD PUSH0 SWAP1 SLOAD SWAP1 PUSH2 0x100 EXP SWAP1 DIV PUSH20 0xFFFFFFFFFFFFFFFFFFFFFFFFFFFFFFFFFFFFFFFF AND PUSH20 0xFFFFFFFFFFFFFFFFFFFFFFFFFFFFFFFFFFFFFFFF AND PUSH20 0xFFFFFFFFFFFFFFFFFFFFFFFFFFFFFFFFFFFFFFFF AND DUP2 MSTORE PUSH1 0x20 ADD PUSH1 0x1 DUP3 ADD SLOAD DUP2 MSTORE PUSH1 0x20 ADD PUSH1 0x2 DUP3 ADD SLOAD DUP2 MSTORE PUSH1 0x20 ADD PUSH1 0x3 DUP3 ADD DUP1 SLOAD PUSH2 0x1BB7 SWAP1 PUSH2 0x28A3 JUMP JUMPDEST DUP1 PUSH1 0x1F ADD PUSH1 0x20 DUP1 SWAP2 DIV MUL PUSH1 0x20 ADD PUSH1 0x40 MLOAD SWAP1 DUP2 ADD PUSH1 0x40 MSTORE DUP1 SWAP3 SWAP2 SWAP1 DUP2 DUP2 MSTORE PUSH1 0x20 ADD DUP3 DUP1 SLOAD PUSH2 0x1BE3 SWAP1 PUSH2 0x28A3 JUMP JUMPDEST DUP1 ISZERO PUSH2 0x1C2E JUMPI DUP1 PUSH1 0x1F LT PUSH2 0x1C05 JUMPI PUSH2 0x100 DUP1 DUP4 SLOAD DIV MUL DUP4 MSTORE SWAP2 PUSH1 0x20 ADD SWAP2 PUSH2 0x1C2E JUMP JUMPDEST DUP3 ADD SWAP2 SWAP1 PUSH0 MSTORE PUSH1 0x20 PUSH0 KECCAK256 SWAP1 JUMPDEST DUP2 SLOAD DUP2 MSTORE SWAP1 PUSH1 0x1 ADD SWAP1 PUSH1 0x20 ADD DUP1 DUP4 GT PUSH2 0x1C11 JUMPI DUP3 SWAP1 SUB PUSH1 0x1F AND DUP3 ADD SWAP2 JUMPDEST POP POP POP POP POP DUP2 MSTORE PUSH1 0x20 ADD PUSH1 0x4 DUP3 ADD PUSH0 SWAP1 SLOAD SWAP1 PUSH2 0x100 EXP SWAP1 DIV PUSH1 0xFF AND ISZERO ISZERO ISZERO ISZERO DUP2 MSTORE POP POP SWAP1 POP DUP1 PUSH0 ADD MLOAD DUP2 PUSH1 0x20 ADD MLOAD DUP3 PUSH1 0x40 ADD MLOAD DUP4 PUSH1 0x60 ADD MLOAD DUP5 PUSH1 0x80 ADD MLOAD SWAP6 POP SWAP6 POP SWAP6 POP SWAP6 POP SWAP6 POP POP SWAP2 SWAP4 SWAP6 SWAP1 SWAP3 SWAP5 POP JUMP JUMPDEST PUSH1 0x60 DUP1 PUSH0 PUSH1 0x7 DUP1 SLOAD SWAP1 POP SWAP1 POP PUSH0 DUP2 DUP6 GT PUSH2 0x1C99 JUMPI DUP5 PUSH2 0x1C9B JUMP JUMPDEST DUP2 JUMPDEST SWAP1 POP PUSH0 DUP2 PUSH8 0xFFFFFFFFFFFFFFFF DUP2 GT ISZERO PUSH2 0x1CB8 JUMPI PUSH2 0x1CB7 PUSH2 0x2849 JUMP JUMPDEST JUMPDEST PUSH1 0x40 MLOAD SWAP1 DUP1 DUP3 MSTORE DUP1 PUSH1 0x20 MUL PUSH1 0x20 ADD DUP3 ADD PUSH1 0x40 MSTORE DUP1 ISZERO PUSH2 0x1CE6 JUMPI DUP2 PUSH1 0x20 ADD PUSH1 0x20 DUP3 MUL DUP1 CALLDATASIZE DUP4 CALLDATACOPY DUP1 DUP3 ADD SWAP2 POP POP SWAP1 POP JUMPDEST POP SWAP1 POP PUSH0 DUP3 PUSH8 0xFFFFFFFFFFFFFFFF DUP2 GT ISZERO PUSH2 0x1D04 JUMPI PUSH2 0x1D03 PUSH2 0x2849 JUMP JUMPDEST JUMPDEST PUSH1 0x40 MLOAD SWAP1 DUP1 DUP3 MSTORE DUP1 PUSH1 0x20 MUL PUSH1 0x20 ADD DUP3 ADD PUSH1 0x40 MSTORE DUP1 ISZERO PUSH2 0x1D32 JUMPI DUP2 PUSH1 0x20 ADD PUSH1 0x20 DUP3 MUL DUP1 CALLDATASIZE DUP4 CALLDATACOPY DUP1 DUP3 ADD SWAP2 POP POP SWAP1 POP JUMPDEST POP SWAP1 POP PUSH0 PUSH0 SWAP1 POP JUMPDEST DUP4 DUP2 LT ISZERO PUSH2 0x1E72 JUMPI PUSH1 0x7 DUP2 DUP2 SLOAD DUP2 LT PUSH2 0x1D56 JUMPI PUSH2 0x1D55 PUSH2 0x2C92 JUMP JUMPDEST JUMPDEST SWAP1 PUSH0 MSTORE PUSH1 0x20 PUSH0 KECCAK256 ADD PUSH0 SWAP1 SLOAD SWAP1 PUSH2 0x100 EXP SWAP1 DIV PUSH20 0xFFFFFFFFFFFFFFFFFFFFFFFFFFFFFFFFFFFFFFFF AND DUP4 DUP3 DUP2 MLOAD DUP2 LT PUSH2 0x1D91 JUMPI PUSH2 0x1D90 PUSH2 0x2C92 JUMP JUMPDEST JUMPDEST PUSH1 0x20 MUL PUSH1 0x20 ADD ADD SWAP1 PUSH20 0xFFFFFFFFFFFFFFFFFFFFFFFFFFFFFFFFFFFFFFFF AND SWAP1 DUP2 PUSH20 0xFFFFFFFFFFFFFFFFFFFFFFFFFFFFFFFFFFFFFFFF AND DUP2 MSTORE POP POP PUSH1 0x6 PUSH0 PUSH1 0x7 DUP4 DUP2 SLOAD DUP2 LT PUSH2 0x1DE2 JUMPI PUSH2 0x1DE1 PUSH2 0x2C92 JUMP JUMPDEST JUMPDEST SWAP1 PUSH0 MSTORE PUSH1 0x20 PUSH0 KECCAK256 ADD PUSH0 SWAP1 SLOAD SWAP1 PUSH2 0x100 EXP SWAP1 DIV PUSH20 0xFFFFFFFFFFFFFFFFFFFFFFFFFFFFFFFFFFFFFFFF AND PUSH20 0xFFFFFFFFFFFFFFFFFFFFFFFFFFFFFFFFFFFFFFFF AND PUSH20 0xFFFFFFFFFFFFFFFFFFFFFFFFFFFFFFFFFFFFFFFF AND DUP2 MSTORE PUSH1 0x20 ADD SWAP1 DUP2 MSTORE PUSH1 0x20 ADD PUSH0 KECCAK256 PUSH0 ADD SLOAD DUP3 DUP3 DUP2 MLOAD DUP2 LT PUSH2 0x1E59 JUMPI PUSH2 0x1E58 PUSH2 0x2C92 JUMP JUMPDEST JUMPDEST PUSH1 0x20 MUL PUSH1 0x20 ADD ADD DUP2 DUP2 MSTORE POP POP DUP1 DUP1 PUSH1 0x1 ADD SWAP2 POP POP PUSH2 0x1D3A JUMP JUMPDEST POP DUP2 DUP2 SWAP6 POP SWAP6 POP POP POP POP POP SWAP2 POP SWAP2 JUMP JUMPDEST PUSH1 0x5 DUP2 DUP2 SLOAD DUP2 LT PUSH2 0x1E91 JUMPI PUSH0 DUP1 REVERT JUMPDEST SWAP1 PUSH0 MSTORE PUSH1 0x20 PUSH0 KECCAK256 SWAP1 PUSH1 0x5 MUL ADD PUSH0 SWAP2 POP SWAP1 POP DUP1 PUSH0 ADD PUSH0 SWAP1 SLOAD SWAP1 PUSH2 0x100 EXP SWAP1 DIV PUSH20 0xFFFFFFFFFFFFFFFFFFFFFFFFFFFFFFFFFFFFFFFF AND SWAP1 DUP1 PUSH1 0x1 ADD SLOAD SWAP1 DUP1 PUSH1 0x2 ADD SLOAD SWAP1 DUP1 PUSH1 0x3 ADD DUP1 SLOAD PUSH2 0x1EE1 SWAP1 PUSH2 0x28A3 JUMP JUMPDEST DUP1 PUSH1 0x1F ADD PUSH1 0x20 DUP1 SWAP2 DIV MUL PUSH1 0x20 ADD PUSH1 0x40 MLOAD SWAP1 DUP2 ADD PUSH1 0x40 MSTORE DUP1 SWAP3 SWAP2 SWAP1 DUP2 DUP2 MSTORE PUSH1 0x20 ADD DUP3 DUP1 SLOAD PUSH2 0x1F0D SWAP1 PUSH2 0x28A3 JUMP JUMPDEST DUP1 ISZERO PUSH2 0x1F58 JUMPI DUP1 PUSH1 0x1F LT PUSH2 0x1F2F JUMPI PUSH2 0x100 DUP1 DUP4 SLOAD DIV MUL DUP4 MSTORE SWAP2 PUSH1 0x20 ADD SWAP2 PUSH2 0x1F58 JUMP JUMPDEST DUP3 ADD SWAP2 SWAP1 PUSH0 MSTORE PUSH1 0x20 PUSH0 KECCAK256 SWAP1 JUMPDEST DUP2 SLOAD DUP2 MSTORE SWAP1 PUSH1 0x1 ADD SWAP1 PUSH1 0x20 ADD DUP1 DUP4 GT PUSH2 0x1F3B JUMPI DUP3 SWAP1 SUB PUSH1 0x1F AND DUP3 ADD SWAP2 JUMPDEST POP POP POP POP POP SWAP1 DUP1 PUSH1 0x4 ADD PUSH0 SWAP1 SLOAD SWAP1 PUSH2 0x100 EXP SWAP1 DIV PUSH1 0xFF AND SWAP1 POP DUP6 JUMP JUMPDEST PUSH1 0x40 MLOAD DUP1 PUSH1 0x80 ADD PUSH1 0x40 MSTORE DUP1 PUSH0 DUP2 MSTORE PUSH1 0x20 ADD PUSH0 DUP2 MSTORE PUSH1 0x20 ADD PUSH0 DUP2 MSTORE PUSH1 0x20 ADD PUSH0 DUP2 MSTORE POP SWAP1 JUMP JUMPDEST PUSH1 0x40 MLOAD DUP1 PUSH1 0xA0 ADD PUSH1 0x40 MSTORE DUP1 PUSH0 PUSH20 0xFFFFFFFFFFFFFFFFFFFFFFFFFFFFFFFFFFFFFFFF AND DUP2 MSTORE PUSH1 0x20 ADD PUSH0 DUP2 MSTORE PUSH1 0x20 ADD PUSH0 DUP2 MSTORE PUSH1 0x20 ADD PUSH1 0x60 DUP2 MSTORE PUSH1 0x20 ADD PUSH0 ISZERO ISZERO DUP2 MSTORE POP SWAP1 JUMP JUMPDEST PUSH0 DUP2 SWAP1 POP SWAP2 SWAP1 POP JUMP JUMPDEST PUSH2 0x1FED DUP2 PUSH2 0x1FDB JUMP JUMPDEST DUP3 MSTORE POP POP JUMP JUMPDEST PUSH0 DUP3 DUP3 MSTORE PUSH1 0x20 DUP3 ADD SWAP1 POP SWAP3 SWAP2 POP POP JUMP JUMPDEST PUSH32 0x446972656374207472616E736665720000000000000000000000000000000000 PUSH0 DUP3 ADD MSTORE POP JUMP JUMPDEST PUSH0 PUSH2 0x2037 PUSH1 0xF DUP4 PUSH2 0x1FF3 JUMP JUMPDEST SWAP2 POP PUSH2 0x2042 DUP3 PUSH2 0x2003 JUMP JUMPDEST PUSH1 0x20 DUP3 ADD SWAP1 POP SWAP2 SWAP1 POP JUMP JUMPDEST PUSH0 PUSH1 0x60 DUP3 ADD SWAP1 POP PUSH2 0x2060 PUSH0 DUP4 ADD DUP6 PUSH2 0x1FE4 JUMP JUMPDEST PUSH2 0x206D PUSH1 0x20 DUP4 ADD DUP5 PUSH2 0x1FE4 JUMP JUMPDEST DUP2 DUP2 SUB PUSH1 0x40 DUP4 ADD MSTORE PUSH2 0x207E DUP2 PUSH2 0x202B JUMP JUMPDEST SWAP1 POP SWAP4 SWAP3 POP POP POP JUMP JUMPDEST PUSH0 PUSH0 REVERT JUMPDEST PUSH0 PUSH0 REVERT JUMPDEST PUSH2 0x2098 DUP2 PUSH2 0x1FDB JUMP JUMPDEST DUP2 EQ PUSH2 0x20A2 JUMPI PUSH0 PUSH0 REVERT JUMPDEST POP JUMP JUMPDEST PUSH0 DUP2 CALLDATALOAD SWAP1 POP PUSH2 0x20B3 DUP2 PUSH2 0x208F JUMP JUMPDEST SWAP3 SWAP2 POP POP JUMP JUMPDEST PUSH0 PUSH1 0x20 DUP3 DUP5 SUB SLT ISZERO PUSH2 0x20CE JUMPI PUSH2 0x20CD PUSH2 0x2087 JUMP JUMPDEST JUMPDEST PUSH0 PUSH2 0x20DB DUP5 DUP3 DUP6 ADD PUSH2 0x20A5 JUMP JUMPDEST SWAP2 POP POP SWAP3 SWAP2 POP POP JUMP JUMPDEST PUSH0 PUSH1 0x20 DUP3 ADD SWAP1 POP PUSH2 0x20F7 PUSH0 DUP4 ADD DUP5 PUSH2 0x1FE4 JUMP JUMPDEST SWAP3 SWAP2 POP POP JUMP JUMPDEST PUSH0 PUSH0 REVERT JUMPDEST PUSH0 PUSH0 REVERT JUMPDEST PUSH0 PUSH0 REVERT JUMPDEST PUSH0 PUSH0 DUP4 PUSH1 0x1F DUP5 ADD SLT PUSH2 0x211E JUMPI PUSH2 0x211D PUSH2 0x20FD JUMP JUMPDEST JUMPDEST DUP3 CALLDATALOAD SWAP1 POP PUSH8 0xFFFFFFFFFFFFFFFF DUP2 GT ISZERO PUSH2 0x213B JUMPI PUSH2 0x213A PUSH2 0x2101 JUMP JUMPDEST JUMPDEST PUSH1 0x20 DUP4 ADD SWAP2 POP DUP4 PUSH1 0x20 DUP3 MUL DUP4 ADD GT ISZERO PUSH2 0x2157 JUMPI PUSH2 0x2156 PUSH2 0x2105 JUMP JUMPDEST JUMPDEST SWAP3 POP SWAP3 SWAP1 POP JUMP JUMPDEST PUSH0 PUSH0 PUSH1 0x20 DUP4 DUP6 SUB SLT ISZERO PUSH2 0x2174 JUMPI PUSH2 0x2173 PUSH2 0x2087 JUMP JUMPDEST JUMPDEST PUSH0 DUP4 ADD CALLDATALOAD PUSH8 0xFFFFFFFFFFFFFFFF DUP2 GT ISZERO PUSH2 0x2191 JUMPI PUSH2 0x2190 PUSH2 0x208B JUMP JUMPDEST JUMPDEST PUSH2 0x219D DUP6 DUP3 DUP7 ADD PUSH2 0x2109 JUMP JUMPDEST SWAP3 POP SWAP3 POP POP SWAP3 POP SWAP3 SWAP1 POP JUMP JUMPDEST PUSH0 PUSH20 0xFFFFFFFFFFFFFFFFFFFFFFFFFFFFFFFFFFFFFFFF DUP3 AND SWAP1 POP SWAP2 SWAP1 POP JUMP JUMPDEST PUSH0 PUSH2 0x21D2 DUP3 PUSH2 0x21A9 JUMP JUMPDEST SWAP1 POP SWAP2 SWAP1 POP JUMP JUMPDEST PUSH2 0x21E2 DUP2 PUSH2 0x21C8 JUMP JUMPDEST DUP2 EQ PUSH2 0x21EC JUMPI PUSH0 PUSH0 REVERT JUMPDEST POP JUMP JUMPDEST PUSH0 DUP2 CALLDATALOAD SWAP1 POP PUSH2 0x21FD DUP2 PUSH2 0x21D9 JUMP JUMPDEST SWAP3 SWAP2 POP POP JUMP JUMPDEST PUSH0 PUSH1 0x20 DUP3 DUP5 SUB SLT ISZERO PUSH2 0x2218 JUMPI PUSH2 0x2217 PUSH2 0x2087 JUMP JUMPDEST JUMPDEST PUSH0 PUSH2 0x2225 DUP5 DUP3 DUP6 ADD PUSH2 0x21EF JUMP JUMPDEST SWAP2 POP POP SWAP3 SWAP2 POP POP JUMP JUMPDEST PUSH0 DUP2 ISZERO ISZERO SWAP1 POP SWAP2 SWAP1 POP JUMP JUMPDEST PUSH2 0x2242 DUP2 PUSH2 0x222E JUMP JUMPDEST DUP3 MSTORE POP POP JUMP JUMPDEST PUSH0 PUSH1 0x20 DUP3 ADD SWAP1 POP PUSH2 0x225B PUSH0 DUP4 ADD DUP5 PUSH2 0x2239 JUMP JUMPDEST SWAP3 SWAP2 POP POP JUMP JUMPDEST PUSH0 PUSH1 0x80 DUP3 ADD SWAP1 POP PUSH2 0x2274 PUSH0 DUP4 ADD DUP8 PUSH2 0x1FE4 JUMP JUMPDEST PUSH2 0x2281 PUSH1 0x20 DUP4 ADD DUP7 PUSH2 0x1FE4 JUMP JUMPDEST PUSH2 0x228E PUSH1 0x40 DUP4 ADD DUP6 PUSH2 0x1FE4 JUMP JUMPDEST PUSH2 0x229B PUSH1 0x60 DUP4 ADD DUP5 PUSH2 0x1FE4 JUMP JUMPDEST SWAP6 SWAP5 POP POP POP POP POP JUMP JUMPDEST PUSH0 PUSH0 DUP4 PUSH1 0x1F DUP5 ADD SLT PUSH2 0x22B9 JUMPI PUSH2 0x22B8 PUSH2 0x20FD JUMP JUMPDEST JUMPDEST DUP3 CALLDATALOAD SWAP1 POP PUSH8 0xFFFFFFFFFFFFFFFF DUP2 GT ISZERO PUSH2 0x22D6 JUMPI PUSH2 0x22D5 PUSH2 0x2101 JUMP JUMPDEST JUMPDEST PUSH1 0x20 DUP4 ADD SWAP2 POP DUP4 PUSH1 0x1 DUP3 MUL DUP4 ADD GT ISZERO PUSH2 0x22F2 JUMPI PUSH2 0x22F1 PUSH2 0x2105 JUMP JUMPDEST JUMPDEST SWAP3 POP SWAP3 SWAP1 POP JUMP JUMPDEST PUSH0 PUSH0 PUSH1 0x20 DUP4 DUP6 SUB SLT ISZERO PUSH2 0x230F JUMPI PUSH2 0x230E PUSH2 0x2087 JUMP JUMPDEST JUMPDEST PUSH0 DUP4 ADD CALLDATALOAD PUSH8 0xFFFFFFFFFFFFFFFF DUP2 GT ISZERO PUSH2 0x232C JUMPI PUSH2 0x232B PUSH2 0x208B JUMP JUMPDEST JUMPDEST PUSH2 0x2338 DUP6 DUP3 DUP7 ADD PUSH2 0x22A4 JUMP JUMPDEST SWAP3 POP SWAP3 POP POP SWAP3 POP SWAP3 SWAP1 POP JUMP JUMPDEST PUSH2 0x234D DUP2 PUSH2 0x1FDB JUMP JUMPDEST DUP3 MSTORE POP POP JUMP JUMPDEST PUSH1 0x80 DUP3 ADD PUSH0 DUP3 ADD MLOAD PUSH2 0x2367 PUSH0 DUP6 ADD DUP3 PUSH2 0x2344 JUMP JUMPDEST POP PUSH1 0x20 DUP3 ADD MLOAD PUSH2 0x237A PUSH1 0x20 DUP6 ADD DUP3 PUSH2 0x2344 JUMP JUMPDEST POP PUSH1 0x40 DUP3 ADD MLOAD PUSH2 0x238D PUSH1 0x40 DUP6 ADD DUP3 PUSH2 0x2344 JUMP JUMPDEST POP PUSH1 0x60 DUP3 ADD MLOAD PUSH2 0x23A0 PUSH1 0x60 DUP6 ADD DUP3 PUSH2 0x2344 JUMP JUMPDEST POP POP POP POP JUMP JUMPDEST PUSH0 PUSH1 0x80 DUP3 ADD SWAP1 POP PUSH2 0x23B9 PUSH0 DUP4 ADD DUP5 PUSH2 0x2353 JUMP JUMPDEST SWAP3 SWAP2 POP POP JUMP JUMPDEST PUSH2 0x23C8 DUP2 PUSH2 0x21C8 JUMP JUMPDEST DUP3 MSTORE POP POP JUMP JUMPDEST PUSH0 PUSH1 0x20 DUP3 ADD SWAP1 POP PUSH2 0x23E1 PUSH0 DUP4 ADD DUP5 PUSH2 0x23BF JUMP JUMPDEST SWAP3 SWAP2 POP POP JUMP JUMPDEST PUSH0 DUP2 MLOAD SWAP1 POP SWAP2 SWAP1 POP JUMP JUMPDEST PUSH0 DUP3 DUP3 MSTORE PUSH1 0x20 DUP3 ADD SWAP1 POP SWAP3 SWAP2 POP POP JUMP JUMPDEST PUSH0 DUP2 SWAP1 POP PUSH1 0x20 DUP3 ADD SWAP1 POP SWAP2 SWAP1 POP JUMP JUMPDEST PUSH0 PUSH2 0x241B DUP4 DUP4 PUSH2 0x2344 JUMP JUMPDEST PUSH1 0x20 DUP4 ADD SWAP1 POP SWAP3 SWAP2 POP POP JUMP JUMPDEST PUSH0 PUSH1 0x20 DUP3 ADD SWAP1 POP SWAP2 SWAP1 POP JUMP JUMPDEST PUSH0 PUSH2 0x243D DUP3 PUSH2 0x23E7 JUMP JUMPDEST PUSH2 0x2447 DUP2 DUP6 PUSH2 0x23F1 JUMP JUMPDEST SWAP4 POP PUSH2 0x2452 DUP4 PUSH2 0x2401 JUMP JUMPDEST DUP1 PUSH0 JUMPDEST DUP4 DUP2 LT ISZERO PUSH2 0x2482 JUMPI DUP2 MLOAD PUSH2 0x2469 DUP9 DUP3 PUSH2 0x2410 JUMP JUMPDEST SWAP8 POP PUSH2 0x2474 DUP4 PUSH2 0x2427 JUMP JUMPDEST SWAP3 POP POP PUSH1 0x1 DUP2 ADD SWAP1 POP PUSH2 0x2455 JUMP JUMPDEST POP DUP6 SWAP4 POP POP POP POP SWAP3 SWAP2 POP POP JUMP JUMPDEST PUSH0 PUSH1 0x20 DUP3 ADD SWAP1 POP DUP2 DUP2 SUB PUSH0 DUP4 ADD MSTORE PUSH2 0x24A7 DUP2 DUP5 PUSH2 0x2433 JUMP JUMPDEST SWAP1 POP SWAP3 SWAP2 POP POP JUMP JUMPDEST PUSH0 PUSH1 0xA0 DUP3 ADD SWAP1 POP PUSH2 0x24C2 PUSH0 DUP4 ADD DUP9 PUSH2 0x1FE4 JUMP JUMPDEST PUSH2 0x24CF PUSH1 0x20 DUP4 ADD DUP8 PUSH2 0x1FE4 JUMP JUMPDEST PUSH2 0x24DC PUSH1 0x40 DUP4 ADD DUP7 PUSH2 0x1FE4 JUMP JUMPDEST PUSH2 0x24E9 PUSH1 0x60 DUP4 ADD DUP6 PUSH2 0x1FE4 JUMP JUMPDEST PUSH2 0x24F6 PUSH1 0x80 DUP4 ADD DUP5 PUSH2 0x1FE4 JUMP JUMPDEST SWAP7 SWAP6 POP POP POP POP POP POP JUMP JUMPDEST PUSH0 DUP2 MLOAD SWAP1 POP SWAP2 SWAP1 POP JUMP JUMPDEST PUSH0 DUP3 DUP3 MSTORE PUSH1 0x20 DUP3 ADD SWAP1 POP SWAP3 SWAP2 POP POP JUMP JUMPDEST PUSH0 DUP2 SWAP1 POP PUSH1 0x20 DUP3 ADD SWAP1 POP SWAP2 SWAP1 POP JUMP JUMPDEST PUSH2 0x2532 DUP2 PUSH2 0x21C8 JUMP JUMPDEST DUP3 MSTORE POP POP JUMP JUMPDEST PUSH0 DUP2 MLOAD SWAP1 POP SWAP2 SWAP1 POP JUMP JUMPDEST PUSH0 DUP3 DUP3 MSTORE PUSH1 0x20 DUP3 ADD SWAP1 POP SWAP3 SWAP2 POP POP JUMP JUMPDEST DUP3 DUP2 DUP4 MCOPY PUSH0 DUP4 DUP4 ADD MSTORE POP POP POP JUMP JUMPDEST PUSH0 PUSH1 0x1F NOT PUSH1 0x1F DUP4 ADD AND SWAP1 POP SWAP2 SWAP1 POP JUMP JUMPDEST PUSH0 PUSH2 0x257A DUP3 PUSH2 0x2538 JUMP JUMPDEST PUSH2 0x2584 DUP2 DUP6 PUSH2 0x2542 JUMP JUMPDEST SWAP4 POP PUSH2 0x2594 DUP2 DUP6 PUSH1 0x20 DUP7 ADD PUSH2 0x2552 JUMP JUMPDEST PUSH2 0x259D DUP2 PUSH2 0x2560 JUMP JUMPDEST DUP5 ADD SWAP2 POP POP SWAP3 SWAP2 POP POP JUMP JUMPDEST PUSH2 0x25B1 DUP2 PUSH2 0x222E JUMP JUMPDEST DUP3 MSTORE POP POP JUMP JUMPDEST PUSH0 PUSH1 0xA0 DUP4 ADD PUSH0 DUP4 ADD MLOAD PUSH2 0x25CC PUSH0 DUP7 ADD DUP3 PUSH2 0x2529 JUMP JUMPDEST POP PUSH1 0x20 DUP4 ADD MLOAD PUSH2 0x25DF PUSH1 0x20 DUP7 ADD DUP3 PUSH2 0x2344 JUMP JUMPDEST POP PUSH1 0x40 DUP4 ADD MLOAD PUSH2 0x25F2 PUSH1 0x40 DUP7 ADD DUP3 PUSH2 0x2344 JUMP JUMPDEST POP PUSH1 0x60 DUP4 ADD MLOAD DUP5 DUP3 SUB PUSH1 0x60 DUP7 ADD MSTORE PUSH2 0x260A DUP3 DUP3 PUSH2 0x2570 JUMP JUMPDEST SWAP2 POP POP PUSH1 0x80 DUP4 ADD MLOAD PUSH2 0x261F PUSH1 0x80 DUP7 ADD DUP3 PUSH2 0x25A8 JUMP JUMPDEST POP DUP1 SWAP2 POP POP SWAP3 SWAP2 POP POP JUMP JUMPDEST PUSH0 PUSH2 0x2635 DUP4 DUP4 PUSH2 0x25B7 JUMP JUMPDEST SWAP1 POP SWAP3 SWAP2 POP POP JUMP JUMPDEST PUSH0 PUSH1 0x20 DUP3 ADD SWAP1 POP SWAP2 SWAP1 POP JUMP JUMPDEST PUSH0 PUSH2 0x2653 DUP3 PUSH2 0x2500 JUMP JUMPDEST PUSH2 0x265D DUP2 DUP6 PUSH2 0x250A JUMP JUMPDEST SWAP4 POP DUP4 PUSH1 0x20 DUP3 MUL DUP6 ADD PUSH2 0x266F DUP6 PUSH2 0x251A JUMP JUMPDEST DUP1 PUSH0 JUMPDEST DUP6 DUP2 LT ISZERO PUSH2 0x26AA JUMPI DUP5 DUP5 SUB DUP10 MSTORE DUP2 MLOAD PUSH2 0x268B DUP6 DUP3 PUSH2 0x262A JUMP JUMPDEST SWAP5 POP PUSH2 0x2696 DUP4 PUSH2 0x263D JUMP JUMPDEST SWAP3 POP PUSH1 0x20 DUP11 ADD SWAP10 POP POP PUSH1 0x1 DUP2 ADD SWAP1 POP PUSH2 0x2672 JUMP JUMPDEST POP DUP3 SWAP8 POP DUP8 SWAP6 POP POP POP POP POP POP SWAP3 SWAP2 POP POP JUMP JUMPDEST PUSH0 PUSH1 0x20 DUP3 ADD SWAP1 POP DUP2 DUP2 SUB PUSH0 DUP4 ADD MSTORE PUSH2 0x26D4 DUP2 DUP5 PUSH2 0x2649 JUMP JUMPDEST SWAP1 POP SWAP3 SWAP2 POP POP JUMP JUMPDEST PUSH0 PUSH2 0x26E6 DUP3 PUSH2 0x2538 JUMP JUMPDEST PUSH2 0x26F0 DUP2 DUP6 PUSH2 0x1FF3 JUMP JUMPDEST SWAP4 POP PUSH2 0x2700 DUP2 DUP6 PUSH1 0x20 DUP7 ADD PUSH2 0x2552 JUMP JUMPDEST PUSH2 0x2709 DUP2 PUSH2 0x2560 JUMP JUMPDEST DUP5 ADD SWAP2 POP POP SWAP3 SWAP2 POP POP JUMP JUMPDEST PUSH0 PUSH1 0xA0 DUP3 ADD SWAP1 POP PUSH2 0x2727 PUSH0 DUP4 ADD DUP9 PUSH2 0x23BF JUMP JUMPDEST PUSH2 0x2734 PUSH1 0x20 DUP4 ADD DUP8 PUSH2 0x1FE4 JUMP JUMPDEST PUSH2 0x2741 PUSH1 0x40 DUP4 ADD DUP7 PUSH2 0x1FE4 JUMP JUMPDEST DUP2 DUP2 SUB PUSH1 0x60 DUP4 ADD MSTORE PUSH2 0x2753 DUP2 DUP6 PUSH2 0x26DC JUMP JUMPDEST SWAP1 POP PUSH2 0x2762 PUSH1 0x80 DUP4 ADD DUP5 PUSH2 0x2239 JUMP JUMPDEST SWAP7 SWAP6 POP POP POP POP POP POP JUMP JUMPDEST PUSH0 DUP2 MLOAD SWAP1 POP SWAP2 SWAP1 POP JUMP JUMPDEST PUSH0 DUP3 DUP3 MSTORE PUSH1 0x20 DUP3 ADD SWAP1 POP SWAP3 SWAP2 POP POP JUMP JUMPDEST PUSH0 DUP2 SWAP1 POP PUSH1 0x20 DUP3 ADD SWAP1 POP SWAP2 SWAP1 POP JUMP JUMPDEST PUSH0 PUSH2 0x27A0 DUP4 DUP4 PUSH2 0x2529 JUMP JUMPDEST PUSH1 0x20 DUP4 ADD SWAP1 POP SWAP3 SWAP2 POP POP JUMP JUMPDEST PUSH0 PUSH1 0x20 DUP3 ADD SWAP1 POP SWAP2 SWAP1 POP JUMP JUMPDEST PUSH0 PUSH2 0x27C2 DUP3 PUSH2 0x276C JUMP JUMPDEST PUSH2 0x27CC DUP2 DUP6 PUSH2 0x2776 JUMP JUMPDEST SWAP4 POP PUSH2 0x27D7 DUP4 PUSH2 0x2786 JUMP JUMPDEST DUP1 PUSH0 JUMPDEST DUP4 DUP2 LT ISZERO PUSH2 0x2807 JUMPI DUP2 MLOAD PUSH2 0x27EE DUP9 DUP3 PUSH2 0x2795 JUMP JUMPDEST SWAP8 POP PUSH2 0x27F9 DUP4 PUSH2 0x27AC JUMP JUMPDEST SWAP3 POP POP PUSH1 0x1 DUP2 ADD SWAP1 POP PUSH2 0x27DA JUMP JUMPDEST POP DUP6 SWAP4 POP POP POP POP SWAP3 SWAP2 POP POP JUMP JUMPDEST PUSH0 PUSH1 0x40 DUP3 ADD SWAP1 POP DUP2 DUP2 SUB PUSH0 DUP4 ADD MSTORE PUSH2 0x282C DUP2 DUP6 PUSH2 0x27B8 JUMP JUMPDEST SWAP1 POP DUP2 DUP2 SUB PUSH1 0x20 DUP4 ADD MSTORE PUSH2 0x2840 DUP2 DUP5 PUSH2 0x2433 JUMP JUMPDEST SWAP1 POP SWAP4 SWAP3 POP POP POP JUMP JUMPDEST PUSH32 0x4E487B7100000000000000000000000000000000000000000000000000000000 PUSH0 MSTORE PUSH1 0x41 PUSH1 0x4 MSTORE PUSH1 0x24 PUSH0 REVERT JUMPDEST PUSH32 0x4E487B7100000000000000000000000000000000000000000000000000000000 PUSH0 MSTORE PUSH1 0x22 PUSH1 0x4 MSTORE PUSH1 0x24 PUSH0 REVERT JUMPDEST PUSH0 PUSH1 0x2 DUP3 DIV SWAP1 POP PUSH1 0x1 DUP3 AND DUP1 PUSH2 0x28BA JUMPI PUSH1 0x7F DUP3 AND SWAP2 POP JUMPDEST PUSH1 0x20 DUP3 LT DUP2 SUB PUSH2 0x28CD JUMPI PUSH2 0x28CC PUSH2 0x2876 JUMP JUMPDEST JUMPDEST POP SWAP2 SWAP1 POP JUMP JUMPDEST PUSH0 DUP2 SWAP1 POP DUP2 PUSH0 MSTORE PUSH1 0x20 PUSH0 KECCAK256 SWAP1 POP SWAP2 SWAP1 POP JUMP JUMPDEST PUSH0 PUSH1 0x20 PUSH1 0x1F DUP4 ADD DIV SWAP1 POP SWAP2 SWAP1 POP JUMP JUMPDEST PUSH0 DUP3 DUP3 SHL SWAP1 POP SWAP3 SWAP2 POP POP JUMP JUMPDEST PUSH0 PUSH1 0x8 DUP4 MUL PUSH2 0x292F PUSH32 0xFFFFFFFFFFFFFFFFFFFFFFFFFFFFFFFFFFFFFFFFFFFFFFFFFFFFFFFFFFFFFFFF DUP3 PUSH2 0x28F4 JUMP JUMPDEST PUSH2 0x2939 DUP7 DUP4 PUSH2 0x28F4 JUMP JUMPDEST SWAP6 POP DUP1 NOT DUP5 AND SWAP4 POP DUP1 DUP7 AND DUP5 OR SWAP3 POP POP POP SWAP4 SWAP3 POP POP POP JUMP JUMPDEST PUSH0 DUP2 SWAP1 POP SWAP2 SWAP1 POP JUMP JUMPDEST PUSH0 PUSH2 0x2974 PUSH2 0x296F PUSH2 0x296A DUP5 PUSH2 0x1FDB JUMP JUMPDEST PUSH2 0x2951 JUMP JUMPDEST PUSH2 0x1FDB JUMP JUMPDEST SWAP1 POP SWAP2 SWAP1 POP JUMP JUMPDEST PUSH0 DUP2 SWAP1 POP SWAP2 SWAP1 POP JUMP JUMPDEST PUSH2 0x298D DUP4 PUSH2 0x295A JUMP JUMPDEST PUSH2 0x29A1 PUSH2 0x2999 DUP3 PUSH2 0x297B JUMP JUMPDEST DUP5 DUP5 SLOAD PUSH2 0x2900 JUMP JUMPDEST DUP3 SSTORE POP POP POP POP JUMP JUMPDEST PUSH0 PUSH0 SWAP1 POP SWAP1 JUMP JUMPDEST PUSH2 0x29B8 PUSH2 0x29A9 JUMP JUMPDEST PUSH2 0x29C3 DUP2 DUP5 DUP5 PUSH2 0x2984 JUMP JUMPDEST POP POP POP JUMP JUMPDEST JUMPDEST DUP2 DUP2 LT ISZERO PUSH2 0x29E6 JUMPI PUSH2 0x29DB PUSH0 DUP3 PUSH2 0x29B0 JUMP JUMPDEST PUSH1 0x1 DUP2 ADD SWAP1 POP PUSH2 0x29C9 JUMP JUMPDEST POP POP JUMP JUMPDEST PUSH1 0x1F DUP3 GT ISZERO PUSH2 0x2A2B JUMPI PUSH2 0x29FC DUP2 PUSH2 0x28D3 JUMP JUMPDEST PUSH2 0x2A05 DUP5 PUSH2 0x28E5 JUMP JUMPDEST DUP2 ADD PUSH1 0x20 DUP6 LT ISZERO PUSH2 0x2A14 JUMPI DUP2 SWAP1 POP JUMPDEST PUSH2 0x2A28 PUSH2 0x2A20 DUP6 PUSH2 0x28E5 JUMP JUMPDEST DUP4 ADD DUP3 PUSH2 0x29C8 JUMP JUMPDEST POP POP JUMPDEST POP POP POP JUMP JUMPDEST PUSH0 DUP3 DUP3 SHR SWAP1 POP SWAP3 SWAP2 POP POP JUMP JUMPDEST PUSH0 PUSH2 0x2A4B PUSH0 NOT DUP5 PUSH1 0x8 MUL PUSH2 0x2A30 JUMP JUMPDEST NOT DUP1 DUP4 AND SWAP2 POP POP SWAP3 SWAP2 POP POP JUMP JUMPDEST PUSH0 PUSH2 0x2A63 DUP4 DUP4 PUSH2 0x2A3C JUMP JUMPDEST SWAP2 POP DUP3 PUSH1 0x2 MUL DUP3 OR SWAP1 POP SWAP3 SWAP2 POP POP JUMP JUMPDEST PUSH2 0x2A7C DUP3 PUSH2 0x2538 JUMP JUMPDEST PUSH8 0xFFFFFFFFFFFFFFFF DUP2 GT ISZERO PUSH2 0x2A95 JUMPI PUSH2 0x2A94 PUSH2 0x2849 JUMP JUMPDEST JUMPDEST PUSH2 0x2A9F DUP3 SLOAD PUSH2 0x28A3 JUMP JUMPDEST PUSH2 0x2AAA DUP3 DUP3 DUP6 PUSH2 0x29EA JUMP JUMPDEST PUSH0 PUSH1 0x20 SWAP1 POP PUSH1 0x1F DUP4 GT PUSH1 0x1 DUP2 EQ PUSH2 0x2ADB JUMPI PUSH0 DUP5 ISZERO PUSH2 0x2AC9 JUMPI DUP3 DUP8 ADD MLOAD SWAP1 POP JUMPDEST PUSH2 0x2AD3 DUP6 DUP3 PUSH2 0x2A58 JUMP JUMPDEST DUP7 SSTORE POP PUSH2 0x2B3A JUMP JUMPDEST PUSH1 0x1F NOT DUP5 AND PUSH2 0x2AE9 DUP7 PUSH2 0x28D3 JUMP JUMPDEST PUSH0 JUMPDEST DUP3 DUP2 LT ISZERO PUSH2 0x2B10 JUMPI DUP5 DUP10 ADD MLOAD DUP3 SSTORE PUSH1 0x1 DUP3 ADD SWAP2 POP PUSH1 0x20 DUP6 ADD SWAP5 POP PUSH1 0x20 DUP2 ADD SWAP1 POP PUSH2 0x2AEB JUMP JUMPDEST DUP7 DUP4 LT ISZERO PUSH2 0x2B2D JUMPI DUP5 DUP10 ADD MLOAD PUSH2 0x2B29 PUSH1 0x1F DUP10 AND DUP3 PUSH2 0x2A3C JUMP JUMPDEST DUP4 SSTORE POP JUMPDEST PUSH1 0x1 PUSH1 0x2 DUP9 MUL ADD DUP9 SSTORE POP POP POP JUMPDEST POP POP POP POP POP POP JUMP JUMPDEST PUSH32 0x4E487B7100000000000000000000000000000000000000000000000000000000 PUSH0 MSTORE PUSH1 0x11 PUSH1 0x4 MSTORE PUSH1 0x24 PUSH0 REVERT JUMPDEST PUSH0 PUSH2 0x2B79 DUP3 PUSH2 0x1FDB JUMP JUMPDEST SWAP2 POP PUSH2 0x2B84 DUP4 PUSH2 0x1FDB JUMP JUMPDEST SWAP3 POP DUP3 DUP3 ADD SWAP1 POP DUP1 DUP3 GT ISZERO PUSH2 0x2B9C JUMPI PUSH2 0x2B9B PUSH2 0x2B42 JUMP JUMPDEST JUMPDEST SWAP3 SWAP2 POP POP JUMP JUMPDEST PUSH0 PUSH2 0x2BAC DUP3 PUSH2 0x1FDB JUMP JUMPDEST SWAP2 POP PUSH32 0xFFFFFFFFFFFFFFFFFFFFFFFFFFFFFFFFFFFFFFFFFFFFFFFFFFFFFFFFFFFFFFFF DUP3 SUB PUSH2 0x2BDE JUMPI PUSH2 0x2BDD PUSH2 0x2B42 JUMP JUMPDEST JUMPDEST PUSH1 0x1 DUP3 ADD SWAP1 POP SWAP2 SWAP1 POP JUMP JUMPDEST PUSH32 0x496E73756666696369656E742062616C616E6365000000000000000000000000 PUSH0 DUP3 ADD MSTORE POP JUMP JUMPDEST PUSH0 PUSH2 0x2C1D PUSH1 0x14 DUP4 PUSH2 0x1FF3 JUMP JUMPDEST SWAP2 POP PUSH2 0x2C28 DUP3 PUSH2 0x2BE9 JUMP JUMPDEST PUSH1 0x20 DUP3 ADD SWAP1 POP SWAP2 SWAP1 POP JUMP JUMPDEST PUSH0 PUSH1 0x20 DUP3 ADD SWAP1 POP DUP2 DUP2 SUB PUSH0 DUP4 ADD MSTORE PUSH2 0x2C4A DUP2 PUSH2 0x2C11 JUMP JUMPDEST SWAP1 POP SWAP2 SWAP1 POP JUMP JUMPDEST PUSH0 DUP2 SWAP1 POP SWAP3 SWAP2 POP POP JUMP JUMPDEST POP JUMP JUMPDEST PUSH0 PUSH2 0x2C69 PUSH0 DUP4 PUSH2 0x2C51 JUMP JUMPDEST SWAP2 POP PUSH2 0x2C74 DUP3 PUSH2 0x2C5B JUMP JUMPDEST PUSH0 DUP3 ADD SWAP1 POP SWAP2 SWAP1 POP JUMP JUMPDEST PUSH0 PUSH2 0x2C88 DUP3 PUSH2 0x2C5E JUMP JUMPDEST SWAP2 POP DUP2 SWAP1 POP SWAP2 SWAP1 POP JUMP JUMPDEST PUSH32 0x4E487B7100000000000000000000000000000000000000000000000000000000 PUSH0 MSTORE PUSH1 0x32 PUSH1 0x4 MSTORE PUSH1 0x24 PUSH0 REVERT JUMPDEST PUSH0 PUSH0 REVERT JUMPDEST PUSH0 PUSH0 REVERT JUMPDEST PUSH0 PUSH0 REVERT JUMPDEST PUSH0 PUSH0 DUP4 CALLDATALOAD PUSH1 0x1 PUSH1 0x20 SUB DUP5 CALLDATASIZE SUB SUB DUP2 SLT PUSH2 0x2CE7 JUMPI PUSH2 0x2CE6 PUSH2 0x2CBF JUMP JUMPDEST JUMPDEST DUP1 DUP5 ADD SWAP3 POP DUP3 CALLDATALOAD SWAP2 POP PUSH8 0xFFFFFFFFFFFFFFFF DUP3 GT ISZERO PUSH2 0x2D09 JUMPI PUSH2 0x2D08 PUSH2 0x2CC3 JUMP JUMPDEST JUMPDEST PUSH1 0x20 DUP4 ADD SWAP3 POP PUSH1 0x1 DUP3 MUL CALLDATASIZE SUB DUP4 SGT ISZERO PUSH2 0x2D25 JUMPI PUSH2 0x2D24 PUSH2 0x2CC7 JUMP JUMPDEST JUMPDEST POP SWAP3 POP SWAP3 SWAP1 POP JUMP JUMPDEST PUSH32 0x426174636820636F6E747269627574696F6E0000000000000000000000000000 PUSH0 DUP3 ADD MSTORE POP JUMP JUMPDEST PUSH0 PUSH2 0x2D61 PUSH1 0x12 DUP4 PUSH2 0x1FF3 JUMP JUMPDEST SWAP2 POP PUSH2 0x2D6C DUP3 PUSH2 0x2D2D JUMP JUMPDEST PUSH1 0x20 DUP3 ADD SWAP1 POP SWAP2 SWAP1 POP JUMP JUMPDEST PUSH0 PUSH1 0x40 DUP3 ADD SWAP1 POP PUSH2 0x2D8A PUSH0 DUP4 ADD DUP5 PUSH2 0x1FE4 JUMP JUMPDEST DUP2 DUP2 SUB PUSH1 0x20 DUP4 ADD MSTORE PUSH2 0x2D9B DUP2 PUSH2 0x2D55 JUMP JUMPDEST SWAP1 POP SWAP3 SWAP2 POP POP JUMP JUMPDEST DUP3 DUP2 DUP4 CALLDATACOPY PUSH0 DUP4 DUP4 ADD MSTORE POP POP POP JUMP JUMPDEST PUSH0 PUSH2 0x2DBC DUP4 DUP6 PUSH2 0x1FF3 JUMP JUMPDEST SWAP4 POP PUSH2 0x2DC9 DUP4 DUP6 DUP5 PUSH2 0x2DA3 JUMP JUMPDEST PUSH2 0x2DD2 DUP4 PUSH2 0x2560 JUMP JUMPDEST DUP5 ADD SWAP1 POP SWAP4 SWAP3 POP POP POP JUMP JUMPDEST PUSH0 PUSH1 0x40 DUP3 ADD SWAP1 POP PUSH2 0x2DF0 PUSH0 DUP4 ADD DUP7 PUSH2 0x1FE4 JUMP JUMPDEST DUP2 DUP2 SUB PUSH1 0x20 DUP4 ADD MSTORE PUSH2 0x2E03 DUP2 DUP5 DUP7 PUSH2 0x2DB1 JUMP JUMPDEST SWAP1 POP SWAP5 SWAP4 POP POP POP POP JUMP JUMPDEST PUSH0 PUSH2 0x2E18 PUSH0 DUP4 PUSH2 0x1FF3 JUMP JUMPDEST SWAP2 POP PUSH2 0x2E23 DUP3 PUSH2 0x2C5B JUMP JUMPDEST PUSH0 DUP3 ADD SWAP1 POP SWAP2 SWAP1 POP JUMP JUMPDEST PUSH0 PUSH1 0x60 DUP3 ADD SWAP1 POP PUSH2 0x2E40 PUSH0 DUP4 ADD DUP6 PUSH2 0x1FE4 JUMP JUMPDEST PUSH2 0x2E4D PUSH1 0x20 DUP4 ADD DUP5 PUSH2 0x1FE4 JUMP JUMPDEST DUP2 DUP2 SUB PUSH1 0x40 DUP4 ADD MSTORE PUSH2 0x2E5E DUP2 PUSH2 0x2E0D JUMP JUMPDEST SWAP1 POP SWAP4 SWAP3 POP POP POP JUMP JUMPDEST PUSH0 PUSH1 0x60 DUP3 ADD SWAP1 POP PUSH2 0x2E7A PUSH0 DUP4 ADD DUP8 PUSH2 0x1FE4 JUMP JUMPDEST PUSH2 0x2E87 PUSH1 0x20 DUP4 ADD DUP7 PUSH2 0x1FE4 JUMP JUMPDEST DUP2 DUP2 SUB PUSH1 0x40 DUP4 ADD MSTORE PUSH2 0x2E9A DUP2 DUP5 DUP7 PUSH2 0x2DB1 JUMP JUMPDEST SWAP1 POP SWAP6 SWAP5 POP POP POP POP POP JUMP JUMPDEST PUSH0 PUSH2 0x2EAF DUP3 PUSH2 0x1FDB JUMP JUMPDEST SWAP2 POP PUSH2 0x2EBA DUP4 PUSH2 0x1FDB JUMP JUMPDEST SWAP3 POP DUP3 DUP3 SUB SWAP1 POP DUP2 DUP2 GT ISZERO PUSH2 0x2ED2 JUMPI PUSH2 0x2ED1 PUSH2 0x2B42 JUMP JUMPDEST JUMPDEST SWAP3 SWAP2 POP POP JUMP JUMPDEST PUSH32 0x4E487B7100000000000000000000000000000000000000000000000000000000 PUSH0 MSTORE PUSH1 0x12 PUSH1 0x4 MSTORE PUSH1 0x24 PUSH0 REVERT JUMPDEST PUSH0 PUSH2 0x2F0F DUP3 PUSH2 0x1FDB JUMP JUMPDEST SWAP2 POP PUSH2 0x2F1A DUP4 PUSH2 0x1FDB JUMP JUMPDEST SWAP3 POP DUP3 PUSH2 0x2F2A JUMPI PUSH2 0x2F29 PUSH2 0x2ED8 JUMP JUMPDEST JUMPDEST DUP3 DUP3 DIV SWAP1 POP SWAP3 SWAP2 POP POP JUMP JUMPDEST PUSH32 0x496E76616C696420696E64657800000000000000000000000000000000000000 PUSH0 DUP3 ADD MSTORE POP JUMP JUMPDEST PUSH0 PUSH2 0x2F69 PUSH1 0xD DUP4 PUSH2 0x1FF3 JUMP JUMPDEST SWAP2 POP PUSH2 0x2F74 DUP3 PUSH2 0x2F35 JUMP JUMPDEST PUSH1 0x20 DUP3 ADD SWAP1 POP SWAP2 SWAP1 POP JUMP JUMPDEST PUSH0 PUSH1 0x20 DUP3 ADD SWAP1 POP DUP2 DUP2 SUB PUSH0 DUP4 ADD MSTORE PUSH2 0x2F96 DUP2 PUSH2 0x2F5D JUMP JUMPDEST SWAP1 POP SWAP2 SWAP1 POP JUMP INVALID LOG2 PUSH5 0x6970667358 0x22 SLT KECCAK256 0x2A MSIZE PUSH29 0x3CBE945F079A55EC8CCE4836A6C95A9A3016387524941418F900896582 PUSH5 0x736F6C6343 STOP ADDMOD 0x1E STOP CALLER "
				},
				"gasEstimates": {
					"creation": {
						"codeDepositCost": "2448600",
						"executionCost": "infinite",
						"totalCost": "infinite"
					},
					"external": {
						"batchTrackContributions(string[])": "infinite",
						"beneficiary()": "2552",
						"changeBeneficiary(address)": "30652",
						"donate(string)": "infinite",
						"donations(uint256)": "infinite",
						"donorStats(address)": "infinite",
						"donors(uint256)": "5055",
						"getBalance()": "402",
						"getDonation(uint256)": "infinite",
						"getDonationCount()": "2484",
						"getDonationsByDonor(address)": "infinite",
						"getDonorStats(address)": "infinite",
						"getLatestDonations(uint256)": "infinite",
						"getStats()": "infinite",
						"getTopDonors(uint256)": "infinite",
						"hasDonated(address)": "2982",
						"minDonation()": "2471",
						"myStats()": "infinite",
						"quickDonate()": "infinite",
						"setMinDonation(uint256)": "infinite",
						"totalDonations()": "2492",
						"totalEthDonated()": "2448",
						"totalGaslessContributions()": "2471",
						"trackContribution(string)": "infinite",
						"withdraw()": "infinite",
						"withdrawAmount(uint256)": "infinite"
					},
					"internal": {
						"_recordDonation(address,uint256,string memory,bool)": "infinite"
					}
				},
				"methodIdentifiers": {
					"batchTrackContributions(string[])": "12b91bf9",
					"beneficiary()": "38af3eed",
					"changeBeneficiary(address)": "dc070657",
					"donate(string)": "b5aebc80",
					"donations(uint256)": "f8626af8",
					"donorStats(address)": "18c4b991",
					"donors(uint256)": "4abfa163",
					"getBalance()": "12065fe0",
					"getDonation(uint256)": "ef07a81f",
					"getDonationCount()": "e55a62a8",
					"getDonationsByDonor(address)": "3d0d3086",
					"getDonorStats(address)": "c8eb0c88",
					"getLatestDonations(uint256)": "df0eb43f",
					"getStats()": "c59d4847",
					"getTopDonors(uint256)": "f5d1282b",
					"hasDonated(address)": "17294a11",
					"minDonation()": "1c0e0225",
					"myStats()": "37a5f66c",
					"quickDonate()": "7ce56524",
					"setMinDonation(uint256)": "83a6595f",
					"totalDonations()": "de2ed893",
					"totalEthDonated()": "6cf1cd95",
					"totalGaslessContributions()": "06032ead",
					"trackContribution(string)": "2c358e88",
					"withdraw()": "3ccfd60b",
					"withdrawAmount(uint256)": "0562b9f7"
				}
			},
			"storageLayout": {
				"storage": [
					{
						"astId": 27,
						"contract": "contracts/GaslessDonationTracker.sol:GaslessDonationTracker",
						"label": "beneficiary",
						"offset": 0,
						"slot": "0",
						"type": "t_address"
					},
					{
						"astId": 30,
						"contract": "contracts/GaslessDonationTracker.sol:GaslessDonationTracker",
						"label": "totalEthDonated",
						"offset": 0,
						"slot": "1",
						"type": "t_uint256"
					},
					{
						"astId": 33,
						"contract": "contracts/GaslessDonationTracker.sol:GaslessDonationTracker",
						"label": "totalDonations",
						"offset": 0,
						"slot": "2",
						"type": "t_uint256"
					},
					{
						"astId": 36,
						"contract": "contracts/GaslessDonationTracker.sol:GaslessDonationTracker",
						"label": "totalGaslessContributions",
						"offset": 0,
						"slot": "3",
						"type": "t_uint256"
					},
					{
						"astId": 40,
						"contract": "contracts/GaslessDonationTracker.sol:GaslessDonationTracker",
						"label": "minDonation",
						"offset": 0,
						"slot": "4",
						"type": "t_uint256"
					},
					{
						"astId": 45,
						"contract": "contracts/GaslessDonationTracker.sol:GaslessDonationTracker",
						"label": "donations",
						"offset": 0,
						"slot": "5",
						"type": "t_array(t_struct(Donation)14_storage)dyn_storage"
					},
					{
						"astId": 51,
						"contract": "contracts/GaslessDonationTracker.sol:GaslessDonationTracker",
						"label": "donorStats",
						"offset": 0,
						"slot": "6",
						"type": "t_mapping(t_address,t_struct(DonorStats)24_storage)"
					},
					{
						"astId": 55,
						"contract": "contracts/GaslessDonationTracker.sol:GaslessDonationTracker",
						"label": "donors",
						"offset": 0,
						"slot": "7",
						"type": "t_array(t_address)dyn_storage"
					},
					{
						"astId": 59,
						"contract": "contracts/GaslessDonationTracker.sol:GaslessDonationTracker",
						"label": "isDonor",
						"offset": 0,
						"slot": "8",
						"type": "t_mapping(t_address,t_bool)"
					}
				],
				"types": {
					"t_address": {
						"encoding": "inplace",
						"label": "address",
						"numberOfBytes": "20"
					},
					"t_array(t_address)dyn_storage": {
						"base": "t_address",
						"encoding": "dynamic_array",
						"label": "address[]",
						"numberOfBytes": "32"
					},
					"t_array(t_struct(Donation)14_storage)dyn_storage": {
						"base": "t_struct(Donation)14_storage",
						"encoding": "dynamic_array",
						"label": "struct GaslessDonationTracker.Donation[]",
						"numberOfBytes": "32"
					},
					"t_bool": {
						"encoding": "inplace",
						"label": "bool",
						"numberOfBytes": "1"
					},
					"t_mapping(t_address,t_bool)": {
						"encoding": "mapping",
						"key": "t_address",
						"label": "mapping(address => bool)",
						"numberOfBytes": "32",
						"value": "t_bool"
					},
					"t_mapping(t_address,t_struct(DonorStats)24_storage)": {
						"encoding": "mapping",
						"key": "t_address",
						"label": "mapping(address => struct GaslessDonationTracker.DonorStats)",
						"numberOfBytes": "32",
						"value": "t_struct(DonorStats)24_storage"
					},
					"t_string_storage": {
						"encoding": "bytes",
						"label": "string",
						"numberOfBytes": "32"
					},
					"t_struct(Donation)14_storage": {
						"encoding": "inplace",
						"label": "struct GaslessDonationTracker.Donation",
						"members": [
							{
								"astId": 5,
								"contract": "contracts/GaslessDonationTracker.sol:GaslessDonationTracker",
								"label": "donor",
								"offset": 0,
								"slot": "0",
								"type": "t_address"
							},
							{
								"astId": 7,
								"contract": "contracts/GaslessDonationTracker.sol:GaslessDonationTracker",
								"label": "amount",
								"offset": 0,
								"slot": "1",
								"type": "t_uint256"
							},
							{
								"astId": 9,
								"contract": "contracts/GaslessDonationTracker.sol:GaslessDonationTracker",
								"label": "timestamp",
								"offset": 0,
								"slot": "2",
								"type": "t_uint256"
							},
							{
								"astId": 11,
								"contract": "contracts/GaslessDonationTracker.sol:GaslessDonationTracker",
								"label": "message",
								"offset": 0,
								"slot": "3",
								"type": "t_string_storage"
							},
							{
								"astId": 13,
								"contract": "contracts/GaslessDonationTracker.sol:GaslessDonationTracker",
								"label": "isPaid",
								"offset": 0,
								"slot": "4",
								"type": "t_bool"
							}
						],
						"numberOfBytes": "160"
					},
					"t_struct(DonorStats)24_storage": {
						"encoding": "inplace",
						"label": "struct GaslessDonationTracker.DonorStats",
						"members": [
							{
								"astId": 17,
								"contract": "contracts/GaslessDonationTracker.sol:GaslessDonationTracker",
								"label": "totalDonated",
								"offset": 0,
								"slot": "0",
								"type": "t_uint256"
							},
							{
								"astId": 19,
								"contract": "contracts/GaslessDonationTracker.sol:GaslessDonationTracker",
								"label": "donationCount",
								"offset": 0,
								"slot": "1",
								"type": "t_uint256"
							},
							{
								"astId": 21,
								"contract": "contracts/GaslessDonationTracker.sol:GaslessDonationTracker",
								"label": "gaslessCount",
								"offset": 0,
								"slot": "2",
								"type": "t_uint256"
							},
							{
								"astId": 23,
								"contract": "contracts/GaslessDonationTracker.sol:GaslessDonationTracker",
								"label": "lastDonationTime",
								"offset": 0,
								"slot": "3",
								"type": "t_uint256"
							}
						],
						"numberOfBytes": "128"
					},
					"t_uint256": {
						"encoding": "inplace",
						"label": "uint256",
						"numberOfBytes": "32"
					}
				}
			},
			"userdoc": {
				"events": {
					"BeneficiaryChanged(address,address)": {
						"notice": "Emitted when beneficiary is changed"
					},
					"DonationReceived(address,uint256,uint256,string)": {
						"notice": "Emitted when ETH donation is received"
					},
					"FundsWithdrawn(address,uint256)": {
						"notice": "Emitted when beneficiary withdraws funds"
					},
					"GaslessContribution(address,uint256,string)": {
						"notice": "Emitted when gasless contribution is tracked"
					},
					"MinDonationUpdated(uint256)": {
						"notice": "Emitted when minimum donation is updated"
					}
				},
				"kind": "user",
				"methods": {
					"batchTrackContributions(string[])": {
						"notice": "Batch track multiple gasless contributions"
					},
					"beneficiary()": {
						"notice": "Contract owner/beneficiary"
					},
					"changeBeneficiary(address)": {
						"notice": "Change beneficiary address"
					},
					"constructor": {
						"notice": "Initialize contract with beneficiary"
					},
					"donate(string)": {
						"notice": "Donate ETH with optional message"
					},
					"donations(uint256)": {
						"notice": "Array of all donations"
					},
					"donorStats(address)": {
						"notice": "Mapping from donor address to their stats"
					},
					"donors(uint256)": {
						"notice": "Mapping to track top donors"
					},
					"getBalance()": {
						"notice": "Get contract balance"
					},
					"getDonation(uint256)": {
						"notice": "Get donation by index"
					},
					"getDonationCount()": {
						"notice": "Get total number of donations"
					},
					"getDonationsByDonor(address)": {
						"notice": "Get donations by specific donor"
					},
					"getDonorStats(address)": {
						"notice": "Get donor statistics"
					},
					"getLatestDonations(uint256)": {
						"notice": "Get latest N donations"
					},
					"getStats()": {
						"notice": "Get donation statistics summary"
					},
					"getTopDonors(uint256)": {
						"notice": "Get top donors (limited to first 100)"
					},
					"hasDonated(address)": {
						"notice": "Check if address has donated"
					},
					"minDonation()": {
						"notice": "Minimum donation amount (0.001 ETH)"
					},
					"myStats()": {
						"notice": "Get my donation statistics"
					},
					"quickDonate()": {
						"notice": "Quick donate without message"
					},
					"setMinDonation(uint256)": {
						"notice": "Update minimum donation amount"
					},
					"totalDonations()": {
						"notice": "Total number of donations (ETH + gasless)"
					},
					"totalEthDonated()": {
						"notice": "Total ETH donated"
					},
					"totalGaslessContributions()": {
						"notice": "Total gasless contributions tracked"
					},
					"trackContribution(string)": {
						"notice": "Track contribution without ETH (gasless)"
					},
					"withdraw()": {
						"notice": "Withdraw all funds to beneficiary"
					},
					"withdrawAmount(uint256)": {
						"notice": "Withdraw specific amount"
					}
				},
				"notice": "Demonstrates payable vs non-payable functions and state management",
				"version": 1
			}
		}
	}
}